{
	"src/crowdfunding.sol": {
		"CrowdFunding": {
			"abi": [
				{
					"inputs": [
						{
							"internalType": "uint256",
							"name": "_goal",
							"type": "uint256"
						},
						{
							"internalType": "uint256",
							"name": "_deadline",
							"type": "uint256"
						}
					],
					"stateMutability": "nonpayable",
					"type": "constructor"
				},
				{
					"anonymous": false,
					"inputs": [
						{
							"indexed": false,
							"internalType": "address",
							"name": "_sender",
							"type": "address"
						},
						{
							"indexed": false,
							"internalType": "uint256",
							"name": "_value",
							"type": "uint256"
						}
					],
					"name": "ContributeEvent",
					"type": "event"
				},
				{
					"anonymous": false,
					"inputs": [
						{
							"indexed": false,
							"internalType": "string",
							"name": "_description",
							"type": "string"
						},
						{
							"indexed": false,
							"internalType": "address",
							"name": "_recipient",
							"type": "address"
						},
						{
							"indexed": false,
							"internalType": "uint256",
							"name": "_value",
							"type": "uint256"
						}
					],
					"name": "CreateRequestEvent",
					"type": "event"
				},
				{
					"anonymous": false,
					"inputs": [
						{
							"indexed": false,
							"internalType": "address",
							"name": "_recipient",
							"type": "address"
						},
						{
							"indexed": false,
							"internalType": "uint256",
							"name": "_value",
							"type": "uint256"
						}
					],
					"name": "MakePaymentRequest",
					"type": "event"
				},
				{
					"inputs": [],
					"name": "admin",
					"outputs": [
						{
							"internalType": "address",
							"name": "",
							"type": "address"
						}
					],
					"stateMutability": "view",
					"type": "function"
				},
				{
					"inputs": [],
					"name": "contribute",
					"outputs": [],
					"stateMutability": "payable",
					"type": "function"
				},
				{
					"inputs": [
						{
							"internalType": "address",
							"name": "",
							"type": "address"
						}
					],
					"name": "contributors",
					"outputs": [
						{
							"internalType": "uint256",
							"name": "",
							"type": "uint256"
						}
					],
					"stateMutability": "view",
					"type": "function"
				},
				{
					"inputs": [
						{
							"internalType": "string",
							"name": "_description",
							"type": "string"
						},
						{
							"internalType": "address payable",
							"name": "_recipient",
							"type": "address"
						},
						{
							"internalType": "uint256",
							"name": "_value",
							"type": "uint256"
						}
					],
					"name": "createRequest",
					"outputs": [],
					"stateMutability": "nonpayable",
					"type": "function"
				},
				{
					"inputs": [],
					"name": "deadline",
					"outputs": [
						{
							"internalType": "uint256",
							"name": "",
							"type": "uint256"
						}
					],
					"stateMutability": "view",
					"type": "function"
				},
				{
					"inputs": [],
					"name": "getBalance",
					"outputs": [
						{
							"internalType": "uint256",
							"name": "",
							"type": "uint256"
						}
					],
					"stateMutability": "view",
					"type": "function"
				},
				{
					"inputs": [],
					"name": "getRefund",
					"outputs": [],
					"stateMutability": "nonpayable",
					"type": "function"
				},
				{
					"inputs": [],
					"name": "goal",
					"outputs": [
						{
							"internalType": "uint256",
							"name": "",
							"type": "uint256"
						}
					],
					"stateMutability": "view",
					"type": "function"
				},
				{
					"inputs": [
						{
							"internalType": "uint256",
							"name": "_requestNo",
							"type": "uint256"
						}
					],
					"name": "makePayment",
					"outputs": [],
					"stateMutability": "nonpayable",
					"type": "function"
				},
				{
					"inputs": [],
					"name": "minimumContributor",
					"outputs": [
						{
							"internalType": "uint256",
							"name": "",
							"type": "uint256"
						}
					],
					"stateMutability": "view",
					"type": "function"
				},
				{
					"inputs": [],
					"name": "noOfContributors",
					"outputs": [
						{
							"internalType": "uint256",
							"name": "",
							"type": "uint256"
						}
					],
					"stateMutability": "view",
					"type": "function"
				},
				{
					"inputs": [],
					"name": "numRequests",
					"outputs": [
						{
							"internalType": "uint256",
							"name": "",
							"type": "uint256"
						}
					],
					"stateMutability": "view",
					"type": "function"
				},
				{
					"inputs": [],
					"name": "raisedAmount",
					"outputs": [
						{
							"internalType": "uint256",
							"name": "",
							"type": "uint256"
						}
					],
					"stateMutability": "view",
					"type": "function"
				},
				{
					"inputs": [
						{
							"internalType": "uint256",
							"name": "",
							"type": "uint256"
						}
					],
					"name": "requests",
					"outputs": [
						{
							"internalType": "string",
							"name": "description",
							"type": "string"
						},
						{
							"internalType": "address payable",
							"name": "recipient",
							"type": "address"
						},
						{
							"internalType": "uint256",
							"name": "value",
							"type": "uint256"
						},
						{
							"internalType": "bool",
							"name": "completed",
							"type": "bool"
						},
						{
							"internalType": "uint256",
							"name": "noOfVoters",
							"type": "uint256"
						}
					],
					"stateMutability": "view",
					"type": "function"
				},
				{
					"inputs": [
						{
							"internalType": "uint256",
							"name": "_requestNo",
							"type": "uint256"
						}
					],
					"name": "voteRequest",
					"outputs": [],
					"stateMutability": "nonpayable",
					"type": "function"
				},
				{
					"stateMutability": "payable",
					"type": "receive"
				}
			],
			"devdoc": {
				"kind": "dev",
				"methods": {},
				"version": 1
			},
			"evm": {
				"assembly": "    /* \"src/crowdfunding.sol\":57:3819  contract CrowdFunding{... */\n  mstore(0x40, 0x80)\n    /* \"src/crowdfunding.sol\":913:1095  constructor(uint _goal, uint _deadline){... */\n  callvalue\n  dup1\n  iszero\n  tag_1\n  jumpi\n  revert(0x00, 0x00)\ntag_1:\n  pop\n  mload(0x40)\n  sub(codesize, bytecodeSize)\n  dup1\n  bytecodeSize\n  dup4\n  codecopy\n  dup2\n  dup2\n  add\n  0x40\n  mstore\n  dup2\n  add\n  swap1\n  tag_2\n  swap2\n  swap1\n  tag_3\n  jump\t// in\ntag_2:\n    /* \"src/crowdfunding.sol\":969:974  _goal */\n  dup2\n    /* \"src/crowdfunding.sol\":962:966  goal */\n  0x05\n    /* \"src/crowdfunding.sol\":962:974  goal = _goal */\n  dup2\n  swap1\n  sstore\n  pop\n    /* \"src/crowdfunding.sol\":1013:1022  _deadline */\n  dup1\n    /* \"src/crowdfunding.sol\":995:1010  block.timestamp */\n  timestamp\n    /* \"src/crowdfunding.sol\":995:1022  block.timestamp + _deadline */\n  tag_6\n  swap2\n  swap1\n  tag_7\n  jump\t// in\ntag_6:\n    /* \"src/crowdfunding.sol\":984:992  deadline */\n  0x04\n    /* \"src/crowdfunding.sol\":984:1022  deadline = block.timestamp + _deadline */\n  dup2\n  swap1\n  sstore\n  pop\n    /* \"src/crowdfunding.sol\":1053:1060  100 wei */\n  0x64\n    /* \"src/crowdfunding.sol\":1032:1050  minimumContributor */\n  0x03\n    /* \"src/crowdfunding.sol\":1032:1060  minimumContributor = 100 wei */\n  dup2\n  swap1\n  sstore\n  pop\n    /* \"src/crowdfunding.sol\":1078:1088  msg.sender */\n  caller\n    /* \"src/crowdfunding.sol\":1070:1075  admin */\n  0x01\n  0x00\n    /* \"src/crowdfunding.sol\":1070:1088  admin = msg.sender */\n  0x0100\n  exp\n  dup2\n  sload\n  dup2\n  0xffffffffffffffffffffffffffffffffffffffff\n  mul\n  not\n  and\n  swap1\n  dup4\n  0xffffffffffffffffffffffffffffffffffffffff\n  and\n  mul\n  or\n  swap1\n  sstore\n  pop\n    /* \"src/crowdfunding.sol\":913:1095  constructor(uint _goal, uint _deadline){... */\n  pop\n  pop\n    /* \"src/crowdfunding.sol\":57:3819  contract CrowdFunding{... */\n  jump(tag_8)\n    /* \"#utility.yul\":88:205   */\ntag_10:\n    /* \"#utility.yul\":197:198   */\n  0x00\n    /* \"#utility.yul\":194:195   */\n  0x00\n    /* \"#utility.yul\":187:199   */\n  revert\n    /* \"#utility.yul\":334:411   */\ntag_12:\n    /* \"#utility.yul\":371:378   */\n  0x00\n    /* \"#utility.yul\":400:405   */\n  dup2\n    /* \"#utility.yul\":389:405   */\n  swap1\n  pop\n    /* \"#utility.yul\":334:411   */\n  swap2\n  swap1\n  pop\n  jump\t// out\n    /* \"#utility.yul\":417:539   */\ntag_13:\n    /* \"#utility.yul\":490:514   */\n  tag_22\n    /* \"#utility.yul\":508:513   */\n  dup2\n    /* \"#utility.yul\":490:514   */\n  tag_12\n  jump\t// in\ntag_22:\n    /* \"#utility.yul\":483:488   */\n  dup2\n    /* \"#utility.yul\":480:515   */\n  eq\n    /* \"#utility.yul\":470:533   */\n  tag_23\n  jumpi\n    /* \"#utility.yul\":529:530   */\n  0x00\n    /* \"#utility.yul\":526:527   */\n  0x00\n    /* \"#utility.yul\":519:531   */\n  revert\n    /* \"#utility.yul\":470:533   */\ntag_23:\n    /* \"#utility.yul\":417:539   */\n  pop\n  jump\t// out\n    /* \"#utility.yul\":545:688   */\ntag_14:\n    /* \"#utility.yul\":602:607   */\n  0x00\n    /* \"#utility.yul\":633:639   */\n  dup2\n    /* \"#utility.yul\":627:640   */\n  mload\n    /* \"#utility.yul\":618:640   */\n  swap1\n  pop\n    /* \"#utility.yul\":649:682   */\n  tag_25\n    /* \"#utility.yul\":676:681   */\n  dup2\n    /* \"#utility.yul\":649:682   */\n  tag_13\n  jump\t// in\ntag_25:\n    /* \"#utility.yul\":545:688   */\n  swap3\n  swap2\n  pop\n  pop\n  jump\t// out\n    /* \"#utility.yul\":694:1201   */\ntag_3:\n    /* \"#utility.yul\":773:779   */\n  0x00\n    /* \"#utility.yul\":781:787   */\n  0x00\n    /* \"#utility.yul\":830:832   */\n  0x40\n    /* \"#utility.yul\":818:827   */\n  dup4\n    /* \"#utility.yul\":809:816   */\n  dup6\n    /* \"#utility.yul\":805:828   */\n  sub\n    /* \"#utility.yul\":801:833   */\n  slt\n    /* \"#utility.yul\":798:917   */\n  iszero\n  tag_27\n  jumpi\n    /* \"#utility.yul\":836:915   */\n  tag_28\n  tag_10\n  jump\t// in\ntag_28:\n    /* \"#utility.yul\":798:917   */\ntag_27:\n    /* \"#utility.yul\":956:957   */\n  0x00\n    /* \"#utility.yul\":981:1045   */\n  tag_29\n    /* \"#utility.yul\":1037:1044   */\n  dup6\n    /* \"#utility.yul\":1028:1034   */\n  dup3\n    /* \"#utility.yul\":1017:1026   */\n  dup7\n    /* \"#utility.yul\":1013:1035   */\n  add\n    /* \"#utility.yul\":981:1045   */\n  tag_14\n  jump\t// in\ntag_29:\n    /* \"#utility.yul\":971:1045   */\n  swap3\n  pop\n    /* \"#utility.yul\":927:1055   */\n  pop\n    /* \"#utility.yul\":1094:1096   */\n  0x20\n    /* \"#utility.yul\":1120:1184   */\n  tag_30\n    /* \"#utility.yul\":1176:1183   */\n  dup6\n    /* \"#utility.yul\":1167:1173   */\n  dup3\n    /* \"#utility.yul\":1156:1165   */\n  dup7\n    /* \"#utility.yul\":1152:1174   */\n  add\n    /* \"#utility.yul\":1120:1184   */\n  tag_14\n  jump\t// in\ntag_30:\n    /* \"#utility.yul\":1110:1184   */\n  swap2\n  pop\n    /* \"#utility.yul\":1065:1194   */\n  pop\n    /* \"#utility.yul\":694:1201   */\n  swap3\n  pop\n  swap3\n  swap1\n  pop\n  jump\t// out\n    /* \"#utility.yul\":1207:1387   */\ntag_15:\n    /* \"#utility.yul\":1255:1332   */\n  0x4e487b7100000000000000000000000000000000000000000000000000000000\n    /* \"#utility.yul\":1252:1253   */\n  0x00\n    /* \"#utility.yul\":1245:1333   */\n  mstore\n    /* \"#utility.yul\":1352:1356   */\n  0x11\n    /* \"#utility.yul\":1349:1350   */\n  0x04\n    /* \"#utility.yul\":1342:1357   */\n  mstore\n    /* \"#utility.yul\":1376:1380   */\n  0x24\n    /* \"#utility.yul\":1373:1374   */\n  0x00\n    /* \"#utility.yul\":1366:1381   */\n  revert\n    /* \"#utility.yul\":1393:1584   */\ntag_7:\n    /* \"#utility.yul\":1433:1436   */\n  0x00\n    /* \"#utility.yul\":1452:1472   */\n  tag_33\n    /* \"#utility.yul\":1470:1471   */\n  dup3\n    /* \"#utility.yul\":1452:1472   */\n  tag_12\n  jump\t// in\ntag_33:\n    /* \"#utility.yul\":1447:1472   */\n  swap2\n  pop\n    /* \"#utility.yul\":1486:1506   */\n  tag_34\n    /* \"#utility.yul\":1504:1505   */\n  dup4\n    /* \"#utility.yul\":1486:1506   */\n  tag_12\n  jump\t// in\ntag_34:\n    /* \"#utility.yul\":1481:1506   */\n  swap3\n  pop\n    /* \"#utility.yul\":1529:1530   */\n  dup3\n    /* \"#utility.yul\":1526:1527   */\n  dup3\n    /* \"#utility.yul\":1522:1531   */\n  add\n    /* \"#utility.yul\":1515:1531   */\n  swap1\n  pop\n    /* \"#utility.yul\":1550:1553   */\n  dup1\n    /* \"#utility.yul\":1547:1548   */\n  dup3\n    /* \"#utility.yul\":1544:1554   */\n  gt\n    /* \"#utility.yul\":1541:1577   */\n  iszero\n  tag_35\n  jumpi\n    /* \"#utility.yul\":1557:1575   */\n  tag_36\n  tag_15\n  jump\t// in\ntag_36:\n    /* \"#utility.yul\":1541:1577   */\ntag_35:\n    /* \"#utility.yul\":1393:1584   */\n  swap3\n  swap2\n  pop\n  pop\n  jump\t// out\n    /* \"src/crowdfunding.sol\":57:3819  contract CrowdFunding{... */\ntag_8:\n  dataSize(sub_0)\n  dup1\n  dataOffset(sub_0)\n  0x00\n  codecopy\n  0x00\n  return\nstop\n\nsub_0: assembly {\n        /* \"src/crowdfunding.sol\":57:3819  contract CrowdFunding{... */\n      mstore(0x40, 0x80)\n      jumpi(tag_1, lt(calldatasize, 0x04))\n      shr(0xe0, calldataload(0x00))\n      dup1\n      0x5114cb52\n      gt\n      tag_18\n      jumpi\n      dup1\n      0xb2d5ae44\n      gt\n      tag_19\n      jumpi\n      dup1\n      0xb2d5ae44\n      eq\n      tag_14\n      jumpi\n      dup1\n      0xc59ee1dc\n      eq\n      tag_15\n      jumpi\n      dup1\n      0xd7bb99ba\n      eq\n      tag_16\n      jumpi\n      dup1\n      0xf851a440\n      eq\n      tag_17\n      jumpi\n      jump(tag_2)\n    tag_19:\n      dup1\n      0x5114cb52\n      eq\n      tag_10\n      jumpi\n      dup1\n      0x5c4627e9\n      eq\n      tag_11\n      jumpi\n      dup1\n      0x81d12c58\n      eq\n      tag_12\n      jumpi\n      dup1\n      0x9fb42b1f\n      eq\n      tag_13\n      jumpi\n      jump(tag_2)\n    tag_18:\n      dup1\n      0x29dcb0cf\n      gt\n      tag_20\n      jumpi\n      dup1\n      0x29dcb0cf\n      eq\n      tag_6\n      jumpi\n      dup1\n      0x40193883\n      eq\n      tag_7\n      jumpi\n      dup1\n      0x4cb6f4a5\n      eq\n      tag_8\n      jumpi\n      dup1\n      0x4e260f6f\n      eq\n      tag_9\n      jumpi\n      jump(tag_2)\n    tag_20:\n      dup1\n      0x12065fe0\n      eq\n      tag_3\n      jumpi\n      dup1\n      0x1b16bb5c\n      eq\n      tag_4\n      jumpi\n      dup1\n      0x1f6d4942\n      eq\n      tag_5\n      jumpi\n      jump(tag_2)\n    tag_1:\n      jumpi(tag_2, calldatasize)\n        /* \"src/crowdfunding.sol\":1528:1540  contribute() */\n      tag_23\n        /* \"src/crowdfunding.sol\":1528:1538  contribute */\n      tag_24\n        /* \"src/crowdfunding.sol\":1528:1540  contribute() */\n      jump\t// in\n    tag_23:\n        /* \"src/crowdfunding.sol\":57:3819  contract CrowdFunding{... */\n      stop\n    tag_2:\n      revert(0x00, 0x00)\n        /* \"src/crowdfunding.sol\":1553:1645  function getBalance() public view returns(uint){... */\n    tag_3:\n      callvalue\n      dup1\n      iszero\n      tag_25\n      jumpi\n      revert(0x00, 0x00)\n    tag_25:\n      pop\n      tag_26\n      tag_27\n      jump\t// in\n    tag_26:\n      mload(0x40)\n      tag_28\n      swap2\n      swap1\n      tag_29\n      jump\t// in\n    tag_28:\n      mload(0x40)\n      dup1\n      swap2\n      sub\n      swap1\n      return\n        /* \"src/crowdfunding.sol\":2387:2852  function createRequest(string memory _description, address payable _recipient, uint _value) public onlyAdmin{... */\n    tag_4:\n      callvalue\n      dup1\n      iszero\n      tag_30\n      jumpi\n      revert(0x00, 0x00)\n    tag_30:\n      pop\n      tag_31\n      0x04\n      dup1\n      calldatasize\n      sub\n      dup2\n      add\n      swap1\n      tag_32\n      swap2\n      swap1\n      tag_33\n      jump\t// in\n    tag_32:\n      tag_34\n      jump\t// in\n    tag_31:\n      stop\n        /* \"src/crowdfunding.sol\":84:128  mapping(address => uint) public contributors */\n    tag_5:\n      callvalue\n      dup1\n      iszero\n      tag_35\n      jumpi\n      revert(0x00, 0x00)\n    tag_35:\n      pop\n      tag_36\n      0x04\n      dup1\n      calldatasize\n      sub\n      dup2\n      add\n      swap1\n      tag_37\n      swap2\n      swap1\n      tag_38\n      jump\t// in\n    tag_37:\n      tag_39\n      jump\t// in\n    tag_36:\n      mload(0x40)\n      tag_40\n      swap2\n      swap1\n      tag_29\n      jump\t// in\n    tag_40:\n      mload(0x40)\n      dup1\n      swap2\n      sub\n      swap1\n      return\n        /* \"src/crowdfunding.sol\":230:250  uint public deadline */\n    tag_6:\n      callvalue\n      dup1\n      iszero\n      tag_41\n      jumpi\n      revert(0x00, 0x00)\n    tag_41:\n      pop\n      tag_42\n      tag_43\n      jump\t// in\n    tag_42:\n      mload(0x40)\n      tag_44\n      swap2\n      swap1\n      tag_29\n      jump\t// in\n    tag_44:\n      mload(0x40)\n      dup1\n      swap2\n      sub\n      swap1\n      return\n        /* \"src/crowdfunding.sol\":269:285  uint public goal */\n    tag_7:\n      callvalue\n      dup1\n      iszero\n      tag_45\n      jumpi\n      revert(0x00, 0x00)\n    tag_45:\n      pop\n      tag_46\n      tag_47\n      jump\t// in\n    tag_46:\n      mload(0x40)\n      tag_48\n      swap2\n      swap1\n      tag_29\n      jump\t// in\n    tag_48:\n      mload(0x40)\n      dup1\n      swap2\n      sub\n      swap1\n      return\n        /* \"src/crowdfunding.sol\":2963:3329  function voteRequest(uint _requestNo) public{... */\n    tag_8:\n      callvalue\n      dup1\n      iszero\n      tag_49\n      jumpi\n      revert(0x00, 0x00)\n    tag_49:\n      pop\n      tag_50\n      0x04\n      dup1\n      calldatasize\n      sub\n      dup2\n      add\n      swap1\n      tag_51\n      swap2\n      swap1\n      tag_52\n      jump\t// in\n    tag_51:\n      tag_53\n      jump\t// in\n    tag_50:\n      stop\n        /* \"src/crowdfunding.sol\":160:188  uint public noOfContributors */\n    tag_9:\n      callvalue\n      dup1\n      iszero\n      tag_54\n      jumpi\n      revert(0x00, 0x00)\n    tag_54:\n      pop\n      tag_55\n      tag_56\n      jump\t// in\n    tag_55:\n      mload(0x40)\n      tag_57\n      swap2\n      swap1\n      tag_29\n      jump\t// in\n    tag_57:\n      mload(0x40)\n      dup1\n      swap2\n      sub\n      swap1\n      return\n        /* \"src/crowdfunding.sol\":3335:3817  function makePayment(uint _requestNo) public onlyAdmin{... */\n    tag_10:\n      callvalue\n      dup1\n      iszero\n      tag_58\n      jumpi\n      revert(0x00, 0x00)\n    tag_58:\n      pop\n      tag_59\n      0x04\n      dup1\n      calldatasize\n      sub\n      dup2\n      add\n      swap1\n      tag_60\n      swap2\n      swap1\n      tag_52\n      jump\t// in\n    tag_60:\n      tag_61\n      jump\t// in\n    tag_59:\n      stop\n        /* \"src/crowdfunding.sol\":194:224  uint public minimumContributor */\n    tag_11:\n      callvalue\n      dup1\n      iszero\n      tag_62\n      jumpi\n      revert(0x00, 0x00)\n    tag_62:\n      pop\n      tag_63\n      tag_64\n      jump\t// in\n    tag_63:\n      mload(0x40)\n      tag_65\n      swap2\n      swap1\n      tag_29\n      jump\t// in\n    tag_65:\n      mload(0x40)\n      dup1\n      swap2\n      sub\n      swap1\n      return\n        /* \"src/crowdfunding.sol\":775:815  mapping(uint => Request) public requests */\n    tag_12:\n      callvalue\n      dup1\n      iszero\n      tag_66\n      jumpi\n      revert(0x00, 0x00)\n    tag_66:\n      pop\n      tag_67\n      0x04\n      dup1\n      calldatasize\n      sub\n      dup2\n      add\n      swap1\n      tag_68\n      swap2\n      swap1\n      tag_52\n      jump\t// in\n    tag_68:\n      tag_69\n      jump\t// in\n    tag_67:\n      mload(0x40)\n      tag_70\n      swap6\n      swap5\n      swap4\n      swap3\n      swap2\n      swap1\n      tag_71\n      jump\t// in\n    tag_70:\n      mload(0x40)\n      dup1\n      swap2\n      sub\n      swap1\n      return\n        /* \"src/crowdfunding.sol\":883:906  uint public numRequests */\n    tag_13:\n      callvalue\n      dup1\n      iszero\n      tag_72\n      jumpi\n      revert(0x00, 0x00)\n    tag_72:\n      pop\n      tag_73\n      tag_74\n      jump\t// in\n    tag_73:\n      mload(0x40)\n      tag_75\n      swap2\n      swap1\n      tag_29\n      jump\t// in\n    tag_75:\n      mload(0x40)\n      dup1\n      swap2\n      sub\n      swap1\n      return\n        /* \"src/crowdfunding.sol\":1749:2261  function getRefund() public{... */\n    tag_14:\n      callvalue\n      dup1\n      iszero\n      tag_76\n      jumpi\n      revert(0x00, 0x00)\n    tag_76:\n      pop\n      tag_77\n      tag_78\n      jump\t// in\n    tag_77:\n      stop\n        /* \"src/crowdfunding.sol\":291:315  uint public raisedAmount */\n    tag_15:\n      callvalue\n      dup1\n      iszero\n      tag_79\n      jumpi\n      revert(0x00, 0x00)\n    tag_79:\n      pop\n      tag_80\n      tag_81\n      jump\t// in\n    tag_80:\n      mload(0x40)\n      tag_82\n      swap2\n      swap1\n      tag_29\n      jump\t// in\n    tag_82:\n      mload(0x40)\n      dup1\n      swap2\n      sub\n      swap1\n      return\n        /* \"src/crowdfunding.sol\":1101:1485  function contribute() public payable{... */\n    tag_16:\n      tag_83\n      tag_24\n      jump\t// in\n    tag_83:\n      stop\n        /* \"src/crowdfunding.sol\":134:154  address public admin */\n    tag_17:\n      callvalue\n      dup1\n      iszero\n      tag_84\n      jumpi\n      revert(0x00, 0x00)\n    tag_84:\n      pop\n      tag_85\n      tag_86\n      jump\t// in\n    tag_85:\n      mload(0x40)\n      tag_87\n      swap2\n      swap1\n      tag_88\n      jump\t// in\n    tag_87:\n      mload(0x40)\n      dup1\n      swap2\n      sub\n      swap1\n      return\n        /* \"src/crowdfunding.sol\":1101:1485  function contribute() public payable{... */\n    tag_24:\n        /* \"src/crowdfunding.sol\":1173:1181  deadline */\n      sload(0x04)\n        /* \"src/crowdfunding.sol\":1155:1170  block.timestamp */\n      timestamp\n        /* \"src/crowdfunding.sol\":1155:1181  block.timestamp < deadline */\n      lt\n        /* \"src/crowdfunding.sol\":1147:1206  require(block.timestamp < deadline, \"Deadline has passed!\") */\n      tag_90\n      jumpi\n      mload(0x40)\n      0x08c379a000000000000000000000000000000000000000000000000000000000\n      dup2\n      mstore\n      0x04\n      add\n      tag_91\n      swap1\n      tag_92\n      jump\t// in\n    tag_91:\n      mload(0x40)\n      dup1\n      swap2\n      sub\n      swap1\n      revert\n    tag_90:\n        /* \"src/crowdfunding.sol\":1237:1255  minimumContributor */\n      sload(0x03)\n        /* \"src/crowdfunding.sol\":1224:1233  msg.value */\n      callvalue\n        /* \"src/crowdfunding.sol\":1224:1255  msg.value >= minimumContributor */\n      lt\n      iszero\n        /* \"src/crowdfunding.sol\":1216:1256  require(msg.value >= minimumContributor) */\n      tag_93\n      jumpi\n      revert(0x00, 0x00)\n    tag_93:\n        /* \"src/crowdfunding.sol\":1298:1299  0 */\n      0x00\n        /* \"src/crowdfunding.sol\":1270:1282  contributors */\n      0x00\n        /* \"src/crowdfunding.sol\":1270:1294  contributors[msg.sender] */\n      0x00\n        /* \"src/crowdfunding.sol\":1283:1293  msg.sender */\n      caller\n        /* \"src/crowdfunding.sol\":1270:1294  contributors[msg.sender] */\n      0xffffffffffffffffffffffffffffffffffffffff\n      and\n      0xffffffffffffffffffffffffffffffffffffffff\n      and\n      dup2\n      mstore\n      0x20\n      add\n      swap1\n      dup2\n      mstore\n      0x20\n      add\n      0x00\n      keccak256\n      sload\n        /* \"src/crowdfunding.sol\":1270:1299  contributors[msg.sender] == 0 */\n      sub\n        /* \"src/crowdfunding.sol\":1267:1343  if(contributors[msg.sender] == 0){... */\n      tag_94\n      jumpi\n        /* \"src/crowdfunding.sol\":1314:1330  noOfContributors */\n      0x02\n      0x00\n        /* \"src/crowdfunding.sol\":1314:1332  noOfContributors++ */\n      dup2\n      sload\n      dup1\n      swap3\n      swap2\n      swap1\n      tag_95\n      swap1\n      tag_96\n      jump\t// in\n    tag_95:\n      swap2\n      swap1\n      pop\n      sstore\n      pop\n        /* \"src/crowdfunding.sol\":1267:1343  if(contributors[msg.sender] == 0){... */\n    tag_94:\n        /* \"src/crowdfunding.sol\":1380:1389  msg.value */\n      callvalue\n        /* \"src/crowdfunding.sol\":1352:1364  contributors */\n      0x00\n        /* \"src/crowdfunding.sol\":1352:1376  contributors[msg.sender] */\n      0x00\n        /* \"src/crowdfunding.sol\":1365:1375  msg.sender */\n      caller\n        /* \"src/crowdfunding.sol\":1352:1376  contributors[msg.sender] */\n      0xffffffffffffffffffffffffffffffffffffffff\n      and\n      0xffffffffffffffffffffffffffffffffffffffff\n      and\n      dup2\n      mstore\n      0x20\n      add\n      swap1\n      dup2\n      mstore\n      0x20\n      add\n      0x00\n      keccak256\n      0x00\n        /* \"src/crowdfunding.sol\":1352:1389  contributors[msg.sender] += msg.value */\n      dup3\n      dup3\n      sload\n      tag_97\n      swap2\n      swap1\n      tag_98\n      jump\t// in\n    tag_97:\n      swap3\n      pop\n      pop\n      dup2\n      swap1\n      sstore\n      pop\n        /* \"src/crowdfunding.sol\":1415:1424  msg.value */\n      callvalue\n        /* \"src/crowdfunding.sol\":1399:1411  raisedAmount */\n      0x06\n      0x00\n        /* \"src/crowdfunding.sol\":1399:1424  raisedAmount += msg.value */\n      dup3\n      dup3\n      sload\n      tag_99\n      swap2\n      swap1\n      tag_98\n      jump\t// in\n    tag_99:\n      swap3\n      pop\n      pop\n      dup2\n      swap1\n      sstore\n      pop\n        /* \"src/crowdfunding.sol\":1440:1478  ContributeEvent(msg.sender, msg.value) */\n      0x2daf61dec57a2c194e9e87958b1a40a5c236b5e8c6041655d664ddbd16c29320\n        /* \"src/crowdfunding.sol\":1456:1466  msg.sender */\n      caller\n        /* \"src/crowdfunding.sol\":1468:1477  msg.value */\n      callvalue\n        /* \"src/crowdfunding.sol\":1440:1478  ContributeEvent(msg.sender, msg.value) */\n      mload(0x40)\n      tag_100\n      swap3\n      swap2\n      swap1\n      tag_101\n      jump\t// in\n    tag_100:\n      mload(0x40)\n      dup1\n      swap2\n      sub\n      swap1\n      log1\n        /* \"src/crowdfunding.sol\":1101:1485  function contribute() public payable{... */\n      jump\t// out\n        /* \"src/crowdfunding.sol\":1553:1645  function getBalance() public view returns(uint){... */\n    tag_27:\n        /* \"src/crowdfunding.sol\":1595:1599  uint */\n      0x00\n        /* \"src/crowdfunding.sol\":1617:1638  address(this).balance */\n      selfbalance\n        /* \"src/crowdfunding.sol\":1610:1638  return address(this).balance */\n      swap1\n      pop\n        /* \"src/crowdfunding.sol\":1553:1645  function getBalance() public view returns(uint){... */\n      swap1\n      jump\t// out\n        /* \"src/crowdfunding.sol\":2387:2852  function createRequest(string memory _description, address payable _recipient, uint _value) public onlyAdmin{... */\n    tag_34:\n        /* \"src/crowdfunding.sol\":2319:2324  admin */\n      0x01\n      0x00\n      swap1\n      sload\n      swap1\n      0x0100\n      exp\n      swap1\n      div\n      0xffffffffffffffffffffffffffffffffffffffff\n      and\n        /* \"src/crowdfunding.sol\":2305:2324  msg.sender == admin */\n      0xffffffffffffffffffffffffffffffffffffffff\n      and\n        /* \"src/crowdfunding.sol\":2305:2315  msg.sender */\n      caller\n        /* \"src/crowdfunding.sol\":2305:2324  msg.sender == admin */\n      0xffffffffffffffffffffffffffffffffffffffff\n      and\n      eq\n        /* \"src/crowdfunding.sol\":2297:2363  require(msg.sender == admin, \"Only admin can call this function!\") */\n      tag_104\n      jumpi\n      mload(0x40)\n      0x08c379a000000000000000000000000000000000000000000000000000000000\n      dup2\n      mstore\n      0x04\n      add\n      tag_105\n      swap1\n      tag_106\n      jump\t// in\n    tag_105:\n      mload(0x40)\n      dup1\n      swap2\n      sub\n      swap1\n      revert\n    tag_104:\n        /* \"src/crowdfunding.sol\":2505:2531  Request storage newRequest */\n      0x00\n        /* \"src/crowdfunding.sol\":2534:2542  requests */\n      0x07\n        /* \"src/crowdfunding.sol\":2534:2555  requests[numRequests] */\n      0x00\n        /* \"src/crowdfunding.sol\":2543:2554  numRequests */\n      sload(0x08)\n        /* \"src/crowdfunding.sol\":2534:2555  requests[numRequests] */\n      dup2\n      mstore\n      0x20\n      add\n      swap1\n      dup2\n      mstore\n      0x20\n      add\n      0x00\n      keccak256\n        /* \"src/crowdfunding.sol\":2505:2555  Request storage newRequest = requests[numRequests] */\n      swap1\n      pop\n        /* \"src/crowdfunding.sol\":2565:2576  numRequests */\n      0x08\n      0x00\n        /* \"src/crowdfunding.sol\":2565:2578  numRequests++ */\n      dup2\n      sload\n      dup1\n      swap3\n      swap2\n      swap1\n      tag_108\n      swap1\n      tag_96\n      jump\t// in\n    tag_108:\n      swap2\n      swap1\n      pop\n      sstore\n      pop\n        /* \"src/crowdfunding.sol\":2614:2626  _description */\n      dup4\n        /* \"src/crowdfunding.sol\":2589:2599  newRequest */\n      dup2\n        /* \"src/crowdfunding.sol\":2589:2611  newRequest.description */\n      0x00\n      add\n        /* \"src/crowdfunding.sol\":2589:2626  newRequest.description = _description */\n      swap1\n      dup2\n      tag_109\n      swap2\n      swap1\n      tag_110\n      jump\t// in\n    tag_109:\n      pop\n        /* \"src/crowdfunding.sol\":2659:2669  _recipient */\n      dup3\n        /* \"src/crowdfunding.sol\":2636:2646  newRequest */\n      dup2\n        /* \"src/crowdfunding.sol\":2636:2656  newRequest.recipient */\n      0x01\n      add\n      0x00\n        /* \"src/crowdfunding.sol\":2636:2669  newRequest.recipient = _recipient */\n      0x0100\n      exp\n      dup2\n      sload\n      dup2\n      0xffffffffffffffffffffffffffffffffffffffff\n      mul\n      not\n      and\n      swap1\n      dup4\n      0xffffffffffffffffffffffffffffffffffffffff\n      and\n      mul\n      or\n      swap1\n      sstore\n      pop\n        /* \"src/crowdfunding.sol\":2698:2704  _value */\n      dup2\n        /* \"src/crowdfunding.sol\":2679:2689  newRequest */\n      dup2\n        /* \"src/crowdfunding.sol\":2679:2695  newRequest.value */\n      0x02\n      add\n        /* \"src/crowdfunding.sol\":2679:2704  newRequest.value = _value */\n      dup2\n      swap1\n      sstore\n      pop\n        /* \"src/crowdfunding.sol\":2737:2742  false */\n      0x00\n        /* \"src/crowdfunding.sol\":2714:2724  newRequest */\n      dup2\n        /* \"src/crowdfunding.sol\":2714:2734  newRequest.completed */\n      0x03\n      add\n      0x00\n        /* \"src/crowdfunding.sol\":2714:2742  newRequest.completed = false */\n      0x0100\n      exp\n      dup2\n      sload\n      dup2\n      0xff\n      mul\n      not\n      and\n      swap1\n      dup4\n      iszero\n      iszero\n      mul\n      or\n      swap1\n      sstore\n      pop\n        /* \"src/crowdfunding.sol\":2776:2777  0 */\n      0x00\n        /* \"src/crowdfunding.sol\":2752:2762  newRequest */\n      dup2\n        /* \"src/crowdfunding.sol\":2752:2773  newRequest.noOfVoters */\n      0x04\n      add\n        /* \"src/crowdfunding.sol\":2752:2777  newRequest.noOfVoters = 0 */\n      dup2\n      swap1\n      sstore\n      pop\n        /* \"src/crowdfunding.sol\":2793:2845  CreateRequestEvent(_description, _recipient, _value) */\n      0x5392bd80651676ccaaedec1afbe841d47e369223df0ba1586110b6426ee87a3a\n        /* \"src/crowdfunding.sol\":2812:2824  _description */\n      dup5\n        /* \"src/crowdfunding.sol\":2826:2836  _recipient */\n      dup5\n        /* \"src/crowdfunding.sol\":2838:2844  _value */\n      dup5\n        /* \"src/crowdfunding.sol\":2793:2845  CreateRequestEvent(_description, _recipient, _value) */\n      mload(0x40)\n      tag_111\n      swap4\n      swap3\n      swap2\n      swap1\n      tag_112\n      jump\t// in\n    tag_111:\n      mload(0x40)\n      dup1\n      swap2\n      sub\n      swap1\n      log1\n        /* \"src/crowdfunding.sol\":2495:2852  {... */\n      pop\n        /* \"src/crowdfunding.sol\":2387:2852  function createRequest(string memory _description, address payable _recipient, uint _value) public onlyAdmin{... */\n      pop\n      pop\n      pop\n      jump\t// out\n        /* \"src/crowdfunding.sol\":84:128  mapping(address => uint) public contributors */\n    tag_39:\n      mstore(0x20, 0x00)\n      dup1\n      0x00\n      mstore\n      keccak256(0x00, 0x40)\n      0x00\n      swap2\n      pop\n      swap1\n      pop\n      sload\n      dup2\n      jump\t// out\n        /* \"src/crowdfunding.sol\":230:250  uint public deadline */\n    tag_43:\n      sload(0x04)\n      dup2\n      jump\t// out\n        /* \"src/crowdfunding.sol\":269:285  uint public goal */\n    tag_47:\n      sload(0x05)\n      dup2\n      jump\t// out\n        /* \"src/crowdfunding.sol\":2963:3329  function voteRequest(uint _requestNo) public{... */\n    tag_53:\n        /* \"src/crowdfunding.sol\":3052:3053  0 */\n      0x00\n        /* \"src/crowdfunding.sol\":3025:3037  contributors */\n      0x00\n        /* \"src/crowdfunding.sol\":3025:3049  contributors[msg.sender] */\n      0x00\n        /* \"src/crowdfunding.sol\":3038:3048  msg.sender */\n      caller\n        /* \"src/crowdfunding.sol\":3025:3049  contributors[msg.sender] */\n      0xffffffffffffffffffffffffffffffffffffffff\n      and\n      0xffffffffffffffffffffffffffffffffffffffff\n      and\n      dup2\n      mstore\n      0x20\n      add\n      swap1\n      dup2\n      mstore\n      0x20\n      add\n      0x00\n      keccak256\n      sload\n        /* \"src/crowdfunding.sol\":3025:3053  contributors[msg.sender] > 0 */\n      gt\n        /* \"src/crowdfunding.sol\":3017:3095  require(contributors[msg.sender] > 0, \"You must to be a contributor to vote!\") */\n      tag_114\n      jumpi\n      mload(0x40)\n      0x08c379a000000000000000000000000000000000000000000000000000000000\n      dup2\n      mstore\n      0x04\n      add\n      tag_115\n      swap1\n      tag_116\n      jump\t// in\n    tag_115:\n      mload(0x40)\n      dup1\n      swap2\n      sub\n      swap1\n      revert\n    tag_114:\n        /* \"src/crowdfunding.sol\":3105:3132  Request storage thisRequest */\n      0x00\n        /* \"src/crowdfunding.sol\":3135:3143  requests */\n      0x07\n        /* \"src/crowdfunding.sol\":3135:3155  requests[_requestNo] */\n      0x00\n        /* \"src/crowdfunding.sol\":3144:3154  _requestNo */\n      dup4\n        /* \"src/crowdfunding.sol\":3135:3155  requests[_requestNo] */\n      dup2\n      mstore\n      0x20\n      add\n      swap1\n      dup2\n      mstore\n      0x20\n      add\n      0x00\n      keccak256\n        /* \"src/crowdfunding.sol\":3105:3155  Request storage thisRequest = requests[_requestNo] */\n      swap1\n      pop\n        /* \"src/crowdfunding.sol\":3208:3213  false */\n      0x00\n        /* \"src/crowdfunding.sol\":3174:3213  thisRequest.voters[msg.sender] == false */\n      iszero\n      iszero\n        /* \"src/crowdfunding.sol\":3174:3185  thisRequest */\n      dup2\n        /* \"src/crowdfunding.sol\":3174:3192  thisRequest.voters */\n      0x05\n      add\n        /* \"src/crowdfunding.sol\":3174:3204  thisRequest.voters[msg.sender] */\n      0x00\n        /* \"src/crowdfunding.sol\":3193:3203  msg.sender */\n      caller\n        /* \"src/crowdfunding.sol\":3174:3204  thisRequest.voters[msg.sender] */\n      0xffffffffffffffffffffffffffffffffffffffff\n      and\n      0xffffffffffffffffffffffffffffffffffffffff\n      and\n      dup2\n      mstore\n      0x20\n      add\n      swap1\n      dup2\n      mstore\n      0x20\n      add\n      0x00\n      keccak256\n      0x00\n      swap1\n      sload\n      swap1\n      0x0100\n      exp\n      swap1\n      div\n      0xff\n      and\n        /* \"src/crowdfunding.sol\":3174:3213  thisRequest.voters[msg.sender] == false */\n      iszero\n      iszero\n      eq\n        /* \"src/crowdfunding.sol\":3166:3241  require(thisRequest.voters[msg.sender] == false, \"You have already voted!\") */\n      tag_117\n      jumpi\n      mload(0x40)\n      0x08c379a000000000000000000000000000000000000000000000000000000000\n      dup2\n      mstore\n      0x04\n      add\n      tag_118\n      swap1\n      tag_119\n      jump\t// in\n    tag_118:\n      mload(0x40)\n      dup1\n      swap2\n      sub\n      swap1\n      revert\n    tag_117:\n        /* \"src/crowdfunding.sol\":3284:3288  true */\n      0x01\n        /* \"src/crowdfunding.sol\":3251:3262  thisRequest */\n      dup2\n        /* \"src/crowdfunding.sol\":3251:3269  thisRequest.voters */\n      0x05\n      add\n        /* \"src/crowdfunding.sol\":3251:3281  thisRequest.voters[msg.sender] */\n      0x00\n        /* \"src/crowdfunding.sol\":3270:3280  msg.sender */\n      caller\n        /* \"src/crowdfunding.sol\":3251:3281  thisRequest.voters[msg.sender] */\n      0xffffffffffffffffffffffffffffffffffffffff\n      and\n      0xffffffffffffffffffffffffffffffffffffffff\n      and\n      dup2\n      mstore\n      0x20\n      add\n      swap1\n      dup2\n      mstore\n      0x20\n      add\n      0x00\n      keccak256\n      0x00\n        /* \"src/crowdfunding.sol\":3251:3288  thisRequest.voters[msg.sender] = true */\n      0x0100\n      exp\n      dup2\n      sload\n      dup2\n      0xff\n      mul\n      not\n      and\n      swap1\n      dup4\n      iszero\n      iszero\n      mul\n      or\n      swap1\n      sstore\n      pop\n        /* \"src/crowdfunding.sol\":3298:3309  thisRequest */\n      dup1\n        /* \"src/crowdfunding.sol\":3298:3320  thisRequest.noOfVoters */\n      0x04\n      add\n      0x00\n        /* \"src/crowdfunding.sol\":3298:3322  thisRequest.noOfVoters++ */\n      dup2\n      sload\n      dup1\n      swap3\n      swap2\n      swap1\n      tag_120\n      swap1\n      tag_96\n      jump\t// in\n    tag_120:\n      swap2\n      swap1\n      pop\n      sstore\n      pop\n        /* \"src/crowdfunding.sol\":3007:3329  {... */\n      pop\n        /* \"src/crowdfunding.sol\":2963:3329  function voteRequest(uint _requestNo) public{... */\n      pop\n      jump\t// out\n        /* \"src/crowdfunding.sol\":160:188  uint public noOfContributors */\n    tag_56:\n      sload(0x02)\n      dup2\n      jump\t// out\n        /* \"src/crowdfunding.sol\":3335:3817  function makePayment(uint _requestNo) public onlyAdmin{... */\n    tag_61:\n        /* \"src/crowdfunding.sol\":2319:2324  admin */\n      0x01\n      0x00\n      swap1\n      sload\n      swap1\n      0x0100\n      exp\n      swap1\n      div\n      0xffffffffffffffffffffffffffffffffffffffff\n      and\n        /* \"src/crowdfunding.sol\":2305:2324  msg.sender == admin */\n      0xffffffffffffffffffffffffffffffffffffffff\n      and\n        /* \"src/crowdfunding.sol\":2305:2315  msg.sender */\n      caller\n        /* \"src/crowdfunding.sol\":2305:2324  msg.sender == admin */\n      0xffffffffffffffffffffffffffffffffffffffff\n      and\n      eq\n        /* \"src/crowdfunding.sol\":2297:2363  require(msg.sender == admin, \"Only admin can call this function!\") */\n      tag_122\n      jumpi\n      mload(0x40)\n      0x08c379a000000000000000000000000000000000000000000000000000000000\n      dup2\n      mstore\n      0x04\n      add\n      tag_123\n      swap1\n      tag_106\n      jump\t// in\n    tag_123:\n      mload(0x40)\n      dup1\n      swap2\n      sub\n      swap1\n      revert\n    tag_122:\n        /* \"src/crowdfunding.sol\":3423:3427  goal */\n      sload(0x05)\n        /* \"src/crowdfunding.sol\":3407:3419  raisedAmount */\n      sload(0x06)\n        /* \"src/crowdfunding.sol\":3407:3427  raisedAmount >= goal */\n      lt\n      iszero\n        /* \"src/crowdfunding.sol\":3399:3428  require(raisedAmount >= goal) */\n      tag_125\n      jumpi\n      revert(0x00, 0x00)\n    tag_125:\n        /* \"src/crowdfunding.sol\":3438:3465  Request storage thisRequest */\n      0x00\n        /* \"src/crowdfunding.sol\":3468:3476  requests */\n      0x07\n        /* \"src/crowdfunding.sol\":3468:3488  requests[_requestNo] */\n      0x00\n        /* \"src/crowdfunding.sol\":3477:3487  _requestNo */\n      dup4\n        /* \"src/crowdfunding.sol\":3468:3488  requests[_requestNo] */\n      dup2\n      mstore\n      0x20\n      add\n      swap1\n      dup2\n      mstore\n      0x20\n      add\n      0x00\n      keccak256\n        /* \"src/crowdfunding.sol\":3438:3488  Request storage thisRequest = requests[_requestNo] */\n      swap1\n      pop\n        /* \"src/crowdfunding.sol\":3531:3536  false */\n      0x00\n        /* \"src/crowdfunding.sol\":3506:3536  thisRequest.completed == false */\n      iszero\n      iszero\n        /* \"src/crowdfunding.sol\":3506:3517  thisRequest */\n      dup2\n        /* \"src/crowdfunding.sol\":3506:3527  thisRequest.completed */\n      0x03\n      add\n      0x00\n      swap1\n      sload\n      swap1\n      0x0100\n      exp\n      swap1\n      div\n      0xff\n      and\n        /* \"src/crowdfunding.sol\":3506:3536  thisRequest.completed == false */\n      iszero\n      iszero\n      eq\n        /* \"src/crowdfunding.sol\":3498:3572  require(thisRequest.completed == false, \"The request has been completed.\") */\n      tag_126\n      jumpi\n      mload(0x40)\n      0x08c379a000000000000000000000000000000000000000000000000000000000\n      dup2\n      mstore\n      0x04\n      add\n      tag_127\n      swap1\n      tag_128\n      jump\t// in\n    tag_127:\n      mload(0x40)\n      dup1\n      swap2\n      sub\n      swap1\n      revert\n    tag_126:\n        /* \"src/crowdfunding.sol\":3634:3635  2 */\n      0x02\n        /* \"src/crowdfunding.sol\":3615:3631  noOfContributors */\n      dup1\n      sload\n        /* \"src/crowdfunding.sol\":3615:3635  noOfContributors / 2 */\n      tag_129\n      swap2\n      swap1\n      tag_130\n      jump\t// in\n    tag_129:\n        /* \"src/crowdfunding.sol\":3590:3601  thisRequest */\n      dup2\n        /* \"src/crowdfunding.sol\":3590:3612  thisRequest.noOfVoters */\n      0x04\n      add\n      sload\n        /* \"src/crowdfunding.sol\":3590:3635  thisRequest.noOfVoters > noOfContributors / 2 */\n      gt\n        /* \"src/crowdfunding.sol\":3582:3636  require(thisRequest.noOfVoters > noOfContributors / 2) */\n      tag_131\n      jumpi\n      revert(0x00, 0x00)\n    tag_131:\n        /* \"src/crowdfunding.sol\":3647:3658  thisRequest */\n      dup1\n        /* \"src/crowdfunding.sol\":3647:3668  thisRequest.recipient */\n      0x01\n      add\n      0x00\n      swap1\n      sload\n      swap1\n      0x0100\n      exp\n      swap1\n      div\n      0xffffffffffffffffffffffffffffffffffffffff\n      and\n        /* \"src/crowdfunding.sol\":3647:3677  thisRequest.recipient.transfer */\n      0xffffffffffffffffffffffffffffffffffffffff\n      and\n        /* \"src/crowdfunding.sol\":3647:3696  thisRequest.recipient.transfer(thisRequest.value) */\n      0x08fc\n        /* \"src/crowdfunding.sol\":3678:3689  thisRequest */\n      dup3\n        /* \"src/crowdfunding.sol\":3678:3695  thisRequest.value */\n      0x02\n      add\n      sload\n        /* \"src/crowdfunding.sol\":3647:3696  thisRequest.recipient.transfer(thisRequest.value) */\n      swap1\n      dup2\n      iszero\n      mul\n      swap1\n      mload(0x40)\n      0x00\n      mload(0x40)\n      dup1\n      dup4\n      sub\n      dup2\n      dup6\n      dup9\n      dup9\n      call\n      swap4\n      pop\n      pop\n      pop\n      pop\n      iszero\n      dup1\n      iszero\n      tag_133\n      jumpi\n      returndatacopy(0x00, 0x00, returndatasize)\n      revert(0x00, returndatasize)\n    tag_133:\n      pop\n        /* \"src/crowdfunding.sol\":3730:3734  true */\n      0x01\n        /* \"src/crowdfunding.sol\":3706:3717  thisRequest */\n      dup2\n        /* \"src/crowdfunding.sol\":3706:3727  thisRequest.completed */\n      0x03\n      add\n      0x00\n        /* \"src/crowdfunding.sol\":3706:3734  thisRequest.completed = true */\n      0x0100\n      exp\n      dup2\n      sload\n      dup2\n      0xff\n      mul\n      not\n      and\n      swap1\n      dup4\n      iszero\n      iszero\n      mul\n      or\n      swap1\n      sstore\n      pop\n        /* \"src/crowdfunding.sol\":3750:3810  MakePaymentRequest(thisRequest.recipient, thisRequest.value) */\n      0xf9fa312cadd7f67890bb3ef4b7fc87e11850ddb4fe7e4853b0a4cf9041a8301c\n        /* \"src/crowdfunding.sol\":3769:3780  thisRequest */\n      dup2\n        /* \"src/crowdfunding.sol\":3769:3790  thisRequest.recipient */\n      0x01\n      add\n      0x00\n      swap1\n      sload\n      swap1\n      0x0100\n      exp\n      swap1\n      div\n      0xffffffffffffffffffffffffffffffffffffffff\n      and\n        /* \"src/crowdfunding.sol\":3792:3803  thisRequest */\n      dup3\n        /* \"src/crowdfunding.sol\":3792:3809  thisRequest.value */\n      0x02\n      add\n      sload\n        /* \"src/crowdfunding.sol\":3750:3810  MakePaymentRequest(thisRequest.recipient, thisRequest.value) */\n      mload(0x40)\n      tag_134\n      swap3\n      swap2\n      swap1\n      tag_135\n      jump\t// in\n    tag_134:\n      mload(0x40)\n      dup1\n      swap2\n      sub\n      swap1\n      log1\n        /* \"src/crowdfunding.sol\":3389:3817  {... */\n      pop\n        /* \"src/crowdfunding.sol\":3335:3817  function makePayment(uint _requestNo) public onlyAdmin{... */\n      pop\n      jump\t// out\n        /* \"src/crowdfunding.sol\":194:224  uint public minimumContributor */\n    tag_64:\n      sload(0x03)\n      dup2\n      jump\t// out\n        /* \"src/crowdfunding.sol\":775:815  mapping(uint => Request) public requests */\n    tag_69:\n      mstore(0x20, 0x07)\n      dup1\n      0x00\n      mstore\n      keccak256(0x00, 0x40)\n      0x00\n      swap2\n      pop\n      swap1\n      pop\n      dup1\n      0x00\n      add\n      dup1\n      sload\n      tag_136\n      swap1\n      tag_137\n      jump\t// in\n    tag_136:\n      dup1\n      0x1f\n      add\n      0x20\n      dup1\n      swap2\n      div\n      mul\n      0x20\n      add\n      mload(0x40)\n      swap1\n      dup2\n      add\n      0x40\n      mstore\n      dup1\n      swap3\n      swap2\n      swap1\n      dup2\n      dup2\n      mstore\n      0x20\n      add\n      dup3\n      dup1\n      sload\n      tag_138\n      swap1\n      tag_137\n      jump\t// in\n    tag_138:\n      dup1\n      iszero\n      tag_139\n      jumpi\n      dup1\n      0x1f\n      lt\n      tag_140\n      jumpi\n      0x0100\n      dup1\n      dup4\n      sload\n      div\n      mul\n      dup4\n      mstore\n      swap2\n      0x20\n      add\n      swap2\n      jump(tag_139)\n    tag_140:\n      dup3\n      add\n      swap2\n      swap1\n      0x00\n      mstore\n      keccak256(0x00, 0x20)\n      swap1\n    tag_141:\n      dup2\n      sload\n      dup2\n      mstore\n      swap1\n      0x01\n      add\n      swap1\n      0x20\n      add\n      dup1\n      dup4\n      gt\n      tag_141\n      jumpi\n      dup3\n      swap1\n      sub\n      0x1f\n      and\n      dup3\n      add\n      swap2\n    tag_139:\n      pop\n      pop\n      pop\n      pop\n      pop\n      swap1\n      dup1\n      0x01\n      add\n      0x00\n      swap1\n      sload\n      swap1\n      0x0100\n      exp\n      swap1\n      div\n      0xffffffffffffffffffffffffffffffffffffffff\n      and\n      swap1\n      dup1\n      0x02\n      add\n      sload\n      swap1\n      dup1\n      0x03\n      add\n      0x00\n      swap1\n      sload\n      swap1\n      0x0100\n      exp\n      swap1\n      div\n      0xff\n      and\n      swap1\n      dup1\n      0x04\n      add\n      sload\n      swap1\n      pop\n      dup6\n      jump\t// out\n        /* \"src/crowdfunding.sol\":883:906  uint public numRequests */\n    tag_74:\n      sload(0x08)\n      dup2\n      jump\t// out\n        /* \"src/crowdfunding.sol\":1749:2261  function getRefund() public{... */\n    tag_78:\n        /* \"src/crowdfunding.sol\":1873:1881  deadline */\n      sload(0x04)\n        /* \"src/crowdfunding.sol\":1855:1870  block.timestamp */\n      timestamp\n        /* \"src/crowdfunding.sol\":1855:1881  block.timestamp > deadline */\n      gt\n        /* \"src/crowdfunding.sol\":1855:1904  block.timestamp > deadline && raisedAmount < goal */\n      dup1\n      iszero\n      tag_143\n      jumpi\n      pop\n        /* \"src/crowdfunding.sol\":1900:1904  goal */\n      sload(0x05)\n        /* \"src/crowdfunding.sol\":1885:1897  raisedAmount */\n      sload(0x06)\n        /* \"src/crowdfunding.sol\":1885:1904  raisedAmount < goal */\n      lt\n        /* \"src/crowdfunding.sol\":1855:1904  block.timestamp > deadline && raisedAmount < goal */\n    tag_143:\n        /* \"src/crowdfunding.sol\":1847:1905  require(block.timestamp > deadline && raisedAmount < goal) */\n      tag_144\n      jumpi\n      revert(0x00, 0x00)\n    tag_144:\n        /* \"src/crowdfunding.sol\":2019:2020  0 */\n      0x00\n        /* \"src/crowdfunding.sol\":1992:2004  contributors */\n      0x00\n        /* \"src/crowdfunding.sol\":1992:2016  contributors[msg.sender] */\n      0x00\n        /* \"src/crowdfunding.sol\":2005:2015  msg.sender */\n      caller\n        /* \"src/crowdfunding.sol\":1992:2016  contributors[msg.sender] */\n      0xffffffffffffffffffffffffffffffffffffffff\n      and\n      0xffffffffffffffffffffffffffffffffffffffff\n      and\n      dup2\n      mstore\n      0x20\n      add\n      swap1\n      dup2\n      mstore\n      0x20\n      add\n      0x00\n      keccak256\n      sload\n        /* \"src/crowdfunding.sol\":1992:2020  contributors[msg.sender] > 0 */\n      gt\n        /* \"src/crowdfunding.sol\":1984:2021  require(contributors[msg.sender] > 0) */\n      tag_145\n      jumpi\n      revert(0x00, 0x00)\n    tag_145:\n        /* \"src/crowdfunding.sol\":2032:2057  address payable recipient */\n      0x00\n        /* \"src/crowdfunding.sol\":2068:2078  msg.sender */\n      caller\n        /* \"src/crowdfunding.sol\":2032:2079  address payable recipient = payable(msg.sender) */\n      swap1\n      pop\n        /* \"src/crowdfunding.sol\":2089:2099  uint value */\n      0x00\n        /* \"src/crowdfunding.sol\":2102:2114  contributors */\n      0x00\n        /* \"src/crowdfunding.sol\":2102:2126  contributors[msg.sender] */\n      0x00\n        /* \"src/crowdfunding.sol\":2115:2125  msg.sender */\n      caller\n        /* \"src/crowdfunding.sol\":2102:2126  contributors[msg.sender] */\n      0xffffffffffffffffffffffffffffffffffffffff\n      and\n      0xffffffffffffffffffffffffffffffffffffffff\n      and\n      dup2\n      mstore\n      0x20\n      add\n      swap1\n      dup2\n      mstore\n      0x20\n      add\n      0x00\n      keccak256\n      sload\n        /* \"src/crowdfunding.sol\":2089:2126  uint value = contributors[msg.sender] */\n      swap1\n      pop\n        /* \"src/crowdfunding.sol\":2136:2145  recipient */\n      dup2\n        /* \"src/crowdfunding.sol\":2136:2154  recipient.transfer */\n      0xffffffffffffffffffffffffffffffffffffffff\n      and\n        /* \"src/crowdfunding.sol\":2136:2161  recipient.transfer(value) */\n      0x08fc\n        /* \"src/crowdfunding.sol\":2155:2160  value */\n      dup3\n        /* \"src/crowdfunding.sol\":2136:2161  recipient.transfer(value) */\n      swap1\n      dup2\n      iszero\n      mul\n      swap1\n      mload(0x40)\n      0x00\n      mload(0x40)\n      dup1\n      dup4\n      sub\n      dup2\n      dup6\n      dup9\n      dup9\n      call\n      swap4\n      pop\n      pop\n      pop\n      pop\n      iszero\n      dup1\n      iszero\n      tag_147\n      jumpi\n      returndatacopy(0x00, 0x00, returndatasize)\n      revert(0x00, returndatasize)\n    tag_147:\n      pop\n        /* \"src/crowdfunding.sol\":2253:2254  0 */\n      0x00\n        /* \"src/crowdfunding.sol\":2226:2238  contributors */\n      0x00\n        /* \"src/crowdfunding.sol\":2226:2250  contributors[msg.sender] */\n      0x00\n        /* \"src/crowdfunding.sol\":2239:2249  msg.sender */\n      caller\n        /* \"src/crowdfunding.sol\":2226:2250  contributors[msg.sender] */\n      0xffffffffffffffffffffffffffffffffffffffff\n      and\n      0xffffffffffffffffffffffffffffffffffffffff\n      and\n      dup2\n      mstore\n      0x20\n      add\n      swap1\n      dup2\n      mstore\n      0x20\n      add\n      0x00\n      keccak256\n        /* \"src/crowdfunding.sol\":2226:2254  contributors[msg.sender] = 0 */\n      dup2\n      swap1\n      sstore\n      pop\n        /* \"src/crowdfunding.sol\":1776:2261  {... */\n      pop\n      pop\n        /* \"src/crowdfunding.sol\":1749:2261  function getRefund() public{... */\n      jump\t// out\n        /* \"src/crowdfunding.sol\":291:315  uint public raisedAmount */\n    tag_81:\n      sload(0x06)\n      dup2\n      jump\t// out\n        /* \"src/crowdfunding.sol\":134:154  address public admin */\n    tag_86:\n      0x01\n      0x00\n      swap1\n      sload\n      swap1\n      0x0100\n      exp\n      swap1\n      div\n      0xffffffffffffffffffffffffffffffffffffffff\n      and\n      dup2\n      jump\t// out\n        /* \"#utility.yul\":7:84   */\n    tag_148:\n        /* \"#utility.yul\":44:51   */\n      0x00\n        /* \"#utility.yul\":73:78   */\n      dup2\n        /* \"#utility.yul\":62:78   */\n      swap1\n      pop\n        /* \"#utility.yul\":7:84   */\n      swap2\n      swap1\n      pop\n      jump\t// out\n        /* \"#utility.yul\":90:208   */\n    tag_149:\n        /* \"#utility.yul\":177:201   */\n      tag_215\n        /* \"#utility.yul\":195:200   */\n      dup2\n        /* \"#utility.yul\":177:201   */\n      tag_148\n      jump\t// in\n    tag_215:\n        /* \"#utility.yul\":172:175   */\n      dup3\n        /* \"#utility.yul\":165:202   */\n      mstore\n        /* \"#utility.yul\":90:208   */\n      pop\n      pop\n      jump\t// out\n        /* \"#utility.yul\":214:436   */\n    tag_29:\n        /* \"#utility.yul\":307:311   */\n      0x00\n        /* \"#utility.yul\":345:347   */\n      0x20\n        /* \"#utility.yul\":334:343   */\n      dup3\n        /* \"#utility.yul\":330:348   */\n      add\n        /* \"#utility.yul\":322:348   */\n      swap1\n      pop\n        /* \"#utility.yul\":358:429   */\n      tag_217\n        /* \"#utility.yul\":426:427   */\n      0x00\n        /* \"#utility.yul\":415:424   */\n      dup4\n        /* \"#utility.yul\":411:428   */\n      add\n        /* \"#utility.yul\":402:408   */\n      dup5\n        /* \"#utility.yul\":358:429   */\n      tag_149\n      jump\t// in\n    tag_217:\n        /* \"#utility.yul\":214:436   */\n      swap3\n      swap2\n      pop\n      pop\n      jump\t// out\n        /* \"#utility.yul\":442:517   */\n    tag_150:\n        /* \"#utility.yul\":475:481   */\n      0x00\n        /* \"#utility.yul\":508:510   */\n      0x40\n        /* \"#utility.yul\":502:511   */\n      mload\n        /* \"#utility.yul\":492:511   */\n      swap1\n      pop\n        /* \"#utility.yul\":442:517   */\n      swap1\n      jump\t// out\n        /* \"#utility.yul\":523:640   */\n    tag_151:\n        /* \"#utility.yul\":632:633   */\n      0x00\n        /* \"#utility.yul\":629:630   */\n      0x00\n        /* \"#utility.yul\":622:634   */\n      revert\n        /* \"#utility.yul\":646:763   */\n    tag_152:\n        /* \"#utility.yul\":755:756   */\n      0x00\n        /* \"#utility.yul\":752:753   */\n      0x00\n        /* \"#utility.yul\":745:757   */\n      revert\n        /* \"#utility.yul\":769:886   */\n    tag_153:\n        /* \"#utility.yul\":878:879   */\n      0x00\n        /* \"#utility.yul\":875:876   */\n      0x00\n        /* \"#utility.yul\":868:880   */\n      revert\n        /* \"#utility.yul\":892:1009   */\n    tag_154:\n        /* \"#utility.yul\":1001:1002   */\n      0x00\n        /* \"#utility.yul\":998:999   */\n      0x00\n        /* \"#utility.yul\":991:1003   */\n      revert\n        /* \"#utility.yul\":1015:1117   */\n    tag_155:\n        /* \"#utility.yul\":1056:1062   */\n      0x00\n        /* \"#utility.yul\":1107:1109   */\n      0x1f\n        /* \"#utility.yul\":1103:1110   */\n      not\n        /* \"#utility.yul\":1098:1100   */\n      0x1f\n        /* \"#utility.yul\":1091:1096   */\n      dup4\n        /* \"#utility.yul\":1087:1101   */\n      add\n        /* \"#utility.yul\":1083:1111   */\n      and\n        /* \"#utility.yul\":1073:1111   */\n      swap1\n      pop\n        /* \"#utility.yul\":1015:1117   */\n      swap2\n      swap1\n      pop\n      jump\t// out\n        /* \"#utility.yul\":1123:1303   */\n    tag_156:\n        /* \"#utility.yul\":1171:1248   */\n      0x4e487b7100000000000000000000000000000000000000000000000000000000\n        /* \"#utility.yul\":1168:1169   */\n      0x00\n        /* \"#utility.yul\":1161:1249   */\n      mstore\n        /* \"#utility.yul\":1268:1272   */\n      0x41\n        /* \"#utility.yul\":1265:1266   */\n      0x04\n        /* \"#utility.yul\":1258:1273   */\n      mstore\n        /* \"#utility.yul\":1292:1296   */\n      0x24\n        /* \"#utility.yul\":1289:1290   */\n      0x00\n        /* \"#utility.yul\":1282:1297   */\n      revert\n        /* \"#utility.yul\":1309:1590   */\n    tag_157:\n        /* \"#utility.yul\":1392:1419   */\n      tag_226\n        /* \"#utility.yul\":1414:1418   */\n      dup3\n        /* \"#utility.yul\":1392:1419   */\n      tag_155\n      jump\t// in\n    tag_226:\n        /* \"#utility.yul\":1384:1390   */\n      dup2\n        /* \"#utility.yul\":1380:1420   */\n      add\n        /* \"#utility.yul\":1522:1528   */\n      dup2\n        /* \"#utility.yul\":1510:1520   */\n      dup2\n        /* \"#utility.yul\":1507:1529   */\n      lt\n        /* \"#utility.yul\":1486:1504   */\n      0xffffffffffffffff\n        /* \"#utility.yul\":1474:1484   */\n      dup3\n        /* \"#utility.yul\":1471:1505   */\n      gt\n        /* \"#utility.yul\":1468:1530   */\n      or\n        /* \"#utility.yul\":1465:1553   */\n      iszero\n      tag_227\n      jumpi\n        /* \"#utility.yul\":1533:1551   */\n      tag_228\n      tag_156\n      jump\t// in\n    tag_228:\n        /* \"#utility.yul\":1465:1553   */\n    tag_227:\n        /* \"#utility.yul\":1573:1583   */\n      dup1\n        /* \"#utility.yul\":1569:1571   */\n      0x40\n        /* \"#utility.yul\":1562:1584   */\n      mstore\n        /* \"#utility.yul\":1352:1590   */\n      pop\n        /* \"#utility.yul\":1309:1590   */\n      pop\n      pop\n      jump\t// out\n        /* \"#utility.yul\":1596:1725   */\n    tag_158:\n        /* \"#utility.yul\":1630:1636   */\n      0x00\n        /* \"#utility.yul\":1657:1677   */\n      tag_230\n      tag_150\n      jump\t// in\n    tag_230:\n        /* \"#utility.yul\":1647:1677   */\n      swap1\n      pop\n        /* \"#utility.yul\":1686:1719   */\n      tag_231\n        /* \"#utility.yul\":1714:1718   */\n      dup3\n        /* \"#utility.yul\":1706:1712   */\n      dup3\n        /* \"#utility.yul\":1686:1719   */\n      tag_157\n      jump\t// in\n    tag_231:\n        /* \"#utility.yul\":1596:1725   */\n      swap2\n      swap1\n      pop\n      jump\t// out\n        /* \"#utility.yul\":1731:2039   */\n    tag_159:\n        /* \"#utility.yul\":1793:1797   */\n      0x00\n        /* \"#utility.yul\":1883:1901   */\n      0xffffffffffffffff\n        /* \"#utility.yul\":1875:1881   */\n      dup3\n        /* \"#utility.yul\":1872:1902   */\n      gt\n        /* \"#utility.yul\":1869:1925   */\n      iszero\n      tag_233\n      jumpi\n        /* \"#utility.yul\":1905:1923   */\n      tag_234\n      tag_156\n      jump\t// in\n    tag_234:\n        /* \"#utility.yul\":1869:1925   */\n    tag_233:\n        /* \"#utility.yul\":1943:1972   */\n      tag_235\n        /* \"#utility.yul\":1965:1971   */\n      dup3\n        /* \"#utility.yul\":1943:1972   */\n      tag_155\n      jump\t// in\n    tag_235:\n        /* \"#utility.yul\":1935:1972   */\n      swap1\n      pop\n        /* \"#utility.yul\":2027:2031   */\n      0x20\n        /* \"#utility.yul\":2021:2025   */\n      dup2\n        /* \"#utility.yul\":2017:2032   */\n      add\n        /* \"#utility.yul\":2009:2032   */\n      swap1\n      pop\n        /* \"#utility.yul\":1731:2039   */\n      swap2\n      swap1\n      pop\n      jump\t// out\n        /* \"#utility.yul\":2045:2193   */\n    tag_160:\n        /* \"#utility.yul\":2143:2149   */\n      dup3\n        /* \"#utility.yul\":2138:2141   */\n      dup2\n        /* \"#utility.yul\":2133:2136   */\n      dup4\n        /* \"#utility.yul\":2120:2150   */\n      calldatacopy\n        /* \"#utility.yul\":2184:2185   */\n      0x00\n        /* \"#utility.yul\":2175:2181   */\n      dup4\n        /* \"#utility.yul\":2170:2173   */\n      dup4\n        /* \"#utility.yul\":2166:2182   */\n      add\n        /* \"#utility.yul\":2159:2186   */\n      mstore\n        /* \"#utility.yul\":2045:2193   */\n      pop\n      pop\n      pop\n      jump\t// out\n        /* \"#utility.yul\":2199:2624   */\n    tag_161:\n        /* \"#utility.yul\":2277:2282   */\n      0x00\n        /* \"#utility.yul\":2302:2368   */\n      tag_238\n        /* \"#utility.yul\":2318:2367   */\n      tag_239\n        /* \"#utility.yul\":2360:2366   */\n      dup5\n        /* \"#utility.yul\":2318:2367   */\n      tag_159\n      jump\t// in\n    tag_239:\n        /* \"#utility.yul\":2302:2368   */\n      tag_158\n      jump\t// in\n    tag_238:\n        /* \"#utility.yul\":2293:2368   */\n      swap1\n      pop\n        /* \"#utility.yul\":2391:2397   */\n      dup3\n        /* \"#utility.yul\":2384:2389   */\n      dup2\n        /* \"#utility.yul\":2377:2398   */\n      mstore\n        /* \"#utility.yul\":2429:2433   */\n      0x20\n        /* \"#utility.yul\":2422:2427   */\n      dup2\n        /* \"#utility.yul\":2418:2434   */\n      add\n        /* \"#utility.yul\":2467:2470   */\n      dup5\n        /* \"#utility.yul\":2458:2464   */\n      dup5\n        /* \"#utility.yul\":2453:2456   */\n      dup5\n        /* \"#utility.yul\":2449:2465   */\n      add\n        /* \"#utility.yul\":2446:2471   */\n      gt\n        /* \"#utility.yul\":2443:2555   */\n      iszero\n      tag_240\n      jumpi\n        /* \"#utility.yul\":2474:2553   */\n      tag_241\n      tag_154\n      jump\t// in\n    tag_241:\n        /* \"#utility.yul\":2443:2555   */\n    tag_240:\n        /* \"#utility.yul\":2564:2618   */\n      tag_242\n        /* \"#utility.yul\":2611:2617   */\n      dup5\n        /* \"#utility.yul\":2606:2609   */\n      dup3\n        /* \"#utility.yul\":2601:2604   */\n      dup6\n        /* \"#utility.yul\":2564:2618   */\n      tag_160\n      jump\t// in\n    tag_242:\n        /* \"#utility.yul\":2283:2624   */\n      pop\n        /* \"#utility.yul\":2199:2624   */\n      swap4\n      swap3\n      pop\n      pop\n      pop\n      jump\t// out\n        /* \"#utility.yul\":2644:2984   */\n    tag_162:\n        /* \"#utility.yul\":2700:2705   */\n      0x00\n        /* \"#utility.yul\":2749:2752   */\n      dup3\n        /* \"#utility.yul\":2742:2746   */\n      0x1f\n        /* \"#utility.yul\":2734:2740   */\n      dup4\n        /* \"#utility.yul\":2730:2747   */\n      add\n        /* \"#utility.yul\":2726:2753   */\n      slt\n        /* \"#utility.yul\":2716:2838   */\n      tag_244\n      jumpi\n        /* \"#utility.yul\":2757:2836   */\n      tag_245\n      tag_153\n      jump\t// in\n    tag_245:\n        /* \"#utility.yul\":2716:2838   */\n    tag_244:\n        /* \"#utility.yul\":2874:2880   */\n      dup2\n        /* \"#utility.yul\":2861:2881   */\n      calldataload\n        /* \"#utility.yul\":2899:2978   */\n      tag_246\n        /* \"#utility.yul\":2974:2977   */\n      dup5\n        /* \"#utility.yul\":2966:2972   */\n      dup3\n        /* \"#utility.yul\":2959:2963   */\n      0x20\n        /* \"#utility.yul\":2951:2957   */\n      dup7\n        /* \"#utility.yul\":2947:2964   */\n      add\n        /* \"#utility.yul\":2899:2978   */\n      tag_161\n      jump\t// in\n    tag_246:\n        /* \"#utility.yul\":2890:2978   */\n      swap2\n      pop\n        /* \"#utility.yul\":2706:2984   */\n      pop\n        /* \"#utility.yul\":2644:2984   */\n      swap3\n      swap2\n      pop\n      pop\n      jump\t// out\n        /* \"#utility.yul\":2990:3116   */\n    tag_163:\n        /* \"#utility.yul\":3027:3034   */\n      0x00\n        /* \"#utility.yul\":3067:3109   */\n      0xffffffffffffffffffffffffffffffffffffffff\n        /* \"#utility.yul\":3060:3065   */\n      dup3\n        /* \"#utility.yul\":3056:3110   */\n      and\n        /* \"#utility.yul\":3045:3110   */\n      swap1\n      pop\n        /* \"#utility.yul\":2990:3116   */\n      swap2\n      swap1\n      pop\n      jump\t// out\n        /* \"#utility.yul\":3122:3226   */\n    tag_164:\n        /* \"#utility.yul\":3167:3174   */\n      0x00\n        /* \"#utility.yul\":3196:3220   */\n      tag_249\n        /* \"#utility.yul\":3214:3219   */\n      dup3\n        /* \"#utility.yul\":3196:3220   */\n      tag_163\n      jump\t// in\n    tag_249:\n        /* \"#utility.yul\":3185:3220   */\n      swap1\n      pop\n        /* \"#utility.yul\":3122:3226   */\n      swap2\n      swap1\n      pop\n      jump\t// out\n        /* \"#utility.yul\":3232:3370   */\n    tag_165:\n        /* \"#utility.yul\":3313:3345   */\n      tag_251\n        /* \"#utility.yul\":3339:3344   */\n      dup2\n        /* \"#utility.yul\":3313:3345   */\n      tag_164\n      jump\t// in\n    tag_251:\n        /* \"#utility.yul\":3306:3311   */\n      dup2\n        /* \"#utility.yul\":3303:3346   */\n      eq\n        /* \"#utility.yul\":3293:3364   */\n      tag_252\n      jumpi\n        /* \"#utility.yul\":3360:3361   */\n      0x00\n        /* \"#utility.yul\":3357:3358   */\n      0x00\n        /* \"#utility.yul\":3350:3362   */\n      revert\n        /* \"#utility.yul\":3293:3364   */\n    tag_252:\n        /* \"#utility.yul\":3232:3370   */\n      pop\n      jump\t// out\n        /* \"#utility.yul\":3376:3531   */\n    tag_166:\n        /* \"#utility.yul\":3430:3435   */\n      0x00\n        /* \"#utility.yul\":3468:3474   */\n      dup2\n        /* \"#utility.yul\":3455:3475   */\n      calldataload\n        /* \"#utility.yul\":3446:3475   */\n      swap1\n      pop\n        /* \"#utility.yul\":3484:3525   */\n      tag_254\n        /* \"#utility.yul\":3519:3524   */\n      dup2\n        /* \"#utility.yul\":3484:3525   */\n      tag_165\n      jump\t// in\n    tag_254:\n        /* \"#utility.yul\":3376:3531   */\n      swap3\n      swap2\n      pop\n      pop\n      jump\t// out\n        /* \"#utility.yul\":3537:3659   */\n    tag_167:\n        /* \"#utility.yul\":3610:3634   */\n      tag_256\n        /* \"#utility.yul\":3628:3633   */\n      dup2\n        /* \"#utility.yul\":3610:3634   */\n      tag_148\n      jump\t// in\n    tag_256:\n        /* \"#utility.yul\":3603:3608   */\n      dup2\n        /* \"#utility.yul\":3600:3635   */\n      eq\n        /* \"#utility.yul\":3590:3653   */\n      tag_257\n      jumpi\n        /* \"#utility.yul\":3649:3650   */\n      0x00\n        /* \"#utility.yul\":3646:3647   */\n      0x00\n        /* \"#utility.yul\":3639:3651   */\n      revert\n        /* \"#utility.yul\":3590:3653   */\n    tag_257:\n        /* \"#utility.yul\":3537:3659   */\n      pop\n      jump\t// out\n        /* \"#utility.yul\":3665:3804   */\n    tag_168:\n        /* \"#utility.yul\":3711:3716   */\n      0x00\n        /* \"#utility.yul\":3749:3755   */\n      dup2\n        /* \"#utility.yul\":3736:3756   */\n      calldataload\n        /* \"#utility.yul\":3727:3756   */\n      swap1\n      pop\n        /* \"#utility.yul\":3765:3798   */\n      tag_259\n        /* \"#utility.yul\":3792:3797   */\n      dup2\n        /* \"#utility.yul\":3765:3798   */\n      tag_167\n      jump\t// in\n    tag_259:\n        /* \"#utility.yul\":3665:3804   */\n      swap3\n      swap2\n      pop\n      pop\n      jump\t// out\n        /* \"#utility.yul\":3810:4625   */\n    tag_33:\n        /* \"#utility.yul\":3905:3911   */\n      0x00\n        /* \"#utility.yul\":3913:3919   */\n      0x00\n        /* \"#utility.yul\":3921:3927   */\n      0x00\n        /* \"#utility.yul\":3970:3972   */\n      0x60\n        /* \"#utility.yul\":3958:3967   */\n      dup5\n        /* \"#utility.yul\":3949:3956   */\n      dup7\n        /* \"#utility.yul\":3945:3968   */\n      sub\n        /* \"#utility.yul\":3941:3973   */\n      slt\n        /* \"#utility.yul\":3938:4057   */\n      iszero\n      tag_261\n      jumpi\n        /* \"#utility.yul\":3976:4055   */\n      tag_262\n      tag_151\n      jump\t// in\n    tag_262:\n        /* \"#utility.yul\":3938:4057   */\n    tag_261:\n        /* \"#utility.yul\":4124:4125   */\n      0x00\n        /* \"#utility.yul\":4113:4122   */\n      dup5\n        /* \"#utility.yul\":4109:4126   */\n      add\n        /* \"#utility.yul\":4096:4127   */\n      calldataload\n        /* \"#utility.yul\":4154:4172   */\n      0xffffffffffffffff\n        /* \"#utility.yul\":4146:4152   */\n      dup2\n        /* \"#utility.yul\":4143:4173   */\n      gt\n        /* \"#utility.yul\":4140:4257   */\n      iszero\n      tag_263\n      jumpi\n        /* \"#utility.yul\":4176:4255   */\n      tag_264\n      tag_152\n      jump\t// in\n    tag_264:\n        /* \"#utility.yul\":4140:4257   */\n    tag_263:\n        /* \"#utility.yul\":4281:4344   */\n      tag_265\n        /* \"#utility.yul\":4336:4343   */\n      dup7\n        /* \"#utility.yul\":4327:4333   */\n      dup3\n        /* \"#utility.yul\":4316:4325   */\n      dup8\n        /* \"#utility.yul\":4312:4334   */\n      add\n        /* \"#utility.yul\":4281:4344   */\n      tag_162\n      jump\t// in\n    tag_265:\n        /* \"#utility.yul\":4271:4344   */\n      swap4\n      pop\n        /* \"#utility.yul\":4067:4354   */\n      pop\n        /* \"#utility.yul\":4393:4395   */\n      0x20\n        /* \"#utility.yul\":4419:4480   */\n      tag_266\n        /* \"#utility.yul\":4472:4479   */\n      dup7\n        /* \"#utility.yul\":4463:4469   */\n      dup3\n        /* \"#utility.yul\":4452:4461   */\n      dup8\n        /* \"#utility.yul\":4448:4470   */\n      add\n        /* \"#utility.yul\":4419:4480   */\n      tag_166\n      jump\t// in\n    tag_266:\n        /* \"#utility.yul\":4409:4480   */\n      swap3\n      pop\n        /* \"#utility.yul\":4364:4490   */\n      pop\n        /* \"#utility.yul\":4529:4531   */\n      0x40\n        /* \"#utility.yul\":4555:4608   */\n      tag_267\n        /* \"#utility.yul\":4600:4607   */\n      dup7\n        /* \"#utility.yul\":4591:4597   */\n      dup3\n        /* \"#utility.yul\":4580:4589   */\n      dup8\n        /* \"#utility.yul\":4576:4598   */\n      add\n        /* \"#utility.yul\":4555:4608   */\n      tag_168\n      jump\t// in\n    tag_267:\n        /* \"#utility.yul\":4545:4608   */\n      swap2\n      pop\n        /* \"#utility.yul\":4500:4618   */\n      pop\n        /* \"#utility.yul\":3810:4625   */\n      swap3\n      pop\n      swap3\n      pop\n      swap3\n      jump\t// out\n        /* \"#utility.yul\":4631:4727   */\n    tag_169:\n        /* \"#utility.yul\":4668:4675   */\n      0x00\n        /* \"#utility.yul\":4697:4721   */\n      tag_269\n        /* \"#utility.yul\":4715:4720   */\n      dup3\n        /* \"#utility.yul\":4697:4721   */\n      tag_163\n      jump\t// in\n    tag_269:\n        /* \"#utility.yul\":4686:4721   */\n      swap1\n      pop\n        /* \"#utility.yul\":4631:4727   */\n      swap2\n      swap1\n      pop\n      jump\t// out\n        /* \"#utility.yul\":4733:4855   */\n    tag_170:\n        /* \"#utility.yul\":4806:4830   */\n      tag_271\n        /* \"#utility.yul\":4824:4829   */\n      dup2\n        /* \"#utility.yul\":4806:4830   */\n      tag_169\n      jump\t// in\n    tag_271:\n        /* \"#utility.yul\":4799:4804   */\n      dup2\n        /* \"#utility.yul\":4796:4831   */\n      eq\n        /* \"#utility.yul\":4786:4849   */\n      tag_272\n      jumpi\n        /* \"#utility.yul\":4845:4846   */\n      0x00\n        /* \"#utility.yul\":4842:4843   */\n      0x00\n        /* \"#utility.yul\":4835:4847   */\n      revert\n        /* \"#utility.yul\":4786:4849   */\n    tag_272:\n        /* \"#utility.yul\":4733:4855   */\n      pop\n      jump\t// out\n        /* \"#utility.yul\":4861:5000   */\n    tag_171:\n        /* \"#utility.yul\":4907:4912   */\n      0x00\n        /* \"#utility.yul\":4945:4951   */\n      dup2\n        /* \"#utility.yul\":4932:4952   */\n      calldataload\n        /* \"#utility.yul\":4923:4952   */\n      swap1\n      pop\n        /* \"#utility.yul\":4961:4994   */\n      tag_274\n        /* \"#utility.yul\":4988:4993   */\n      dup2\n        /* \"#utility.yul\":4961:4994   */\n      tag_170\n      jump\t// in\n    tag_274:\n        /* \"#utility.yul\":4861:5000   */\n      swap3\n      swap2\n      pop\n      pop\n      jump\t// out\n        /* \"#utility.yul\":5006:5335   */\n    tag_38:\n        /* \"#utility.yul\":5065:5071   */\n      0x00\n        /* \"#utility.yul\":5114:5116   */\n      0x20\n        /* \"#utility.yul\":5102:5111   */\n      dup3\n        /* \"#utility.yul\":5093:5100   */\n      dup5\n        /* \"#utility.yul\":5089:5112   */\n      sub\n        /* \"#utility.yul\":5085:5117   */\n      slt\n        /* \"#utility.yul\":5082:5201   */\n      iszero\n      tag_276\n      jumpi\n        /* \"#utility.yul\":5120:5199   */\n      tag_277\n      tag_151\n      jump\t// in\n    tag_277:\n        /* \"#utility.yul\":5082:5201   */\n    tag_276:\n        /* \"#utility.yul\":5240:5241   */\n      0x00\n        /* \"#utility.yul\":5265:5318   */\n      tag_278\n        /* \"#utility.yul\":5310:5317   */\n      dup5\n        /* \"#utility.yul\":5301:5307   */\n      dup3\n        /* \"#utility.yul\":5290:5299   */\n      dup6\n        /* \"#utility.yul\":5286:5308   */\n      add\n        /* \"#utility.yul\":5265:5318   */\n      tag_171\n      jump\t// in\n    tag_278:\n        /* \"#utility.yul\":5255:5318   */\n      swap2\n      pop\n        /* \"#utility.yul\":5211:5328   */\n      pop\n        /* \"#utility.yul\":5006:5335   */\n      swap3\n      swap2\n      pop\n      pop\n      jump\t// out\n        /* \"#utility.yul\":5341:5670   */\n    tag_52:\n        /* \"#utility.yul\":5400:5406   */\n      0x00\n        /* \"#utility.yul\":5449:5451   */\n      0x20\n        /* \"#utility.yul\":5437:5446   */\n      dup3\n        /* \"#utility.yul\":5428:5435   */\n      dup5\n        /* \"#utility.yul\":5424:5447   */\n      sub\n        /* \"#utility.yul\":5420:5452   */\n      slt\n        /* \"#utility.yul\":5417:5536   */\n      iszero\n      tag_280\n      jumpi\n        /* \"#utility.yul\":5455:5534   */\n      tag_281\n      tag_151\n      jump\t// in\n    tag_281:\n        /* \"#utility.yul\":5417:5536   */\n    tag_280:\n        /* \"#utility.yul\":5575:5576   */\n      0x00\n        /* \"#utility.yul\":5600:5653   */\n      tag_282\n        /* \"#utility.yul\":5645:5652   */\n      dup5\n        /* \"#utility.yul\":5636:5642   */\n      dup3\n        /* \"#utility.yul\":5625:5634   */\n      dup6\n        /* \"#utility.yul\":5621:5643   */\n      add\n        /* \"#utility.yul\":5600:5653   */\n      tag_168\n      jump\t// in\n    tag_282:\n        /* \"#utility.yul\":5590:5653   */\n      swap2\n      pop\n        /* \"#utility.yul\":5546:5663   */\n      pop\n        /* \"#utility.yul\":5341:5670   */\n      swap3\n      swap2\n      pop\n      pop\n      jump\t// out\n        /* \"#utility.yul\":5676:5775   */\n    tag_172:\n        /* \"#utility.yul\":5728:5734   */\n      0x00\n        /* \"#utility.yul\":5762:5767   */\n      dup2\n        /* \"#utility.yul\":5756:5768   */\n      mload\n        /* \"#utility.yul\":5746:5768   */\n      swap1\n      pop\n        /* \"#utility.yul\":5676:5775   */\n      swap2\n      swap1\n      pop\n      jump\t// out\n        /* \"#utility.yul\":5781:5950   */\n    tag_173:\n        /* \"#utility.yul\":5865:5876   */\n      0x00\n        /* \"#utility.yul\":5899:5905   */\n      dup3\n        /* \"#utility.yul\":5894:5897   */\n      dup3\n        /* \"#utility.yul\":5887:5906   */\n      mstore\n        /* \"#utility.yul\":5939:5943   */\n      0x20\n        /* \"#utility.yul\":5934:5937   */\n      dup3\n        /* \"#utility.yul\":5930:5944   */\n      add\n        /* \"#utility.yul\":5915:5944   */\n      swap1\n      pop\n        /* \"#utility.yul\":5781:5950   */\n      swap3\n      swap2\n      pop\n      pop\n      jump\t// out\n        /* \"#utility.yul\":5956:6095   */\n    tag_174:\n        /* \"#utility.yul\":6045:6051   */\n      dup3\n        /* \"#utility.yul\":6040:6043   */\n      dup2\n        /* \"#utility.yul\":6035:6038   */\n      dup4\n        /* \"#utility.yul\":6029:6052   */\n      mcopy\n        /* \"#utility.yul\":6086:6087   */\n      0x00\n        /* \"#utility.yul\":6077:6083   */\n      dup4\n        /* \"#utility.yul\":6072:6075   */\n      dup4\n        /* \"#utility.yul\":6068:6084   */\n      add\n        /* \"#utility.yul\":6061:6088   */\n      mstore\n        /* \"#utility.yul\":5956:6095   */\n      pop\n      pop\n      pop\n      jump\t// out\n        /* \"#utility.yul\":6101:6478   */\n    tag_175:\n        /* \"#utility.yul\":6189:6192   */\n      0x00\n        /* \"#utility.yul\":6217:6256   */\n      tag_287\n        /* \"#utility.yul\":6250:6255   */\n      dup3\n        /* \"#utility.yul\":6217:6256   */\n      tag_172\n      jump\t// in\n    tag_287:\n        /* \"#utility.yul\":6272:6343   */\n      tag_288\n        /* \"#utility.yul\":6336:6342   */\n      dup2\n        /* \"#utility.yul\":6331:6334   */\n      dup6\n        /* \"#utility.yul\":6272:6343   */\n      tag_173\n      jump\t// in\n    tag_288:\n        /* \"#utility.yul\":6265:6343   */\n      swap4\n      pop\n        /* \"#utility.yul\":6352:6417   */\n      tag_289\n        /* \"#utility.yul\":6410:6416   */\n      dup2\n        /* \"#utility.yul\":6405:6408   */\n      dup6\n        /* \"#utility.yul\":6398:6402   */\n      0x20\n        /* \"#utility.yul\":6391:6396   */\n      dup7\n        /* \"#utility.yul\":6387:6403   */\n      add\n        /* \"#utility.yul\":6352:6417   */\n      tag_174\n      jump\t// in\n    tag_289:\n        /* \"#utility.yul\":6442:6471   */\n      tag_290\n        /* \"#utility.yul\":6464:6470   */\n      dup2\n        /* \"#utility.yul\":6442:6471   */\n      tag_155\n      jump\t// in\n    tag_290:\n        /* \"#utility.yul\":6437:6440   */\n      dup5\n        /* \"#utility.yul\":6433:6472   */\n      add\n        /* \"#utility.yul\":6426:6472   */\n      swap2\n      pop\n        /* \"#utility.yul\":6193:6478   */\n      pop\n        /* \"#utility.yul\":6101:6478   */\n      swap3\n      swap2\n      pop\n      pop\n      jump\t// out\n        /* \"#utility.yul\":6484:6626   */\n    tag_176:\n        /* \"#utility.yul\":6587:6619   */\n      tag_292\n        /* \"#utility.yul\":6613:6618   */\n      dup2\n        /* \"#utility.yul\":6587:6619   */\n      tag_164\n      jump\t// in\n    tag_292:\n        /* \"#utility.yul\":6582:6585   */\n      dup3\n        /* \"#utility.yul\":6575:6620   */\n      mstore\n        /* \"#utility.yul\":6484:6626   */\n      pop\n      pop\n      jump\t// out\n        /* \"#utility.yul\":6632:6722   */\n    tag_177:\n        /* \"#utility.yul\":6666:6673   */\n      0x00\n        /* \"#utility.yul\":6709:6714   */\n      dup2\n        /* \"#utility.yul\":6702:6715   */\n      iszero\n        /* \"#utility.yul\":6695:6716   */\n      iszero\n        /* \"#utility.yul\":6684:6716   */\n      swap1\n      pop\n        /* \"#utility.yul\":6632:6722   */\n      swap2\n      swap1\n      pop\n      jump\t// out\n        /* \"#utility.yul\":6728:6837   */\n    tag_178:\n        /* \"#utility.yul\":6809:6830   */\n      tag_295\n        /* \"#utility.yul\":6824:6829   */\n      dup2\n        /* \"#utility.yul\":6809:6830   */\n      tag_177\n      jump\t// in\n    tag_295:\n        /* \"#utility.yul\":6804:6807   */\n      dup3\n        /* \"#utility.yul\":6797:6831   */\n      mstore\n        /* \"#utility.yul\":6728:6837   */\n      pop\n      pop\n      jump\t// out\n        /* \"#utility.yul\":6843:7618   */\n    tag_71:\n        /* \"#utility.yul\":7078:7082   */\n      0x00\n        /* \"#utility.yul\":7116:7119   */\n      0xa0\n        /* \"#utility.yul\":7105:7114   */\n      dup3\n        /* \"#utility.yul\":7101:7120   */\n      add\n        /* \"#utility.yul\":7093:7120   */\n      swap1\n      pop\n        /* \"#utility.yul\":7166:7175   */\n      dup2\n        /* \"#utility.yul\":7160:7164   */\n      dup2\n        /* \"#utility.yul\":7156:7176   */\n      sub\n        /* \"#utility.yul\":7152:7153   */\n      0x00\n        /* \"#utility.yul\":7141:7150   */\n      dup4\n        /* \"#utility.yul\":7137:7154   */\n      add\n        /* \"#utility.yul\":7130:7177   */\n      mstore\n        /* \"#utility.yul\":7194:7272   */\n      tag_297\n        /* \"#utility.yul\":7267:7271   */\n      dup2\n        /* \"#utility.yul\":7258:7264   */\n      dup9\n        /* \"#utility.yul\":7194:7272   */\n      tag_175\n      jump\t// in\n    tag_297:\n        /* \"#utility.yul\":7186:7272   */\n      swap1\n      pop\n        /* \"#utility.yul\":7282:7370   */\n      tag_298\n        /* \"#utility.yul\":7366:7368   */\n      0x20\n        /* \"#utility.yul\":7355:7364   */\n      dup4\n        /* \"#utility.yul\":7351:7369   */\n      add\n        /* \"#utility.yul\":7342:7348   */\n      dup8\n        /* \"#utility.yul\":7282:7370   */\n      tag_176\n      jump\t// in\n    tag_298:\n        /* \"#utility.yul\":7380:7452   */\n      tag_299\n        /* \"#utility.yul\":7448:7450   */\n      0x40\n        /* \"#utility.yul\":7437:7446   */\n      dup4\n        /* \"#utility.yul\":7433:7451   */\n      add\n        /* \"#utility.yul\":7424:7430   */\n      dup7\n        /* \"#utility.yul\":7380:7452   */\n      tag_149\n      jump\t// in\n    tag_299:\n        /* \"#utility.yul\":7462:7528   */\n      tag_300\n        /* \"#utility.yul\":7524:7526   */\n      0x60\n        /* \"#utility.yul\":7513:7522   */\n      dup4\n        /* \"#utility.yul\":7509:7527   */\n      add\n        /* \"#utility.yul\":7500:7506   */\n      dup6\n        /* \"#utility.yul\":7462:7528   */\n      tag_178\n      jump\t// in\n    tag_300:\n        /* \"#utility.yul\":7538:7611   */\n      tag_301\n        /* \"#utility.yul\":7606:7609   */\n      0x80\n        /* \"#utility.yul\":7595:7604   */\n      dup4\n        /* \"#utility.yul\":7591:7610   */\n      add\n        /* \"#utility.yul\":7582:7588   */\n      dup5\n        /* \"#utility.yul\":7538:7611   */\n      tag_149\n      jump\t// in\n    tag_301:\n        /* \"#utility.yul\":6843:7618   */\n      swap7\n      swap6\n      pop\n      pop\n      pop\n      pop\n      pop\n      pop\n      jump\t// out\n        /* \"#utility.yul\":7624:7742   */\n    tag_179:\n        /* \"#utility.yul\":7711:7735   */\n      tag_303\n        /* \"#utility.yul\":7729:7734   */\n      dup2\n        /* \"#utility.yul\":7711:7735   */\n      tag_169\n      jump\t// in\n    tag_303:\n        /* \"#utility.yul\":7706:7709   */\n      dup3\n        /* \"#utility.yul\":7699:7736   */\n      mstore\n        /* \"#utility.yul\":7624:7742   */\n      pop\n      pop\n      jump\t// out\n        /* \"#utility.yul\":7748:7970   */\n    tag_88:\n        /* \"#utility.yul\":7841:7845   */\n      0x00\n        /* \"#utility.yul\":7879:7881   */\n      0x20\n        /* \"#utility.yul\":7868:7877   */\n      dup3\n        /* \"#utility.yul\":7864:7882   */\n      add\n        /* \"#utility.yul\":7856:7882   */\n      swap1\n      pop\n        /* \"#utility.yul\":7892:7963   */\n      tag_305\n        /* \"#utility.yul\":7960:7961   */\n      0x00\n        /* \"#utility.yul\":7949:7958   */\n      dup4\n        /* \"#utility.yul\":7945:7962   */\n      add\n        /* \"#utility.yul\":7936:7942   */\n      dup5\n        /* \"#utility.yul\":7892:7963   */\n      tag_179\n      jump\t// in\n    tag_305:\n        /* \"#utility.yul\":7748:7970   */\n      swap3\n      swap2\n      pop\n      pop\n      jump\t// out\n        /* \"#utility.yul\":7976:8146   */\n    tag_180:\n        /* \"#utility.yul\":8116:8138   */\n      0x446561646c696e65206861732070617373656421000000000000000000000000\n        /* \"#utility.yul\":8112:8113   */\n      0x00\n        /* \"#utility.yul\":8104:8110   */\n      dup3\n        /* \"#utility.yul\":8100:8114   */\n      add\n        /* \"#utility.yul\":8093:8139   */\n      mstore\n        /* \"#utility.yul\":7976:8146   */\n      pop\n      jump\t// out\n        /* \"#utility.yul\":8152:8518   */\n    tag_181:\n        /* \"#utility.yul\":8294:8297   */\n      0x00\n        /* \"#utility.yul\":8315:8382   */\n      tag_308\n        /* \"#utility.yul\":8379:8381   */\n      0x14\n        /* \"#utility.yul\":8374:8377   */\n      dup4\n        /* \"#utility.yul\":8315:8382   */\n      tag_173\n      jump\t// in\n    tag_308:\n        /* \"#utility.yul\":8308:8382   */\n      swap2\n      pop\n        /* \"#utility.yul\":8391:8484   */\n      tag_309\n        /* \"#utility.yul\":8480:8483   */\n      dup3\n        /* \"#utility.yul\":8391:8484   */\n      tag_180\n      jump\t// in\n    tag_309:\n        /* \"#utility.yul\":8509:8511   */\n      0x20\n        /* \"#utility.yul\":8504:8507   */\n      dup3\n        /* \"#utility.yul\":8500:8512   */\n      add\n        /* \"#utility.yul\":8493:8512   */\n      swap1\n      pop\n        /* \"#utility.yul\":8152:8518   */\n      swap2\n      swap1\n      pop\n      jump\t// out\n        /* \"#utility.yul\":8524:8943   */\n    tag_92:\n        /* \"#utility.yul\":8690:8694   */\n      0x00\n        /* \"#utility.yul\":8728:8730   */\n      0x20\n        /* \"#utility.yul\":8717:8726   */\n      dup3\n        /* \"#utility.yul\":8713:8731   */\n      add\n        /* \"#utility.yul\":8705:8731   */\n      swap1\n      pop\n        /* \"#utility.yul\":8777:8786   */\n      dup2\n        /* \"#utility.yul\":8771:8775   */\n      dup2\n        /* \"#utility.yul\":8767:8787   */\n      sub\n        /* \"#utility.yul\":8763:8764   */\n      0x00\n        /* \"#utility.yul\":8752:8761   */\n      dup4\n        /* \"#utility.yul\":8748:8765   */\n      add\n        /* \"#utility.yul\":8741:8788   */\n      mstore\n        /* \"#utility.yul\":8805:8936   */\n      tag_311\n        /* \"#utility.yul\":8931:8935   */\n      dup2\n        /* \"#utility.yul\":8805:8936   */\n      tag_181\n      jump\t// in\n    tag_311:\n        /* \"#utility.yul\":8797:8936   */\n      swap1\n      pop\n        /* \"#utility.yul\":8524:8943   */\n      swap2\n      swap1\n      pop\n      jump\t// out\n        /* \"#utility.yul\":8949:9129   */\n    tag_182:\n        /* \"#utility.yul\":8997:9074   */\n      0x4e487b7100000000000000000000000000000000000000000000000000000000\n        /* \"#utility.yul\":8994:8995   */\n      0x00\n        /* \"#utility.yul\":8987:9075   */\n      mstore\n        /* \"#utility.yul\":9094:9098   */\n      0x11\n        /* \"#utility.yul\":9091:9092   */\n      0x04\n        /* \"#utility.yul\":9084:9099   */\n      mstore\n        /* \"#utility.yul\":9118:9122   */\n      0x24\n        /* \"#utility.yul\":9115:9116   */\n      0x00\n        /* \"#utility.yul\":9108:9123   */\n      revert\n        /* \"#utility.yul\":9135:9368   */\n    tag_96:\n        /* \"#utility.yul\":9174:9177   */\n      0x00\n        /* \"#utility.yul\":9197:9221   */\n      tag_314\n        /* \"#utility.yul\":9215:9220   */\n      dup3\n        /* \"#utility.yul\":9197:9221   */\n      tag_148\n      jump\t// in\n    tag_314:\n        /* \"#utility.yul\":9188:9221   */\n      swap2\n      pop\n        /* \"#utility.yul\":9243:9309   */\n      0xffffffffffffffffffffffffffffffffffffffffffffffffffffffffffffffff\n        /* \"#utility.yul\":9236:9241   */\n      dup3\n        /* \"#utility.yul\":9233:9310   */\n      sub\n        /* \"#utility.yul\":9230:9333   */\n      tag_315\n      jumpi\n        /* \"#utility.yul\":9313:9331   */\n      tag_316\n      tag_182\n      jump\t// in\n    tag_316:\n        /* \"#utility.yul\":9230:9333   */\n    tag_315:\n        /* \"#utility.yul\":9360:9361   */\n      0x01\n        /* \"#utility.yul\":9353:9358   */\n      dup3\n        /* \"#utility.yul\":9349:9362   */\n      add\n        /* \"#utility.yul\":9342:9362   */\n      swap1\n      pop\n        /* \"#utility.yul\":9135:9368   */\n      swap2\n      swap1\n      pop\n      jump\t// out\n        /* \"#utility.yul\":9374:9565   */\n    tag_98:\n        /* \"#utility.yul\":9414:9417   */\n      0x00\n        /* \"#utility.yul\":9433:9453   */\n      tag_318\n        /* \"#utility.yul\":9451:9452   */\n      dup3\n        /* \"#utility.yul\":9433:9453   */\n      tag_148\n      jump\t// in\n    tag_318:\n        /* \"#utility.yul\":9428:9453   */\n      swap2\n      pop\n        /* \"#utility.yul\":9467:9487   */\n      tag_319\n        /* \"#utility.yul\":9485:9486   */\n      dup4\n        /* \"#utility.yul\":9467:9487   */\n      tag_148\n      jump\t// in\n    tag_319:\n        /* \"#utility.yul\":9462:9487   */\n      swap3\n      pop\n        /* \"#utility.yul\":9510:9511   */\n      dup3\n        /* \"#utility.yul\":9507:9508   */\n      dup3\n        /* \"#utility.yul\":9503:9512   */\n      add\n        /* \"#utility.yul\":9496:9512   */\n      swap1\n      pop\n        /* \"#utility.yul\":9531:9534   */\n      dup1\n        /* \"#utility.yul\":9528:9529   */\n      dup3\n        /* \"#utility.yul\":9525:9535   */\n      gt\n        /* \"#utility.yul\":9522:9558   */\n      iszero\n      tag_320\n      jumpi\n        /* \"#utility.yul\":9538:9556   */\n      tag_321\n      tag_182\n      jump\t// in\n    tag_321:\n        /* \"#utility.yul\":9522:9558   */\n    tag_320:\n        /* \"#utility.yul\":9374:9565   */\n      swap3\n      swap2\n      pop\n      pop\n      jump\t// out\n        /* \"#utility.yul\":9571:9903   */\n    tag_101:\n        /* \"#utility.yul\":9692:9696   */\n      0x00\n        /* \"#utility.yul\":9730:9732   */\n      0x40\n        /* \"#utility.yul\":9719:9728   */\n      dup3\n        /* \"#utility.yul\":9715:9733   */\n      add\n        /* \"#utility.yul\":9707:9733   */\n      swap1\n      pop\n        /* \"#utility.yul\":9743:9814   */\n      tag_323\n        /* \"#utility.yul\":9811:9812   */\n      0x00\n        /* \"#utility.yul\":9800:9809   */\n      dup4\n        /* \"#utility.yul\":9796:9813   */\n      add\n        /* \"#utility.yul\":9787:9793   */\n      dup6\n        /* \"#utility.yul\":9743:9814   */\n      tag_179\n      jump\t// in\n    tag_323:\n        /* \"#utility.yul\":9824:9896   */\n      tag_324\n        /* \"#utility.yul\":9892:9894   */\n      0x20\n        /* \"#utility.yul\":9881:9890   */\n      dup4\n        /* \"#utility.yul\":9877:9895   */\n      add\n        /* \"#utility.yul\":9868:9874   */\n      dup5\n        /* \"#utility.yul\":9824:9896   */\n      tag_149\n      jump\t// in\n    tag_324:\n        /* \"#utility.yul\":9571:9903   */\n      swap4\n      swap3\n      pop\n      pop\n      pop\n      jump\t// out\n        /* \"#utility.yul\":9909:10130   */\n    tag_183:\n        /* \"#utility.yul\":10049:10083   */\n      0x4f6e6c792061646d696e2063616e2063616c6c20746869732066756e6374696f\n        /* \"#utility.yul\":10045:10046   */\n      0x00\n        /* \"#utility.yul\":10037:10043   */\n      dup3\n        /* \"#utility.yul\":10033:10047   */\n      add\n        /* \"#utility.yul\":10026:10084   */\n      mstore\n        /* \"#utility.yul\":10118:10122   */\n      0x6e21000000000000000000000000000000000000000000000000000000000000\n        /* \"#utility.yul\":10113:10115   */\n      0x20\n        /* \"#utility.yul\":10105:10111   */\n      dup3\n        /* \"#utility.yul\":10101:10116   */\n      add\n        /* \"#utility.yul\":10094:10123   */\n      mstore\n        /* \"#utility.yul\":9909:10130   */\n      pop\n      jump\t// out\n        /* \"#utility.yul\":10136:10502   */\n    tag_184:\n        /* \"#utility.yul\":10278:10281   */\n      0x00\n        /* \"#utility.yul\":10299:10366   */\n      tag_327\n        /* \"#utility.yul\":10363:10365   */\n      0x22\n        /* \"#utility.yul\":10358:10361   */\n      dup4\n        /* \"#utility.yul\":10299:10366   */\n      tag_173\n      jump\t// in\n    tag_327:\n        /* \"#utility.yul\":10292:10366   */\n      swap2\n      pop\n        /* \"#utility.yul\":10375:10468   */\n      tag_328\n        /* \"#utility.yul\":10464:10467   */\n      dup3\n        /* \"#utility.yul\":10375:10468   */\n      tag_183\n      jump\t// in\n    tag_328:\n        /* \"#utility.yul\":10493:10495   */\n      0x40\n        /* \"#utility.yul\":10488:10491   */\n      dup3\n        /* \"#utility.yul\":10484:10496   */\n      add\n        /* \"#utility.yul\":10477:10496   */\n      swap1\n      pop\n        /* \"#utility.yul\":10136:10502   */\n      swap2\n      swap1\n      pop\n      jump\t// out\n        /* \"#utility.yul\":10508:10927   */\n    tag_106:\n        /* \"#utility.yul\":10674:10678   */\n      0x00\n        /* \"#utility.yul\":10712:10714   */\n      0x20\n        /* \"#utility.yul\":10701:10710   */\n      dup3\n        /* \"#utility.yul\":10697:10715   */\n      add\n        /* \"#utility.yul\":10689:10715   */\n      swap1\n      pop\n        /* \"#utility.yul\":10761:10770   */\n      dup2\n        /* \"#utility.yul\":10755:10759   */\n      dup2\n        /* \"#utility.yul\":10751:10771   */\n      sub\n        /* \"#utility.yul\":10747:10748   */\n      0x00\n        /* \"#utility.yul\":10736:10745   */\n      dup4\n        /* \"#utility.yul\":10732:10749   */\n      add\n        /* \"#utility.yul\":10725:10772   */\n      mstore\n        /* \"#utility.yul\":10789:10920   */\n      tag_330\n        /* \"#utility.yul\":10915:10919   */\n      dup2\n        /* \"#utility.yul\":10789:10920   */\n      tag_184\n      jump\t// in\n    tag_330:\n        /* \"#utility.yul\":10781:10920   */\n      swap1\n      pop\n        /* \"#utility.yul\":10508:10927   */\n      swap2\n      swap1\n      pop\n      jump\t// out\n        /* \"#utility.yul\":10933:11113   */\n    tag_185:\n        /* \"#utility.yul\":10981:11058   */\n      0x4e487b7100000000000000000000000000000000000000000000000000000000\n        /* \"#utility.yul\":10978:10979   */\n      0x00\n        /* \"#utility.yul\":10971:11059   */\n      mstore\n        /* \"#utility.yul\":11078:11082   */\n      0x22\n        /* \"#utility.yul\":11075:11076   */\n      0x04\n        /* \"#utility.yul\":11068:11083   */\n      mstore\n        /* \"#utility.yul\":11102:11106   */\n      0x24\n        /* \"#utility.yul\":11099:11100   */\n      0x00\n        /* \"#utility.yul\":11092:11107   */\n      revert\n        /* \"#utility.yul\":11119:11439   */\n    tag_137:\n        /* \"#utility.yul\":11163:11169   */\n      0x00\n        /* \"#utility.yul\":11200:11201   */\n      0x02\n        /* \"#utility.yul\":11194:11198   */\n      dup3\n        /* \"#utility.yul\":11190:11202   */\n      div\n        /* \"#utility.yul\":11180:11202   */\n      swap1\n      pop\n        /* \"#utility.yul\":11247:11248   */\n      0x01\n        /* \"#utility.yul\":11241:11245   */\n      dup3\n        /* \"#utility.yul\":11237:11249   */\n      and\n        /* \"#utility.yul\":11268:11286   */\n      dup1\n        /* \"#utility.yul\":11258:11339   */\n      tag_333\n      jumpi\n        /* \"#utility.yul\":11324:11328   */\n      0x7f\n        /* \"#utility.yul\":11316:11322   */\n      dup3\n        /* \"#utility.yul\":11312:11329   */\n      and\n        /* \"#utility.yul\":11302:11329   */\n      swap2\n      pop\n        /* \"#utility.yul\":11258:11339   */\n    tag_333:\n        /* \"#utility.yul\":11386:11388   */\n      0x20\n        /* \"#utility.yul\":11378:11384   */\n      dup3\n        /* \"#utility.yul\":11375:11389   */\n      lt\n        /* \"#utility.yul\":11355:11373   */\n      dup2\n        /* \"#utility.yul\":11352:11390   */\n      sub\n        /* \"#utility.yul\":11349:11433   */\n      tag_334\n      jumpi\n        /* \"#utility.yul\":11405:11423   */\n      tag_335\n      tag_185\n      jump\t// in\n    tag_335:\n        /* \"#utility.yul\":11349:11433   */\n    tag_334:\n        /* \"#utility.yul\":11170:11439   */\n      pop\n        /* \"#utility.yul\":11119:11439   */\n      swap2\n      swap1\n      pop\n      jump\t// out\n        /* \"#utility.yul\":11445:11586   */\n    tag_186:\n        /* \"#utility.yul\":11494:11498   */\n      0x00\n        /* \"#utility.yul\":11517:11520   */\n      dup2\n        /* \"#utility.yul\":11509:11520   */\n      swap1\n      pop\n        /* \"#utility.yul\":11540:11543   */\n      dup2\n        /* \"#utility.yul\":11537:11538   */\n      0x00\n        /* \"#utility.yul\":11530:11544   */\n      mstore\n        /* \"#utility.yul\":11574:11578   */\n      0x20\n        /* \"#utility.yul\":11571:11572   */\n      0x00\n        /* \"#utility.yul\":11561:11579   */\n      keccak256\n        /* \"#utility.yul\":11553:11579   */\n      swap1\n      pop\n        /* \"#utility.yul\":11445:11586   */\n      swap2\n      swap1\n      pop\n      jump\t// out\n        /* \"#utility.yul\":11592:11685   */\n    tag_187:\n        /* \"#utility.yul\":11629:11635   */\n      0x00\n        /* \"#utility.yul\":11676:11678   */\n      0x20\n        /* \"#utility.yul\":11671:11673   */\n      0x1f\n        /* \"#utility.yul\":11664:11669   */\n      dup4\n        /* \"#utility.yul\":11660:11674   */\n      add\n        /* \"#utility.yul\":11656:11679   */\n      div\n        /* \"#utility.yul\":11646:11679   */\n      swap1\n      pop\n        /* \"#utility.yul\":11592:11685   */\n      swap2\n      swap1\n      pop\n      jump\t// out\n        /* \"#utility.yul\":11691:11798   */\n    tag_188:\n        /* \"#utility.yul\":11735:11743   */\n      0x00\n        /* \"#utility.yul\":11785:11790   */\n      dup3\n        /* \"#utility.yul\":11779:11783   */\n      dup3\n        /* \"#utility.yul\":11775:11791   */\n      shl\n        /* \"#utility.yul\":11754:11791   */\n      swap1\n      pop\n        /* \"#utility.yul\":11691:11798   */\n      swap3\n      swap2\n      pop\n      pop\n      jump\t// out\n        /* \"#utility.yul\":11804:12197   */\n    tag_189:\n        /* \"#utility.yul\":11873:11879   */\n      0x00\n        /* \"#utility.yul\":11923:11924   */\n      0x08\n        /* \"#utility.yul\":11911:11921   */\n      dup4\n        /* \"#utility.yul\":11907:11925   */\n      mul\n        /* \"#utility.yul\":11946:12043   */\n      tag_340\n        /* \"#utility.yul\":11976:12042   */\n      0xffffffffffffffffffffffffffffffffffffffffffffffffffffffffffffffff\n        /* \"#utility.yul\":11965:11974   */\n      dup3\n        /* \"#utility.yul\":11946:12043   */\n      tag_188\n      jump\t// in\n    tag_340:\n        /* \"#utility.yul\":12064:12103   */\n      tag_341\n        /* \"#utility.yul\":12094:12102   */\n      dup7\n        /* \"#utility.yul\":12083:12092   */\n      dup4\n        /* \"#utility.yul\":12064:12103   */\n      tag_188\n      jump\t// in\n    tag_341:\n        /* \"#utility.yul\":12052:12103   */\n      swap6\n      pop\n        /* \"#utility.yul\":12136:12140   */\n      dup1\n        /* \"#utility.yul\":12132:12141   */\n      not\n        /* \"#utility.yul\":12125:12130   */\n      dup5\n        /* \"#utility.yul\":12121:12142   */\n      and\n        /* \"#utility.yul\":12112:12142   */\n      swap4\n      pop\n        /* \"#utility.yul\":12185:12189   */\n      dup1\n        /* \"#utility.yul\":12175:12183   */\n      dup7\n        /* \"#utility.yul\":12171:12190   */\n      and\n        /* \"#utility.yul\":12164:12169   */\n      dup5\n        /* \"#utility.yul\":12161:12191   */\n      or\n        /* \"#utility.yul\":12151:12191   */\n      swap3\n      pop\n        /* \"#utility.yul\":11880:12197   */\n      pop\n      pop\n        /* \"#utility.yul\":11804:12197   */\n      swap4\n      swap3\n      pop\n      pop\n      pop\n      jump\t// out\n        /* \"#utility.yul\":12203:12263   */\n    tag_190:\n        /* \"#utility.yul\":12231:12234   */\n      0x00\n        /* \"#utility.yul\":12252:12257   */\n      dup2\n        /* \"#utility.yul\":12245:12257   */\n      swap1\n      pop\n        /* \"#utility.yul\":12203:12263   */\n      swap2\n      swap1\n      pop\n      jump\t// out\n        /* \"#utility.yul\":12269:12411   */\n    tag_191:\n        /* \"#utility.yul\":12319:12328   */\n      0x00\n        /* \"#utility.yul\":12352:12405   */\n      tag_344\n        /* \"#utility.yul\":12370:12404   */\n      tag_345\n        /* \"#utility.yul\":12379:12403   */\n      tag_346\n        /* \"#utility.yul\":12397:12402   */\n      dup5\n        /* \"#utility.yul\":12379:12403   */\n      tag_148\n      jump\t// in\n    tag_346:\n        /* \"#utility.yul\":12370:12404   */\n      tag_190\n      jump\t// in\n    tag_345:\n        /* \"#utility.yul\":12352:12405   */\n      tag_148\n      jump\t// in\n    tag_344:\n        /* \"#utility.yul\":12339:12405   */\n      swap1\n      pop\n        /* \"#utility.yul\":12269:12411   */\n      swap2\n      swap1\n      pop\n      jump\t// out\n        /* \"#utility.yul\":12417:12492   */\n    tag_192:\n        /* \"#utility.yul\":12460:12463   */\n      0x00\n        /* \"#utility.yul\":12481:12486   */\n      dup2\n        /* \"#utility.yul\":12474:12486   */\n      swap1\n      pop\n        /* \"#utility.yul\":12417:12492   */\n      swap2\n      swap1\n      pop\n      jump\t// out\n        /* \"#utility.yul\":12498:12767   */\n    tag_193:\n        /* \"#utility.yul\":12608:12647   */\n      tag_349\n        /* \"#utility.yul\":12639:12646   */\n      dup4\n        /* \"#utility.yul\":12608:12647   */\n      tag_191\n      jump\t// in\n    tag_349:\n        /* \"#utility.yul\":12669:12760   */\n      tag_350\n        /* \"#utility.yul\":12718:12759   */\n      tag_351\n        /* \"#utility.yul\":12742:12758   */\n      dup3\n        /* \"#utility.yul\":12718:12759   */\n      tag_192\n      jump\t// in\n    tag_351:\n        /* \"#utility.yul\":12710:12716   */\n      dup5\n        /* \"#utility.yul\":12703:12707   */\n      dup5\n        /* \"#utility.yul\":12697:12708   */\n      sload\n        /* \"#utility.yul\":12669:12760   */\n      tag_189\n      jump\t// in\n    tag_350:\n        /* \"#utility.yul\":12663:12667   */\n      dup3\n        /* \"#utility.yul\":12656:12761   */\n      sstore\n        /* \"#utility.yul\":12574:12767   */\n      pop\n        /* \"#utility.yul\":12498:12767   */\n      pop\n      pop\n      pop\n      jump\t// out\n        /* \"#utility.yul\":12773:12846   */\n    tag_194:\n        /* \"#utility.yul\":12818:12821   */\n      0x00\n        /* \"#utility.yul\":12839:12840   */\n      0x00\n        /* \"#utility.yul\":12832:12840   */\n      swap1\n      pop\n        /* \"#utility.yul\":12773:12846   */\n      swap1\n      jump\t// out\n        /* \"#utility.yul\":12852:13041   */\n    tag_195:\n        /* \"#utility.yul\":12929:12961   */\n      tag_354\n      tag_194\n      jump\t// in\n    tag_354:\n        /* \"#utility.yul\":12970:13035   */\n      tag_355\n        /* \"#utility.yul\":13028:13034   */\n      dup2\n        /* \"#utility.yul\":13020:13026   */\n      dup5\n        /* \"#utility.yul\":13014:13018   */\n      dup5\n        /* \"#utility.yul\":12970:13035   */\n      tag_193\n      jump\t// in\n    tag_355:\n        /* \"#utility.yul\":12905:13041   */\n      pop\n        /* \"#utility.yul\":12852:13041   */\n      pop\n      pop\n      jump\t// out\n        /* \"#utility.yul\":13047:13233   */\n    tag_196:\n        /* \"#utility.yul\":13107:13227   */\n    tag_357:\n        /* \"#utility.yul\":13124:13127   */\n      dup2\n        /* \"#utility.yul\":13117:13122   */\n      dup2\n        /* \"#utility.yul\":13114:13128   */\n      lt\n        /* \"#utility.yul\":13107:13227   */\n      iszero\n      tag_359\n      jumpi\n        /* \"#utility.yul\":13178:13217   */\n      tag_360\n        /* \"#utility.yul\":13215:13216   */\n      0x00\n        /* \"#utility.yul\":13208:13213   */\n      dup3\n        /* \"#utility.yul\":13178:13217   */\n      tag_195\n      jump\t// in\n    tag_360:\n        /* \"#utility.yul\":13151:13152   */\n      0x01\n        /* \"#utility.yul\":13144:13149   */\n      dup2\n        /* \"#utility.yul\":13140:13153   */\n      add\n        /* \"#utility.yul\":13131:13153   */\n      swap1\n      pop\n        /* \"#utility.yul\":13107:13227   */\n      jump(tag_357)\n    tag_359:\n        /* \"#utility.yul\":13047:13233   */\n      pop\n      pop\n      jump\t// out\n        /* \"#utility.yul\":13239:13782   */\n    tag_197:\n        /* \"#utility.yul\":13340:13342   */\n      0x1f\n        /* \"#utility.yul\":13335:13338   */\n      dup3\n        /* \"#utility.yul\":13332:13343   */\n      gt\n        /* \"#utility.yul\":13329:13775   */\n      iszero\n      tag_362\n      jumpi\n        /* \"#utility.yul\":13374:13412   */\n      tag_363\n        /* \"#utility.yul\":13406:13411   */\n      dup2\n        /* \"#utility.yul\":13374:13412   */\n      tag_186\n      jump\t// in\n    tag_363:\n        /* \"#utility.yul\":13458:13487   */\n      tag_364\n        /* \"#utility.yul\":13476:13486   */\n      dup5\n        /* \"#utility.yul\":13458:13487   */\n      tag_187\n      jump\t// in\n    tag_364:\n        /* \"#utility.yul\":13448:13456   */\n      dup2\n        /* \"#utility.yul\":13444:13488   */\n      add\n        /* \"#utility.yul\":13641:13643   */\n      0x20\n        /* \"#utility.yul\":13629:13639   */\n      dup6\n        /* \"#utility.yul\":13626:13644   */\n      lt\n        /* \"#utility.yul\":13623:13672   */\n      iszero\n      tag_365\n      jumpi\n        /* \"#utility.yul\":13662:13670   */\n      dup2\n        /* \"#utility.yul\":13647:13670   */\n      swap1\n      pop\n        /* \"#utility.yul\":13623:13672   */\n    tag_365:\n        /* \"#utility.yul\":13685:13765   */\n      tag_366\n        /* \"#utility.yul\":13741:13763   */\n      tag_367\n        /* \"#utility.yul\":13759:13762   */\n      dup6\n        /* \"#utility.yul\":13741:13763   */\n      tag_187\n      jump\t// in\n    tag_367:\n        /* \"#utility.yul\":13731:13739   */\n      dup4\n        /* \"#utility.yul\":13727:13764   */\n      add\n        /* \"#utility.yul\":13714:13725   */\n      dup3\n        /* \"#utility.yul\":13685:13765   */\n      tag_196\n      jump\t// in\n    tag_366:\n        /* \"#utility.yul\":13344:13775   */\n      pop\n      pop\n        /* \"#utility.yul\":13329:13775   */\n    tag_362:\n        /* \"#utility.yul\":13239:13782   */\n      pop\n      pop\n      pop\n      jump\t// out\n        /* \"#utility.yul\":13788:13905   */\n    tag_198:\n        /* \"#utility.yul\":13842:13850   */\n      0x00\n        /* \"#utility.yul\":13892:13897   */\n      dup3\n        /* \"#utility.yul\":13886:13890   */\n      dup3\n        /* \"#utility.yul\":13882:13898   */\n      shr\n        /* \"#utility.yul\":13861:13898   */\n      swap1\n      pop\n        /* \"#utility.yul\":13788:13905   */\n      swap3\n      swap2\n      pop\n      pop\n      jump\t// out\n        /* \"#utility.yul\":13911:14080   */\n    tag_199:\n        /* \"#utility.yul\":13955:13961   */\n      0x00\n        /* \"#utility.yul\":13988:14039   */\n      tag_370\n        /* \"#utility.yul\":14036:14037   */\n      0x00\n        /* \"#utility.yul\":14032:14038   */\n      not\n        /* \"#utility.yul\":14024:14029   */\n      dup5\n        /* \"#utility.yul\":14021:14022   */\n      0x08\n        /* \"#utility.yul\":14017:14030   */\n      mul\n        /* \"#utility.yul\":13988:14039   */\n      tag_198\n      jump\t// in\n    tag_370:\n        /* \"#utility.yul\":13984:14040   */\n      not\n        /* \"#utility.yul\":14069:14073   */\n      dup1\n        /* \"#utility.yul\":14063:14067   */\n      dup4\n        /* \"#utility.yul\":14059:14074   */\n      and\n        /* \"#utility.yul\":14049:14074   */\n      swap2\n      pop\n        /* \"#utility.yul\":13962:14080   */\n      pop\n        /* \"#utility.yul\":13911:14080   */\n      swap3\n      swap2\n      pop\n      pop\n      jump\t// out\n        /* \"#utility.yul\":14085:14380   */\n    tag_200:\n        /* \"#utility.yul\":14161:14165   */\n      0x00\n        /* \"#utility.yul\":14307:14336   */\n      tag_372\n        /* \"#utility.yul\":14332:14335   */\n      dup4\n        /* \"#utility.yul\":14326:14330   */\n      dup4\n        /* \"#utility.yul\":14307:14336   */\n      tag_199\n      jump\t// in\n    tag_372:\n        /* \"#utility.yul\":14299:14336   */\n      swap2\n      pop\n        /* \"#utility.yul\":14369:14372   */\n      dup3\n        /* \"#utility.yul\":14366:14367   */\n      0x02\n        /* \"#utility.yul\":14362:14373   */\n      mul\n        /* \"#utility.yul\":14356:14360   */\n      dup3\n        /* \"#utility.yul\":14353:14374   */\n      or\n        /* \"#utility.yul\":14345:14374   */\n      swap1\n      pop\n        /* \"#utility.yul\":14085:14380   */\n      swap3\n      swap2\n      pop\n      pop\n      jump\t// out\n        /* \"#utility.yul\":14385:15780   */\n    tag_110:\n        /* \"#utility.yul\":14502:14539   */\n      tag_374\n        /* \"#utility.yul\":14535:14538   */\n      dup3\n        /* \"#utility.yul\":14502:14539   */\n      tag_172\n      jump\t// in\n    tag_374:\n        /* \"#utility.yul\":14604:14622   */\n      0xffffffffffffffff\n        /* \"#utility.yul\":14596:14602   */\n      dup2\n        /* \"#utility.yul\":14593:14623   */\n      gt\n        /* \"#utility.yul\":14590:14646   */\n      iszero\n      tag_375\n      jumpi\n        /* \"#utility.yul\":14626:14644   */\n      tag_376\n      tag_156\n      jump\t// in\n    tag_376:\n        /* \"#utility.yul\":14590:14646   */\n    tag_375:\n        /* \"#utility.yul\":14670:14708   */\n      tag_377\n        /* \"#utility.yul\":14702:14706   */\n      dup3\n        /* \"#utility.yul\":14696:14707   */\n      sload\n        /* \"#utility.yul\":14670:14708   */\n      tag_137\n      jump\t// in\n    tag_377:\n        /* \"#utility.yul\":14755:14822   */\n      tag_378\n        /* \"#utility.yul\":14815:14821   */\n      dup3\n        /* \"#utility.yul\":14807:14813   */\n      dup3\n        /* \"#utility.yul\":14801:14805   */\n      dup6\n        /* \"#utility.yul\":14755:14822   */\n      tag_197\n      jump\t// in\n    tag_378:\n        /* \"#utility.yul\":14849:14850   */\n      0x00\n        /* \"#utility.yul\":14873:14877   */\n      0x20\n        /* \"#utility.yul\":14860:14877   */\n      swap1\n      pop\n        /* \"#utility.yul\":14905:14907   */\n      0x1f\n        /* \"#utility.yul\":14897:14903   */\n      dup4\n        /* \"#utility.yul\":14894:14908   */\n      gt\n        /* \"#utility.yul\":14922:14923   */\n      0x01\n        /* \"#utility.yul\":14917:15535   */\n      dup2\n      eq\n      tag_380\n      jumpi\n        /* \"#utility.yul\":15579:15580   */\n      0x00\n        /* \"#utility.yul\":15596:15602   */\n      dup5\n        /* \"#utility.yul\":15593:15670   */\n      iszero\n      tag_381\n      jumpi\n        /* \"#utility.yul\":15645:15654   */\n      dup3\n        /* \"#utility.yul\":15640:15643   */\n      dup8\n        /* \"#utility.yul\":15636:15655   */\n      add\n        /* \"#utility.yul\":15630:15656   */\n      mload\n        /* \"#utility.yul\":15621:15656   */\n      swap1\n      pop\n        /* \"#utility.yul\":15593:15670   */\n    tag_381:\n        /* \"#utility.yul\":15696:15763   */\n      tag_382\n        /* \"#utility.yul\":15756:15762   */\n      dup6\n        /* \"#utility.yul\":15749:15754   */\n      dup3\n        /* \"#utility.yul\":15696:15763   */\n      tag_200\n      jump\t// in\n    tag_382:\n        /* \"#utility.yul\":15690:15694   */\n      dup7\n        /* \"#utility.yul\":15683:15764   */\n      sstore\n        /* \"#utility.yul\":15552:15774   */\n      pop\n        /* \"#utility.yul\":14887:15774   */\n      jump(tag_379)\n        /* \"#utility.yul\":14917:15535   */\n    tag_380:\n        /* \"#utility.yul\":14969:14973   */\n      0x1f\n        /* \"#utility.yul\":14965:14974   */\n      not\n        /* \"#utility.yul\":14957:14963   */\n      dup5\n        /* \"#utility.yul\":14953:14975   */\n      and\n        /* \"#utility.yul\":15003:15040   */\n      tag_383\n        /* \"#utility.yul\":15035:15039   */\n      dup7\n        /* \"#utility.yul\":15003:15040   */\n      tag_186\n      jump\t// in\n    tag_383:\n        /* \"#utility.yul\":15062:15063   */\n      0x00\n        /* \"#utility.yul\":15076:15284   */\n    tag_384:\n        /* \"#utility.yul\":15090:15097   */\n      dup3\n        /* \"#utility.yul\":15087:15088   */\n      dup2\n        /* \"#utility.yul\":15084:15098   */\n      lt\n        /* \"#utility.yul\":15076:15284   */\n      iszero\n      tag_386\n      jumpi\n        /* \"#utility.yul\":15169:15178   */\n      dup5\n        /* \"#utility.yul\":15164:15167   */\n      dup10\n        /* \"#utility.yul\":15160:15179   */\n      add\n        /* \"#utility.yul\":15154:15180   */\n      mload\n        /* \"#utility.yul\":15146:15152   */\n      dup3\n        /* \"#utility.yul\":15139:15181   */\n      sstore\n        /* \"#utility.yul\":15220:15221   */\n      0x01\n        /* \"#utility.yul\":15212:15218   */\n      dup3\n        /* \"#utility.yul\":15208:15222   */\n      add\n        /* \"#utility.yul\":15198:15222   */\n      swap2\n      pop\n        /* \"#utility.yul\":15267:15269   */\n      0x20\n        /* \"#utility.yul\":15256:15265   */\n      dup6\n        /* \"#utility.yul\":15252:15270   */\n      add\n        /* \"#utility.yul\":15239:15270   */\n      swap5\n      pop\n        /* \"#utility.yul\":15113:15117   */\n      0x20\n        /* \"#utility.yul\":15110:15111   */\n      dup2\n        /* \"#utility.yul\":15106:15118   */\n      add\n        /* \"#utility.yul\":15101:15118   */\n      swap1\n      pop\n        /* \"#utility.yul\":15076:15284   */\n      jump(tag_384)\n    tag_386:\n        /* \"#utility.yul\":15312:15318   */\n      dup7\n        /* \"#utility.yul\":15303:15310   */\n      dup4\n        /* \"#utility.yul\":15300:15319   */\n      lt\n        /* \"#utility.yul\":15297:15476   */\n      iszero\n      tag_387\n      jumpi\n        /* \"#utility.yul\":15370:15379   */\n      dup5\n        /* \"#utility.yul\":15365:15368   */\n      dup10\n        /* \"#utility.yul\":15361:15380   */\n      add\n        /* \"#utility.yul\":15355:15381   */\n      mload\n        /* \"#utility.yul\":15413:15461   */\n      tag_388\n        /* \"#utility.yul\":15455:15459   */\n      0x1f\n        /* \"#utility.yul\":15447:15453   */\n      dup10\n        /* \"#utility.yul\":15443:15460   */\n      and\n        /* \"#utility.yul\":15432:15441   */\n      dup3\n        /* \"#utility.yul\":15413:15461   */\n      tag_199\n      jump\t// in\n    tag_388:\n        /* \"#utility.yul\":15405:15411   */\n      dup4\n        /* \"#utility.yul\":15398:15462   */\n      sstore\n        /* \"#utility.yul\":15320:15476   */\n      pop\n        /* \"#utility.yul\":15297:15476   */\n    tag_387:\n        /* \"#utility.yul\":15522:15523   */\n      0x01\n        /* \"#utility.yul\":15518:15519   */\n      0x02\n        /* \"#utility.yul\":15510:15516   */\n      dup9\n        /* \"#utility.yul\":15506:15520   */\n      mul\n        /* \"#utility.yul\":15502:15524   */\n      add\n        /* \"#utility.yul\":15496:15500   */\n      dup9\n        /* \"#utility.yul\":15489:15525   */\n      sstore\n        /* \"#utility.yul\":14924:15535   */\n      pop\n      pop\n      pop\n        /* \"#utility.yul\":14887:15774   */\n    tag_379:\n      pop\n        /* \"#utility.yul\":14477:15780   */\n      pop\n      pop\n      pop\n        /* \"#utility.yul\":14385:15780   */\n      pop\n      pop\n      jump\t// out\n        /* \"#utility.yul\":15786:15928   */\n    tag_201:\n        /* \"#utility.yul\":15836:15845   */\n      0x00\n        /* \"#utility.yul\":15869:15922   */\n      tag_390\n        /* \"#utility.yul\":15887:15921   */\n      tag_391\n        /* \"#utility.yul\":15896:15920   */\n      tag_392\n        /* \"#utility.yul\":15914:15919   */\n      dup5\n        /* \"#utility.yul\":15896:15920   */\n      tag_163\n      jump\t// in\n    tag_392:\n        /* \"#utility.yul\":15887:15921   */\n      tag_190\n      jump\t// in\n    tag_391:\n        /* \"#utility.yul\":15869:15922   */\n      tag_163\n      jump\t// in\n    tag_390:\n        /* \"#utility.yul\":15856:15922   */\n      swap1\n      pop\n        /* \"#utility.yul\":15786:15928   */\n      swap2\n      swap1\n      pop\n      jump\t// out\n        /* \"#utility.yul\":15934:16060   */\n    tag_202:\n        /* \"#utility.yul\":15984:15993   */\n      0x00\n        /* \"#utility.yul\":16017:16054   */\n      tag_394\n        /* \"#utility.yul\":16048:16053   */\n      dup3\n        /* \"#utility.yul\":16017:16054   */\n      tag_201\n      jump\t// in\n    tag_394:\n        /* \"#utility.yul\":16004:16054   */\n      swap1\n      pop\n        /* \"#utility.yul\":15934:16060   */\n      swap2\n      swap1\n      pop\n      jump\t// out\n        /* \"#utility.yul\":16066:16200   */\n    tag_203:\n        /* \"#utility.yul\":16124:16133   */\n      0x00\n        /* \"#utility.yul\":16157:16194   */\n      tag_396\n        /* \"#utility.yul\":16188:16193   */\n      dup3\n        /* \"#utility.yul\":16157:16194   */\n      tag_202\n      jump\t// in\n    tag_396:\n        /* \"#utility.yul\":16144:16194   */\n      swap1\n      pop\n        /* \"#utility.yul\":16066:16200   */\n      swap2\n      swap1\n      pop\n      jump\t// out\n        /* \"#utility.yul\":16206:16353   */\n    tag_204:\n        /* \"#utility.yul\":16301:16346   */\n      tag_398\n        /* \"#utility.yul\":16340:16345   */\n      dup2\n        /* \"#utility.yul\":16301:16346   */\n      tag_203\n      jump\t// in\n    tag_398:\n        /* \"#utility.yul\":16296:16299   */\n      dup3\n        /* \"#utility.yul\":16289:16347   */\n      mstore\n        /* \"#utility.yul\":16206:16353   */\n      pop\n      pop\n      jump\t// out\n        /* \"#utility.yul\":16359:16908   */\n    tag_112:\n        /* \"#utility.yul\":16536:16540   */\n      0x00\n        /* \"#utility.yul\":16574:16576   */\n      0x60\n        /* \"#utility.yul\":16563:16572   */\n      dup3\n        /* \"#utility.yul\":16559:16577   */\n      add\n        /* \"#utility.yul\":16551:16577   */\n      swap1\n      pop\n        /* \"#utility.yul\":16623:16632   */\n      dup2\n        /* \"#utility.yul\":16617:16621   */\n      dup2\n        /* \"#utility.yul\":16613:16633   */\n      sub\n        /* \"#utility.yul\":16609:16610   */\n      0x00\n        /* \"#utility.yul\":16598:16607   */\n      dup4\n        /* \"#utility.yul\":16594:16611   */\n      add\n        /* \"#utility.yul\":16587:16634   */\n      mstore\n        /* \"#utility.yul\":16651:16729   */\n      tag_400\n        /* \"#utility.yul\":16724:16728   */\n      dup2\n        /* \"#utility.yul\":16715:16721   */\n      dup7\n        /* \"#utility.yul\":16651:16729   */\n      tag_175\n      jump\t// in\n    tag_400:\n        /* \"#utility.yul\":16643:16729   */\n      swap1\n      pop\n        /* \"#utility.yul\":16739:16819   */\n      tag_401\n        /* \"#utility.yul\":16815:16817   */\n      0x20\n        /* \"#utility.yul\":16804:16813   */\n      dup4\n        /* \"#utility.yul\":16800:16818   */\n      add\n        /* \"#utility.yul\":16791:16797   */\n      dup6\n        /* \"#utility.yul\":16739:16819   */\n      tag_204\n      jump\t// in\n    tag_401:\n        /* \"#utility.yul\":16829:16901   */\n      tag_402\n        /* \"#utility.yul\":16897:16899   */\n      0x40\n        /* \"#utility.yul\":16886:16895   */\n      dup4\n        /* \"#utility.yul\":16882:16900   */\n      add\n        /* \"#utility.yul\":16873:16879   */\n      dup5\n        /* \"#utility.yul\":16829:16901   */\n      tag_149\n      jump\t// in\n    tag_402:\n        /* \"#utility.yul\":16359:16908   */\n      swap5\n      swap4\n      pop\n      pop\n      pop\n      pop\n      jump\t// out\n        /* \"#utility.yul\":16914:17138   */\n    tag_205:\n        /* \"#utility.yul\":17054:17088   */\n      0x596f75206d75737420746f206265206120636f6e7472696275746f7220746f20\n        /* \"#utility.yul\":17050:17051   */\n      0x00\n        /* \"#utility.yul\":17042:17048   */\n      dup3\n        /* \"#utility.yul\":17038:17052   */\n      add\n        /* \"#utility.yul\":17031:17089   */\n      mstore\n        /* \"#utility.yul\":17123:17130   */\n      0x766f746521000000000000000000000000000000000000000000000000000000\n        /* \"#utility.yul\":17118:17120   */\n      0x20\n        /* \"#utility.yul\":17110:17116   */\n      dup3\n        /* \"#utility.yul\":17106:17121   */\n      add\n        /* \"#utility.yul\":17099:17131   */\n      mstore\n        /* \"#utility.yul\":16914:17138   */\n      pop\n      jump\t// out\n        /* \"#utility.yul\":17144:17510   */\n    tag_206:\n        /* \"#utility.yul\":17286:17289   */\n      0x00\n        /* \"#utility.yul\":17307:17374   */\n      tag_405\n        /* \"#utility.yul\":17371:17373   */\n      0x25\n        /* \"#utility.yul\":17366:17369   */\n      dup4\n        /* \"#utility.yul\":17307:17374   */\n      tag_173\n      jump\t// in\n    tag_405:\n        /* \"#utility.yul\":17300:17374   */\n      swap2\n      pop\n        /* \"#utility.yul\":17383:17476   */\n      tag_406\n        /* \"#utility.yul\":17472:17475   */\n      dup3\n        /* \"#utility.yul\":17383:17476   */\n      tag_205\n      jump\t// in\n    tag_406:\n        /* \"#utility.yul\":17501:17503   */\n      0x40\n        /* \"#utility.yul\":17496:17499   */\n      dup3\n        /* \"#utility.yul\":17492:17504   */\n      add\n        /* \"#utility.yul\":17485:17504   */\n      swap1\n      pop\n        /* \"#utility.yul\":17144:17510   */\n      swap2\n      swap1\n      pop\n      jump\t// out\n        /* \"#utility.yul\":17516:17935   */\n    tag_116:\n        /* \"#utility.yul\":17682:17686   */\n      0x00\n        /* \"#utility.yul\":17720:17722   */\n      0x20\n        /* \"#utility.yul\":17709:17718   */\n      dup3\n        /* \"#utility.yul\":17705:17723   */\n      add\n        /* \"#utility.yul\":17697:17723   */\n      swap1\n      pop\n        /* \"#utility.yul\":17769:17778   */\n      dup2\n        /* \"#utility.yul\":17763:17767   */\n      dup2\n        /* \"#utility.yul\":17759:17779   */\n      sub\n        /* \"#utility.yul\":17755:17756   */\n      0x00\n        /* \"#utility.yul\":17744:17753   */\n      dup4\n        /* \"#utility.yul\":17740:17757   */\n      add\n        /* \"#utility.yul\":17733:17780   */\n      mstore\n        /* \"#utility.yul\":17797:17928   */\n      tag_408\n        /* \"#utility.yul\":17923:17927   */\n      dup2\n        /* \"#utility.yul\":17797:17928   */\n      tag_206\n      jump\t// in\n    tag_408:\n        /* \"#utility.yul\":17789:17928   */\n      swap1\n      pop\n        /* \"#utility.yul\":17516:17935   */\n      swap2\n      swap1\n      pop\n      jump\t// out\n        /* \"#utility.yul\":17941:18114   */\n    tag_207:\n        /* \"#utility.yul\":18081:18106   */\n      0x596f75206861766520616c726561647920766f74656421000000000000000000\n        /* \"#utility.yul\":18077:18078   */\n      0x00\n        /* \"#utility.yul\":18069:18075   */\n      dup3\n        /* \"#utility.yul\":18065:18079   */\n      add\n        /* \"#utility.yul\":18058:18107   */\n      mstore\n        /* \"#utility.yul\":17941:18114   */\n      pop\n      jump\t// out\n        /* \"#utility.yul\":18120:18486   */\n    tag_208:\n        /* \"#utility.yul\":18262:18265   */\n      0x00\n        /* \"#utility.yul\":18283:18350   */\n      tag_411\n        /* \"#utility.yul\":18347:18349   */\n      0x17\n        /* \"#utility.yul\":18342:18345   */\n      dup4\n        /* \"#utility.yul\":18283:18350   */\n      tag_173\n      jump\t// in\n    tag_411:\n        /* \"#utility.yul\":18276:18350   */\n      swap2\n      pop\n        /* \"#utility.yul\":18359:18452   */\n      tag_412\n        /* \"#utility.yul\":18448:18451   */\n      dup3\n        /* \"#utility.yul\":18359:18452   */\n      tag_207\n      jump\t// in\n    tag_412:\n        /* \"#utility.yul\":18477:18479   */\n      0x20\n        /* \"#utility.yul\":18472:18475   */\n      dup3\n        /* \"#utility.yul\":18468:18480   */\n      add\n        /* \"#utility.yul\":18461:18480   */\n      swap1\n      pop\n        /* \"#utility.yul\":18120:18486   */\n      swap2\n      swap1\n      pop\n      jump\t// out\n        /* \"#utility.yul\":18492:18911   */\n    tag_119:\n        /* \"#utility.yul\":18658:18662   */\n      0x00\n        /* \"#utility.yul\":18696:18698   */\n      0x20\n        /* \"#utility.yul\":18685:18694   */\n      dup3\n        /* \"#utility.yul\":18681:18699   */\n      add\n        /* \"#utility.yul\":18673:18699   */\n      swap1\n      pop\n        /* \"#utility.yul\":18745:18754   */\n      dup2\n        /* \"#utility.yul\":18739:18743   */\n      dup2\n        /* \"#utility.yul\":18735:18755   */\n      sub\n        /* \"#utility.yul\":18731:18732   */\n      0x00\n        /* \"#utility.yul\":18720:18729   */\n      dup4\n        /* \"#utility.yul\":18716:18733   */\n      add\n        /* \"#utility.yul\":18709:18756   */\n      mstore\n        /* \"#utility.yul\":18773:18904   */\n      tag_414\n        /* \"#utility.yul\":18899:18903   */\n      dup2\n        /* \"#utility.yul\":18773:18904   */\n      tag_208\n      jump\t// in\n    tag_414:\n        /* \"#utility.yul\":18765:18904   */\n      swap1\n      pop\n        /* \"#utility.yul\":18492:18911   */\n      swap2\n      swap1\n      pop\n      jump\t// out\n        /* \"#utility.yul\":18917:19098   */\n    tag_209:\n        /* \"#utility.yul\":19057:19090   */\n      0x546865207265717565737420686173206265656e20636f6d706c657465642e00\n        /* \"#utility.yul\":19053:19054   */\n      0x00\n        /* \"#utility.yul\":19045:19051   */\n      dup3\n        /* \"#utility.yul\":19041:19055   */\n      add\n        /* \"#utility.yul\":19034:19091   */\n      mstore\n        /* \"#utility.yul\":18917:19098   */\n      pop\n      jump\t// out\n        /* \"#utility.yul\":19104:19470   */\n    tag_210:\n        /* \"#utility.yul\":19246:19249   */\n      0x00\n        /* \"#utility.yul\":19267:19334   */\n      tag_417\n        /* \"#utility.yul\":19331:19333   */\n      0x1f\n        /* \"#utility.yul\":19326:19329   */\n      dup4\n        /* \"#utility.yul\":19267:19334   */\n      tag_173\n      jump\t// in\n    tag_417:\n        /* \"#utility.yul\":19260:19334   */\n      swap2\n      pop\n        /* \"#utility.yul\":19343:19436   */\n      tag_418\n        /* \"#utility.yul\":19432:19435   */\n      dup3\n        /* \"#utility.yul\":19343:19436   */\n      tag_209\n      jump\t// in\n    tag_418:\n        /* \"#utility.yul\":19461:19463   */\n      0x20\n        /* \"#utility.yul\":19456:19459   */\n      dup3\n        /* \"#utility.yul\":19452:19464   */\n      add\n        /* \"#utility.yul\":19445:19464   */\n      swap1\n      pop\n        /* \"#utility.yul\":19104:19470   */\n      swap2\n      swap1\n      pop\n      jump\t// out\n        /* \"#utility.yul\":19476:19895   */\n    tag_128:\n        /* \"#utility.yul\":19642:19646   */\n      0x00\n        /* \"#utility.yul\":19680:19682   */\n      0x20\n        /* \"#utility.yul\":19669:19678   */\n      dup3\n        /* \"#utility.yul\":19665:19683   */\n      add\n        /* \"#utility.yul\":19657:19683   */\n      swap1\n      pop\n        /* \"#utility.yul\":19729:19738   */\n      dup2\n        /* \"#utility.yul\":19723:19727   */\n      dup2\n        /* \"#utility.yul\":19719:19739   */\n      sub\n        /* \"#utility.yul\":19715:19716   */\n      0x00\n        /* \"#utility.yul\":19704:19713   */\n      dup4\n        /* \"#utility.yul\":19700:19717   */\n      add\n        /* \"#utility.yul\":19693:19740   */\n      mstore\n        /* \"#utility.yul\":19757:19888   */\n      tag_420\n        /* \"#utility.yul\":19883:19887   */\n      dup2\n        /* \"#utility.yul\":19757:19888   */\n      tag_210\n      jump\t// in\n    tag_420:\n        /* \"#utility.yul\":19749:19888   */\n      swap1\n      pop\n        /* \"#utility.yul\":19476:19895   */\n      swap2\n      swap1\n      pop\n      jump\t// out\n        /* \"#utility.yul\":19901:20081   */\n    tag_211:\n        /* \"#utility.yul\":19949:20026   */\n      0x4e487b7100000000000000000000000000000000000000000000000000000000\n        /* \"#utility.yul\":19946:19947   */\n      0x00\n        /* \"#utility.yul\":19939:20027   */\n      mstore\n        /* \"#utility.yul\":20046:20050   */\n      0x12\n        /* \"#utility.yul\":20043:20044   */\n      0x04\n        /* \"#utility.yul\":20036:20051   */\n      mstore\n        /* \"#utility.yul\":20070:20074   */\n      0x24\n        /* \"#utility.yul\":20067:20068   */\n      0x00\n        /* \"#utility.yul\":20060:20075   */\n      revert\n        /* \"#utility.yul\":20087:20272   */\n    tag_130:\n        /* \"#utility.yul\":20127:20128   */\n      0x00\n        /* \"#utility.yul\":20144:20164   */\n      tag_423\n        /* \"#utility.yul\":20162:20163   */\n      dup3\n        /* \"#utility.yul\":20144:20164   */\n      tag_148\n      jump\t// in\n    tag_423:\n        /* \"#utility.yul\":20139:20164   */\n      swap2\n      pop\n        /* \"#utility.yul\":20178:20198   */\n      tag_424\n        /* \"#utility.yul\":20196:20197   */\n      dup4\n        /* \"#utility.yul\":20178:20198   */\n      tag_148\n      jump\t// in\n    tag_424:\n        /* \"#utility.yul\":20173:20198   */\n      swap3\n      pop\n        /* \"#utility.yul\":20217:20218   */\n      dup3\n        /* \"#utility.yul\":20207:20242   */\n      tag_425\n      jumpi\n        /* \"#utility.yul\":20222:20240   */\n      tag_426\n      tag_211\n      jump\t// in\n    tag_426:\n        /* \"#utility.yul\":20207:20242   */\n    tag_425:\n        /* \"#utility.yul\":20264:20265   */\n      dup3\n        /* \"#utility.yul\":20261:20262   */\n      dup3\n        /* \"#utility.yul\":20257:20266   */\n      div\n        /* \"#utility.yul\":20252:20266   */\n      swap1\n      pop\n        /* \"#utility.yul\":20087:20272   */\n      swap3\n      swap2\n      pop\n      pop\n      jump\t// out\n        /* \"#utility.yul\":20278:20626   */\n    tag_135:\n        /* \"#utility.yul\":20407:20411   */\n      0x00\n        /* \"#utility.yul\":20445:20447   */\n      0x40\n        /* \"#utility.yul\":20434:20443   */\n      dup3\n        /* \"#utility.yul\":20430:20448   */\n      add\n        /* \"#utility.yul\":20422:20448   */\n      swap1\n      pop\n        /* \"#utility.yul\":20458:20537   */\n      tag_428\n        /* \"#utility.yul\":20534:20535   */\n      0x00\n        /* \"#utility.yul\":20523:20532   */\n      dup4\n        /* \"#utility.yul\":20519:20536   */\n      add\n        /* \"#utility.yul\":20510:20516   */\n      dup6\n        /* \"#utility.yul\":20458:20537   */\n      tag_204\n      jump\t// in\n    tag_428:\n        /* \"#utility.yul\":20547:20619   */\n      tag_429\n        /* \"#utility.yul\":20615:20617   */\n      0x20\n        /* \"#utility.yul\":20604:20613   */\n      dup4\n        /* \"#utility.yul\":20600:20618   */\n      add\n        /* \"#utility.yul\":20591:20597   */\n      dup5\n        /* \"#utility.yul\":20547:20619   */\n      tag_149\n      jump\t// in\n    tag_429:\n        /* \"#utility.yul\":20278:20626   */\n      swap4\n      swap3\n      pop\n      pop\n      pop\n      jump\t// out\n\n    auxdata: 0xa2646970667358221220670e931506aeb7bf94496e088c30592e543726ed103cf0e2101f9b8bf818119064736f6c634300081c0033\n}\n",
				"bytecode": {
					"linkReferences": {},
					"object": "608060405234801561000f575f5ffd5b50604051611908380380611908833981810160405281019061003191906100d0565b816005819055508042610044919061013b565b60048190555060646003819055503360015f6101000a81548173ffffffffffffffffffffffffffffffffffffffff021916908373ffffffffffffffffffffffffffffffffffffffff160217905550505061016e565b5f5ffd5b5f819050919050565b6100af8161009d565b81146100b9575f5ffd5b50565b5f815190506100ca816100a6565b92915050565b5f5f604083850312156100e6576100e5610099565b5b5f6100f3858286016100bc565b9250506020610104858286016100bc565b9150509250929050565b7f4e487b71000000000000000000000000000000000000000000000000000000005f52601160045260245ffd5b5f6101458261009d565b91506101508361009d565b92508282019050808211156101685761016761010e565b5b92915050565b61178d8061017b5f395ff3fe6080604052600436106100eb575f3560e01c80635114cb5211610089578063b2d5ae4411610058578063b2d5ae44146102ee578063c59ee1dc14610304578063d7bb99ba1461032e578063f851a44014610338576100fa565b80635114cb52146102325780635c4627e91461025a57806381d12c58146102845780639fb42b1f146102c4576100fa565b806329dcb0cf116100c557806329dcb0cf1461018c57806340193883146101b65780634cb6f4a5146101e05780634e260f6f14610208576100fa565b806312065fe0146100fe5780631b16bb5c146101285780631f6d494214610150576100fa565b366100fa576100f8610362565b005b5f5ffd5b348015610109575f5ffd5b506101126104b4565b60405161011f9190610c67565b60405180910390f35b348015610133575f5ffd5b5061014e60048036038101906101499190610e51565b6104bb565b005b34801561015b575f5ffd5b5061017660048036038101906101719190610ef8565b610638565b6040516101839190610c67565b60405180910390f35b348015610197575f5ffd5b506101a061064c565b6040516101ad9190610c67565b60405180910390f35b3480156101c1575f5ffd5b506101ca610652565b6040516101d79190610c67565b60405180910390f35b3480156101eb575f5ffd5b5061020660048036038101906102019190610f23565b610658565b005b348015610213575f5ffd5b5061021c6107ef565b6040516102299190610c67565b60405180910390f35b34801561023d575f5ffd5b5061025860048036038101906102539190610f23565b6107f5565b005b348015610265575f5ffd5b5061026e610a05565b60405161027b9190610c67565b60405180910390f35b34801561028f575f5ffd5b506102aa60048036038101906102a59190610f23565b610a0b565b6040516102bb959493929190610fd7565b60405180910390f35b3480156102cf575f5ffd5b506102d8610aee565b6040516102e59190610c67565b60405180910390f35b3480156102f9575f5ffd5b50610302610af4565b005b34801561030f575f5ffd5b50610318610c24565b6040516103259190610c67565b60405180910390f35b610336610362565b005b348015610343575f5ffd5b5061034c610c2a565b604051610359919061103e565b60405180910390f35b60045442106103a6576040517f08c379a000000000000000000000000000000000000000000000000000000000815260040161039d906110a1565b60405180910390fd5b6003543410156103b4575f5ffd5b5f5f5f3373ffffffffffffffffffffffffffffffffffffffff1673ffffffffffffffffffffffffffffffffffffffff1681526020019081526020015f20540361040f5760025f815480929190610409906110ec565b91905055505b345f5f3373ffffffffffffffffffffffffffffffffffffffff1673ffffffffffffffffffffffffffffffffffffffff1681526020019081526020015f205f82825461045a9190611133565b925050819055503460065f8282546104729190611133565b925050819055507f2daf61dec57a2c194e9e87958b1a40a5c236b5e8c6041655d664ddbd16c2932033346040516104aa929190611166565b60405180910390a1565b5f47905090565b60015f9054906101000a900473ffffffffffffffffffffffffffffffffffffffff1673ffffffffffffffffffffffffffffffffffffffff163373ffffffffffffffffffffffffffffffffffffffff161461054a576040517f08c379a0000000000000000000000000000000000000000000000000000000008152600401610541906111fd565b60405180910390fd5b5f60075f60085481526020019081526020015f20905060085f815480929190610572906110ec565b919050555083815f0190816105879190611418565b5082816001015f6101000a81548173ffffffffffffffffffffffffffffffffffffffff021916908373ffffffffffffffffffffffffffffffffffffffff1602179055508181600201819055505f816003015f6101000a81548160ff0219169083151502179055505f81600401819055507f5392bd80651676ccaaedec1afbe841d47e369223df0ba1586110b6426ee87a3a84848460405161062a93929190611539565b60405180910390a150505050565b5f602052805f5260405f205f915090505481565b60045481565b60055481565b5f5f5f3373ffffffffffffffffffffffffffffffffffffffff1673ffffffffffffffffffffffffffffffffffffffff1681526020019081526020015f2054116106d6576040517f08c379a00000000000000000000000000000000000000000000000000000000081526004016106cd906115e5565b60405180910390fd5b5f60075f8381526020019081526020015f2090505f1515816005015f3373ffffffffffffffffffffffffffffffffffffffff1673ffffffffffffffffffffffffffffffffffffffff1681526020019081526020015f205f9054906101000a900460ff1615151461077b576040517f08c379a00000000000000000000000000000000000000000000000000000000081526004016107729061164d565b60405180910390fd5b6001816005015f3373ffffffffffffffffffffffffffffffffffffffff1673ffffffffffffffffffffffffffffffffffffffff1681526020019081526020015f205f6101000a81548160ff021916908315150217905550806004015f8154809291906107e6906110ec565b91905055505050565b60025481565b60015f9054906101000a900473ffffffffffffffffffffffffffffffffffffffff1673ffffffffffffffffffffffffffffffffffffffff163373ffffffffffffffffffffffffffffffffffffffff1614610884576040517f08c379a000000000000000000000000000000000000000000000000000000000815260040161087b906111fd565b60405180910390fd5b6005546006541015610894575f5ffd5b5f60075f8381526020019081526020015f2090505f1515816003015f9054906101000a900460ff161515146108fe576040517f08c379a00000000000000000000000000000000000000000000000000000000081526004016108f5906116b5565b60405180910390fd5b6002805461090c9190611700565b81600401541161091a575f5ffd5b806001015f9054906101000a900473ffffffffffffffffffffffffffffffffffffffff1673ffffffffffffffffffffffffffffffffffffffff166108fc826002015490811502906040515f60405180830381858888f19350505050158015610984573d5f5f3e3d5ffd5b506001816003015f6101000a81548160ff0219169083151502179055507ff9fa312cadd7f67890bb3ef4b7fc87e11850ddb4fe7e4853b0a4cf9041a8301c816001015f9054906101000a900473ffffffffffffffffffffffffffffffffffffffff1682600201546040516109f9929190611730565b60405180910390a15050565b60035481565b6007602052805f5260405f205f91509050805f018054610a2a90611248565b80601f0160208091040260200160405190810160405280929190818152602001828054610a5690611248565b8015610aa15780601f10610a7857610100808354040283529160200191610aa1565b820191905f5260205f20905b815481529060010190602001808311610a8457829003601f168201915b505050505090806001015f9054906101000a900473ffffffffffffffffffffffffffffffffffffffff1690806002015490806003015f9054906101000a900460ff16908060040154905085565b60085481565b60045442118015610b085750600554600654105b610b10575f5ffd5b5f5f5f3373ffffffffffffffffffffffffffffffffffffffff1673ffffffffffffffffffffffffffffffffffffffff1681526020019081526020015f205411610b57575f5ffd5b5f3390505f5f5f3373ffffffffffffffffffffffffffffffffffffffff1673ffffffffffffffffffffffffffffffffffffffff1681526020019081526020015f205490508173ffffffffffffffffffffffffffffffffffffffff166108fc8290811502906040515f60405180830381858888f19350505050158015610bde573d5f5f3e3d5ffd5b505f5f5f3373ffffffffffffffffffffffffffffffffffffffff1673ffffffffffffffffffffffffffffffffffffffff1681526020019081526020015f20819055505050565b60065481565b60015f9054906101000a900473ffffffffffffffffffffffffffffffffffffffff1681565b5f819050919050565b610c6181610c4f565b82525050565b5f602082019050610c7a5f830184610c58565b92915050565b5f604051905090565b5f5ffd5b5f5ffd5b5f5ffd5b5f5ffd5b5f601f19601f8301169050919050565b7f4e487b71000000000000000000000000000000000000000000000000000000005f52604160045260245ffd5b610cdf82610c99565b810181811067ffffffffffffffff82111715610cfe57610cfd610ca9565b5b80604052505050565b5f610d10610c80565b9050610d1c8282610cd6565b919050565b5f67ffffffffffffffff821115610d3b57610d3a610ca9565b5b610d4482610c99565b9050602081019050919050565b828183375f83830152505050565b5f610d71610d6c84610d21565b610d07565b905082815260208101848484011115610d8d57610d8c610c95565b5b610d98848285610d51565b509392505050565b5f82601f830112610db457610db3610c91565b5b8135610dc4848260208601610d5f565b91505092915050565b5f73ffffffffffffffffffffffffffffffffffffffff82169050919050565b5f610df682610dcd565b9050919050565b610e0681610dec565b8114610e10575f5ffd5b50565b5f81359050610e2181610dfd565b92915050565b610e3081610c4f565b8114610e3a575f5ffd5b50565b5f81359050610e4b81610e27565b92915050565b5f5f5f60608486031215610e6857610e67610c89565b5b5f84013567ffffffffffffffff811115610e8557610e84610c8d565b5b610e9186828701610da0565b9350506020610ea286828701610e13565b9250506040610eb386828701610e3d565b9150509250925092565b5f610ec782610dcd565b9050919050565b610ed781610ebd565b8114610ee1575f5ffd5b50565b5f81359050610ef281610ece565b92915050565b5f60208284031215610f0d57610f0c610c89565b5b5f610f1a84828501610ee4565b91505092915050565b5f60208284031215610f3857610f37610c89565b5b5f610f4584828501610e3d565b91505092915050565b5f81519050919050565b5f82825260208201905092915050565b8281835e5f83830152505050565b5f610f8082610f4e565b610f8a8185610f58565b9350610f9a818560208601610f68565b610fa381610c99565b840191505092915050565b610fb781610dec565b82525050565b5f8115159050919050565b610fd181610fbd565b82525050565b5f60a0820190508181035f830152610fef8188610f76565b9050610ffe6020830187610fae565b61100b6040830186610c58565b6110186060830185610fc8565b6110256080830184610c58565b9695505050505050565b61103881610ebd565b82525050565b5f6020820190506110515f83018461102f565b92915050565b7f446561646c696e652068617320706173736564210000000000000000000000005f82015250565b5f61108b601483610f58565b915061109682611057565b602082019050919050565b5f6020820190508181035f8301526110b88161107f565b9050919050565b7f4e487b71000000000000000000000000000000000000000000000000000000005f52601160045260245ffd5b5f6110f682610c4f565b91507fffffffffffffffffffffffffffffffffffffffffffffffffffffffffffffffff8203611128576111276110bf565b5b600182019050919050565b5f61113d82610c4f565b915061114883610c4f565b92508282019050808211156111605761115f6110bf565b5b92915050565b5f6040820190506111795f83018561102f565b6111866020830184610c58565b9392505050565b7f4f6e6c792061646d696e2063616e2063616c6c20746869732066756e6374696f5f8201527f6e21000000000000000000000000000000000000000000000000000000000000602082015250565b5f6111e7602283610f58565b91506111f28261118d565b604082019050919050565b5f6020820190508181035f830152611214816111db565b9050919050565b7f4e487b71000000000000000000000000000000000000000000000000000000005f52602260045260245ffd5b5f600282049050600182168061125f57607f821691505b6020821081036112725761127161121b565b5b50919050565b5f819050815f5260205f209050919050565b5f6020601f8301049050919050565b5f82821b905092915050565b5f600883026112d47fffffffffffffffffffffffffffffffffffffffffffffffffffffffffffffffff82611299565b6112de8683611299565b95508019841693508086168417925050509392505050565b5f819050919050565b5f61131961131461130f84610c4f565b6112f6565b610c4f565b9050919050565b5f819050919050565b611332836112ff565b61134661133e82611320565b8484546112a5565b825550505050565b5f5f905090565b61135d61134e565b611368818484611329565b505050565b5b8181101561138b576113805f82611355565b60018101905061136e565b5050565b601f8211156113d0576113a181611278565b6113aa8461128a565b810160208510156113b9578190505b6113cd6113c58561128a565b83018261136d565b50505b505050565b5f82821c905092915050565b5f6113f05f19846008026113d5565b1980831691505092915050565b5f61140883836113e1565b9150826002028217905092915050565b61142182610f4e565b67ffffffffffffffff81111561143a57611439610ca9565b5b6114448254611248565b61144f82828561138f565b5f60209050601f831160018114611480575f841561146e578287015190505b61147885826113fd565b8655506114df565b601f19841661148e86611278565b5f5b828110156114b557848901518255600182019150602085019450602081019050611490565b868310156114d257848901516114ce601f8916826113e1565b8355505b6001600288020188555050505b505050505050565b5f6115016114fc6114f784610dcd565b6112f6565b610dcd565b9050919050565b5f611512826114e7565b9050919050565b5f61152382611508565b9050919050565b61153381611519565b82525050565b5f6060820190508181035f8301526115518186610f76565b9050611560602083018561152a565b61156d6040830184610c58565b949350505050565b7f596f75206d75737420746f206265206120636f6e7472696275746f7220746f205f8201527f766f746521000000000000000000000000000000000000000000000000000000602082015250565b5f6115cf602583610f58565b91506115da82611575565b604082019050919050565b5f6020820190508181035f8301526115fc816115c3565b9050919050565b7f596f75206861766520616c726561647920766f746564210000000000000000005f82015250565b5f611637601783610f58565b915061164282611603565b602082019050919050565b5f6020820190508181035f8301526116648161162b565b9050919050565b7f546865207265717565737420686173206265656e20636f6d706c657465642e005f82015250565b5f61169f601f83610f58565b91506116aa8261166b565b602082019050919050565b5f6020820190508181035f8301526116cc81611693565b9050919050565b7f4e487b71000000000000000000000000000000000000000000000000000000005f52601260045260245ffd5b5f61170a82610c4f565b915061171583610c4f565b925082611725576117246116d3565b5b828204905092915050565b5f6040820190506117435f83018561152a565b6117506020830184610c58565b939250505056fea2646970667358221220670e931506aeb7bf94496e088c30592e543726ed103cf0e2101f9b8bf818119064736f6c634300081c0033",
					"opcodes": "PUSH1 0x80 PUSH1 0x40 MSTORE CALLVALUE DUP1 ISZERO PUSH2 0xF JUMPI PUSH0 PUSH0 REVERT JUMPDEST POP PUSH1 0x40 MLOAD PUSH2 0x1908 CODESIZE SUB DUP1 PUSH2 0x1908 DUP4 CODECOPY DUP2 DUP2 ADD PUSH1 0x40 MSTORE DUP2 ADD SWAP1 PUSH2 0x31 SWAP2 SWAP1 PUSH2 0xD0 JUMP JUMPDEST DUP2 PUSH1 0x5 DUP2 SWAP1 SSTORE POP DUP1 TIMESTAMP PUSH2 0x44 SWAP2 SWAP1 PUSH2 0x13B JUMP JUMPDEST PUSH1 0x4 DUP2 SWAP1 SSTORE POP PUSH1 0x64 PUSH1 0x3 DUP2 SWAP1 SSTORE POP CALLER PUSH1 0x1 PUSH0 PUSH2 0x100 EXP DUP2 SLOAD DUP2 PUSH20 0xFFFFFFFFFFFFFFFFFFFFFFFFFFFFFFFFFFFFFFFF MUL NOT AND SWAP1 DUP4 PUSH20 0xFFFFFFFFFFFFFFFFFFFFFFFFFFFFFFFFFFFFFFFF AND MUL OR SWAP1 SSTORE POP POP POP PUSH2 0x16E JUMP JUMPDEST PUSH0 PUSH0 REVERT JUMPDEST PUSH0 DUP2 SWAP1 POP SWAP2 SWAP1 POP JUMP JUMPDEST PUSH2 0xAF DUP2 PUSH2 0x9D JUMP JUMPDEST DUP2 EQ PUSH2 0xB9 JUMPI PUSH0 PUSH0 REVERT JUMPDEST POP JUMP JUMPDEST PUSH0 DUP2 MLOAD SWAP1 POP PUSH2 0xCA DUP2 PUSH2 0xA6 JUMP JUMPDEST SWAP3 SWAP2 POP POP JUMP JUMPDEST PUSH0 PUSH0 PUSH1 0x40 DUP4 DUP6 SUB SLT ISZERO PUSH2 0xE6 JUMPI PUSH2 0xE5 PUSH2 0x99 JUMP JUMPDEST JUMPDEST PUSH0 PUSH2 0xF3 DUP6 DUP3 DUP7 ADD PUSH2 0xBC JUMP JUMPDEST SWAP3 POP POP PUSH1 0x20 PUSH2 0x104 DUP6 DUP3 DUP7 ADD PUSH2 0xBC JUMP JUMPDEST SWAP2 POP POP SWAP3 POP SWAP3 SWAP1 POP JUMP JUMPDEST PUSH32 0x4E487B7100000000000000000000000000000000000000000000000000000000 PUSH0 MSTORE PUSH1 0x11 PUSH1 0x4 MSTORE PUSH1 0x24 PUSH0 REVERT JUMPDEST PUSH0 PUSH2 0x145 DUP3 PUSH2 0x9D JUMP JUMPDEST SWAP2 POP PUSH2 0x150 DUP4 PUSH2 0x9D JUMP JUMPDEST SWAP3 POP DUP3 DUP3 ADD SWAP1 POP DUP1 DUP3 GT ISZERO PUSH2 0x168 JUMPI PUSH2 0x167 PUSH2 0x10E JUMP JUMPDEST JUMPDEST SWAP3 SWAP2 POP POP JUMP JUMPDEST PUSH2 0x178D DUP1 PUSH2 0x17B PUSH0 CODECOPY PUSH0 RETURN INVALID PUSH1 0x80 PUSH1 0x40 MSTORE PUSH1 0x4 CALLDATASIZE LT PUSH2 0xEB JUMPI PUSH0 CALLDATALOAD PUSH1 0xE0 SHR DUP1 PUSH4 0x5114CB52 GT PUSH2 0x89 JUMPI DUP1 PUSH4 0xB2D5AE44 GT PUSH2 0x58 JUMPI DUP1 PUSH4 0xB2D5AE44 EQ PUSH2 0x2EE JUMPI DUP1 PUSH4 0xC59EE1DC EQ PUSH2 0x304 JUMPI DUP1 PUSH4 0xD7BB99BA EQ PUSH2 0x32E JUMPI DUP1 PUSH4 0xF851A440 EQ PUSH2 0x338 JUMPI PUSH2 0xFA JUMP JUMPDEST DUP1 PUSH4 0x5114CB52 EQ PUSH2 0x232 JUMPI DUP1 PUSH4 0x5C4627E9 EQ PUSH2 0x25A JUMPI DUP1 PUSH4 0x81D12C58 EQ PUSH2 0x284 JUMPI DUP1 PUSH4 0x9FB42B1F EQ PUSH2 0x2C4 JUMPI PUSH2 0xFA JUMP JUMPDEST DUP1 PUSH4 0x29DCB0CF GT PUSH2 0xC5 JUMPI DUP1 PUSH4 0x29DCB0CF EQ PUSH2 0x18C JUMPI DUP1 PUSH4 0x40193883 EQ PUSH2 0x1B6 JUMPI DUP1 PUSH4 0x4CB6F4A5 EQ PUSH2 0x1E0 JUMPI DUP1 PUSH4 0x4E260F6F EQ PUSH2 0x208 JUMPI PUSH2 0xFA JUMP JUMPDEST DUP1 PUSH4 0x12065FE0 EQ PUSH2 0xFE JUMPI DUP1 PUSH4 0x1B16BB5C EQ PUSH2 0x128 JUMPI DUP1 PUSH4 0x1F6D4942 EQ PUSH2 0x150 JUMPI PUSH2 0xFA JUMP JUMPDEST CALLDATASIZE PUSH2 0xFA JUMPI PUSH2 0xF8 PUSH2 0x362 JUMP JUMPDEST STOP JUMPDEST PUSH0 PUSH0 REVERT JUMPDEST CALLVALUE DUP1 ISZERO PUSH2 0x109 JUMPI PUSH0 PUSH0 REVERT JUMPDEST POP PUSH2 0x112 PUSH2 0x4B4 JUMP JUMPDEST PUSH1 0x40 MLOAD PUSH2 0x11F SWAP2 SWAP1 PUSH2 0xC67 JUMP JUMPDEST PUSH1 0x40 MLOAD DUP1 SWAP2 SUB SWAP1 RETURN JUMPDEST CALLVALUE DUP1 ISZERO PUSH2 0x133 JUMPI PUSH0 PUSH0 REVERT JUMPDEST POP PUSH2 0x14E PUSH1 0x4 DUP1 CALLDATASIZE SUB DUP2 ADD SWAP1 PUSH2 0x149 SWAP2 SWAP1 PUSH2 0xE51 JUMP JUMPDEST PUSH2 0x4BB JUMP JUMPDEST STOP JUMPDEST CALLVALUE DUP1 ISZERO PUSH2 0x15B JUMPI PUSH0 PUSH0 REVERT JUMPDEST POP PUSH2 0x176 PUSH1 0x4 DUP1 CALLDATASIZE SUB DUP2 ADD SWAP1 PUSH2 0x171 SWAP2 SWAP1 PUSH2 0xEF8 JUMP JUMPDEST PUSH2 0x638 JUMP JUMPDEST PUSH1 0x40 MLOAD PUSH2 0x183 SWAP2 SWAP1 PUSH2 0xC67 JUMP JUMPDEST PUSH1 0x40 MLOAD DUP1 SWAP2 SUB SWAP1 RETURN JUMPDEST CALLVALUE DUP1 ISZERO PUSH2 0x197 JUMPI PUSH0 PUSH0 REVERT JUMPDEST POP PUSH2 0x1A0 PUSH2 0x64C JUMP JUMPDEST PUSH1 0x40 MLOAD PUSH2 0x1AD SWAP2 SWAP1 PUSH2 0xC67 JUMP JUMPDEST PUSH1 0x40 MLOAD DUP1 SWAP2 SUB SWAP1 RETURN JUMPDEST CALLVALUE DUP1 ISZERO PUSH2 0x1C1 JUMPI PUSH0 PUSH0 REVERT JUMPDEST POP PUSH2 0x1CA PUSH2 0x652 JUMP JUMPDEST PUSH1 0x40 MLOAD PUSH2 0x1D7 SWAP2 SWAP1 PUSH2 0xC67 JUMP JUMPDEST PUSH1 0x40 MLOAD DUP1 SWAP2 SUB SWAP1 RETURN JUMPDEST CALLVALUE DUP1 ISZERO PUSH2 0x1EB JUMPI PUSH0 PUSH0 REVERT JUMPDEST POP PUSH2 0x206 PUSH1 0x4 DUP1 CALLDATASIZE SUB DUP2 ADD SWAP1 PUSH2 0x201 SWAP2 SWAP1 PUSH2 0xF23 JUMP JUMPDEST PUSH2 0x658 JUMP JUMPDEST STOP JUMPDEST CALLVALUE DUP1 ISZERO PUSH2 0x213 JUMPI PUSH0 PUSH0 REVERT JUMPDEST POP PUSH2 0x21C PUSH2 0x7EF JUMP JUMPDEST PUSH1 0x40 MLOAD PUSH2 0x229 SWAP2 SWAP1 PUSH2 0xC67 JUMP JUMPDEST PUSH1 0x40 MLOAD DUP1 SWAP2 SUB SWAP1 RETURN JUMPDEST CALLVALUE DUP1 ISZERO PUSH2 0x23D JUMPI PUSH0 PUSH0 REVERT JUMPDEST POP PUSH2 0x258 PUSH1 0x4 DUP1 CALLDATASIZE SUB DUP2 ADD SWAP1 PUSH2 0x253 SWAP2 SWAP1 PUSH2 0xF23 JUMP JUMPDEST PUSH2 0x7F5 JUMP JUMPDEST STOP JUMPDEST CALLVALUE DUP1 ISZERO PUSH2 0x265 JUMPI PUSH0 PUSH0 REVERT JUMPDEST POP PUSH2 0x26E PUSH2 0xA05 JUMP JUMPDEST PUSH1 0x40 MLOAD PUSH2 0x27B SWAP2 SWAP1 PUSH2 0xC67 JUMP JUMPDEST PUSH1 0x40 MLOAD DUP1 SWAP2 SUB SWAP1 RETURN JUMPDEST CALLVALUE DUP1 ISZERO PUSH2 0x28F JUMPI PUSH0 PUSH0 REVERT JUMPDEST POP PUSH2 0x2AA PUSH1 0x4 DUP1 CALLDATASIZE SUB DUP2 ADD SWAP1 PUSH2 0x2A5 SWAP2 SWAP1 PUSH2 0xF23 JUMP JUMPDEST PUSH2 0xA0B JUMP JUMPDEST PUSH1 0x40 MLOAD PUSH2 0x2BB SWAP6 SWAP5 SWAP4 SWAP3 SWAP2 SWAP1 PUSH2 0xFD7 JUMP JUMPDEST PUSH1 0x40 MLOAD DUP1 SWAP2 SUB SWAP1 RETURN JUMPDEST CALLVALUE DUP1 ISZERO PUSH2 0x2CF JUMPI PUSH0 PUSH0 REVERT JUMPDEST POP PUSH2 0x2D8 PUSH2 0xAEE JUMP JUMPDEST PUSH1 0x40 MLOAD PUSH2 0x2E5 SWAP2 SWAP1 PUSH2 0xC67 JUMP JUMPDEST PUSH1 0x40 MLOAD DUP1 SWAP2 SUB SWAP1 RETURN JUMPDEST CALLVALUE DUP1 ISZERO PUSH2 0x2F9 JUMPI PUSH0 PUSH0 REVERT JUMPDEST POP PUSH2 0x302 PUSH2 0xAF4 JUMP JUMPDEST STOP JUMPDEST CALLVALUE DUP1 ISZERO PUSH2 0x30F JUMPI PUSH0 PUSH0 REVERT JUMPDEST POP PUSH2 0x318 PUSH2 0xC24 JUMP JUMPDEST PUSH1 0x40 MLOAD PUSH2 0x325 SWAP2 SWAP1 PUSH2 0xC67 JUMP JUMPDEST PUSH1 0x40 MLOAD DUP1 SWAP2 SUB SWAP1 RETURN JUMPDEST PUSH2 0x336 PUSH2 0x362 JUMP JUMPDEST STOP JUMPDEST CALLVALUE DUP1 ISZERO PUSH2 0x343 JUMPI PUSH0 PUSH0 REVERT JUMPDEST POP PUSH2 0x34C PUSH2 0xC2A JUMP JUMPDEST PUSH1 0x40 MLOAD PUSH2 0x359 SWAP2 SWAP1 PUSH2 0x103E JUMP JUMPDEST PUSH1 0x40 MLOAD DUP1 SWAP2 SUB SWAP1 RETURN JUMPDEST PUSH1 0x4 SLOAD TIMESTAMP LT PUSH2 0x3A6 JUMPI PUSH1 0x40 MLOAD PUSH32 0x8C379A000000000000000000000000000000000000000000000000000000000 DUP2 MSTORE PUSH1 0x4 ADD PUSH2 0x39D SWAP1 PUSH2 0x10A1 JUMP JUMPDEST PUSH1 0x40 MLOAD DUP1 SWAP2 SUB SWAP1 REVERT JUMPDEST PUSH1 0x3 SLOAD CALLVALUE LT ISZERO PUSH2 0x3B4 JUMPI PUSH0 PUSH0 REVERT JUMPDEST PUSH0 PUSH0 PUSH0 CALLER PUSH20 0xFFFFFFFFFFFFFFFFFFFFFFFFFFFFFFFFFFFFFFFF AND PUSH20 0xFFFFFFFFFFFFFFFFFFFFFFFFFFFFFFFFFFFFFFFF AND DUP2 MSTORE PUSH1 0x20 ADD SWAP1 DUP2 MSTORE PUSH1 0x20 ADD PUSH0 KECCAK256 SLOAD SUB PUSH2 0x40F JUMPI PUSH1 0x2 PUSH0 DUP2 SLOAD DUP1 SWAP3 SWAP2 SWAP1 PUSH2 0x409 SWAP1 PUSH2 0x10EC JUMP JUMPDEST SWAP2 SWAP1 POP SSTORE POP JUMPDEST CALLVALUE PUSH0 PUSH0 CALLER PUSH20 0xFFFFFFFFFFFFFFFFFFFFFFFFFFFFFFFFFFFFFFFF AND PUSH20 0xFFFFFFFFFFFFFFFFFFFFFFFFFFFFFFFFFFFFFFFF AND DUP2 MSTORE PUSH1 0x20 ADD SWAP1 DUP2 MSTORE PUSH1 0x20 ADD PUSH0 KECCAK256 PUSH0 DUP3 DUP3 SLOAD PUSH2 0x45A SWAP2 SWAP1 PUSH2 0x1133 JUMP JUMPDEST SWAP3 POP POP DUP2 SWAP1 SSTORE POP CALLVALUE PUSH1 0x6 PUSH0 DUP3 DUP3 SLOAD PUSH2 0x472 SWAP2 SWAP1 PUSH2 0x1133 JUMP JUMPDEST SWAP3 POP POP DUP2 SWAP1 SSTORE POP PUSH32 0x2DAF61DEC57A2C194E9E87958B1A40A5C236B5E8C6041655D664DDBD16C29320 CALLER CALLVALUE PUSH1 0x40 MLOAD PUSH2 0x4AA SWAP3 SWAP2 SWAP1 PUSH2 0x1166 JUMP JUMPDEST PUSH1 0x40 MLOAD DUP1 SWAP2 SUB SWAP1 LOG1 JUMP JUMPDEST PUSH0 SELFBALANCE SWAP1 POP SWAP1 JUMP JUMPDEST PUSH1 0x1 PUSH0 SWAP1 SLOAD SWAP1 PUSH2 0x100 EXP SWAP1 DIV PUSH20 0xFFFFFFFFFFFFFFFFFFFFFFFFFFFFFFFFFFFFFFFF AND PUSH20 0xFFFFFFFFFFFFFFFFFFFFFFFFFFFFFFFFFFFFFFFF AND CALLER PUSH20 0xFFFFFFFFFFFFFFFFFFFFFFFFFFFFFFFFFFFFFFFF AND EQ PUSH2 0x54A JUMPI PUSH1 0x40 MLOAD PUSH32 0x8C379A000000000000000000000000000000000000000000000000000000000 DUP2 MSTORE PUSH1 0x4 ADD PUSH2 0x541 SWAP1 PUSH2 0x11FD JUMP JUMPDEST PUSH1 0x40 MLOAD DUP1 SWAP2 SUB SWAP1 REVERT JUMPDEST PUSH0 PUSH1 0x7 PUSH0 PUSH1 0x8 SLOAD DUP2 MSTORE PUSH1 0x20 ADD SWAP1 DUP2 MSTORE PUSH1 0x20 ADD PUSH0 KECCAK256 SWAP1 POP PUSH1 0x8 PUSH0 DUP2 SLOAD DUP1 SWAP3 SWAP2 SWAP1 PUSH2 0x572 SWAP1 PUSH2 0x10EC JUMP JUMPDEST SWAP2 SWAP1 POP SSTORE POP DUP4 DUP2 PUSH0 ADD SWAP1 DUP2 PUSH2 0x587 SWAP2 SWAP1 PUSH2 0x1418 JUMP JUMPDEST POP DUP3 DUP2 PUSH1 0x1 ADD PUSH0 PUSH2 0x100 EXP DUP2 SLOAD DUP2 PUSH20 0xFFFFFFFFFFFFFFFFFFFFFFFFFFFFFFFFFFFFFFFF MUL NOT AND SWAP1 DUP4 PUSH20 0xFFFFFFFFFFFFFFFFFFFFFFFFFFFFFFFFFFFFFFFF AND MUL OR SWAP1 SSTORE POP DUP2 DUP2 PUSH1 0x2 ADD DUP2 SWAP1 SSTORE POP PUSH0 DUP2 PUSH1 0x3 ADD PUSH0 PUSH2 0x100 EXP DUP2 SLOAD DUP2 PUSH1 0xFF MUL NOT AND SWAP1 DUP4 ISZERO ISZERO MUL OR SWAP1 SSTORE POP PUSH0 DUP2 PUSH1 0x4 ADD DUP2 SWAP1 SSTORE POP PUSH32 0x5392BD80651676CCAAEDEC1AFBE841D47E369223DF0BA1586110B6426EE87A3A DUP5 DUP5 DUP5 PUSH1 0x40 MLOAD PUSH2 0x62A SWAP4 SWAP3 SWAP2 SWAP1 PUSH2 0x1539 JUMP JUMPDEST PUSH1 0x40 MLOAD DUP1 SWAP2 SUB SWAP1 LOG1 POP POP POP POP JUMP JUMPDEST PUSH0 PUSH1 0x20 MSTORE DUP1 PUSH0 MSTORE PUSH1 0x40 PUSH0 KECCAK256 PUSH0 SWAP2 POP SWAP1 POP SLOAD DUP2 JUMP JUMPDEST PUSH1 0x4 SLOAD DUP2 JUMP JUMPDEST PUSH1 0x5 SLOAD DUP2 JUMP JUMPDEST PUSH0 PUSH0 PUSH0 CALLER PUSH20 0xFFFFFFFFFFFFFFFFFFFFFFFFFFFFFFFFFFFFFFFF AND PUSH20 0xFFFFFFFFFFFFFFFFFFFFFFFFFFFFFFFFFFFFFFFF AND DUP2 MSTORE PUSH1 0x20 ADD SWAP1 DUP2 MSTORE PUSH1 0x20 ADD PUSH0 KECCAK256 SLOAD GT PUSH2 0x6D6 JUMPI PUSH1 0x40 MLOAD PUSH32 0x8C379A000000000000000000000000000000000000000000000000000000000 DUP2 MSTORE PUSH1 0x4 ADD PUSH2 0x6CD SWAP1 PUSH2 0x15E5 JUMP JUMPDEST PUSH1 0x40 MLOAD DUP1 SWAP2 SUB SWAP1 REVERT JUMPDEST PUSH0 PUSH1 0x7 PUSH0 DUP4 DUP2 MSTORE PUSH1 0x20 ADD SWAP1 DUP2 MSTORE PUSH1 0x20 ADD PUSH0 KECCAK256 SWAP1 POP PUSH0 ISZERO ISZERO DUP2 PUSH1 0x5 ADD PUSH0 CALLER PUSH20 0xFFFFFFFFFFFFFFFFFFFFFFFFFFFFFFFFFFFFFFFF AND PUSH20 0xFFFFFFFFFFFFFFFFFFFFFFFFFFFFFFFFFFFFFFFF AND DUP2 MSTORE PUSH1 0x20 ADD SWAP1 DUP2 MSTORE PUSH1 0x20 ADD PUSH0 KECCAK256 PUSH0 SWAP1 SLOAD SWAP1 PUSH2 0x100 EXP SWAP1 DIV PUSH1 0xFF AND ISZERO ISZERO EQ PUSH2 0x77B JUMPI PUSH1 0x40 MLOAD PUSH32 0x8C379A000000000000000000000000000000000000000000000000000000000 DUP2 MSTORE PUSH1 0x4 ADD PUSH2 0x772 SWAP1 PUSH2 0x164D JUMP JUMPDEST PUSH1 0x40 MLOAD DUP1 SWAP2 SUB SWAP1 REVERT JUMPDEST PUSH1 0x1 DUP2 PUSH1 0x5 ADD PUSH0 CALLER PUSH20 0xFFFFFFFFFFFFFFFFFFFFFFFFFFFFFFFFFFFFFFFF AND PUSH20 0xFFFFFFFFFFFFFFFFFFFFFFFFFFFFFFFFFFFFFFFF AND DUP2 MSTORE PUSH1 0x20 ADD SWAP1 DUP2 MSTORE PUSH1 0x20 ADD PUSH0 KECCAK256 PUSH0 PUSH2 0x100 EXP DUP2 SLOAD DUP2 PUSH1 0xFF MUL NOT AND SWAP1 DUP4 ISZERO ISZERO MUL OR SWAP1 SSTORE POP DUP1 PUSH1 0x4 ADD PUSH0 DUP2 SLOAD DUP1 SWAP3 SWAP2 SWAP1 PUSH2 0x7E6 SWAP1 PUSH2 0x10EC JUMP JUMPDEST SWAP2 SWAP1 POP SSTORE POP POP POP JUMP JUMPDEST PUSH1 0x2 SLOAD DUP2 JUMP JUMPDEST PUSH1 0x1 PUSH0 SWAP1 SLOAD SWAP1 PUSH2 0x100 EXP SWAP1 DIV PUSH20 0xFFFFFFFFFFFFFFFFFFFFFFFFFFFFFFFFFFFFFFFF AND PUSH20 0xFFFFFFFFFFFFFFFFFFFFFFFFFFFFFFFFFFFFFFFF AND CALLER PUSH20 0xFFFFFFFFFFFFFFFFFFFFFFFFFFFFFFFFFFFFFFFF AND EQ PUSH2 0x884 JUMPI PUSH1 0x40 MLOAD PUSH32 0x8C379A000000000000000000000000000000000000000000000000000000000 DUP2 MSTORE PUSH1 0x4 ADD PUSH2 0x87B SWAP1 PUSH2 0x11FD JUMP JUMPDEST PUSH1 0x40 MLOAD DUP1 SWAP2 SUB SWAP1 REVERT JUMPDEST PUSH1 0x5 SLOAD PUSH1 0x6 SLOAD LT ISZERO PUSH2 0x894 JUMPI PUSH0 PUSH0 REVERT JUMPDEST PUSH0 PUSH1 0x7 PUSH0 DUP4 DUP2 MSTORE PUSH1 0x20 ADD SWAP1 DUP2 MSTORE PUSH1 0x20 ADD PUSH0 KECCAK256 SWAP1 POP PUSH0 ISZERO ISZERO DUP2 PUSH1 0x3 ADD PUSH0 SWAP1 SLOAD SWAP1 PUSH2 0x100 EXP SWAP1 DIV PUSH1 0xFF AND ISZERO ISZERO EQ PUSH2 0x8FE JUMPI PUSH1 0x40 MLOAD PUSH32 0x8C379A000000000000000000000000000000000000000000000000000000000 DUP2 MSTORE PUSH1 0x4 ADD PUSH2 0x8F5 SWAP1 PUSH2 0x16B5 JUMP JUMPDEST PUSH1 0x40 MLOAD DUP1 SWAP2 SUB SWAP1 REVERT JUMPDEST PUSH1 0x2 DUP1 SLOAD PUSH2 0x90C SWAP2 SWAP1 PUSH2 0x1700 JUMP JUMPDEST DUP2 PUSH1 0x4 ADD SLOAD GT PUSH2 0x91A JUMPI PUSH0 PUSH0 REVERT JUMPDEST DUP1 PUSH1 0x1 ADD PUSH0 SWAP1 SLOAD SWAP1 PUSH2 0x100 EXP SWAP1 DIV PUSH20 0xFFFFFFFFFFFFFFFFFFFFFFFFFFFFFFFFFFFFFFFF AND PUSH20 0xFFFFFFFFFFFFFFFFFFFFFFFFFFFFFFFFFFFFFFFF AND PUSH2 0x8FC DUP3 PUSH1 0x2 ADD SLOAD SWAP1 DUP2 ISZERO MUL SWAP1 PUSH1 0x40 MLOAD PUSH0 PUSH1 0x40 MLOAD DUP1 DUP4 SUB DUP2 DUP6 DUP9 DUP9 CALL SWAP4 POP POP POP POP ISZERO DUP1 ISZERO PUSH2 0x984 JUMPI RETURNDATASIZE PUSH0 PUSH0 RETURNDATACOPY RETURNDATASIZE PUSH0 REVERT JUMPDEST POP PUSH1 0x1 DUP2 PUSH1 0x3 ADD PUSH0 PUSH2 0x100 EXP DUP2 SLOAD DUP2 PUSH1 0xFF MUL NOT AND SWAP1 DUP4 ISZERO ISZERO MUL OR SWAP1 SSTORE POP PUSH32 0xF9FA312CADD7F67890BB3EF4B7FC87E11850DDB4FE7E4853B0A4CF9041A8301C DUP2 PUSH1 0x1 ADD PUSH0 SWAP1 SLOAD SWAP1 PUSH2 0x100 EXP SWAP1 DIV PUSH20 0xFFFFFFFFFFFFFFFFFFFFFFFFFFFFFFFFFFFFFFFF AND DUP3 PUSH1 0x2 ADD SLOAD PUSH1 0x40 MLOAD PUSH2 0x9F9 SWAP3 SWAP2 SWAP1 PUSH2 0x1730 JUMP JUMPDEST PUSH1 0x40 MLOAD DUP1 SWAP2 SUB SWAP1 LOG1 POP POP JUMP JUMPDEST PUSH1 0x3 SLOAD DUP2 JUMP JUMPDEST PUSH1 0x7 PUSH1 0x20 MSTORE DUP1 PUSH0 MSTORE PUSH1 0x40 PUSH0 KECCAK256 PUSH0 SWAP2 POP SWAP1 POP DUP1 PUSH0 ADD DUP1 SLOAD PUSH2 0xA2A SWAP1 PUSH2 0x1248 JUMP JUMPDEST DUP1 PUSH1 0x1F ADD PUSH1 0x20 DUP1 SWAP2 DIV MUL PUSH1 0x20 ADD PUSH1 0x40 MLOAD SWAP1 DUP2 ADD PUSH1 0x40 MSTORE DUP1 SWAP3 SWAP2 SWAP1 DUP2 DUP2 MSTORE PUSH1 0x20 ADD DUP3 DUP1 SLOAD PUSH2 0xA56 SWAP1 PUSH2 0x1248 JUMP JUMPDEST DUP1 ISZERO PUSH2 0xAA1 JUMPI DUP1 PUSH1 0x1F LT PUSH2 0xA78 JUMPI PUSH2 0x100 DUP1 DUP4 SLOAD DIV MUL DUP4 MSTORE SWAP2 PUSH1 0x20 ADD SWAP2 PUSH2 0xAA1 JUMP JUMPDEST DUP3 ADD SWAP2 SWAP1 PUSH0 MSTORE PUSH1 0x20 PUSH0 KECCAK256 SWAP1 JUMPDEST DUP2 SLOAD DUP2 MSTORE SWAP1 PUSH1 0x1 ADD SWAP1 PUSH1 0x20 ADD DUP1 DUP4 GT PUSH2 0xA84 JUMPI DUP3 SWAP1 SUB PUSH1 0x1F AND DUP3 ADD SWAP2 JUMPDEST POP POP POP POP POP SWAP1 DUP1 PUSH1 0x1 ADD PUSH0 SWAP1 SLOAD SWAP1 PUSH2 0x100 EXP SWAP1 DIV PUSH20 0xFFFFFFFFFFFFFFFFFFFFFFFFFFFFFFFFFFFFFFFF AND SWAP1 DUP1 PUSH1 0x2 ADD SLOAD SWAP1 DUP1 PUSH1 0x3 ADD PUSH0 SWAP1 SLOAD SWAP1 PUSH2 0x100 EXP SWAP1 DIV PUSH1 0xFF AND SWAP1 DUP1 PUSH1 0x4 ADD SLOAD SWAP1 POP DUP6 JUMP JUMPDEST PUSH1 0x8 SLOAD DUP2 JUMP JUMPDEST PUSH1 0x4 SLOAD TIMESTAMP GT DUP1 ISZERO PUSH2 0xB08 JUMPI POP PUSH1 0x5 SLOAD PUSH1 0x6 SLOAD LT JUMPDEST PUSH2 0xB10 JUMPI PUSH0 PUSH0 REVERT JUMPDEST PUSH0 PUSH0 PUSH0 CALLER PUSH20 0xFFFFFFFFFFFFFFFFFFFFFFFFFFFFFFFFFFFFFFFF AND PUSH20 0xFFFFFFFFFFFFFFFFFFFFFFFFFFFFFFFFFFFFFFFF AND DUP2 MSTORE PUSH1 0x20 ADD SWAP1 DUP2 MSTORE PUSH1 0x20 ADD PUSH0 KECCAK256 SLOAD GT PUSH2 0xB57 JUMPI PUSH0 PUSH0 REVERT JUMPDEST PUSH0 CALLER SWAP1 POP PUSH0 PUSH0 PUSH0 CALLER PUSH20 0xFFFFFFFFFFFFFFFFFFFFFFFFFFFFFFFFFFFFFFFF AND PUSH20 0xFFFFFFFFFFFFFFFFFFFFFFFFFFFFFFFFFFFFFFFF AND DUP2 MSTORE PUSH1 0x20 ADD SWAP1 DUP2 MSTORE PUSH1 0x20 ADD PUSH0 KECCAK256 SLOAD SWAP1 POP DUP2 PUSH20 0xFFFFFFFFFFFFFFFFFFFFFFFFFFFFFFFFFFFFFFFF AND PUSH2 0x8FC DUP3 SWAP1 DUP2 ISZERO MUL SWAP1 PUSH1 0x40 MLOAD PUSH0 PUSH1 0x40 MLOAD DUP1 DUP4 SUB DUP2 DUP6 DUP9 DUP9 CALL SWAP4 POP POP POP POP ISZERO DUP1 ISZERO PUSH2 0xBDE JUMPI RETURNDATASIZE PUSH0 PUSH0 RETURNDATACOPY RETURNDATASIZE PUSH0 REVERT JUMPDEST POP PUSH0 PUSH0 PUSH0 CALLER PUSH20 0xFFFFFFFFFFFFFFFFFFFFFFFFFFFFFFFFFFFFFFFF AND PUSH20 0xFFFFFFFFFFFFFFFFFFFFFFFFFFFFFFFFFFFFFFFF AND DUP2 MSTORE PUSH1 0x20 ADD SWAP1 DUP2 MSTORE PUSH1 0x20 ADD PUSH0 KECCAK256 DUP2 SWAP1 SSTORE POP POP POP JUMP JUMPDEST PUSH1 0x6 SLOAD DUP2 JUMP JUMPDEST PUSH1 0x1 PUSH0 SWAP1 SLOAD SWAP1 PUSH2 0x100 EXP SWAP1 DIV PUSH20 0xFFFFFFFFFFFFFFFFFFFFFFFFFFFFFFFFFFFFFFFF AND DUP2 JUMP JUMPDEST PUSH0 DUP2 SWAP1 POP SWAP2 SWAP1 POP JUMP JUMPDEST PUSH2 0xC61 DUP2 PUSH2 0xC4F JUMP JUMPDEST DUP3 MSTORE POP POP JUMP JUMPDEST PUSH0 PUSH1 0x20 DUP3 ADD SWAP1 POP PUSH2 0xC7A PUSH0 DUP4 ADD DUP5 PUSH2 0xC58 JUMP JUMPDEST SWAP3 SWAP2 POP POP JUMP JUMPDEST PUSH0 PUSH1 0x40 MLOAD SWAP1 POP SWAP1 JUMP JUMPDEST PUSH0 PUSH0 REVERT JUMPDEST PUSH0 PUSH0 REVERT JUMPDEST PUSH0 PUSH0 REVERT JUMPDEST PUSH0 PUSH0 REVERT JUMPDEST PUSH0 PUSH1 0x1F NOT PUSH1 0x1F DUP4 ADD AND SWAP1 POP SWAP2 SWAP1 POP JUMP JUMPDEST PUSH32 0x4E487B7100000000000000000000000000000000000000000000000000000000 PUSH0 MSTORE PUSH1 0x41 PUSH1 0x4 MSTORE PUSH1 0x24 PUSH0 REVERT JUMPDEST PUSH2 0xCDF DUP3 PUSH2 0xC99 JUMP JUMPDEST DUP2 ADD DUP2 DUP2 LT PUSH8 0xFFFFFFFFFFFFFFFF DUP3 GT OR ISZERO PUSH2 0xCFE JUMPI PUSH2 0xCFD PUSH2 0xCA9 JUMP JUMPDEST JUMPDEST DUP1 PUSH1 0x40 MSTORE POP POP POP JUMP JUMPDEST PUSH0 PUSH2 0xD10 PUSH2 0xC80 JUMP JUMPDEST SWAP1 POP PUSH2 0xD1C DUP3 DUP3 PUSH2 0xCD6 JUMP JUMPDEST SWAP2 SWAP1 POP JUMP JUMPDEST PUSH0 PUSH8 0xFFFFFFFFFFFFFFFF DUP3 GT ISZERO PUSH2 0xD3B JUMPI PUSH2 0xD3A PUSH2 0xCA9 JUMP JUMPDEST JUMPDEST PUSH2 0xD44 DUP3 PUSH2 0xC99 JUMP JUMPDEST SWAP1 POP PUSH1 0x20 DUP2 ADD SWAP1 POP SWAP2 SWAP1 POP JUMP JUMPDEST DUP3 DUP2 DUP4 CALLDATACOPY PUSH0 DUP4 DUP4 ADD MSTORE POP POP POP JUMP JUMPDEST PUSH0 PUSH2 0xD71 PUSH2 0xD6C DUP5 PUSH2 0xD21 JUMP JUMPDEST PUSH2 0xD07 JUMP JUMPDEST SWAP1 POP DUP3 DUP2 MSTORE PUSH1 0x20 DUP2 ADD DUP5 DUP5 DUP5 ADD GT ISZERO PUSH2 0xD8D JUMPI PUSH2 0xD8C PUSH2 0xC95 JUMP JUMPDEST JUMPDEST PUSH2 0xD98 DUP5 DUP3 DUP6 PUSH2 0xD51 JUMP JUMPDEST POP SWAP4 SWAP3 POP POP POP JUMP JUMPDEST PUSH0 DUP3 PUSH1 0x1F DUP4 ADD SLT PUSH2 0xDB4 JUMPI PUSH2 0xDB3 PUSH2 0xC91 JUMP JUMPDEST JUMPDEST DUP2 CALLDATALOAD PUSH2 0xDC4 DUP5 DUP3 PUSH1 0x20 DUP7 ADD PUSH2 0xD5F JUMP JUMPDEST SWAP2 POP POP SWAP3 SWAP2 POP POP JUMP JUMPDEST PUSH0 PUSH20 0xFFFFFFFFFFFFFFFFFFFFFFFFFFFFFFFFFFFFFFFF DUP3 AND SWAP1 POP SWAP2 SWAP1 POP JUMP JUMPDEST PUSH0 PUSH2 0xDF6 DUP3 PUSH2 0xDCD JUMP JUMPDEST SWAP1 POP SWAP2 SWAP1 POP JUMP JUMPDEST PUSH2 0xE06 DUP2 PUSH2 0xDEC JUMP JUMPDEST DUP2 EQ PUSH2 0xE10 JUMPI PUSH0 PUSH0 REVERT JUMPDEST POP JUMP JUMPDEST PUSH0 DUP2 CALLDATALOAD SWAP1 POP PUSH2 0xE21 DUP2 PUSH2 0xDFD JUMP JUMPDEST SWAP3 SWAP2 POP POP JUMP JUMPDEST PUSH2 0xE30 DUP2 PUSH2 0xC4F JUMP JUMPDEST DUP2 EQ PUSH2 0xE3A JUMPI PUSH0 PUSH0 REVERT JUMPDEST POP JUMP JUMPDEST PUSH0 DUP2 CALLDATALOAD SWAP1 POP PUSH2 0xE4B DUP2 PUSH2 0xE27 JUMP JUMPDEST SWAP3 SWAP2 POP POP JUMP JUMPDEST PUSH0 PUSH0 PUSH0 PUSH1 0x60 DUP5 DUP7 SUB SLT ISZERO PUSH2 0xE68 JUMPI PUSH2 0xE67 PUSH2 0xC89 JUMP JUMPDEST JUMPDEST PUSH0 DUP5 ADD CALLDATALOAD PUSH8 0xFFFFFFFFFFFFFFFF DUP2 GT ISZERO PUSH2 0xE85 JUMPI PUSH2 0xE84 PUSH2 0xC8D JUMP JUMPDEST JUMPDEST PUSH2 0xE91 DUP7 DUP3 DUP8 ADD PUSH2 0xDA0 JUMP JUMPDEST SWAP4 POP POP PUSH1 0x20 PUSH2 0xEA2 DUP7 DUP3 DUP8 ADD PUSH2 0xE13 JUMP JUMPDEST SWAP3 POP POP PUSH1 0x40 PUSH2 0xEB3 DUP7 DUP3 DUP8 ADD PUSH2 0xE3D JUMP JUMPDEST SWAP2 POP POP SWAP3 POP SWAP3 POP SWAP3 JUMP JUMPDEST PUSH0 PUSH2 0xEC7 DUP3 PUSH2 0xDCD JUMP JUMPDEST SWAP1 POP SWAP2 SWAP1 POP JUMP JUMPDEST PUSH2 0xED7 DUP2 PUSH2 0xEBD JUMP JUMPDEST DUP2 EQ PUSH2 0xEE1 JUMPI PUSH0 PUSH0 REVERT JUMPDEST POP JUMP JUMPDEST PUSH0 DUP2 CALLDATALOAD SWAP1 POP PUSH2 0xEF2 DUP2 PUSH2 0xECE JUMP JUMPDEST SWAP3 SWAP2 POP POP JUMP JUMPDEST PUSH0 PUSH1 0x20 DUP3 DUP5 SUB SLT ISZERO PUSH2 0xF0D JUMPI PUSH2 0xF0C PUSH2 0xC89 JUMP JUMPDEST JUMPDEST PUSH0 PUSH2 0xF1A DUP5 DUP3 DUP6 ADD PUSH2 0xEE4 JUMP JUMPDEST SWAP2 POP POP SWAP3 SWAP2 POP POP JUMP JUMPDEST PUSH0 PUSH1 0x20 DUP3 DUP5 SUB SLT ISZERO PUSH2 0xF38 JUMPI PUSH2 0xF37 PUSH2 0xC89 JUMP JUMPDEST JUMPDEST PUSH0 PUSH2 0xF45 DUP5 DUP3 DUP6 ADD PUSH2 0xE3D JUMP JUMPDEST SWAP2 POP POP SWAP3 SWAP2 POP POP JUMP JUMPDEST PUSH0 DUP2 MLOAD SWAP1 POP SWAP2 SWAP1 POP JUMP JUMPDEST PUSH0 DUP3 DUP3 MSTORE PUSH1 0x20 DUP3 ADD SWAP1 POP SWAP3 SWAP2 POP POP JUMP JUMPDEST DUP3 DUP2 DUP4 MCOPY PUSH0 DUP4 DUP4 ADD MSTORE POP POP POP JUMP JUMPDEST PUSH0 PUSH2 0xF80 DUP3 PUSH2 0xF4E JUMP JUMPDEST PUSH2 0xF8A DUP2 DUP6 PUSH2 0xF58 JUMP JUMPDEST SWAP4 POP PUSH2 0xF9A DUP2 DUP6 PUSH1 0x20 DUP7 ADD PUSH2 0xF68 JUMP JUMPDEST PUSH2 0xFA3 DUP2 PUSH2 0xC99 JUMP JUMPDEST DUP5 ADD SWAP2 POP POP SWAP3 SWAP2 POP POP JUMP JUMPDEST PUSH2 0xFB7 DUP2 PUSH2 0xDEC JUMP JUMPDEST DUP3 MSTORE POP POP JUMP JUMPDEST PUSH0 DUP2 ISZERO ISZERO SWAP1 POP SWAP2 SWAP1 POP JUMP JUMPDEST PUSH2 0xFD1 DUP2 PUSH2 0xFBD JUMP JUMPDEST DUP3 MSTORE POP POP JUMP JUMPDEST PUSH0 PUSH1 0xA0 DUP3 ADD SWAP1 POP DUP2 DUP2 SUB PUSH0 DUP4 ADD MSTORE PUSH2 0xFEF DUP2 DUP9 PUSH2 0xF76 JUMP JUMPDEST SWAP1 POP PUSH2 0xFFE PUSH1 0x20 DUP4 ADD DUP8 PUSH2 0xFAE JUMP JUMPDEST PUSH2 0x100B PUSH1 0x40 DUP4 ADD DUP7 PUSH2 0xC58 JUMP JUMPDEST PUSH2 0x1018 PUSH1 0x60 DUP4 ADD DUP6 PUSH2 0xFC8 JUMP JUMPDEST PUSH2 0x1025 PUSH1 0x80 DUP4 ADD DUP5 PUSH2 0xC58 JUMP JUMPDEST SWAP7 SWAP6 POP POP POP POP POP POP JUMP JUMPDEST PUSH2 0x1038 DUP2 PUSH2 0xEBD JUMP JUMPDEST DUP3 MSTORE POP POP JUMP JUMPDEST PUSH0 PUSH1 0x20 DUP3 ADD SWAP1 POP PUSH2 0x1051 PUSH0 DUP4 ADD DUP5 PUSH2 0x102F JUMP JUMPDEST SWAP3 SWAP2 POP POP JUMP JUMPDEST PUSH32 0x446561646C696E65206861732070617373656421000000000000000000000000 PUSH0 DUP3 ADD MSTORE POP JUMP JUMPDEST PUSH0 PUSH2 0x108B PUSH1 0x14 DUP4 PUSH2 0xF58 JUMP JUMPDEST SWAP2 POP PUSH2 0x1096 DUP3 PUSH2 0x1057 JUMP JUMPDEST PUSH1 0x20 DUP3 ADD SWAP1 POP SWAP2 SWAP1 POP JUMP JUMPDEST PUSH0 PUSH1 0x20 DUP3 ADD SWAP1 POP DUP2 DUP2 SUB PUSH0 DUP4 ADD MSTORE PUSH2 0x10B8 DUP2 PUSH2 0x107F JUMP JUMPDEST SWAP1 POP SWAP2 SWAP1 POP JUMP JUMPDEST PUSH32 0x4E487B7100000000000000000000000000000000000000000000000000000000 PUSH0 MSTORE PUSH1 0x11 PUSH1 0x4 MSTORE PUSH1 0x24 PUSH0 REVERT JUMPDEST PUSH0 PUSH2 0x10F6 DUP3 PUSH2 0xC4F JUMP JUMPDEST SWAP2 POP PUSH32 0xFFFFFFFFFFFFFFFFFFFFFFFFFFFFFFFFFFFFFFFFFFFFFFFFFFFFFFFFFFFFFFFF DUP3 SUB PUSH2 0x1128 JUMPI PUSH2 0x1127 PUSH2 0x10BF JUMP JUMPDEST JUMPDEST PUSH1 0x1 DUP3 ADD SWAP1 POP SWAP2 SWAP1 POP JUMP JUMPDEST PUSH0 PUSH2 0x113D DUP3 PUSH2 0xC4F JUMP JUMPDEST SWAP2 POP PUSH2 0x1148 DUP4 PUSH2 0xC4F JUMP JUMPDEST SWAP3 POP DUP3 DUP3 ADD SWAP1 POP DUP1 DUP3 GT ISZERO PUSH2 0x1160 JUMPI PUSH2 0x115F PUSH2 0x10BF JUMP JUMPDEST JUMPDEST SWAP3 SWAP2 POP POP JUMP JUMPDEST PUSH0 PUSH1 0x40 DUP3 ADD SWAP1 POP PUSH2 0x1179 PUSH0 DUP4 ADD DUP6 PUSH2 0x102F JUMP JUMPDEST PUSH2 0x1186 PUSH1 0x20 DUP4 ADD DUP5 PUSH2 0xC58 JUMP JUMPDEST SWAP4 SWAP3 POP POP POP JUMP JUMPDEST PUSH32 0x4F6E6C792061646D696E2063616E2063616C6C20746869732066756E6374696F PUSH0 DUP3 ADD MSTORE PUSH32 0x6E21000000000000000000000000000000000000000000000000000000000000 PUSH1 0x20 DUP3 ADD MSTORE POP JUMP JUMPDEST PUSH0 PUSH2 0x11E7 PUSH1 0x22 DUP4 PUSH2 0xF58 JUMP JUMPDEST SWAP2 POP PUSH2 0x11F2 DUP3 PUSH2 0x118D JUMP JUMPDEST PUSH1 0x40 DUP3 ADD SWAP1 POP SWAP2 SWAP1 POP JUMP JUMPDEST PUSH0 PUSH1 0x20 DUP3 ADD SWAP1 POP DUP2 DUP2 SUB PUSH0 DUP4 ADD MSTORE PUSH2 0x1214 DUP2 PUSH2 0x11DB JUMP JUMPDEST SWAP1 POP SWAP2 SWAP1 POP JUMP JUMPDEST PUSH32 0x4E487B7100000000000000000000000000000000000000000000000000000000 PUSH0 MSTORE PUSH1 0x22 PUSH1 0x4 MSTORE PUSH1 0x24 PUSH0 REVERT JUMPDEST PUSH0 PUSH1 0x2 DUP3 DIV SWAP1 POP PUSH1 0x1 DUP3 AND DUP1 PUSH2 0x125F JUMPI PUSH1 0x7F DUP3 AND SWAP2 POP JUMPDEST PUSH1 0x20 DUP3 LT DUP2 SUB PUSH2 0x1272 JUMPI PUSH2 0x1271 PUSH2 0x121B JUMP JUMPDEST JUMPDEST POP SWAP2 SWAP1 POP JUMP JUMPDEST PUSH0 DUP2 SWAP1 POP DUP2 PUSH0 MSTORE PUSH1 0x20 PUSH0 KECCAK256 SWAP1 POP SWAP2 SWAP1 POP JUMP JUMPDEST PUSH0 PUSH1 0x20 PUSH1 0x1F DUP4 ADD DIV SWAP1 POP SWAP2 SWAP1 POP JUMP JUMPDEST PUSH0 DUP3 DUP3 SHL SWAP1 POP SWAP3 SWAP2 POP POP JUMP JUMPDEST PUSH0 PUSH1 0x8 DUP4 MUL PUSH2 0x12D4 PUSH32 0xFFFFFFFFFFFFFFFFFFFFFFFFFFFFFFFFFFFFFFFFFFFFFFFFFFFFFFFFFFFFFFFF DUP3 PUSH2 0x1299 JUMP JUMPDEST PUSH2 0x12DE DUP7 DUP4 PUSH2 0x1299 JUMP JUMPDEST SWAP6 POP DUP1 NOT DUP5 AND SWAP4 POP DUP1 DUP7 AND DUP5 OR SWAP3 POP POP POP SWAP4 SWAP3 POP POP POP JUMP JUMPDEST PUSH0 DUP2 SWAP1 POP SWAP2 SWAP1 POP JUMP JUMPDEST PUSH0 PUSH2 0x1319 PUSH2 0x1314 PUSH2 0x130F DUP5 PUSH2 0xC4F JUMP JUMPDEST PUSH2 0x12F6 JUMP JUMPDEST PUSH2 0xC4F JUMP JUMPDEST SWAP1 POP SWAP2 SWAP1 POP JUMP JUMPDEST PUSH0 DUP2 SWAP1 POP SWAP2 SWAP1 POP JUMP JUMPDEST PUSH2 0x1332 DUP4 PUSH2 0x12FF JUMP JUMPDEST PUSH2 0x1346 PUSH2 0x133E DUP3 PUSH2 0x1320 JUMP JUMPDEST DUP5 DUP5 SLOAD PUSH2 0x12A5 JUMP JUMPDEST DUP3 SSTORE POP POP POP POP JUMP JUMPDEST PUSH0 PUSH0 SWAP1 POP SWAP1 JUMP JUMPDEST PUSH2 0x135D PUSH2 0x134E JUMP JUMPDEST PUSH2 0x1368 DUP2 DUP5 DUP5 PUSH2 0x1329 JUMP JUMPDEST POP POP POP JUMP JUMPDEST JUMPDEST DUP2 DUP2 LT ISZERO PUSH2 0x138B JUMPI PUSH2 0x1380 PUSH0 DUP3 PUSH2 0x1355 JUMP JUMPDEST PUSH1 0x1 DUP2 ADD SWAP1 POP PUSH2 0x136E JUMP JUMPDEST POP POP JUMP JUMPDEST PUSH1 0x1F DUP3 GT ISZERO PUSH2 0x13D0 JUMPI PUSH2 0x13A1 DUP2 PUSH2 0x1278 JUMP JUMPDEST PUSH2 0x13AA DUP5 PUSH2 0x128A JUMP JUMPDEST DUP2 ADD PUSH1 0x20 DUP6 LT ISZERO PUSH2 0x13B9 JUMPI DUP2 SWAP1 POP JUMPDEST PUSH2 0x13CD PUSH2 0x13C5 DUP6 PUSH2 0x128A JUMP JUMPDEST DUP4 ADD DUP3 PUSH2 0x136D JUMP JUMPDEST POP POP JUMPDEST POP POP POP JUMP JUMPDEST PUSH0 DUP3 DUP3 SHR SWAP1 POP SWAP3 SWAP2 POP POP JUMP JUMPDEST PUSH0 PUSH2 0x13F0 PUSH0 NOT DUP5 PUSH1 0x8 MUL PUSH2 0x13D5 JUMP JUMPDEST NOT DUP1 DUP4 AND SWAP2 POP POP SWAP3 SWAP2 POP POP JUMP JUMPDEST PUSH0 PUSH2 0x1408 DUP4 DUP4 PUSH2 0x13E1 JUMP JUMPDEST SWAP2 POP DUP3 PUSH1 0x2 MUL DUP3 OR SWAP1 POP SWAP3 SWAP2 POP POP JUMP JUMPDEST PUSH2 0x1421 DUP3 PUSH2 0xF4E JUMP JUMPDEST PUSH8 0xFFFFFFFFFFFFFFFF DUP2 GT ISZERO PUSH2 0x143A JUMPI PUSH2 0x1439 PUSH2 0xCA9 JUMP JUMPDEST JUMPDEST PUSH2 0x1444 DUP3 SLOAD PUSH2 0x1248 JUMP JUMPDEST PUSH2 0x144F DUP3 DUP3 DUP6 PUSH2 0x138F JUMP JUMPDEST PUSH0 PUSH1 0x20 SWAP1 POP PUSH1 0x1F DUP4 GT PUSH1 0x1 DUP2 EQ PUSH2 0x1480 JUMPI PUSH0 DUP5 ISZERO PUSH2 0x146E JUMPI DUP3 DUP8 ADD MLOAD SWAP1 POP JUMPDEST PUSH2 0x1478 DUP6 DUP3 PUSH2 0x13FD JUMP JUMPDEST DUP7 SSTORE POP PUSH2 0x14DF JUMP JUMPDEST PUSH1 0x1F NOT DUP5 AND PUSH2 0x148E DUP7 PUSH2 0x1278 JUMP JUMPDEST PUSH0 JUMPDEST DUP3 DUP2 LT ISZERO PUSH2 0x14B5 JUMPI DUP5 DUP10 ADD MLOAD DUP3 SSTORE PUSH1 0x1 DUP3 ADD SWAP2 POP PUSH1 0x20 DUP6 ADD SWAP5 POP PUSH1 0x20 DUP2 ADD SWAP1 POP PUSH2 0x1490 JUMP JUMPDEST DUP7 DUP4 LT ISZERO PUSH2 0x14D2 JUMPI DUP5 DUP10 ADD MLOAD PUSH2 0x14CE PUSH1 0x1F DUP10 AND DUP3 PUSH2 0x13E1 JUMP JUMPDEST DUP4 SSTORE POP JUMPDEST PUSH1 0x1 PUSH1 0x2 DUP9 MUL ADD DUP9 SSTORE POP POP POP JUMPDEST POP POP POP POP POP POP JUMP JUMPDEST PUSH0 PUSH2 0x1501 PUSH2 0x14FC PUSH2 0x14F7 DUP5 PUSH2 0xDCD JUMP JUMPDEST PUSH2 0x12F6 JUMP JUMPDEST PUSH2 0xDCD JUMP JUMPDEST SWAP1 POP SWAP2 SWAP1 POP JUMP JUMPDEST PUSH0 PUSH2 0x1512 DUP3 PUSH2 0x14E7 JUMP JUMPDEST SWAP1 POP SWAP2 SWAP1 POP JUMP JUMPDEST PUSH0 PUSH2 0x1523 DUP3 PUSH2 0x1508 JUMP JUMPDEST SWAP1 POP SWAP2 SWAP1 POP JUMP JUMPDEST PUSH2 0x1533 DUP2 PUSH2 0x1519 JUMP JUMPDEST DUP3 MSTORE POP POP JUMP JUMPDEST PUSH0 PUSH1 0x60 DUP3 ADD SWAP1 POP DUP2 DUP2 SUB PUSH0 DUP4 ADD MSTORE PUSH2 0x1551 DUP2 DUP7 PUSH2 0xF76 JUMP JUMPDEST SWAP1 POP PUSH2 0x1560 PUSH1 0x20 DUP4 ADD DUP6 PUSH2 0x152A JUMP JUMPDEST PUSH2 0x156D PUSH1 0x40 DUP4 ADD DUP5 PUSH2 0xC58 JUMP JUMPDEST SWAP5 SWAP4 POP POP POP POP JUMP JUMPDEST PUSH32 0x596F75206D75737420746F206265206120636F6E7472696275746F7220746F20 PUSH0 DUP3 ADD MSTORE PUSH32 0x766F746521000000000000000000000000000000000000000000000000000000 PUSH1 0x20 DUP3 ADD MSTORE POP JUMP JUMPDEST PUSH0 PUSH2 0x15CF PUSH1 0x25 DUP4 PUSH2 0xF58 JUMP JUMPDEST SWAP2 POP PUSH2 0x15DA DUP3 PUSH2 0x1575 JUMP JUMPDEST PUSH1 0x40 DUP3 ADD SWAP1 POP SWAP2 SWAP1 POP JUMP JUMPDEST PUSH0 PUSH1 0x20 DUP3 ADD SWAP1 POP DUP2 DUP2 SUB PUSH0 DUP4 ADD MSTORE PUSH2 0x15FC DUP2 PUSH2 0x15C3 JUMP JUMPDEST SWAP1 POP SWAP2 SWAP1 POP JUMP JUMPDEST PUSH32 0x596F75206861766520616C726561647920766F74656421000000000000000000 PUSH0 DUP3 ADD MSTORE POP JUMP JUMPDEST PUSH0 PUSH2 0x1637 PUSH1 0x17 DUP4 PUSH2 0xF58 JUMP JUMPDEST SWAP2 POP PUSH2 0x1642 DUP3 PUSH2 0x1603 JUMP JUMPDEST PUSH1 0x20 DUP3 ADD SWAP1 POP SWAP2 SWAP1 POP JUMP JUMPDEST PUSH0 PUSH1 0x20 DUP3 ADD SWAP1 POP DUP2 DUP2 SUB PUSH0 DUP4 ADD MSTORE PUSH2 0x1664 DUP2 PUSH2 0x162B JUMP JUMPDEST SWAP1 POP SWAP2 SWAP1 POP JUMP JUMPDEST PUSH32 0x546865207265717565737420686173206265656E20636F6D706C657465642E00 PUSH0 DUP3 ADD MSTORE POP JUMP JUMPDEST PUSH0 PUSH2 0x169F PUSH1 0x1F DUP4 PUSH2 0xF58 JUMP JUMPDEST SWAP2 POP PUSH2 0x16AA DUP3 PUSH2 0x166B JUMP JUMPDEST PUSH1 0x20 DUP3 ADD SWAP1 POP SWAP2 SWAP1 POP JUMP JUMPDEST PUSH0 PUSH1 0x20 DUP3 ADD SWAP1 POP DUP2 DUP2 SUB PUSH0 DUP4 ADD MSTORE PUSH2 0x16CC DUP2 PUSH2 0x1693 JUMP JUMPDEST SWAP1 POP SWAP2 SWAP1 POP JUMP JUMPDEST PUSH32 0x4E487B7100000000000000000000000000000000000000000000000000000000 PUSH0 MSTORE PUSH1 0x12 PUSH1 0x4 MSTORE PUSH1 0x24 PUSH0 REVERT JUMPDEST PUSH0 PUSH2 0x170A DUP3 PUSH2 0xC4F JUMP JUMPDEST SWAP2 POP PUSH2 0x1715 DUP4 PUSH2 0xC4F JUMP JUMPDEST SWAP3 POP DUP3 PUSH2 0x1725 JUMPI PUSH2 0x1724 PUSH2 0x16D3 JUMP JUMPDEST JUMPDEST DUP3 DUP3 DIV SWAP1 POP SWAP3 SWAP2 POP POP JUMP JUMPDEST PUSH0 PUSH1 0x40 DUP3 ADD SWAP1 POP PUSH2 0x1743 PUSH0 DUP4 ADD DUP6 PUSH2 0x152A JUMP JUMPDEST PUSH2 0x1750 PUSH1 0x20 DUP4 ADD DUP5 PUSH2 0xC58 JUMP JUMPDEST SWAP4 SWAP3 POP POP POP JUMP INVALID LOG2 PUSH5 0x6970667358 0x22 SLT KECCAK256 PUSH8 0xE931506AEB7BF94 BLOBHASH PUSH15 0x88C30592E543726ED103CF0E2101F SWAP12 DUP12 0xF8 XOR GT SWAP1 PUSH5 0x736F6C6343 STOP ADDMOD SHR STOP CALLER "
				},
				"gasEstimates": {
					"creation": {
						"codeDepositCost": "1205800",
						"executionCost": "infinite",
						"totalCost": "infinite"
					},
					"external": {
						"admin()": "2596",
						"contribute()": "infinite",
						"contributors(address)": "2869",
						"createRequest(string,address,uint256)": "infinite",
						"deadline()": "2448",
						"getBalance()": "358",
						"getRefund()": "infinite",
						"goal()": "2470",
						"makePayment(uint256)": "infinite",
						"minimumContributor()": "2470",
						"noOfContributors()": "2514",
						"numRequests()": "2514",
						"raisedAmount()": "2469",
						"requests(uint256)": "infinite",
						"voteRequest(uint256)": "infinite"
					}
				},
				"methodIdentifiers": {
					"admin()": "f851a440",
					"contribute()": "d7bb99ba",
					"contributors(address)": "1f6d4942",
					"createRequest(string,address,uint256)": "1b16bb5c",
					"deadline()": "29dcb0cf",
					"getBalance()": "12065fe0",
					"getRefund()": "b2d5ae44",
					"goal()": "40193883",
					"makePayment(uint256)": "5114cb52",
					"minimumContributor()": "5c4627e9",
					"noOfContributors()": "4e260f6f",
					"numRequests()": "9fb42b1f",
					"raisedAmount()": "c59ee1dc",
					"requests(uint256)": "81d12c58",
					"voteRequest(uint256)": "4cb6f4a5"
				}
			},
			"storageLayout": {
				"storage": [
					{
						"astId": 5,
						"contract": "src/crowdfunding.sol:CrowdFunding",
						"label": "contributors",
						"offset": 0,
						"slot": "0",
						"type": "t_mapping(t_address,t_uint256)"
					},
					{
						"astId": 7,
						"contract": "src/crowdfunding.sol:CrowdFunding",
						"label": "admin",
						"offset": 0,
						"slot": "1",
						"type": "t_address"
					},
					{
						"astId": 9,
						"contract": "src/crowdfunding.sol:CrowdFunding",
						"label": "noOfContributors",
						"offset": 0,
						"slot": "2",
						"type": "t_uint256"
					},
					{
						"astId": 11,
						"contract": "src/crowdfunding.sol:CrowdFunding",
						"label": "minimumContributor",
						"offset": 0,
						"slot": "3",
						"type": "t_uint256"
					},
					{
						"astId": 13,
						"contract": "src/crowdfunding.sol:CrowdFunding",
						"label": "deadline",
						"offset": 0,
						"slot": "4",
						"type": "t_uint256"
					},
					{
						"astId": 15,
						"contract": "src/crowdfunding.sol:CrowdFunding",
						"label": "goal",
						"offset": 0,
						"slot": "5",
						"type": "t_uint256"
					},
					{
						"astId": 17,
						"contract": "src/crowdfunding.sol:CrowdFunding",
						"label": "raisedAmount",
						"offset": 0,
						"slot": "6",
						"type": "t_uint256"
					},
					{
						"astId": 57,
						"contract": "src/crowdfunding.sol:CrowdFunding",
						"label": "requests",
						"offset": 0,
						"slot": "7",
						"type": "t_mapping(t_uint256,t_struct(Request)32_storage)"
					},
					{
						"astId": 59,
						"contract": "src/crowdfunding.sol:CrowdFunding",
						"label": "numRequests",
						"offset": 0,
						"slot": "8",
						"type": "t_uint256"
					}
				],
				"types": {
					"t_address": {
						"encoding": "inplace",
						"label": "address",
						"numberOfBytes": "20"
					},
					"t_address_payable": {
						"encoding": "inplace",
						"label": "address payable",
						"numberOfBytes": "20"
					},
					"t_bool": {
						"encoding": "inplace",
						"label": "bool",
						"numberOfBytes": "1"
					},
					"t_mapping(t_address,t_bool)": {
						"encoding": "mapping",
						"key": "t_address",
						"label": "mapping(address => bool)",
						"numberOfBytes": "32",
						"value": "t_bool"
					},
					"t_mapping(t_address,t_uint256)": {
						"encoding": "mapping",
						"key": "t_address",
						"label": "mapping(address => uint256)",
						"numberOfBytes": "32",
						"value": "t_uint256"
					},
					"t_mapping(t_uint256,t_struct(Request)32_storage)": {
						"encoding": "mapping",
						"key": "t_uint256",
						"label": "mapping(uint256 => struct CrowdFunding.Request)",
						"numberOfBytes": "32",
						"value": "t_struct(Request)32_storage"
					},
					"t_string_storage": {
						"encoding": "bytes",
						"label": "string",
						"numberOfBytes": "32"
					},
					"t_struct(Request)32_storage": {
						"encoding": "inplace",
						"label": "struct CrowdFunding.Request",
						"members": [
							{
								"astId": 19,
								"contract": "src/crowdfunding.sol:CrowdFunding",
								"label": "description",
								"offset": 0,
								"slot": "0",
								"type": "t_string_storage"
							},
							{
								"astId": 21,
								"contract": "src/crowdfunding.sol:CrowdFunding",
								"label": "recipient",
								"offset": 0,
								"slot": "1",
								"type": "t_address_payable"
							},
							{
								"astId": 23,
								"contract": "src/crowdfunding.sol:CrowdFunding",
								"label": "value",
								"offset": 0,
								"slot": "2",
								"type": "t_uint256"
							},
							{
								"astId": 25,
								"contract": "src/crowdfunding.sol:CrowdFunding",
								"label": "completed",
								"offset": 0,
								"slot": "3",
								"type": "t_bool"
							},
							{
								"astId": 27,
								"contract": "src/crowdfunding.sol:CrowdFunding",
								"label": "noOfVoters",
								"offset": 0,
								"slot": "4",
								"type": "t_uint256"
							},
							{
								"astId": 31,
								"contract": "src/crowdfunding.sol:CrowdFunding",
								"label": "voters",
								"offset": 0,
								"slot": "5",
								"type": "t_mapping(t_address,t_bool)"
							}
						],
						"numberOfBytes": "192"
					},
					"t_uint256": {
						"encoding": "inplace",
						"label": "uint256",
						"numberOfBytes": "32"
					}
				}
			},
			"userdoc": {
				"kind": "user",
				"methods": {},
				"version": 1
			}
		}
	}
}