{
	"src/crowdfunding.sol": {
		"CrowdFunding": {
			"abi": [
				{
					"inputs": [
						{
							"internalType": "uint256",
							"name": "_goal",
							"type": "uint256"
						},
						{
							"internalType": "uint256",
							"name": "_deadline",
							"type": "uint256"
						}
					],
					"stateMutability": "nonpayable",
					"type": "constructor"
				},
				{
					"inputs": [],
					"name": "admin",
					"outputs": [
						{
							"internalType": "address",
							"name": "",
							"type": "address"
						}
					],
					"stateMutability": "view",
					"type": "function"
				},
				{
					"inputs": [],
					"name": "contribute",
					"outputs": [],
					"stateMutability": "payable",
					"type": "function"
				},
				{
					"inputs": [
						{
							"internalType": "address",
							"name": "",
							"type": "address"
						}
					],
					"name": "contributors",
					"outputs": [
						{
							"internalType": "uint256",
							"name": "",
							"type": "uint256"
						}
					],
					"stateMutability": "view",
					"type": "function"
				},
				{
					"inputs": [
						{
							"internalType": "string",
							"name": "_description",
							"type": "string"
						},
						{
							"internalType": "address payable",
							"name": "_recipient",
							"type": "address"
						},
						{
							"internalType": "uint256",
							"name": "_value",
							"type": "uint256"
						}
					],
					"name": "createRequest",
					"outputs": [],
					"stateMutability": "nonpayable",
					"type": "function"
				},
				{
					"inputs": [],
					"name": "deadline",
					"outputs": [
						{
							"internalType": "uint256",
							"name": "",
							"type": "uint256"
						}
					],
					"stateMutability": "view",
					"type": "function"
				},
				{
					"inputs": [],
					"name": "getBalance",
					"outputs": [
						{
							"internalType": "uint256",
							"name": "",
							"type": "uint256"
						}
					],
					"stateMutability": "view",
					"type": "function"
				},
				{
					"inputs": [],
					"name": "getRefund",
					"outputs": [],
					"stateMutability": "nonpayable",
					"type": "function"
				},
				{
					"inputs": [],
					"name": "goal",
					"outputs": [
						{
							"internalType": "uint256",
							"name": "",
							"type": "uint256"
						}
					],
					"stateMutability": "view",
					"type": "function"
				},
				{
					"inputs": [],
					"name": "minimumContributor",
					"outputs": [
						{
							"internalType": "uint256",
							"name": "",
							"type": "uint256"
						}
					],
					"stateMutability": "view",
					"type": "function"
				},
				{
					"inputs": [],
					"name": "noOfContributors",
					"outputs": [
						{
							"internalType": "uint256",
							"name": "",
							"type": "uint256"
						}
					],
					"stateMutability": "view",
					"type": "function"
				},
				{
					"inputs": [],
					"name": "numRequests",
					"outputs": [
						{
							"internalType": "uint256",
							"name": "",
							"type": "uint256"
						}
					],
					"stateMutability": "view",
					"type": "function"
				},
				{
					"inputs": [],
					"name": "raisedAmount",
					"outputs": [
						{
							"internalType": "uint256",
							"name": "",
							"type": "uint256"
						}
					],
					"stateMutability": "view",
					"type": "function"
				},
				{
					"inputs": [
						{
							"internalType": "uint256",
							"name": "",
							"type": "uint256"
						}
					],
					"name": "requests",
					"outputs": [
						{
							"internalType": "string",
							"name": "description",
							"type": "string"
						},
						{
							"internalType": "address payable",
							"name": "recipient",
							"type": "address"
						},
						{
							"internalType": "uint256",
							"name": "value",
							"type": "uint256"
						},
						{
							"internalType": "bool",
							"name": "completed",
							"type": "bool"
						},
						{
							"internalType": "uint256",
							"name": "noOfVoters",
							"type": "uint256"
						}
					],
					"stateMutability": "view",
					"type": "function"
				},
				{
					"inputs": [
						{
							"internalType": "uint256",
							"name": "_requestNo",
							"type": "uint256"
						}
					],
					"name": "voteRequest",
					"outputs": [],
					"stateMutability": "nonpayable",
					"type": "function"
				},
				{
					"stateMutability": "payable",
					"type": "receive"
				}
			],
			"devdoc": {
				"kind": "dev",
				"methods": {},
				"version": 1
			},
			"evm": {
				"assembly": "    /* \"src/crowdfunding.sol\":57:2955  contract CrowdFunding{... */\n  mstore(0x40, 0x80)\n    /* \"src/crowdfunding.sol\":659:841  constructor(uint _goal, uint _deadline){... */\n  callvalue\n  dup1\n  iszero\n  tag_1\n  jumpi\n  revert(0x00, 0x00)\ntag_1:\n  pop\n  mload(0x40)\n  sub(codesize, bytecodeSize)\n  dup1\n  bytecodeSize\n  dup4\n  codecopy\n  dup2\n  dup2\n  add\n  0x40\n  mstore\n  dup2\n  add\n  swap1\n  tag_2\n  swap2\n  swap1\n  tag_3\n  jump\t// in\ntag_2:\n    /* \"src/crowdfunding.sol\":715:720  _goal */\n  dup2\n    /* \"src/crowdfunding.sol\":708:712  goal */\n  0x05\n    /* \"src/crowdfunding.sol\":708:720  goal = _goal */\n  dup2\n  swap1\n  sstore\n  pop\n    /* \"src/crowdfunding.sol\":759:768  _deadline */\n  dup1\n    /* \"src/crowdfunding.sol\":741:756  block.timestamp */\n  timestamp\n    /* \"src/crowdfunding.sol\":741:768  block.timestamp + _deadline */\n  tag_6\n  swap2\n  swap1\n  tag_7\n  jump\t// in\ntag_6:\n    /* \"src/crowdfunding.sol\":730:738  deadline */\n  0x04\n    /* \"src/crowdfunding.sol\":730:768  deadline = block.timestamp + _deadline */\n  dup2\n  swap1\n  sstore\n  pop\n    /* \"src/crowdfunding.sol\":799:806  100 wei */\n  0x64\n    /* \"src/crowdfunding.sol\":778:796  minimumContributor */\n  0x03\n    /* \"src/crowdfunding.sol\":778:806  minimumContributor = 100 wei */\n  dup2\n  swap1\n  sstore\n  pop\n    /* \"src/crowdfunding.sol\":824:834  msg.sender */\n  caller\n    /* \"src/crowdfunding.sol\":816:821  admin */\n  0x01\n  0x00\n    /* \"src/crowdfunding.sol\":816:834  admin = msg.sender */\n  0x0100\n  exp\n  dup2\n  sload\n  dup2\n  0xffffffffffffffffffffffffffffffffffffffff\n  mul\n  not\n  and\n  swap1\n  dup4\n  0xffffffffffffffffffffffffffffffffffffffff\n  and\n  mul\n  or\n  swap1\n  sstore\n  pop\n    /* \"src/crowdfunding.sol\":659:841  constructor(uint _goal, uint _deadline){... */\n  pop\n  pop\n    /* \"src/crowdfunding.sol\":57:2955  contract CrowdFunding{... */\n  jump(tag_8)\n    /* \"#utility.yul\":88:205   */\ntag_10:\n    /* \"#utility.yul\":197:198   */\n  0x00\n    /* \"#utility.yul\":194:195   */\n  0x00\n    /* \"#utility.yul\":187:199   */\n  revert\n    /* \"#utility.yul\":334:411   */\ntag_12:\n    /* \"#utility.yul\":371:378   */\n  0x00\n    /* \"#utility.yul\":400:405   */\n  dup2\n    /* \"#utility.yul\":389:405   */\n  swap1\n  pop\n    /* \"#utility.yul\":334:411   */\n  swap2\n  swap1\n  pop\n  jump\t// out\n    /* \"#utility.yul\":417:539   */\ntag_13:\n    /* \"#utility.yul\":490:514   */\n  tag_22\n    /* \"#utility.yul\":508:513   */\n  dup2\n    /* \"#utility.yul\":490:514   */\n  tag_12\n  jump\t// in\ntag_22:\n    /* \"#utility.yul\":483:488   */\n  dup2\n    /* \"#utility.yul\":480:515   */\n  eq\n    /* \"#utility.yul\":470:533   */\n  tag_23\n  jumpi\n    /* \"#utility.yul\":529:530   */\n  0x00\n    /* \"#utility.yul\":526:527   */\n  0x00\n    /* \"#utility.yul\":519:531   */\n  revert\n    /* \"#utility.yul\":470:533   */\ntag_23:\n    /* \"#utility.yul\":417:539   */\n  pop\n  jump\t// out\n    /* \"#utility.yul\":545:688   */\ntag_14:\n    /* \"#utility.yul\":602:607   */\n  0x00\n    /* \"#utility.yul\":633:639   */\n  dup2\n    /* \"#utility.yul\":627:640   */\n  mload\n    /* \"#utility.yul\":618:640   */\n  swap1\n  pop\n    /* \"#utility.yul\":649:682   */\n  tag_25\n    /* \"#utility.yul\":676:681   */\n  dup2\n    /* \"#utility.yul\":649:682   */\n  tag_13\n  jump\t// in\ntag_25:\n    /* \"#utility.yul\":545:688   */\n  swap3\n  swap2\n  pop\n  pop\n  jump\t// out\n    /* \"#utility.yul\":694:1201   */\ntag_3:\n    /* \"#utility.yul\":773:779   */\n  0x00\n    /* \"#utility.yul\":781:787   */\n  0x00\n    /* \"#utility.yul\":830:832   */\n  0x40\n    /* \"#utility.yul\":818:827   */\n  dup4\n    /* \"#utility.yul\":809:816   */\n  dup6\n    /* \"#utility.yul\":805:828   */\n  sub\n    /* \"#utility.yul\":801:833   */\n  slt\n    /* \"#utility.yul\":798:917   */\n  iszero\n  tag_27\n  jumpi\n    /* \"#utility.yul\":836:915   */\n  tag_28\n  tag_10\n  jump\t// in\ntag_28:\n    /* \"#utility.yul\":798:917   */\ntag_27:\n    /* \"#utility.yul\":956:957   */\n  0x00\n    /* \"#utility.yul\":981:1045   */\n  tag_29\n    /* \"#utility.yul\":1037:1044   */\n  dup6\n    /* \"#utility.yul\":1028:1034   */\n  dup3\n    /* \"#utility.yul\":1017:1026   */\n  dup7\n    /* \"#utility.yul\":1013:1035   */\n  add\n    /* \"#utility.yul\":981:1045   */\n  tag_14\n  jump\t// in\ntag_29:\n    /* \"#utility.yul\":971:1045   */\n  swap3\n  pop\n    /* \"#utility.yul\":927:1055   */\n  pop\n    /* \"#utility.yul\":1094:1096   */\n  0x20\n    /* \"#utility.yul\":1120:1184   */\n  tag_30\n    /* \"#utility.yul\":1176:1183   */\n  dup6\n    /* \"#utility.yul\":1167:1173   */\n  dup3\n    /* \"#utility.yul\":1156:1165   */\n  dup7\n    /* \"#utility.yul\":1152:1174   */\n  add\n    /* \"#utility.yul\":1120:1184   */\n  tag_14\n  jump\t// in\ntag_30:\n    /* \"#utility.yul\":1110:1184   */\n  swap2\n  pop\n    /* \"#utility.yul\":1065:1194   */\n  pop\n    /* \"#utility.yul\":694:1201   */\n  swap3\n  pop\n  swap3\n  swap1\n  pop\n  jump\t// out\n    /* \"#utility.yul\":1207:1387   */\ntag_15:\n    /* \"#utility.yul\":1255:1332   */\n  0x4e487b7100000000000000000000000000000000000000000000000000000000\n    /* \"#utility.yul\":1252:1253   */\n  0x00\n    /* \"#utility.yul\":1245:1333   */\n  mstore\n    /* \"#utility.yul\":1352:1356   */\n  0x11\n    /* \"#utility.yul\":1349:1350   */\n  0x04\n    /* \"#utility.yul\":1342:1357   */\n  mstore\n    /* \"#utility.yul\":1376:1380   */\n  0x24\n    /* \"#utility.yul\":1373:1374   */\n  0x00\n    /* \"#utility.yul\":1366:1381   */\n  revert\n    /* \"#utility.yul\":1393:1584   */\ntag_7:\n    /* \"#utility.yul\":1433:1436   */\n  0x00\n    /* \"#utility.yul\":1452:1472   */\n  tag_33\n    /* \"#utility.yul\":1470:1471   */\n  dup3\n    /* \"#utility.yul\":1452:1472   */\n  tag_12\n  jump\t// in\ntag_33:\n    /* \"#utility.yul\":1447:1472   */\n  swap2\n  pop\n    /* \"#utility.yul\":1486:1506   */\n  tag_34\n    /* \"#utility.yul\":1504:1505   */\n  dup4\n    /* \"#utility.yul\":1486:1506   */\n  tag_12\n  jump\t// in\ntag_34:\n    /* \"#utility.yul\":1481:1506   */\n  swap3\n  pop\n    /* \"#utility.yul\":1529:1530   */\n  dup3\n    /* \"#utility.yul\":1526:1527   */\n  dup3\n    /* \"#utility.yul\":1522:1531   */\n  add\n    /* \"#utility.yul\":1515:1531   */\n  swap1\n  pop\n    /* \"#utility.yul\":1550:1553   */\n  dup1\n    /* \"#utility.yul\":1547:1548   */\n  dup3\n    /* \"#utility.yul\":1544:1554   */\n  gt\n    /* \"#utility.yul\":1541:1577   */\n  iszero\n  tag_35\n  jumpi\n    /* \"#utility.yul\":1557:1575   */\n  tag_36\n  tag_15\n  jump\t// in\ntag_36:\n    /* \"#utility.yul\":1541:1577   */\ntag_35:\n    /* \"#utility.yul\":1393:1584   */\n  swap3\n  swap2\n  pop\n  pop\n  jump\t// out\n    /* \"src/crowdfunding.sol\":57:2955  contract CrowdFunding{... */\ntag_8:\n  dataSize(sub_0)\n  dup1\n  dataOffset(sub_0)\n  0x00\n  codecopy\n  0x00\n  return\nstop\n\nsub_0: assembly {\n        /* \"src/crowdfunding.sol\":57:2955  contract CrowdFunding{... */\n      mstore(0x40, 0x80)\n      jumpi(tag_1, lt(calldatasize, 0x04))\n      shr(0xe0, calldataload(0x00))\n      dup1\n      0x5c4627e9\n      gt\n      tag_17\n      jumpi\n      dup1\n      0xb2d5ae44\n      gt\n      tag_18\n      jumpi\n      dup1\n      0xb2d5ae44\n      eq\n      tag_13\n      jumpi\n      dup1\n      0xc59ee1dc\n      eq\n      tag_14\n      jumpi\n      dup1\n      0xd7bb99ba\n      eq\n      tag_15\n      jumpi\n      dup1\n      0xf851a440\n      eq\n      tag_16\n      jumpi\n      jump(tag_2)\n    tag_18:\n      dup1\n      0x5c4627e9\n      eq\n      tag_10\n      jumpi\n      dup1\n      0x81d12c58\n      eq\n      tag_11\n      jumpi\n      dup1\n      0x9fb42b1f\n      eq\n      tag_12\n      jumpi\n      jump(tag_2)\n    tag_17:\n      dup1\n      0x29dcb0cf\n      gt\n      tag_19\n      jumpi\n      dup1\n      0x29dcb0cf\n      eq\n      tag_6\n      jumpi\n      dup1\n      0x40193883\n      eq\n      tag_7\n      jumpi\n      dup1\n      0x4cb6f4a5\n      eq\n      tag_8\n      jumpi\n      dup1\n      0x4e260f6f\n      eq\n      tag_9\n      jumpi\n      jump(tag_2)\n    tag_19:\n      dup1\n      0x12065fe0\n      eq\n      tag_3\n      jumpi\n      dup1\n      0x1b16bb5c\n      eq\n      tag_4\n      jumpi\n      dup1\n      0x1f6d4942\n      eq\n      tag_5\n      jumpi\n      jump(tag_2)\n    tag_1:\n      jumpi(tag_2, calldatasize)\n        /* \"src/crowdfunding.sol\":1220:1232  contribute() */\n      tag_22\n        /* \"src/crowdfunding.sol\":1220:1230  contribute */\n      tag_23\n        /* \"src/crowdfunding.sol\":1220:1232  contribute() */\n      jump\t// in\n    tag_22:\n        /* \"src/crowdfunding.sol\":57:2955  contract CrowdFunding{... */\n      stop\n    tag_2:\n      revert(0x00, 0x00)\n        /* \"src/crowdfunding.sol\":1245:1337  function getBalance() public view returns(uint){... */\n    tag_3:\n      callvalue\n      dup1\n      iszero\n      tag_24\n      jumpi\n      revert(0x00, 0x00)\n    tag_24:\n      pop\n      tag_25\n      tag_26\n      jump\t// in\n    tag_25:\n      mload(0x40)\n      tag_27\n      swap2\n      swap1\n      tag_28\n      jump\t// in\n    tag_27:\n      mload(0x40)\n      dup1\n      swap2\n      sub\n      swap1\n      return\n        /* \"src/crowdfunding.sol\":2079:2476  function createRequest(string memory _description, address payable _recipient, uint _value) public onlyAdmin{... */\n    tag_4:\n      callvalue\n      dup1\n      iszero\n      tag_29\n      jumpi\n      revert(0x00, 0x00)\n    tag_29:\n      pop\n      tag_30\n      0x04\n      dup1\n      calldatasize\n      sub\n      dup2\n      add\n      swap1\n      tag_31\n      swap2\n      swap1\n      tag_32\n      jump\t// in\n    tag_31:\n      tag_33\n      jump\t// in\n    tag_30:\n      stop\n        /* \"src/crowdfunding.sol\":84:128  mapping(address => uint) public contributors */\n    tag_5:\n      callvalue\n      dup1\n      iszero\n      tag_34\n      jumpi\n      revert(0x00, 0x00)\n    tag_34:\n      pop\n      tag_35\n      0x04\n      dup1\n      calldatasize\n      sub\n      dup2\n      add\n      swap1\n      tag_36\n      swap2\n      swap1\n      tag_37\n      jump\t// in\n    tag_36:\n      tag_38\n      jump\t// in\n    tag_35:\n      mload(0x40)\n      tag_39\n      swap2\n      swap1\n      tag_28\n      jump\t// in\n    tag_39:\n      mload(0x40)\n      dup1\n      swap2\n      sub\n      swap1\n      return\n        /* \"src/crowdfunding.sol\":230:250  uint public deadline */\n    tag_6:\n      callvalue\n      dup1\n      iszero\n      tag_40\n      jumpi\n      revert(0x00, 0x00)\n    tag_40:\n      pop\n      tag_41\n      tag_42\n      jump\t// in\n    tag_41:\n      mload(0x40)\n      tag_43\n      swap2\n      swap1\n      tag_28\n      jump\t// in\n    tag_43:\n      mload(0x40)\n      dup1\n      swap2\n      sub\n      swap1\n      return\n        /* \"src/crowdfunding.sol\":269:285  uint public goal */\n    tag_7:\n      callvalue\n      dup1\n      iszero\n      tag_44\n      jumpi\n      revert(0x00, 0x00)\n    tag_44:\n      pop\n      tag_45\n      tag_46\n      jump\t// in\n    tag_45:\n      mload(0x40)\n      tag_47\n      swap2\n      swap1\n      tag_28\n      jump\t// in\n    tag_47:\n      mload(0x40)\n      dup1\n      swap2\n      sub\n      swap1\n      return\n        /* \"src/crowdfunding.sol\":2587:2953  function voteRequest(uint _requestNo) public{... */\n    tag_8:\n      callvalue\n      dup1\n      iszero\n      tag_48\n      jumpi\n      revert(0x00, 0x00)\n    tag_48:\n      pop\n      tag_49\n      0x04\n      dup1\n      calldatasize\n      sub\n      dup2\n      add\n      swap1\n      tag_50\n      swap2\n      swap1\n      tag_51\n      jump\t// in\n    tag_50:\n      tag_52\n      jump\t// in\n    tag_49:\n      stop\n        /* \"src/crowdfunding.sol\":160:188  uint public noOfContributors */\n    tag_9:\n      callvalue\n      dup1\n      iszero\n      tag_53\n      jumpi\n      revert(0x00, 0x00)\n    tag_53:\n      pop\n      tag_54\n      tag_55\n      jump\t// in\n    tag_54:\n      mload(0x40)\n      tag_56\n      swap2\n      swap1\n      tag_28\n      jump\t// in\n    tag_56:\n      mload(0x40)\n      dup1\n      swap2\n      sub\n      swap1\n      return\n        /* \"src/crowdfunding.sol\":194:224  uint public minimumContributor */\n    tag_10:\n      callvalue\n      dup1\n      iszero\n      tag_57\n      jumpi\n      revert(0x00, 0x00)\n    tag_57:\n      pop\n      tag_58\n      tag_59\n      jump\t// in\n    tag_58:\n      mload(0x40)\n      tag_60\n      swap2\n      swap1\n      tag_28\n      jump\t// in\n    tag_60:\n      mload(0x40)\n      dup1\n      swap2\n      sub\n      swap1\n      return\n        /* \"src/crowdfunding.sol\":521:561  mapping(uint => Request) public requests */\n    tag_11:\n      callvalue\n      dup1\n      iszero\n      tag_61\n      jumpi\n      revert(0x00, 0x00)\n    tag_61:\n      pop\n      tag_62\n      0x04\n      dup1\n      calldatasize\n      sub\n      dup2\n      add\n      swap1\n      tag_63\n      swap2\n      swap1\n      tag_51\n      jump\t// in\n    tag_63:\n      tag_64\n      jump\t// in\n    tag_62:\n      mload(0x40)\n      tag_65\n      swap6\n      swap5\n      swap4\n      swap3\n      swap2\n      swap1\n      tag_66\n      jump\t// in\n    tag_65:\n      mload(0x40)\n      dup1\n      swap2\n      sub\n      swap1\n      return\n        /* \"src/crowdfunding.sol\":629:652  uint public numRequests */\n    tag_12:\n      callvalue\n      dup1\n      iszero\n      tag_67\n      jumpi\n      revert(0x00, 0x00)\n    tag_67:\n      pop\n      tag_68\n      tag_69\n      jump\t// in\n    tag_68:\n      mload(0x40)\n      tag_70\n      swap2\n      swap1\n      tag_28\n      jump\t// in\n    tag_70:\n      mload(0x40)\n      dup1\n      swap2\n      sub\n      swap1\n      return\n        /* \"src/crowdfunding.sol\":1441:1953  function getRefund() public{... */\n    tag_13:\n      callvalue\n      dup1\n      iszero\n      tag_71\n      jumpi\n      revert(0x00, 0x00)\n    tag_71:\n      pop\n      tag_72\n      tag_73\n      jump\t// in\n    tag_72:\n      stop\n        /* \"src/crowdfunding.sol\":291:315  uint public raisedAmount */\n    tag_14:\n      callvalue\n      dup1\n      iszero\n      tag_74\n      jumpi\n      revert(0x00, 0x00)\n    tag_74:\n      pop\n      tag_75\n      tag_76\n      jump\t// in\n    tag_75:\n      mload(0x40)\n      tag_77\n      swap2\n      swap1\n      tag_28\n      jump\t// in\n    tag_77:\n      mload(0x40)\n      dup1\n      swap2\n      sub\n      swap1\n      return\n        /* \"src/crowdfunding.sol\":847:1177  function contribute() public payable{... */\n    tag_15:\n      tag_78\n      tag_23\n      jump\t// in\n    tag_78:\n      stop\n        /* \"src/crowdfunding.sol\":134:154  address public admin */\n    tag_16:\n      callvalue\n      dup1\n      iszero\n      tag_79\n      jumpi\n      revert(0x00, 0x00)\n    tag_79:\n      pop\n      tag_80\n      tag_81\n      jump\t// in\n    tag_80:\n      mload(0x40)\n      tag_82\n      swap2\n      swap1\n      tag_83\n      jump\t// in\n    tag_82:\n      mload(0x40)\n      dup1\n      swap2\n      sub\n      swap1\n      return\n        /* \"src/crowdfunding.sol\":847:1177  function contribute() public payable{... */\n    tag_23:\n        /* \"src/crowdfunding.sol\":919:927  deadline */\n      sload(0x04)\n        /* \"src/crowdfunding.sol\":901:916  block.timestamp */\n      timestamp\n        /* \"src/crowdfunding.sol\":901:927  block.timestamp < deadline */\n      lt\n        /* \"src/crowdfunding.sol\":893:952  require(block.timestamp < deadline, \"Deadline has passed!\") */\n      tag_85\n      jumpi\n      mload(0x40)\n      0x08c379a000000000000000000000000000000000000000000000000000000000\n      dup2\n      mstore\n      0x04\n      add\n      tag_86\n      swap1\n      tag_87\n      jump\t// in\n    tag_86:\n      mload(0x40)\n      dup1\n      swap2\n      sub\n      swap1\n      revert\n    tag_85:\n        /* \"src/crowdfunding.sol\":983:1001  minimumContributor */\n      sload(0x03)\n        /* \"src/crowdfunding.sol\":970:979  msg.value */\n      callvalue\n        /* \"src/crowdfunding.sol\":970:1001  msg.value >= minimumContributor */\n      lt\n      iszero\n        /* \"src/crowdfunding.sol\":962:1002  require(msg.value >= minimumContributor) */\n      tag_88\n      jumpi\n      revert(0x00, 0x00)\n    tag_88:\n        /* \"src/crowdfunding.sol\":1044:1045  0 */\n      0x00\n        /* \"src/crowdfunding.sol\":1016:1028  contributors */\n      0x00\n        /* \"src/crowdfunding.sol\":1016:1040  contributors[msg.sender] */\n      0x00\n        /* \"src/crowdfunding.sol\":1029:1039  msg.sender */\n      caller\n        /* \"src/crowdfunding.sol\":1016:1040  contributors[msg.sender] */\n      0xffffffffffffffffffffffffffffffffffffffff\n      and\n      0xffffffffffffffffffffffffffffffffffffffff\n      and\n      dup2\n      mstore\n      0x20\n      add\n      swap1\n      dup2\n      mstore\n      0x20\n      add\n      0x00\n      keccak256\n      sload\n        /* \"src/crowdfunding.sol\":1016:1045  contributors[msg.sender] == 0 */\n      sub\n        /* \"src/crowdfunding.sol\":1013:1089  if(contributors[msg.sender] == 0){... */\n      tag_89\n      jumpi\n        /* \"src/crowdfunding.sol\":1060:1076  noOfContributors */\n      0x02\n      0x00\n        /* \"src/crowdfunding.sol\":1060:1078  noOfContributors++ */\n      dup2\n      sload\n      dup1\n      swap3\n      swap2\n      swap1\n      tag_90\n      swap1\n      tag_91\n      jump\t// in\n    tag_90:\n      swap2\n      swap1\n      pop\n      sstore\n      pop\n        /* \"src/crowdfunding.sol\":1013:1089  if(contributors[msg.sender] == 0){... */\n    tag_89:\n        /* \"src/crowdfunding.sol\":1126:1135  msg.value */\n      callvalue\n        /* \"src/crowdfunding.sol\":1098:1110  contributors */\n      0x00\n        /* \"src/crowdfunding.sol\":1098:1122  contributors[msg.sender] */\n      0x00\n        /* \"src/crowdfunding.sol\":1111:1121  msg.sender */\n      caller\n        /* \"src/crowdfunding.sol\":1098:1122  contributors[msg.sender] */\n      0xffffffffffffffffffffffffffffffffffffffff\n      and\n      0xffffffffffffffffffffffffffffffffffffffff\n      and\n      dup2\n      mstore\n      0x20\n      add\n      swap1\n      dup2\n      mstore\n      0x20\n      add\n      0x00\n      keccak256\n      0x00\n        /* \"src/crowdfunding.sol\":1098:1135  contributors[msg.sender] += msg.value */\n      dup3\n      dup3\n      sload\n      tag_92\n      swap2\n      swap1\n      tag_93\n      jump\t// in\n    tag_92:\n      swap3\n      pop\n      pop\n      dup2\n      swap1\n      sstore\n      pop\n        /* \"src/crowdfunding.sol\":1161:1170  msg.value */\n      callvalue\n        /* \"src/crowdfunding.sol\":1145:1157  raisedAmount */\n      0x06\n      0x00\n        /* \"src/crowdfunding.sol\":1145:1170  raisedAmount += msg.value */\n      dup3\n      dup3\n      sload\n      tag_94\n      swap2\n      swap1\n      tag_93\n      jump\t// in\n    tag_94:\n      swap3\n      pop\n      pop\n      dup2\n      swap1\n      sstore\n      pop\n        /* \"src/crowdfunding.sol\":847:1177  function contribute() public payable{... */\n      jump\t// out\n        /* \"src/crowdfunding.sol\":1245:1337  function getBalance() public view returns(uint){... */\n    tag_26:\n        /* \"src/crowdfunding.sol\":1287:1291  uint */\n      0x00\n        /* \"src/crowdfunding.sol\":1309:1330  address(this).balance */\n      selfbalance\n        /* \"src/crowdfunding.sol\":1302:1330  return address(this).balance */\n      swap1\n      pop\n        /* \"src/crowdfunding.sol\":1245:1337  function getBalance() public view returns(uint){... */\n      swap1\n      jump\t// out\n        /* \"src/crowdfunding.sol\":2079:2476  function createRequest(string memory _description, address payable _recipient, uint _value) public onlyAdmin{... */\n    tag_33:\n        /* \"src/crowdfunding.sol\":2011:2016  admin */\n      0x01\n      0x00\n      swap1\n      sload\n      swap1\n      0x0100\n      exp\n      swap1\n      div\n      0xffffffffffffffffffffffffffffffffffffffff\n      and\n        /* \"src/crowdfunding.sol\":1997:2016  msg.sender == admin */\n      0xffffffffffffffffffffffffffffffffffffffff\n      and\n        /* \"src/crowdfunding.sol\":1997:2007  msg.sender */\n      caller\n        /* \"src/crowdfunding.sol\":1997:2016  msg.sender == admin */\n      0xffffffffffffffffffffffffffffffffffffffff\n      and\n      eq\n        /* \"src/crowdfunding.sol\":1989:2055  require(msg.sender == admin, \"Only admin can call this function!\") */\n      tag_97\n      jumpi\n      mload(0x40)\n      0x08c379a000000000000000000000000000000000000000000000000000000000\n      dup2\n      mstore\n      0x04\n      add\n      tag_98\n      swap1\n      tag_99\n      jump\t// in\n    tag_98:\n      mload(0x40)\n      dup1\n      swap2\n      sub\n      swap1\n      revert\n    tag_97:\n        /* \"src/crowdfunding.sol\":2197:2223  Request storage newRequest */\n      0x00\n        /* \"src/crowdfunding.sol\":2226:2234  requests */\n      0x07\n        /* \"src/crowdfunding.sol\":2226:2247  requests[numRequests] */\n      0x00\n        /* \"src/crowdfunding.sol\":2235:2246  numRequests */\n      sload(0x08)\n        /* \"src/crowdfunding.sol\":2226:2247  requests[numRequests] */\n      dup2\n      mstore\n      0x20\n      add\n      swap1\n      dup2\n      mstore\n      0x20\n      add\n      0x00\n      keccak256\n        /* \"src/crowdfunding.sol\":2197:2247  Request storage newRequest = requests[numRequests] */\n      swap1\n      pop\n        /* \"src/crowdfunding.sol\":2257:2268  numRequests */\n      0x08\n      0x00\n        /* \"src/crowdfunding.sol\":2257:2270  numRequests++ */\n      dup2\n      sload\n      dup1\n      swap3\n      swap2\n      swap1\n      tag_101\n      swap1\n      tag_91\n      jump\t// in\n    tag_101:\n      swap2\n      swap1\n      pop\n      sstore\n      pop\n        /* \"src/crowdfunding.sol\":2306:2318  _description */\n      dup4\n        /* \"src/crowdfunding.sol\":2281:2291  newRequest */\n      dup2\n        /* \"src/crowdfunding.sol\":2281:2303  newRequest.description */\n      0x00\n      add\n        /* \"src/crowdfunding.sol\":2281:2318  newRequest.description = _description */\n      swap1\n      dup2\n      tag_102\n      swap2\n      swap1\n      tag_103\n      jump\t// in\n    tag_102:\n      pop\n        /* \"src/crowdfunding.sol\":2351:2361  _recipient */\n      dup3\n        /* \"src/crowdfunding.sol\":2328:2338  newRequest */\n      dup2\n        /* \"src/crowdfunding.sol\":2328:2348  newRequest.recipient */\n      0x01\n      add\n      0x00\n        /* \"src/crowdfunding.sol\":2328:2361  newRequest.recipient = _recipient */\n      0x0100\n      exp\n      dup2\n      sload\n      dup2\n      0xffffffffffffffffffffffffffffffffffffffff\n      mul\n      not\n      and\n      swap1\n      dup4\n      0xffffffffffffffffffffffffffffffffffffffff\n      and\n      mul\n      or\n      swap1\n      sstore\n      pop\n        /* \"src/crowdfunding.sol\":2390:2396  _value */\n      dup2\n        /* \"src/crowdfunding.sol\":2371:2381  newRequest */\n      dup2\n        /* \"src/crowdfunding.sol\":2371:2387  newRequest.value */\n      0x02\n      add\n        /* \"src/crowdfunding.sol\":2371:2396  newRequest.value = _value */\n      dup2\n      swap1\n      sstore\n      pop\n        /* \"src/crowdfunding.sol\":2429:2434  false */\n      0x00\n        /* \"src/crowdfunding.sol\":2406:2416  newRequest */\n      dup2\n        /* \"src/crowdfunding.sol\":2406:2426  newRequest.completed */\n      0x03\n      add\n      0x00\n        /* \"src/crowdfunding.sol\":2406:2434  newRequest.completed = false */\n      0x0100\n      exp\n      dup2\n      sload\n      dup2\n      0xff\n      mul\n      not\n      and\n      swap1\n      dup4\n      iszero\n      iszero\n      mul\n      or\n      swap1\n      sstore\n      pop\n        /* \"src/crowdfunding.sol\":2468:2469  0 */\n      0x00\n        /* \"src/crowdfunding.sol\":2444:2454  newRequest */\n      dup2\n        /* \"src/crowdfunding.sol\":2444:2465  newRequest.noOfVoters */\n      0x04\n      add\n        /* \"src/crowdfunding.sol\":2444:2469  newRequest.noOfVoters = 0 */\n      dup2\n      swap1\n      sstore\n      pop\n        /* \"src/crowdfunding.sol\":2187:2476  {... */\n      pop\n        /* \"src/crowdfunding.sol\":2079:2476  function createRequest(string memory _description, address payable _recipient, uint _value) public onlyAdmin{... */\n      pop\n      pop\n      pop\n      jump\t// out\n        /* \"src/crowdfunding.sol\":84:128  mapping(address => uint) public contributors */\n    tag_38:\n      mstore(0x20, 0x00)\n      dup1\n      0x00\n      mstore\n      keccak256(0x00, 0x40)\n      0x00\n      swap2\n      pop\n      swap1\n      pop\n      sload\n      dup2\n      jump\t// out\n        /* \"src/crowdfunding.sol\":230:250  uint public deadline */\n    tag_42:\n      sload(0x04)\n      dup2\n      jump\t// out\n        /* \"src/crowdfunding.sol\":269:285  uint public goal */\n    tag_46:\n      sload(0x05)\n      dup2\n      jump\t// out\n        /* \"src/crowdfunding.sol\":2587:2953  function voteRequest(uint _requestNo) public{... */\n    tag_52:\n        /* \"src/crowdfunding.sol\":2676:2677  0 */\n      0x00\n        /* \"src/crowdfunding.sol\":2649:2661  contributors */\n      0x00\n        /* \"src/crowdfunding.sol\":2649:2673  contributors[msg.sender] */\n      0x00\n        /* \"src/crowdfunding.sol\":2662:2672  msg.sender */\n      caller\n        /* \"src/crowdfunding.sol\":2649:2673  contributors[msg.sender] */\n      0xffffffffffffffffffffffffffffffffffffffff\n      and\n      0xffffffffffffffffffffffffffffffffffffffff\n      and\n      dup2\n      mstore\n      0x20\n      add\n      swap1\n      dup2\n      mstore\n      0x20\n      add\n      0x00\n      keccak256\n      sload\n        /* \"src/crowdfunding.sol\":2649:2677  contributors[msg.sender] > 0 */\n      gt\n        /* \"src/crowdfunding.sol\":2641:2719  require(contributors[msg.sender] > 0, \"You must to be a contributor to vote!\") */\n      tag_105\n      jumpi\n      mload(0x40)\n      0x08c379a000000000000000000000000000000000000000000000000000000000\n      dup2\n      mstore\n      0x04\n      add\n      tag_106\n      swap1\n      tag_107\n      jump\t// in\n    tag_106:\n      mload(0x40)\n      dup1\n      swap2\n      sub\n      swap1\n      revert\n    tag_105:\n        /* \"src/crowdfunding.sol\":2729:2756  Request storage thisRequest */\n      0x00\n        /* \"src/crowdfunding.sol\":2759:2767  requests */\n      0x07\n        /* \"src/crowdfunding.sol\":2759:2779  requests[_requestNo] */\n      0x00\n        /* \"src/crowdfunding.sol\":2768:2778  _requestNo */\n      dup4\n        /* \"src/crowdfunding.sol\":2759:2779  requests[_requestNo] */\n      dup2\n      mstore\n      0x20\n      add\n      swap1\n      dup2\n      mstore\n      0x20\n      add\n      0x00\n      keccak256\n        /* \"src/crowdfunding.sol\":2729:2779  Request storage thisRequest = requests[_requestNo] */\n      swap1\n      pop\n        /* \"src/crowdfunding.sol\":2832:2837  false */\n      0x00\n        /* \"src/crowdfunding.sol\":2798:2837  thisRequest.voters[msg.sender] == false */\n      iszero\n      iszero\n        /* \"src/crowdfunding.sol\":2798:2809  thisRequest */\n      dup2\n        /* \"src/crowdfunding.sol\":2798:2816  thisRequest.voters */\n      0x05\n      add\n        /* \"src/crowdfunding.sol\":2798:2828  thisRequest.voters[msg.sender] */\n      0x00\n        /* \"src/crowdfunding.sol\":2817:2827  msg.sender */\n      caller\n        /* \"src/crowdfunding.sol\":2798:2828  thisRequest.voters[msg.sender] */\n      0xffffffffffffffffffffffffffffffffffffffff\n      and\n      0xffffffffffffffffffffffffffffffffffffffff\n      and\n      dup2\n      mstore\n      0x20\n      add\n      swap1\n      dup2\n      mstore\n      0x20\n      add\n      0x00\n      keccak256\n      0x00\n      swap1\n      sload\n      swap1\n      0x0100\n      exp\n      swap1\n      div\n      0xff\n      and\n        /* \"src/crowdfunding.sol\":2798:2837  thisRequest.voters[msg.sender] == false */\n      iszero\n      iszero\n      eq\n        /* \"src/crowdfunding.sol\":2790:2865  require(thisRequest.voters[msg.sender] == false, \"You have already voted!\") */\n      tag_108\n      jumpi\n      mload(0x40)\n      0x08c379a000000000000000000000000000000000000000000000000000000000\n      dup2\n      mstore\n      0x04\n      add\n      tag_109\n      swap1\n      tag_110\n      jump\t// in\n    tag_109:\n      mload(0x40)\n      dup1\n      swap2\n      sub\n      swap1\n      revert\n    tag_108:\n        /* \"src/crowdfunding.sol\":2908:2912  true */\n      0x01\n        /* \"src/crowdfunding.sol\":2875:2886  thisRequest */\n      dup2\n        /* \"src/crowdfunding.sol\":2875:2893  thisRequest.voters */\n      0x05\n      add\n        /* \"src/crowdfunding.sol\":2875:2905  thisRequest.voters[msg.sender] */\n      0x00\n        /* \"src/crowdfunding.sol\":2894:2904  msg.sender */\n      caller\n        /* \"src/crowdfunding.sol\":2875:2905  thisRequest.voters[msg.sender] */\n      0xffffffffffffffffffffffffffffffffffffffff\n      and\n      0xffffffffffffffffffffffffffffffffffffffff\n      and\n      dup2\n      mstore\n      0x20\n      add\n      swap1\n      dup2\n      mstore\n      0x20\n      add\n      0x00\n      keccak256\n      0x00\n        /* \"src/crowdfunding.sol\":2875:2912  thisRequest.voters[msg.sender] = true */\n      0x0100\n      exp\n      dup2\n      sload\n      dup2\n      0xff\n      mul\n      not\n      and\n      swap1\n      dup4\n      iszero\n      iszero\n      mul\n      or\n      swap1\n      sstore\n      pop\n        /* \"src/crowdfunding.sol\":2922:2933  thisRequest */\n      dup1\n        /* \"src/crowdfunding.sol\":2922:2944  thisRequest.noOfVoters */\n      0x04\n      add\n      0x00\n        /* \"src/crowdfunding.sol\":2922:2946  thisRequest.noOfVoters++ */\n      dup2\n      sload\n      dup1\n      swap3\n      swap2\n      swap1\n      tag_111\n      swap1\n      tag_91\n      jump\t// in\n    tag_111:\n      swap2\n      swap1\n      pop\n      sstore\n      pop\n        /* \"src/crowdfunding.sol\":2631:2953  {... */\n      pop\n        /* \"src/crowdfunding.sol\":2587:2953  function voteRequest(uint _requestNo) public{... */\n      pop\n      jump\t// out\n        /* \"src/crowdfunding.sol\":160:188  uint public noOfContributors */\n    tag_55:\n      sload(0x02)\n      dup2\n      jump\t// out\n        /* \"src/crowdfunding.sol\":194:224  uint public minimumContributor */\n    tag_59:\n      sload(0x03)\n      dup2\n      jump\t// out\n        /* \"src/crowdfunding.sol\":521:561  mapping(uint => Request) public requests */\n    tag_64:\n      mstore(0x20, 0x07)\n      dup1\n      0x00\n      mstore\n      keccak256(0x00, 0x40)\n      0x00\n      swap2\n      pop\n      swap1\n      pop\n      dup1\n      0x00\n      add\n      dup1\n      sload\n      tag_112\n      swap1\n      tag_113\n      jump\t// in\n    tag_112:\n      dup1\n      0x1f\n      add\n      0x20\n      dup1\n      swap2\n      div\n      mul\n      0x20\n      add\n      mload(0x40)\n      swap1\n      dup2\n      add\n      0x40\n      mstore\n      dup1\n      swap3\n      swap2\n      swap1\n      dup2\n      dup2\n      mstore\n      0x20\n      add\n      dup3\n      dup1\n      sload\n      tag_114\n      swap1\n      tag_113\n      jump\t// in\n    tag_114:\n      dup1\n      iszero\n      tag_115\n      jumpi\n      dup1\n      0x1f\n      lt\n      tag_116\n      jumpi\n      0x0100\n      dup1\n      dup4\n      sload\n      div\n      mul\n      dup4\n      mstore\n      swap2\n      0x20\n      add\n      swap2\n      jump(tag_115)\n    tag_116:\n      dup3\n      add\n      swap2\n      swap1\n      0x00\n      mstore\n      keccak256(0x00, 0x20)\n      swap1\n    tag_117:\n      dup2\n      sload\n      dup2\n      mstore\n      swap1\n      0x01\n      add\n      swap1\n      0x20\n      add\n      dup1\n      dup4\n      gt\n      tag_117\n      jumpi\n      dup3\n      swap1\n      sub\n      0x1f\n      and\n      dup3\n      add\n      swap2\n    tag_115:\n      pop\n      pop\n      pop\n      pop\n      pop\n      swap1\n      dup1\n      0x01\n      add\n      0x00\n      swap1\n      sload\n      swap1\n      0x0100\n      exp\n      swap1\n      div\n      0xffffffffffffffffffffffffffffffffffffffff\n      and\n      swap1\n      dup1\n      0x02\n      add\n      sload\n      swap1\n      dup1\n      0x03\n      add\n      0x00\n      swap1\n      sload\n      swap1\n      0x0100\n      exp\n      swap1\n      div\n      0xff\n      and\n      swap1\n      dup1\n      0x04\n      add\n      sload\n      swap1\n      pop\n      dup6\n      jump\t// out\n        /* \"src/crowdfunding.sol\":629:652  uint public numRequests */\n    tag_69:\n      sload(0x08)\n      dup2\n      jump\t// out\n        /* \"src/crowdfunding.sol\":1441:1953  function getRefund() public{... */\n    tag_73:\n        /* \"src/crowdfunding.sol\":1565:1573  deadline */\n      sload(0x04)\n        /* \"src/crowdfunding.sol\":1547:1562  block.timestamp */\n      timestamp\n        /* \"src/crowdfunding.sol\":1547:1573  block.timestamp > deadline */\n      gt\n        /* \"src/crowdfunding.sol\":1547:1596  block.timestamp > deadline && raisedAmount < goal */\n      dup1\n      iszero\n      tag_119\n      jumpi\n      pop\n        /* \"src/crowdfunding.sol\":1592:1596  goal */\n      sload(0x05)\n        /* \"src/crowdfunding.sol\":1577:1589  raisedAmount */\n      sload(0x06)\n        /* \"src/crowdfunding.sol\":1577:1596  raisedAmount < goal */\n      lt\n        /* \"src/crowdfunding.sol\":1547:1596  block.timestamp > deadline && raisedAmount < goal */\n    tag_119:\n        /* \"src/crowdfunding.sol\":1539:1597  require(block.timestamp > deadline && raisedAmount < goal) */\n      tag_120\n      jumpi\n      revert(0x00, 0x00)\n    tag_120:\n        /* \"src/crowdfunding.sol\":1711:1712  0 */\n      0x00\n        /* \"src/crowdfunding.sol\":1684:1696  contributors */\n      0x00\n        /* \"src/crowdfunding.sol\":1684:1708  contributors[msg.sender] */\n      0x00\n        /* \"src/crowdfunding.sol\":1697:1707  msg.sender */\n      caller\n        /* \"src/crowdfunding.sol\":1684:1708  contributors[msg.sender] */\n      0xffffffffffffffffffffffffffffffffffffffff\n      and\n      0xffffffffffffffffffffffffffffffffffffffff\n      and\n      dup2\n      mstore\n      0x20\n      add\n      swap1\n      dup2\n      mstore\n      0x20\n      add\n      0x00\n      keccak256\n      sload\n        /* \"src/crowdfunding.sol\":1684:1712  contributors[msg.sender] > 0 */\n      gt\n        /* \"src/crowdfunding.sol\":1676:1713  require(contributors[msg.sender] > 0) */\n      tag_121\n      jumpi\n      revert(0x00, 0x00)\n    tag_121:\n        /* \"src/crowdfunding.sol\":1724:1749  address payable recipient */\n      0x00\n        /* \"src/crowdfunding.sol\":1760:1770  msg.sender */\n      caller\n        /* \"src/crowdfunding.sol\":1724:1771  address payable recipient = payable(msg.sender) */\n      swap1\n      pop\n        /* \"src/crowdfunding.sol\":1781:1791  uint value */\n      0x00\n        /* \"src/crowdfunding.sol\":1794:1806  contributors */\n      0x00\n        /* \"src/crowdfunding.sol\":1794:1818  contributors[msg.sender] */\n      0x00\n        /* \"src/crowdfunding.sol\":1807:1817  msg.sender */\n      caller\n        /* \"src/crowdfunding.sol\":1794:1818  contributors[msg.sender] */\n      0xffffffffffffffffffffffffffffffffffffffff\n      and\n      0xffffffffffffffffffffffffffffffffffffffff\n      and\n      dup2\n      mstore\n      0x20\n      add\n      swap1\n      dup2\n      mstore\n      0x20\n      add\n      0x00\n      keccak256\n      sload\n        /* \"src/crowdfunding.sol\":1781:1818  uint value = contributors[msg.sender] */\n      swap1\n      pop\n        /* \"src/crowdfunding.sol\":1828:1837  recipient */\n      dup2\n        /* \"src/crowdfunding.sol\":1828:1846  recipient.transfer */\n      0xffffffffffffffffffffffffffffffffffffffff\n      and\n        /* \"src/crowdfunding.sol\":1828:1853  recipient.transfer(value) */\n      0x08fc\n        /* \"src/crowdfunding.sol\":1847:1852  value */\n      dup3\n        /* \"src/crowdfunding.sol\":1828:1853  recipient.transfer(value) */\n      swap1\n      dup2\n      iszero\n      mul\n      swap1\n      mload(0x40)\n      0x00\n      mload(0x40)\n      dup1\n      dup4\n      sub\n      dup2\n      dup6\n      dup9\n      dup9\n      call\n      swap4\n      pop\n      pop\n      pop\n      pop\n      iszero\n      dup1\n      iszero\n      tag_123\n      jumpi\n      returndatacopy(0x00, 0x00, returndatasize)\n      revert(0x00, returndatasize)\n    tag_123:\n      pop\n        /* \"src/crowdfunding.sol\":1945:1946  0 */\n      0x00\n        /* \"src/crowdfunding.sol\":1918:1930  contributors */\n      0x00\n        /* \"src/crowdfunding.sol\":1918:1942  contributors[msg.sender] */\n      0x00\n        /* \"src/crowdfunding.sol\":1931:1941  msg.sender */\n      caller\n        /* \"src/crowdfunding.sol\":1918:1942  contributors[msg.sender] */\n      0xffffffffffffffffffffffffffffffffffffffff\n      and\n      0xffffffffffffffffffffffffffffffffffffffff\n      and\n      dup2\n      mstore\n      0x20\n      add\n      swap1\n      dup2\n      mstore\n      0x20\n      add\n      0x00\n      keccak256\n        /* \"src/crowdfunding.sol\":1918:1946  contributors[msg.sender] = 0 */\n      dup2\n      swap1\n      sstore\n      pop\n        /* \"src/crowdfunding.sol\":1468:1953  {... */\n      pop\n      pop\n        /* \"src/crowdfunding.sol\":1441:1953  function getRefund() public{... */\n      jump\t// out\n        /* \"src/crowdfunding.sol\":291:315  uint public raisedAmount */\n    tag_76:\n      sload(0x06)\n      dup2\n      jump\t// out\n        /* \"src/crowdfunding.sol\":134:154  address public admin */\n    tag_81:\n      0x01\n      0x00\n      swap1\n      sload\n      swap1\n      0x0100\n      exp\n      swap1\n      div\n      0xffffffffffffffffffffffffffffffffffffffff\n      and\n      dup2\n      jump\t// out\n        /* \"#utility.yul\":7:84   */\n    tag_124:\n        /* \"#utility.yul\":44:51   */\n      0x00\n        /* \"#utility.yul\":73:78   */\n      dup2\n        /* \"#utility.yul\":62:78   */\n      swap1\n      pop\n        /* \"#utility.yul\":7:84   */\n      swap2\n      swap1\n      pop\n      jump\t// out\n        /* \"#utility.yul\":90:208   */\n    tag_125:\n        /* \"#utility.yul\":177:201   */\n      tag_184\n        /* \"#utility.yul\":195:200   */\n      dup2\n        /* \"#utility.yul\":177:201   */\n      tag_124\n      jump\t// in\n    tag_184:\n        /* \"#utility.yul\":172:175   */\n      dup3\n        /* \"#utility.yul\":165:202   */\n      mstore\n        /* \"#utility.yul\":90:208   */\n      pop\n      pop\n      jump\t// out\n        /* \"#utility.yul\":214:436   */\n    tag_28:\n        /* \"#utility.yul\":307:311   */\n      0x00\n        /* \"#utility.yul\":345:347   */\n      0x20\n        /* \"#utility.yul\":334:343   */\n      dup3\n        /* \"#utility.yul\":330:348   */\n      add\n        /* \"#utility.yul\":322:348   */\n      swap1\n      pop\n        /* \"#utility.yul\":358:429   */\n      tag_186\n        /* \"#utility.yul\":426:427   */\n      0x00\n        /* \"#utility.yul\":415:424   */\n      dup4\n        /* \"#utility.yul\":411:428   */\n      add\n        /* \"#utility.yul\":402:408   */\n      dup5\n        /* \"#utility.yul\":358:429   */\n      tag_125\n      jump\t// in\n    tag_186:\n        /* \"#utility.yul\":214:436   */\n      swap3\n      swap2\n      pop\n      pop\n      jump\t// out\n        /* \"#utility.yul\":442:517   */\n    tag_126:\n        /* \"#utility.yul\":475:481   */\n      0x00\n        /* \"#utility.yul\":508:510   */\n      0x40\n        /* \"#utility.yul\":502:511   */\n      mload\n        /* \"#utility.yul\":492:511   */\n      swap1\n      pop\n        /* \"#utility.yul\":442:517   */\n      swap1\n      jump\t// out\n        /* \"#utility.yul\":523:640   */\n    tag_127:\n        /* \"#utility.yul\":632:633   */\n      0x00\n        /* \"#utility.yul\":629:630   */\n      0x00\n        /* \"#utility.yul\":622:634   */\n      revert\n        /* \"#utility.yul\":646:763   */\n    tag_128:\n        /* \"#utility.yul\":755:756   */\n      0x00\n        /* \"#utility.yul\":752:753   */\n      0x00\n        /* \"#utility.yul\":745:757   */\n      revert\n        /* \"#utility.yul\":769:886   */\n    tag_129:\n        /* \"#utility.yul\":878:879   */\n      0x00\n        /* \"#utility.yul\":875:876   */\n      0x00\n        /* \"#utility.yul\":868:880   */\n      revert\n        /* \"#utility.yul\":892:1009   */\n    tag_130:\n        /* \"#utility.yul\":1001:1002   */\n      0x00\n        /* \"#utility.yul\":998:999   */\n      0x00\n        /* \"#utility.yul\":991:1003   */\n      revert\n        /* \"#utility.yul\":1015:1117   */\n    tag_131:\n        /* \"#utility.yul\":1056:1062   */\n      0x00\n        /* \"#utility.yul\":1107:1109   */\n      0x1f\n        /* \"#utility.yul\":1103:1110   */\n      not\n        /* \"#utility.yul\":1098:1100   */\n      0x1f\n        /* \"#utility.yul\":1091:1096   */\n      dup4\n        /* \"#utility.yul\":1087:1101   */\n      add\n        /* \"#utility.yul\":1083:1111   */\n      and\n        /* \"#utility.yul\":1073:1111   */\n      swap1\n      pop\n        /* \"#utility.yul\":1015:1117   */\n      swap2\n      swap1\n      pop\n      jump\t// out\n        /* \"#utility.yul\":1123:1303   */\n    tag_132:\n        /* \"#utility.yul\":1171:1248   */\n      0x4e487b7100000000000000000000000000000000000000000000000000000000\n        /* \"#utility.yul\":1168:1169   */\n      0x00\n        /* \"#utility.yul\":1161:1249   */\n      mstore\n        /* \"#utility.yul\":1268:1272   */\n      0x41\n        /* \"#utility.yul\":1265:1266   */\n      0x04\n        /* \"#utility.yul\":1258:1273   */\n      mstore\n        /* \"#utility.yul\":1292:1296   */\n      0x24\n        /* \"#utility.yul\":1289:1290   */\n      0x00\n        /* \"#utility.yul\":1282:1297   */\n      revert\n        /* \"#utility.yul\":1309:1590   */\n    tag_133:\n        /* \"#utility.yul\":1392:1419   */\n      tag_195\n        /* \"#utility.yul\":1414:1418   */\n      dup3\n        /* \"#utility.yul\":1392:1419   */\n      tag_131\n      jump\t// in\n    tag_195:\n        /* \"#utility.yul\":1384:1390   */\n      dup2\n        /* \"#utility.yul\":1380:1420   */\n      add\n        /* \"#utility.yul\":1522:1528   */\n      dup2\n        /* \"#utility.yul\":1510:1520   */\n      dup2\n        /* \"#utility.yul\":1507:1529   */\n      lt\n        /* \"#utility.yul\":1486:1504   */\n      0xffffffffffffffff\n        /* \"#utility.yul\":1474:1484   */\n      dup3\n        /* \"#utility.yul\":1471:1505   */\n      gt\n        /* \"#utility.yul\":1468:1530   */\n      or\n        /* \"#utility.yul\":1465:1553   */\n      iszero\n      tag_196\n      jumpi\n        /* \"#utility.yul\":1533:1551   */\n      tag_197\n      tag_132\n      jump\t// in\n    tag_197:\n        /* \"#utility.yul\":1465:1553   */\n    tag_196:\n        /* \"#utility.yul\":1573:1583   */\n      dup1\n        /* \"#utility.yul\":1569:1571   */\n      0x40\n        /* \"#utility.yul\":1562:1584   */\n      mstore\n        /* \"#utility.yul\":1352:1590   */\n      pop\n        /* \"#utility.yul\":1309:1590   */\n      pop\n      pop\n      jump\t// out\n        /* \"#utility.yul\":1596:1725   */\n    tag_134:\n        /* \"#utility.yul\":1630:1636   */\n      0x00\n        /* \"#utility.yul\":1657:1677   */\n      tag_199\n      tag_126\n      jump\t// in\n    tag_199:\n        /* \"#utility.yul\":1647:1677   */\n      swap1\n      pop\n        /* \"#utility.yul\":1686:1719   */\n      tag_200\n        /* \"#utility.yul\":1714:1718   */\n      dup3\n        /* \"#utility.yul\":1706:1712   */\n      dup3\n        /* \"#utility.yul\":1686:1719   */\n      tag_133\n      jump\t// in\n    tag_200:\n        /* \"#utility.yul\":1596:1725   */\n      swap2\n      swap1\n      pop\n      jump\t// out\n        /* \"#utility.yul\":1731:2039   */\n    tag_135:\n        /* \"#utility.yul\":1793:1797   */\n      0x00\n        /* \"#utility.yul\":1883:1901   */\n      0xffffffffffffffff\n        /* \"#utility.yul\":1875:1881   */\n      dup3\n        /* \"#utility.yul\":1872:1902   */\n      gt\n        /* \"#utility.yul\":1869:1925   */\n      iszero\n      tag_202\n      jumpi\n        /* \"#utility.yul\":1905:1923   */\n      tag_203\n      tag_132\n      jump\t// in\n    tag_203:\n        /* \"#utility.yul\":1869:1925   */\n    tag_202:\n        /* \"#utility.yul\":1943:1972   */\n      tag_204\n        /* \"#utility.yul\":1965:1971   */\n      dup3\n        /* \"#utility.yul\":1943:1972   */\n      tag_131\n      jump\t// in\n    tag_204:\n        /* \"#utility.yul\":1935:1972   */\n      swap1\n      pop\n        /* \"#utility.yul\":2027:2031   */\n      0x20\n        /* \"#utility.yul\":2021:2025   */\n      dup2\n        /* \"#utility.yul\":2017:2032   */\n      add\n        /* \"#utility.yul\":2009:2032   */\n      swap1\n      pop\n        /* \"#utility.yul\":1731:2039   */\n      swap2\n      swap1\n      pop\n      jump\t// out\n        /* \"#utility.yul\":2045:2193   */\n    tag_136:\n        /* \"#utility.yul\":2143:2149   */\n      dup3\n        /* \"#utility.yul\":2138:2141   */\n      dup2\n        /* \"#utility.yul\":2133:2136   */\n      dup4\n        /* \"#utility.yul\":2120:2150   */\n      calldatacopy\n        /* \"#utility.yul\":2184:2185   */\n      0x00\n        /* \"#utility.yul\":2175:2181   */\n      dup4\n        /* \"#utility.yul\":2170:2173   */\n      dup4\n        /* \"#utility.yul\":2166:2182   */\n      add\n        /* \"#utility.yul\":2159:2186   */\n      mstore\n        /* \"#utility.yul\":2045:2193   */\n      pop\n      pop\n      pop\n      jump\t// out\n        /* \"#utility.yul\":2199:2624   */\n    tag_137:\n        /* \"#utility.yul\":2277:2282   */\n      0x00\n        /* \"#utility.yul\":2302:2368   */\n      tag_207\n        /* \"#utility.yul\":2318:2367   */\n      tag_208\n        /* \"#utility.yul\":2360:2366   */\n      dup5\n        /* \"#utility.yul\":2318:2367   */\n      tag_135\n      jump\t// in\n    tag_208:\n        /* \"#utility.yul\":2302:2368   */\n      tag_134\n      jump\t// in\n    tag_207:\n        /* \"#utility.yul\":2293:2368   */\n      swap1\n      pop\n        /* \"#utility.yul\":2391:2397   */\n      dup3\n        /* \"#utility.yul\":2384:2389   */\n      dup2\n        /* \"#utility.yul\":2377:2398   */\n      mstore\n        /* \"#utility.yul\":2429:2433   */\n      0x20\n        /* \"#utility.yul\":2422:2427   */\n      dup2\n        /* \"#utility.yul\":2418:2434   */\n      add\n        /* \"#utility.yul\":2467:2470   */\n      dup5\n        /* \"#utility.yul\":2458:2464   */\n      dup5\n        /* \"#utility.yul\":2453:2456   */\n      dup5\n        /* \"#utility.yul\":2449:2465   */\n      add\n        /* \"#utility.yul\":2446:2471   */\n      gt\n        /* \"#utility.yul\":2443:2555   */\n      iszero\n      tag_209\n      jumpi\n        /* \"#utility.yul\":2474:2553   */\n      tag_210\n      tag_130\n      jump\t// in\n    tag_210:\n        /* \"#utility.yul\":2443:2555   */\n    tag_209:\n        /* \"#utility.yul\":2564:2618   */\n      tag_211\n        /* \"#utility.yul\":2611:2617   */\n      dup5\n        /* \"#utility.yul\":2606:2609   */\n      dup3\n        /* \"#utility.yul\":2601:2604   */\n      dup6\n        /* \"#utility.yul\":2564:2618   */\n      tag_136\n      jump\t// in\n    tag_211:\n        /* \"#utility.yul\":2283:2624   */\n      pop\n        /* \"#utility.yul\":2199:2624   */\n      swap4\n      swap3\n      pop\n      pop\n      pop\n      jump\t// out\n        /* \"#utility.yul\":2644:2984   */\n    tag_138:\n        /* \"#utility.yul\":2700:2705   */\n      0x00\n        /* \"#utility.yul\":2749:2752   */\n      dup3\n        /* \"#utility.yul\":2742:2746   */\n      0x1f\n        /* \"#utility.yul\":2734:2740   */\n      dup4\n        /* \"#utility.yul\":2730:2747   */\n      add\n        /* \"#utility.yul\":2726:2753   */\n      slt\n        /* \"#utility.yul\":2716:2838   */\n      tag_213\n      jumpi\n        /* \"#utility.yul\":2757:2836   */\n      tag_214\n      tag_129\n      jump\t// in\n    tag_214:\n        /* \"#utility.yul\":2716:2838   */\n    tag_213:\n        /* \"#utility.yul\":2874:2880   */\n      dup2\n        /* \"#utility.yul\":2861:2881   */\n      calldataload\n        /* \"#utility.yul\":2899:2978   */\n      tag_215\n        /* \"#utility.yul\":2974:2977   */\n      dup5\n        /* \"#utility.yul\":2966:2972   */\n      dup3\n        /* \"#utility.yul\":2959:2963   */\n      0x20\n        /* \"#utility.yul\":2951:2957   */\n      dup7\n        /* \"#utility.yul\":2947:2964   */\n      add\n        /* \"#utility.yul\":2899:2978   */\n      tag_137\n      jump\t// in\n    tag_215:\n        /* \"#utility.yul\":2890:2978   */\n      swap2\n      pop\n        /* \"#utility.yul\":2706:2984   */\n      pop\n        /* \"#utility.yul\":2644:2984   */\n      swap3\n      swap2\n      pop\n      pop\n      jump\t// out\n        /* \"#utility.yul\":2990:3116   */\n    tag_139:\n        /* \"#utility.yul\":3027:3034   */\n      0x00\n        /* \"#utility.yul\":3067:3109   */\n      0xffffffffffffffffffffffffffffffffffffffff\n        /* \"#utility.yul\":3060:3065   */\n      dup3\n        /* \"#utility.yul\":3056:3110   */\n      and\n        /* \"#utility.yul\":3045:3110   */\n      swap1\n      pop\n        /* \"#utility.yul\":2990:3116   */\n      swap2\n      swap1\n      pop\n      jump\t// out\n        /* \"#utility.yul\":3122:3226   */\n    tag_140:\n        /* \"#utility.yul\":3167:3174   */\n      0x00\n        /* \"#utility.yul\":3196:3220   */\n      tag_218\n        /* \"#utility.yul\":3214:3219   */\n      dup3\n        /* \"#utility.yul\":3196:3220   */\n      tag_139\n      jump\t// in\n    tag_218:\n        /* \"#utility.yul\":3185:3220   */\n      swap1\n      pop\n        /* \"#utility.yul\":3122:3226   */\n      swap2\n      swap1\n      pop\n      jump\t// out\n        /* \"#utility.yul\":3232:3370   */\n    tag_141:\n        /* \"#utility.yul\":3313:3345   */\n      tag_220\n        /* \"#utility.yul\":3339:3344   */\n      dup2\n        /* \"#utility.yul\":3313:3345   */\n      tag_140\n      jump\t// in\n    tag_220:\n        /* \"#utility.yul\":3306:3311   */\n      dup2\n        /* \"#utility.yul\":3303:3346   */\n      eq\n        /* \"#utility.yul\":3293:3364   */\n      tag_221\n      jumpi\n        /* \"#utility.yul\":3360:3361   */\n      0x00\n        /* \"#utility.yul\":3357:3358   */\n      0x00\n        /* \"#utility.yul\":3350:3362   */\n      revert\n        /* \"#utility.yul\":3293:3364   */\n    tag_221:\n        /* \"#utility.yul\":3232:3370   */\n      pop\n      jump\t// out\n        /* \"#utility.yul\":3376:3531   */\n    tag_142:\n        /* \"#utility.yul\":3430:3435   */\n      0x00\n        /* \"#utility.yul\":3468:3474   */\n      dup2\n        /* \"#utility.yul\":3455:3475   */\n      calldataload\n        /* \"#utility.yul\":3446:3475   */\n      swap1\n      pop\n        /* \"#utility.yul\":3484:3525   */\n      tag_223\n        /* \"#utility.yul\":3519:3524   */\n      dup2\n        /* \"#utility.yul\":3484:3525   */\n      tag_141\n      jump\t// in\n    tag_223:\n        /* \"#utility.yul\":3376:3531   */\n      swap3\n      swap2\n      pop\n      pop\n      jump\t// out\n        /* \"#utility.yul\":3537:3659   */\n    tag_143:\n        /* \"#utility.yul\":3610:3634   */\n      tag_225\n        /* \"#utility.yul\":3628:3633   */\n      dup2\n        /* \"#utility.yul\":3610:3634   */\n      tag_124\n      jump\t// in\n    tag_225:\n        /* \"#utility.yul\":3603:3608   */\n      dup2\n        /* \"#utility.yul\":3600:3635   */\n      eq\n        /* \"#utility.yul\":3590:3653   */\n      tag_226\n      jumpi\n        /* \"#utility.yul\":3649:3650   */\n      0x00\n        /* \"#utility.yul\":3646:3647   */\n      0x00\n        /* \"#utility.yul\":3639:3651   */\n      revert\n        /* \"#utility.yul\":3590:3653   */\n    tag_226:\n        /* \"#utility.yul\":3537:3659   */\n      pop\n      jump\t// out\n        /* \"#utility.yul\":3665:3804   */\n    tag_144:\n        /* \"#utility.yul\":3711:3716   */\n      0x00\n        /* \"#utility.yul\":3749:3755   */\n      dup2\n        /* \"#utility.yul\":3736:3756   */\n      calldataload\n        /* \"#utility.yul\":3727:3756   */\n      swap1\n      pop\n        /* \"#utility.yul\":3765:3798   */\n      tag_228\n        /* \"#utility.yul\":3792:3797   */\n      dup2\n        /* \"#utility.yul\":3765:3798   */\n      tag_143\n      jump\t// in\n    tag_228:\n        /* \"#utility.yul\":3665:3804   */\n      swap3\n      swap2\n      pop\n      pop\n      jump\t// out\n        /* \"#utility.yul\":3810:4625   */\n    tag_32:\n        /* \"#utility.yul\":3905:3911   */\n      0x00\n        /* \"#utility.yul\":3913:3919   */\n      0x00\n        /* \"#utility.yul\":3921:3927   */\n      0x00\n        /* \"#utility.yul\":3970:3972   */\n      0x60\n        /* \"#utility.yul\":3958:3967   */\n      dup5\n        /* \"#utility.yul\":3949:3956   */\n      dup7\n        /* \"#utility.yul\":3945:3968   */\n      sub\n        /* \"#utility.yul\":3941:3973   */\n      slt\n        /* \"#utility.yul\":3938:4057   */\n      iszero\n      tag_230\n      jumpi\n        /* \"#utility.yul\":3976:4055   */\n      tag_231\n      tag_127\n      jump\t// in\n    tag_231:\n        /* \"#utility.yul\":3938:4057   */\n    tag_230:\n        /* \"#utility.yul\":4124:4125   */\n      0x00\n        /* \"#utility.yul\":4113:4122   */\n      dup5\n        /* \"#utility.yul\":4109:4126   */\n      add\n        /* \"#utility.yul\":4096:4127   */\n      calldataload\n        /* \"#utility.yul\":4154:4172   */\n      0xffffffffffffffff\n        /* \"#utility.yul\":4146:4152   */\n      dup2\n        /* \"#utility.yul\":4143:4173   */\n      gt\n        /* \"#utility.yul\":4140:4257   */\n      iszero\n      tag_232\n      jumpi\n        /* \"#utility.yul\":4176:4255   */\n      tag_233\n      tag_128\n      jump\t// in\n    tag_233:\n        /* \"#utility.yul\":4140:4257   */\n    tag_232:\n        /* \"#utility.yul\":4281:4344   */\n      tag_234\n        /* \"#utility.yul\":4336:4343   */\n      dup7\n        /* \"#utility.yul\":4327:4333   */\n      dup3\n        /* \"#utility.yul\":4316:4325   */\n      dup8\n        /* \"#utility.yul\":4312:4334   */\n      add\n        /* \"#utility.yul\":4281:4344   */\n      tag_138\n      jump\t// in\n    tag_234:\n        /* \"#utility.yul\":4271:4344   */\n      swap4\n      pop\n        /* \"#utility.yul\":4067:4354   */\n      pop\n        /* \"#utility.yul\":4393:4395   */\n      0x20\n        /* \"#utility.yul\":4419:4480   */\n      tag_235\n        /* \"#utility.yul\":4472:4479   */\n      dup7\n        /* \"#utility.yul\":4463:4469   */\n      dup3\n        /* \"#utility.yul\":4452:4461   */\n      dup8\n        /* \"#utility.yul\":4448:4470   */\n      add\n        /* \"#utility.yul\":4419:4480   */\n      tag_142\n      jump\t// in\n    tag_235:\n        /* \"#utility.yul\":4409:4480   */\n      swap3\n      pop\n        /* \"#utility.yul\":4364:4490   */\n      pop\n        /* \"#utility.yul\":4529:4531   */\n      0x40\n        /* \"#utility.yul\":4555:4608   */\n      tag_236\n        /* \"#utility.yul\":4600:4607   */\n      dup7\n        /* \"#utility.yul\":4591:4597   */\n      dup3\n        /* \"#utility.yul\":4580:4589   */\n      dup8\n        /* \"#utility.yul\":4576:4598   */\n      add\n        /* \"#utility.yul\":4555:4608   */\n      tag_144\n      jump\t// in\n    tag_236:\n        /* \"#utility.yul\":4545:4608   */\n      swap2\n      pop\n        /* \"#utility.yul\":4500:4618   */\n      pop\n        /* \"#utility.yul\":3810:4625   */\n      swap3\n      pop\n      swap3\n      pop\n      swap3\n      jump\t// out\n        /* \"#utility.yul\":4631:4727   */\n    tag_145:\n        /* \"#utility.yul\":4668:4675   */\n      0x00\n        /* \"#utility.yul\":4697:4721   */\n      tag_238\n        /* \"#utility.yul\":4715:4720   */\n      dup3\n        /* \"#utility.yul\":4697:4721   */\n      tag_139\n      jump\t// in\n    tag_238:\n        /* \"#utility.yul\":4686:4721   */\n      swap1\n      pop\n        /* \"#utility.yul\":4631:4727   */\n      swap2\n      swap1\n      pop\n      jump\t// out\n        /* \"#utility.yul\":4733:4855   */\n    tag_146:\n        /* \"#utility.yul\":4806:4830   */\n      tag_240\n        /* \"#utility.yul\":4824:4829   */\n      dup2\n        /* \"#utility.yul\":4806:4830   */\n      tag_145\n      jump\t// in\n    tag_240:\n        /* \"#utility.yul\":4799:4804   */\n      dup2\n        /* \"#utility.yul\":4796:4831   */\n      eq\n        /* \"#utility.yul\":4786:4849   */\n      tag_241\n      jumpi\n        /* \"#utility.yul\":4845:4846   */\n      0x00\n        /* \"#utility.yul\":4842:4843   */\n      0x00\n        /* \"#utility.yul\":4835:4847   */\n      revert\n        /* \"#utility.yul\":4786:4849   */\n    tag_241:\n        /* \"#utility.yul\":4733:4855   */\n      pop\n      jump\t// out\n        /* \"#utility.yul\":4861:5000   */\n    tag_147:\n        /* \"#utility.yul\":4907:4912   */\n      0x00\n        /* \"#utility.yul\":4945:4951   */\n      dup2\n        /* \"#utility.yul\":4932:4952   */\n      calldataload\n        /* \"#utility.yul\":4923:4952   */\n      swap1\n      pop\n        /* \"#utility.yul\":4961:4994   */\n      tag_243\n        /* \"#utility.yul\":4988:4993   */\n      dup2\n        /* \"#utility.yul\":4961:4994   */\n      tag_146\n      jump\t// in\n    tag_243:\n        /* \"#utility.yul\":4861:5000   */\n      swap3\n      swap2\n      pop\n      pop\n      jump\t// out\n        /* \"#utility.yul\":5006:5335   */\n    tag_37:\n        /* \"#utility.yul\":5065:5071   */\n      0x00\n        /* \"#utility.yul\":5114:5116   */\n      0x20\n        /* \"#utility.yul\":5102:5111   */\n      dup3\n        /* \"#utility.yul\":5093:5100   */\n      dup5\n        /* \"#utility.yul\":5089:5112   */\n      sub\n        /* \"#utility.yul\":5085:5117   */\n      slt\n        /* \"#utility.yul\":5082:5201   */\n      iszero\n      tag_245\n      jumpi\n        /* \"#utility.yul\":5120:5199   */\n      tag_246\n      tag_127\n      jump\t// in\n    tag_246:\n        /* \"#utility.yul\":5082:5201   */\n    tag_245:\n        /* \"#utility.yul\":5240:5241   */\n      0x00\n        /* \"#utility.yul\":5265:5318   */\n      tag_247\n        /* \"#utility.yul\":5310:5317   */\n      dup5\n        /* \"#utility.yul\":5301:5307   */\n      dup3\n        /* \"#utility.yul\":5290:5299   */\n      dup6\n        /* \"#utility.yul\":5286:5308   */\n      add\n        /* \"#utility.yul\":5265:5318   */\n      tag_147\n      jump\t// in\n    tag_247:\n        /* \"#utility.yul\":5255:5318   */\n      swap2\n      pop\n        /* \"#utility.yul\":5211:5328   */\n      pop\n        /* \"#utility.yul\":5006:5335   */\n      swap3\n      swap2\n      pop\n      pop\n      jump\t// out\n        /* \"#utility.yul\":5341:5670   */\n    tag_51:\n        /* \"#utility.yul\":5400:5406   */\n      0x00\n        /* \"#utility.yul\":5449:5451   */\n      0x20\n        /* \"#utility.yul\":5437:5446   */\n      dup3\n        /* \"#utility.yul\":5428:5435   */\n      dup5\n        /* \"#utility.yul\":5424:5447   */\n      sub\n        /* \"#utility.yul\":5420:5452   */\n      slt\n        /* \"#utility.yul\":5417:5536   */\n      iszero\n      tag_249\n      jumpi\n        /* \"#utility.yul\":5455:5534   */\n      tag_250\n      tag_127\n      jump\t// in\n    tag_250:\n        /* \"#utility.yul\":5417:5536   */\n    tag_249:\n        /* \"#utility.yul\":5575:5576   */\n      0x00\n        /* \"#utility.yul\":5600:5653   */\n      tag_251\n        /* \"#utility.yul\":5645:5652   */\n      dup5\n        /* \"#utility.yul\":5636:5642   */\n      dup3\n        /* \"#utility.yul\":5625:5634   */\n      dup6\n        /* \"#utility.yul\":5621:5643   */\n      add\n        /* \"#utility.yul\":5600:5653   */\n      tag_144\n      jump\t// in\n    tag_251:\n        /* \"#utility.yul\":5590:5653   */\n      swap2\n      pop\n        /* \"#utility.yul\":5546:5663   */\n      pop\n        /* \"#utility.yul\":5341:5670   */\n      swap3\n      swap2\n      pop\n      pop\n      jump\t// out\n        /* \"#utility.yul\":5676:5775   */\n    tag_148:\n        /* \"#utility.yul\":5728:5734   */\n      0x00\n        /* \"#utility.yul\":5762:5767   */\n      dup2\n        /* \"#utility.yul\":5756:5768   */\n      mload\n        /* \"#utility.yul\":5746:5768   */\n      swap1\n      pop\n        /* \"#utility.yul\":5676:5775   */\n      swap2\n      swap1\n      pop\n      jump\t// out\n        /* \"#utility.yul\":5781:5950   */\n    tag_149:\n        /* \"#utility.yul\":5865:5876   */\n      0x00\n        /* \"#utility.yul\":5899:5905   */\n      dup3\n        /* \"#utility.yul\":5894:5897   */\n      dup3\n        /* \"#utility.yul\":5887:5906   */\n      mstore\n        /* \"#utility.yul\":5939:5943   */\n      0x20\n        /* \"#utility.yul\":5934:5937   */\n      dup3\n        /* \"#utility.yul\":5930:5944   */\n      add\n        /* \"#utility.yul\":5915:5944   */\n      swap1\n      pop\n        /* \"#utility.yul\":5781:5950   */\n      swap3\n      swap2\n      pop\n      pop\n      jump\t// out\n        /* \"#utility.yul\":5956:6095   */\n    tag_150:\n        /* \"#utility.yul\":6045:6051   */\n      dup3\n        /* \"#utility.yul\":6040:6043   */\n      dup2\n        /* \"#utility.yul\":6035:6038   */\n      dup4\n        /* \"#utility.yul\":6029:6052   */\n      mcopy\n        /* \"#utility.yul\":6086:6087   */\n      0x00\n        /* \"#utility.yul\":6077:6083   */\n      dup4\n        /* \"#utility.yul\":6072:6075   */\n      dup4\n        /* \"#utility.yul\":6068:6084   */\n      add\n        /* \"#utility.yul\":6061:6088   */\n      mstore\n        /* \"#utility.yul\":5956:6095   */\n      pop\n      pop\n      pop\n      jump\t// out\n        /* \"#utility.yul\":6101:6478   */\n    tag_151:\n        /* \"#utility.yul\":6189:6192   */\n      0x00\n        /* \"#utility.yul\":6217:6256   */\n      tag_256\n        /* \"#utility.yul\":6250:6255   */\n      dup3\n        /* \"#utility.yul\":6217:6256   */\n      tag_148\n      jump\t// in\n    tag_256:\n        /* \"#utility.yul\":6272:6343   */\n      tag_257\n        /* \"#utility.yul\":6336:6342   */\n      dup2\n        /* \"#utility.yul\":6331:6334   */\n      dup6\n        /* \"#utility.yul\":6272:6343   */\n      tag_149\n      jump\t// in\n    tag_257:\n        /* \"#utility.yul\":6265:6343   */\n      swap4\n      pop\n        /* \"#utility.yul\":6352:6417   */\n      tag_258\n        /* \"#utility.yul\":6410:6416   */\n      dup2\n        /* \"#utility.yul\":6405:6408   */\n      dup6\n        /* \"#utility.yul\":6398:6402   */\n      0x20\n        /* \"#utility.yul\":6391:6396   */\n      dup7\n        /* \"#utility.yul\":6387:6403   */\n      add\n        /* \"#utility.yul\":6352:6417   */\n      tag_150\n      jump\t// in\n    tag_258:\n        /* \"#utility.yul\":6442:6471   */\n      tag_259\n        /* \"#utility.yul\":6464:6470   */\n      dup2\n        /* \"#utility.yul\":6442:6471   */\n      tag_131\n      jump\t// in\n    tag_259:\n        /* \"#utility.yul\":6437:6440   */\n      dup5\n        /* \"#utility.yul\":6433:6472   */\n      add\n        /* \"#utility.yul\":6426:6472   */\n      swap2\n      pop\n        /* \"#utility.yul\":6193:6478   */\n      pop\n        /* \"#utility.yul\":6101:6478   */\n      swap3\n      swap2\n      pop\n      pop\n      jump\t// out\n        /* \"#utility.yul\":6484:6626   */\n    tag_152:\n        /* \"#utility.yul\":6587:6619   */\n      tag_261\n        /* \"#utility.yul\":6613:6618   */\n      dup2\n        /* \"#utility.yul\":6587:6619   */\n      tag_140\n      jump\t// in\n    tag_261:\n        /* \"#utility.yul\":6582:6585   */\n      dup3\n        /* \"#utility.yul\":6575:6620   */\n      mstore\n        /* \"#utility.yul\":6484:6626   */\n      pop\n      pop\n      jump\t// out\n        /* \"#utility.yul\":6632:6722   */\n    tag_153:\n        /* \"#utility.yul\":6666:6673   */\n      0x00\n        /* \"#utility.yul\":6709:6714   */\n      dup2\n        /* \"#utility.yul\":6702:6715   */\n      iszero\n        /* \"#utility.yul\":6695:6716   */\n      iszero\n        /* \"#utility.yul\":6684:6716   */\n      swap1\n      pop\n        /* \"#utility.yul\":6632:6722   */\n      swap2\n      swap1\n      pop\n      jump\t// out\n        /* \"#utility.yul\":6728:6837   */\n    tag_154:\n        /* \"#utility.yul\":6809:6830   */\n      tag_264\n        /* \"#utility.yul\":6824:6829   */\n      dup2\n        /* \"#utility.yul\":6809:6830   */\n      tag_153\n      jump\t// in\n    tag_264:\n        /* \"#utility.yul\":6804:6807   */\n      dup3\n        /* \"#utility.yul\":6797:6831   */\n      mstore\n        /* \"#utility.yul\":6728:6837   */\n      pop\n      pop\n      jump\t// out\n        /* \"#utility.yul\":6843:7618   */\n    tag_66:\n        /* \"#utility.yul\":7078:7082   */\n      0x00\n        /* \"#utility.yul\":7116:7119   */\n      0xa0\n        /* \"#utility.yul\":7105:7114   */\n      dup3\n        /* \"#utility.yul\":7101:7120   */\n      add\n        /* \"#utility.yul\":7093:7120   */\n      swap1\n      pop\n        /* \"#utility.yul\":7166:7175   */\n      dup2\n        /* \"#utility.yul\":7160:7164   */\n      dup2\n        /* \"#utility.yul\":7156:7176   */\n      sub\n        /* \"#utility.yul\":7152:7153   */\n      0x00\n        /* \"#utility.yul\":7141:7150   */\n      dup4\n        /* \"#utility.yul\":7137:7154   */\n      add\n        /* \"#utility.yul\":7130:7177   */\n      mstore\n        /* \"#utility.yul\":7194:7272   */\n      tag_266\n        /* \"#utility.yul\":7267:7271   */\n      dup2\n        /* \"#utility.yul\":7258:7264   */\n      dup9\n        /* \"#utility.yul\":7194:7272   */\n      tag_151\n      jump\t// in\n    tag_266:\n        /* \"#utility.yul\":7186:7272   */\n      swap1\n      pop\n        /* \"#utility.yul\":7282:7370   */\n      tag_267\n        /* \"#utility.yul\":7366:7368   */\n      0x20\n        /* \"#utility.yul\":7355:7364   */\n      dup4\n        /* \"#utility.yul\":7351:7369   */\n      add\n        /* \"#utility.yul\":7342:7348   */\n      dup8\n        /* \"#utility.yul\":7282:7370   */\n      tag_152\n      jump\t// in\n    tag_267:\n        /* \"#utility.yul\":7380:7452   */\n      tag_268\n        /* \"#utility.yul\":7448:7450   */\n      0x40\n        /* \"#utility.yul\":7437:7446   */\n      dup4\n        /* \"#utility.yul\":7433:7451   */\n      add\n        /* \"#utility.yul\":7424:7430   */\n      dup7\n        /* \"#utility.yul\":7380:7452   */\n      tag_125\n      jump\t// in\n    tag_268:\n        /* \"#utility.yul\":7462:7528   */\n      tag_269\n        /* \"#utility.yul\":7524:7526   */\n      0x60\n        /* \"#utility.yul\":7513:7522   */\n      dup4\n        /* \"#utility.yul\":7509:7527   */\n      add\n        /* \"#utility.yul\":7500:7506   */\n      dup6\n        /* \"#utility.yul\":7462:7528   */\n      tag_154\n      jump\t// in\n    tag_269:\n        /* \"#utility.yul\":7538:7611   */\n      tag_270\n        /* \"#utility.yul\":7606:7609   */\n      0x80\n        /* \"#utility.yul\":7595:7604   */\n      dup4\n        /* \"#utility.yul\":7591:7610   */\n      add\n        /* \"#utility.yul\":7582:7588   */\n      dup5\n        /* \"#utility.yul\":7538:7611   */\n      tag_125\n      jump\t// in\n    tag_270:\n        /* \"#utility.yul\":6843:7618   */\n      swap7\n      swap6\n      pop\n      pop\n      pop\n      pop\n      pop\n      pop\n      jump\t// out\n        /* \"#utility.yul\":7624:7742   */\n    tag_155:\n        /* \"#utility.yul\":7711:7735   */\n      tag_272\n        /* \"#utility.yul\":7729:7734   */\n      dup2\n        /* \"#utility.yul\":7711:7735   */\n      tag_145\n      jump\t// in\n    tag_272:\n        /* \"#utility.yul\":7706:7709   */\n      dup3\n        /* \"#utility.yul\":7699:7736   */\n      mstore\n        /* \"#utility.yul\":7624:7742   */\n      pop\n      pop\n      jump\t// out\n        /* \"#utility.yul\":7748:7970   */\n    tag_83:\n        /* \"#utility.yul\":7841:7845   */\n      0x00\n        /* \"#utility.yul\":7879:7881   */\n      0x20\n        /* \"#utility.yul\":7868:7877   */\n      dup3\n        /* \"#utility.yul\":7864:7882   */\n      add\n        /* \"#utility.yul\":7856:7882   */\n      swap1\n      pop\n        /* \"#utility.yul\":7892:7963   */\n      tag_274\n        /* \"#utility.yul\":7960:7961   */\n      0x00\n        /* \"#utility.yul\":7949:7958   */\n      dup4\n        /* \"#utility.yul\":7945:7962   */\n      add\n        /* \"#utility.yul\":7936:7942   */\n      dup5\n        /* \"#utility.yul\":7892:7963   */\n      tag_155\n      jump\t// in\n    tag_274:\n        /* \"#utility.yul\":7748:7970   */\n      swap3\n      swap2\n      pop\n      pop\n      jump\t// out\n        /* \"#utility.yul\":7976:8146   */\n    tag_156:\n        /* \"#utility.yul\":8116:8138   */\n      0x446561646c696e65206861732070617373656421000000000000000000000000\n        /* \"#utility.yul\":8112:8113   */\n      0x00\n        /* \"#utility.yul\":8104:8110   */\n      dup3\n        /* \"#utility.yul\":8100:8114   */\n      add\n        /* \"#utility.yul\":8093:8139   */\n      mstore\n        /* \"#utility.yul\":7976:8146   */\n      pop\n      jump\t// out\n        /* \"#utility.yul\":8152:8518   */\n    tag_157:\n        /* \"#utility.yul\":8294:8297   */\n      0x00\n        /* \"#utility.yul\":8315:8382   */\n      tag_277\n        /* \"#utility.yul\":8379:8381   */\n      0x14\n        /* \"#utility.yul\":8374:8377   */\n      dup4\n        /* \"#utility.yul\":8315:8382   */\n      tag_149\n      jump\t// in\n    tag_277:\n        /* \"#utility.yul\":8308:8382   */\n      swap2\n      pop\n        /* \"#utility.yul\":8391:8484   */\n      tag_278\n        /* \"#utility.yul\":8480:8483   */\n      dup3\n        /* \"#utility.yul\":8391:8484   */\n      tag_156\n      jump\t// in\n    tag_278:\n        /* \"#utility.yul\":8509:8511   */\n      0x20\n        /* \"#utility.yul\":8504:8507   */\n      dup3\n        /* \"#utility.yul\":8500:8512   */\n      add\n        /* \"#utility.yul\":8493:8512   */\n      swap1\n      pop\n        /* \"#utility.yul\":8152:8518   */\n      swap2\n      swap1\n      pop\n      jump\t// out\n        /* \"#utility.yul\":8524:8943   */\n    tag_87:\n        /* \"#utility.yul\":8690:8694   */\n      0x00\n        /* \"#utility.yul\":8728:8730   */\n      0x20\n        /* \"#utility.yul\":8717:8726   */\n      dup3\n        /* \"#utility.yul\":8713:8731   */\n      add\n        /* \"#utility.yul\":8705:8731   */\n      swap1\n      pop\n        /* \"#utility.yul\":8777:8786   */\n      dup2\n        /* \"#utility.yul\":8771:8775   */\n      dup2\n        /* \"#utility.yul\":8767:8787   */\n      sub\n        /* \"#utility.yul\":8763:8764   */\n      0x00\n        /* \"#utility.yul\":8752:8761   */\n      dup4\n        /* \"#utility.yul\":8748:8765   */\n      add\n        /* \"#utility.yul\":8741:8788   */\n      mstore\n        /* \"#utility.yul\":8805:8936   */\n      tag_280\n        /* \"#utility.yul\":8931:8935   */\n      dup2\n        /* \"#utility.yul\":8805:8936   */\n      tag_157\n      jump\t// in\n    tag_280:\n        /* \"#utility.yul\":8797:8936   */\n      swap1\n      pop\n        /* \"#utility.yul\":8524:8943   */\n      swap2\n      swap1\n      pop\n      jump\t// out\n        /* \"#utility.yul\":8949:9129   */\n    tag_158:\n        /* \"#utility.yul\":8997:9074   */\n      0x4e487b7100000000000000000000000000000000000000000000000000000000\n        /* \"#utility.yul\":8994:8995   */\n      0x00\n        /* \"#utility.yul\":8987:9075   */\n      mstore\n        /* \"#utility.yul\":9094:9098   */\n      0x11\n        /* \"#utility.yul\":9091:9092   */\n      0x04\n        /* \"#utility.yul\":9084:9099   */\n      mstore\n        /* \"#utility.yul\":9118:9122   */\n      0x24\n        /* \"#utility.yul\":9115:9116   */\n      0x00\n        /* \"#utility.yul\":9108:9123   */\n      revert\n        /* \"#utility.yul\":9135:9368   */\n    tag_91:\n        /* \"#utility.yul\":9174:9177   */\n      0x00\n        /* \"#utility.yul\":9197:9221   */\n      tag_283\n        /* \"#utility.yul\":9215:9220   */\n      dup3\n        /* \"#utility.yul\":9197:9221   */\n      tag_124\n      jump\t// in\n    tag_283:\n        /* \"#utility.yul\":9188:9221   */\n      swap2\n      pop\n        /* \"#utility.yul\":9243:9309   */\n      0xffffffffffffffffffffffffffffffffffffffffffffffffffffffffffffffff\n        /* \"#utility.yul\":9236:9241   */\n      dup3\n        /* \"#utility.yul\":9233:9310   */\n      sub\n        /* \"#utility.yul\":9230:9333   */\n      tag_284\n      jumpi\n        /* \"#utility.yul\":9313:9331   */\n      tag_285\n      tag_158\n      jump\t// in\n    tag_285:\n        /* \"#utility.yul\":9230:9333   */\n    tag_284:\n        /* \"#utility.yul\":9360:9361   */\n      0x01\n        /* \"#utility.yul\":9353:9358   */\n      dup3\n        /* \"#utility.yul\":9349:9362   */\n      add\n        /* \"#utility.yul\":9342:9362   */\n      swap1\n      pop\n        /* \"#utility.yul\":9135:9368   */\n      swap2\n      swap1\n      pop\n      jump\t// out\n        /* \"#utility.yul\":9374:9565   */\n    tag_93:\n        /* \"#utility.yul\":9414:9417   */\n      0x00\n        /* \"#utility.yul\":9433:9453   */\n      tag_287\n        /* \"#utility.yul\":9451:9452   */\n      dup3\n        /* \"#utility.yul\":9433:9453   */\n      tag_124\n      jump\t// in\n    tag_287:\n        /* \"#utility.yul\":9428:9453   */\n      swap2\n      pop\n        /* \"#utility.yul\":9467:9487   */\n      tag_288\n        /* \"#utility.yul\":9485:9486   */\n      dup4\n        /* \"#utility.yul\":9467:9487   */\n      tag_124\n      jump\t// in\n    tag_288:\n        /* \"#utility.yul\":9462:9487   */\n      swap3\n      pop\n        /* \"#utility.yul\":9510:9511   */\n      dup3\n        /* \"#utility.yul\":9507:9508   */\n      dup3\n        /* \"#utility.yul\":9503:9512   */\n      add\n        /* \"#utility.yul\":9496:9512   */\n      swap1\n      pop\n        /* \"#utility.yul\":9531:9534   */\n      dup1\n        /* \"#utility.yul\":9528:9529   */\n      dup3\n        /* \"#utility.yul\":9525:9535   */\n      gt\n        /* \"#utility.yul\":9522:9558   */\n      iszero\n      tag_289\n      jumpi\n        /* \"#utility.yul\":9538:9556   */\n      tag_290\n      tag_158\n      jump\t// in\n    tag_290:\n        /* \"#utility.yul\":9522:9558   */\n    tag_289:\n        /* \"#utility.yul\":9374:9565   */\n      swap3\n      swap2\n      pop\n      pop\n      jump\t// out\n        /* \"#utility.yul\":9571:9792   */\n    tag_159:\n        /* \"#utility.yul\":9711:9745   */\n      0x4f6e6c792061646d696e2063616e2063616c6c20746869732066756e6374696f\n        /* \"#utility.yul\":9707:9708   */\n      0x00\n        /* \"#utility.yul\":9699:9705   */\n      dup3\n        /* \"#utility.yul\":9695:9709   */\n      add\n        /* \"#utility.yul\":9688:9746   */\n      mstore\n        /* \"#utility.yul\":9780:9784   */\n      0x6e21000000000000000000000000000000000000000000000000000000000000\n        /* \"#utility.yul\":9775:9777   */\n      0x20\n        /* \"#utility.yul\":9767:9773   */\n      dup3\n        /* \"#utility.yul\":9763:9778   */\n      add\n        /* \"#utility.yul\":9756:9785   */\n      mstore\n        /* \"#utility.yul\":9571:9792   */\n      pop\n      jump\t// out\n        /* \"#utility.yul\":9798:10164   */\n    tag_160:\n        /* \"#utility.yul\":9940:9943   */\n      0x00\n        /* \"#utility.yul\":9961:10028   */\n      tag_293\n        /* \"#utility.yul\":10025:10027   */\n      0x22\n        /* \"#utility.yul\":10020:10023   */\n      dup4\n        /* \"#utility.yul\":9961:10028   */\n      tag_149\n      jump\t// in\n    tag_293:\n        /* \"#utility.yul\":9954:10028   */\n      swap2\n      pop\n        /* \"#utility.yul\":10037:10130   */\n      tag_294\n        /* \"#utility.yul\":10126:10129   */\n      dup3\n        /* \"#utility.yul\":10037:10130   */\n      tag_159\n      jump\t// in\n    tag_294:\n        /* \"#utility.yul\":10155:10157   */\n      0x40\n        /* \"#utility.yul\":10150:10153   */\n      dup3\n        /* \"#utility.yul\":10146:10158   */\n      add\n        /* \"#utility.yul\":10139:10158   */\n      swap1\n      pop\n        /* \"#utility.yul\":9798:10164   */\n      swap2\n      swap1\n      pop\n      jump\t// out\n        /* \"#utility.yul\":10170:10589   */\n    tag_99:\n        /* \"#utility.yul\":10336:10340   */\n      0x00\n        /* \"#utility.yul\":10374:10376   */\n      0x20\n        /* \"#utility.yul\":10363:10372   */\n      dup3\n        /* \"#utility.yul\":10359:10377   */\n      add\n        /* \"#utility.yul\":10351:10377   */\n      swap1\n      pop\n        /* \"#utility.yul\":10423:10432   */\n      dup2\n        /* \"#utility.yul\":10417:10421   */\n      dup2\n        /* \"#utility.yul\":10413:10433   */\n      sub\n        /* \"#utility.yul\":10409:10410   */\n      0x00\n        /* \"#utility.yul\":10398:10407   */\n      dup4\n        /* \"#utility.yul\":10394:10411   */\n      add\n        /* \"#utility.yul\":10387:10434   */\n      mstore\n        /* \"#utility.yul\":10451:10582   */\n      tag_296\n        /* \"#utility.yul\":10577:10581   */\n      dup2\n        /* \"#utility.yul\":10451:10582   */\n      tag_160\n      jump\t// in\n    tag_296:\n        /* \"#utility.yul\":10443:10582   */\n      swap1\n      pop\n        /* \"#utility.yul\":10170:10589   */\n      swap2\n      swap1\n      pop\n      jump\t// out\n        /* \"#utility.yul\":10595:10775   */\n    tag_161:\n        /* \"#utility.yul\":10643:10720   */\n      0x4e487b7100000000000000000000000000000000000000000000000000000000\n        /* \"#utility.yul\":10640:10641   */\n      0x00\n        /* \"#utility.yul\":10633:10721   */\n      mstore\n        /* \"#utility.yul\":10740:10744   */\n      0x22\n        /* \"#utility.yul\":10737:10738   */\n      0x04\n        /* \"#utility.yul\":10730:10745   */\n      mstore\n        /* \"#utility.yul\":10764:10768   */\n      0x24\n        /* \"#utility.yul\":10761:10762   */\n      0x00\n        /* \"#utility.yul\":10754:10769   */\n      revert\n        /* \"#utility.yul\":10781:11101   */\n    tag_113:\n        /* \"#utility.yul\":10825:10831   */\n      0x00\n        /* \"#utility.yul\":10862:10863   */\n      0x02\n        /* \"#utility.yul\":10856:10860   */\n      dup3\n        /* \"#utility.yul\":10852:10864   */\n      div\n        /* \"#utility.yul\":10842:10864   */\n      swap1\n      pop\n        /* \"#utility.yul\":10909:10910   */\n      0x01\n        /* \"#utility.yul\":10903:10907   */\n      dup3\n        /* \"#utility.yul\":10899:10911   */\n      and\n        /* \"#utility.yul\":10930:10948   */\n      dup1\n        /* \"#utility.yul\":10920:11001   */\n      tag_299\n      jumpi\n        /* \"#utility.yul\":10986:10990   */\n      0x7f\n        /* \"#utility.yul\":10978:10984   */\n      dup3\n        /* \"#utility.yul\":10974:10991   */\n      and\n        /* \"#utility.yul\":10964:10991   */\n      swap2\n      pop\n        /* \"#utility.yul\":10920:11001   */\n    tag_299:\n        /* \"#utility.yul\":11048:11050   */\n      0x20\n        /* \"#utility.yul\":11040:11046   */\n      dup3\n        /* \"#utility.yul\":11037:11051   */\n      lt\n        /* \"#utility.yul\":11017:11035   */\n      dup2\n        /* \"#utility.yul\":11014:11052   */\n      sub\n        /* \"#utility.yul\":11011:11095   */\n      tag_300\n      jumpi\n        /* \"#utility.yul\":11067:11085   */\n      tag_301\n      tag_161\n      jump\t// in\n    tag_301:\n        /* \"#utility.yul\":11011:11095   */\n    tag_300:\n        /* \"#utility.yul\":10832:11101   */\n      pop\n        /* \"#utility.yul\":10781:11101   */\n      swap2\n      swap1\n      pop\n      jump\t// out\n        /* \"#utility.yul\":11107:11248   */\n    tag_162:\n        /* \"#utility.yul\":11156:11160   */\n      0x00\n        /* \"#utility.yul\":11179:11182   */\n      dup2\n        /* \"#utility.yul\":11171:11182   */\n      swap1\n      pop\n        /* \"#utility.yul\":11202:11205   */\n      dup2\n        /* \"#utility.yul\":11199:11200   */\n      0x00\n        /* \"#utility.yul\":11192:11206   */\n      mstore\n        /* \"#utility.yul\":11236:11240   */\n      0x20\n        /* \"#utility.yul\":11233:11234   */\n      0x00\n        /* \"#utility.yul\":11223:11241   */\n      keccak256\n        /* \"#utility.yul\":11215:11241   */\n      swap1\n      pop\n        /* \"#utility.yul\":11107:11248   */\n      swap2\n      swap1\n      pop\n      jump\t// out\n        /* \"#utility.yul\":11254:11347   */\n    tag_163:\n        /* \"#utility.yul\":11291:11297   */\n      0x00\n        /* \"#utility.yul\":11338:11340   */\n      0x20\n        /* \"#utility.yul\":11333:11335   */\n      0x1f\n        /* \"#utility.yul\":11326:11331   */\n      dup4\n        /* \"#utility.yul\":11322:11336   */\n      add\n        /* \"#utility.yul\":11318:11341   */\n      div\n        /* \"#utility.yul\":11308:11341   */\n      swap1\n      pop\n        /* \"#utility.yul\":11254:11347   */\n      swap2\n      swap1\n      pop\n      jump\t// out\n        /* \"#utility.yul\":11353:11460   */\n    tag_164:\n        /* \"#utility.yul\":11397:11405   */\n      0x00\n        /* \"#utility.yul\":11447:11452   */\n      dup3\n        /* \"#utility.yul\":11441:11445   */\n      dup3\n        /* \"#utility.yul\":11437:11453   */\n      shl\n        /* \"#utility.yul\":11416:11453   */\n      swap1\n      pop\n        /* \"#utility.yul\":11353:11460   */\n      swap3\n      swap2\n      pop\n      pop\n      jump\t// out\n        /* \"#utility.yul\":11466:11859   */\n    tag_165:\n        /* \"#utility.yul\":11535:11541   */\n      0x00\n        /* \"#utility.yul\":11585:11586   */\n      0x08\n        /* \"#utility.yul\":11573:11583   */\n      dup4\n        /* \"#utility.yul\":11569:11587   */\n      mul\n        /* \"#utility.yul\":11608:11705   */\n      tag_306\n        /* \"#utility.yul\":11638:11704   */\n      0xffffffffffffffffffffffffffffffffffffffffffffffffffffffffffffffff\n        /* \"#utility.yul\":11627:11636   */\n      dup3\n        /* \"#utility.yul\":11608:11705   */\n      tag_164\n      jump\t// in\n    tag_306:\n        /* \"#utility.yul\":11726:11765   */\n      tag_307\n        /* \"#utility.yul\":11756:11764   */\n      dup7\n        /* \"#utility.yul\":11745:11754   */\n      dup4\n        /* \"#utility.yul\":11726:11765   */\n      tag_164\n      jump\t// in\n    tag_307:\n        /* \"#utility.yul\":11714:11765   */\n      swap6\n      pop\n        /* \"#utility.yul\":11798:11802   */\n      dup1\n        /* \"#utility.yul\":11794:11803   */\n      not\n        /* \"#utility.yul\":11787:11792   */\n      dup5\n        /* \"#utility.yul\":11783:11804   */\n      and\n        /* \"#utility.yul\":11774:11804   */\n      swap4\n      pop\n        /* \"#utility.yul\":11847:11851   */\n      dup1\n        /* \"#utility.yul\":11837:11845   */\n      dup7\n        /* \"#utility.yul\":11833:11852   */\n      and\n        /* \"#utility.yul\":11826:11831   */\n      dup5\n        /* \"#utility.yul\":11823:11853   */\n      or\n        /* \"#utility.yul\":11813:11853   */\n      swap3\n      pop\n        /* \"#utility.yul\":11542:11859   */\n      pop\n      pop\n        /* \"#utility.yul\":11466:11859   */\n      swap4\n      swap3\n      pop\n      pop\n      pop\n      jump\t// out\n        /* \"#utility.yul\":11865:11925   */\n    tag_166:\n        /* \"#utility.yul\":11893:11896   */\n      0x00\n        /* \"#utility.yul\":11914:11919   */\n      dup2\n        /* \"#utility.yul\":11907:11919   */\n      swap1\n      pop\n        /* \"#utility.yul\":11865:11925   */\n      swap2\n      swap1\n      pop\n      jump\t// out\n        /* \"#utility.yul\":11931:12073   */\n    tag_167:\n        /* \"#utility.yul\":11981:11990   */\n      0x00\n        /* \"#utility.yul\":12014:12067   */\n      tag_310\n        /* \"#utility.yul\":12032:12066   */\n      tag_311\n        /* \"#utility.yul\":12041:12065   */\n      tag_312\n        /* \"#utility.yul\":12059:12064   */\n      dup5\n        /* \"#utility.yul\":12041:12065   */\n      tag_124\n      jump\t// in\n    tag_312:\n        /* \"#utility.yul\":12032:12066   */\n      tag_166\n      jump\t// in\n    tag_311:\n        /* \"#utility.yul\":12014:12067   */\n      tag_124\n      jump\t// in\n    tag_310:\n        /* \"#utility.yul\":12001:12067   */\n      swap1\n      pop\n        /* \"#utility.yul\":11931:12073   */\n      swap2\n      swap1\n      pop\n      jump\t// out\n        /* \"#utility.yul\":12079:12154   */\n    tag_168:\n        /* \"#utility.yul\":12122:12125   */\n      0x00\n        /* \"#utility.yul\":12143:12148   */\n      dup2\n        /* \"#utility.yul\":12136:12148   */\n      swap1\n      pop\n        /* \"#utility.yul\":12079:12154   */\n      swap2\n      swap1\n      pop\n      jump\t// out\n        /* \"#utility.yul\":12160:12429   */\n    tag_169:\n        /* \"#utility.yul\":12270:12309   */\n      tag_315\n        /* \"#utility.yul\":12301:12308   */\n      dup4\n        /* \"#utility.yul\":12270:12309   */\n      tag_167\n      jump\t// in\n    tag_315:\n        /* \"#utility.yul\":12331:12422   */\n      tag_316\n        /* \"#utility.yul\":12380:12421   */\n      tag_317\n        /* \"#utility.yul\":12404:12420   */\n      dup3\n        /* \"#utility.yul\":12380:12421   */\n      tag_168\n      jump\t// in\n    tag_317:\n        /* \"#utility.yul\":12372:12378   */\n      dup5\n        /* \"#utility.yul\":12365:12369   */\n      dup5\n        /* \"#utility.yul\":12359:12370   */\n      sload\n        /* \"#utility.yul\":12331:12422   */\n      tag_165\n      jump\t// in\n    tag_316:\n        /* \"#utility.yul\":12325:12329   */\n      dup3\n        /* \"#utility.yul\":12318:12423   */\n      sstore\n        /* \"#utility.yul\":12236:12429   */\n      pop\n        /* \"#utility.yul\":12160:12429   */\n      pop\n      pop\n      pop\n      jump\t// out\n        /* \"#utility.yul\":12435:12508   */\n    tag_170:\n        /* \"#utility.yul\":12480:12483   */\n      0x00\n        /* \"#utility.yul\":12501:12502   */\n      0x00\n        /* \"#utility.yul\":12494:12502   */\n      swap1\n      pop\n        /* \"#utility.yul\":12435:12508   */\n      swap1\n      jump\t// out\n        /* \"#utility.yul\":12514:12703   */\n    tag_171:\n        /* \"#utility.yul\":12591:12623   */\n      tag_320\n      tag_170\n      jump\t// in\n    tag_320:\n        /* \"#utility.yul\":12632:12697   */\n      tag_321\n        /* \"#utility.yul\":12690:12696   */\n      dup2\n        /* \"#utility.yul\":12682:12688   */\n      dup5\n        /* \"#utility.yul\":12676:12680   */\n      dup5\n        /* \"#utility.yul\":12632:12697   */\n      tag_169\n      jump\t// in\n    tag_321:\n        /* \"#utility.yul\":12567:12703   */\n      pop\n        /* \"#utility.yul\":12514:12703   */\n      pop\n      pop\n      jump\t// out\n        /* \"#utility.yul\":12709:12895   */\n    tag_172:\n        /* \"#utility.yul\":12769:12889   */\n    tag_323:\n        /* \"#utility.yul\":12786:12789   */\n      dup2\n        /* \"#utility.yul\":12779:12784   */\n      dup2\n        /* \"#utility.yul\":12776:12790   */\n      lt\n        /* \"#utility.yul\":12769:12889   */\n      iszero\n      tag_325\n      jumpi\n        /* \"#utility.yul\":12840:12879   */\n      tag_326\n        /* \"#utility.yul\":12877:12878   */\n      0x00\n        /* \"#utility.yul\":12870:12875   */\n      dup3\n        /* \"#utility.yul\":12840:12879   */\n      tag_171\n      jump\t// in\n    tag_326:\n        /* \"#utility.yul\":12813:12814   */\n      0x01\n        /* \"#utility.yul\":12806:12811   */\n      dup2\n        /* \"#utility.yul\":12802:12815   */\n      add\n        /* \"#utility.yul\":12793:12815   */\n      swap1\n      pop\n        /* \"#utility.yul\":12769:12889   */\n      jump(tag_323)\n    tag_325:\n        /* \"#utility.yul\":12709:12895   */\n      pop\n      pop\n      jump\t// out\n        /* \"#utility.yul\":12901:13444   */\n    tag_173:\n        /* \"#utility.yul\":13002:13004   */\n      0x1f\n        /* \"#utility.yul\":12997:13000   */\n      dup3\n        /* \"#utility.yul\":12994:13005   */\n      gt\n        /* \"#utility.yul\":12991:13437   */\n      iszero\n      tag_328\n      jumpi\n        /* \"#utility.yul\":13036:13074   */\n      tag_329\n        /* \"#utility.yul\":13068:13073   */\n      dup2\n        /* \"#utility.yul\":13036:13074   */\n      tag_162\n      jump\t// in\n    tag_329:\n        /* \"#utility.yul\":13120:13149   */\n      tag_330\n        /* \"#utility.yul\":13138:13148   */\n      dup5\n        /* \"#utility.yul\":13120:13149   */\n      tag_163\n      jump\t// in\n    tag_330:\n        /* \"#utility.yul\":13110:13118   */\n      dup2\n        /* \"#utility.yul\":13106:13150   */\n      add\n        /* \"#utility.yul\":13303:13305   */\n      0x20\n        /* \"#utility.yul\":13291:13301   */\n      dup6\n        /* \"#utility.yul\":13288:13306   */\n      lt\n        /* \"#utility.yul\":13285:13334   */\n      iszero\n      tag_331\n      jumpi\n        /* \"#utility.yul\":13324:13332   */\n      dup2\n        /* \"#utility.yul\":13309:13332   */\n      swap1\n      pop\n        /* \"#utility.yul\":13285:13334   */\n    tag_331:\n        /* \"#utility.yul\":13347:13427   */\n      tag_332\n        /* \"#utility.yul\":13403:13425   */\n      tag_333\n        /* \"#utility.yul\":13421:13424   */\n      dup6\n        /* \"#utility.yul\":13403:13425   */\n      tag_163\n      jump\t// in\n    tag_333:\n        /* \"#utility.yul\":13393:13401   */\n      dup4\n        /* \"#utility.yul\":13389:13426   */\n      add\n        /* \"#utility.yul\":13376:13387   */\n      dup3\n        /* \"#utility.yul\":13347:13427   */\n      tag_172\n      jump\t// in\n    tag_332:\n        /* \"#utility.yul\":13006:13437   */\n      pop\n      pop\n        /* \"#utility.yul\":12991:13437   */\n    tag_328:\n        /* \"#utility.yul\":12901:13444   */\n      pop\n      pop\n      pop\n      jump\t// out\n        /* \"#utility.yul\":13450:13567   */\n    tag_174:\n        /* \"#utility.yul\":13504:13512   */\n      0x00\n        /* \"#utility.yul\":13554:13559   */\n      dup3\n        /* \"#utility.yul\":13548:13552   */\n      dup3\n        /* \"#utility.yul\":13544:13560   */\n      shr\n        /* \"#utility.yul\":13523:13560   */\n      swap1\n      pop\n        /* \"#utility.yul\":13450:13567   */\n      swap3\n      swap2\n      pop\n      pop\n      jump\t// out\n        /* \"#utility.yul\":13573:13742   */\n    tag_175:\n        /* \"#utility.yul\":13617:13623   */\n      0x00\n        /* \"#utility.yul\":13650:13701   */\n      tag_336\n        /* \"#utility.yul\":13698:13699   */\n      0x00\n        /* \"#utility.yul\":13694:13700   */\n      not\n        /* \"#utility.yul\":13686:13691   */\n      dup5\n        /* \"#utility.yul\":13683:13684   */\n      0x08\n        /* \"#utility.yul\":13679:13692   */\n      mul\n        /* \"#utility.yul\":13650:13701   */\n      tag_174\n      jump\t// in\n    tag_336:\n        /* \"#utility.yul\":13646:13702   */\n      not\n        /* \"#utility.yul\":13731:13735   */\n      dup1\n        /* \"#utility.yul\":13725:13729   */\n      dup4\n        /* \"#utility.yul\":13721:13736   */\n      and\n        /* \"#utility.yul\":13711:13736   */\n      swap2\n      pop\n        /* \"#utility.yul\":13624:13742   */\n      pop\n        /* \"#utility.yul\":13573:13742   */\n      swap3\n      swap2\n      pop\n      pop\n      jump\t// out\n        /* \"#utility.yul\":13747:14042   */\n    tag_176:\n        /* \"#utility.yul\":13823:13827   */\n      0x00\n        /* \"#utility.yul\":13969:13998   */\n      tag_338\n        /* \"#utility.yul\":13994:13997   */\n      dup4\n        /* \"#utility.yul\":13988:13992   */\n      dup4\n        /* \"#utility.yul\":13969:13998   */\n      tag_175\n      jump\t// in\n    tag_338:\n        /* \"#utility.yul\":13961:13998   */\n      swap2\n      pop\n        /* \"#utility.yul\":14031:14034   */\n      dup3\n        /* \"#utility.yul\":14028:14029   */\n      0x02\n        /* \"#utility.yul\":14024:14035   */\n      mul\n        /* \"#utility.yul\":14018:14022   */\n      dup3\n        /* \"#utility.yul\":14015:14036   */\n      or\n        /* \"#utility.yul\":14007:14036   */\n      swap1\n      pop\n        /* \"#utility.yul\":13747:14042   */\n      swap3\n      swap2\n      pop\n      pop\n      jump\t// out\n        /* \"#utility.yul\":14047:15442   */\n    tag_103:\n        /* \"#utility.yul\":14164:14201   */\n      tag_340\n        /* \"#utility.yul\":14197:14200   */\n      dup3\n        /* \"#utility.yul\":14164:14201   */\n      tag_148\n      jump\t// in\n    tag_340:\n        /* \"#utility.yul\":14266:14284   */\n      0xffffffffffffffff\n        /* \"#utility.yul\":14258:14264   */\n      dup2\n        /* \"#utility.yul\":14255:14285   */\n      gt\n        /* \"#utility.yul\":14252:14308   */\n      iszero\n      tag_341\n      jumpi\n        /* \"#utility.yul\":14288:14306   */\n      tag_342\n      tag_132\n      jump\t// in\n    tag_342:\n        /* \"#utility.yul\":14252:14308   */\n    tag_341:\n        /* \"#utility.yul\":14332:14370   */\n      tag_343\n        /* \"#utility.yul\":14364:14368   */\n      dup3\n        /* \"#utility.yul\":14358:14369   */\n      sload\n        /* \"#utility.yul\":14332:14370   */\n      tag_113\n      jump\t// in\n    tag_343:\n        /* \"#utility.yul\":14417:14484   */\n      tag_344\n        /* \"#utility.yul\":14477:14483   */\n      dup3\n        /* \"#utility.yul\":14469:14475   */\n      dup3\n        /* \"#utility.yul\":14463:14467   */\n      dup6\n        /* \"#utility.yul\":14417:14484   */\n      tag_173\n      jump\t// in\n    tag_344:\n        /* \"#utility.yul\":14511:14512   */\n      0x00\n        /* \"#utility.yul\":14535:14539   */\n      0x20\n        /* \"#utility.yul\":14522:14539   */\n      swap1\n      pop\n        /* \"#utility.yul\":14567:14569   */\n      0x1f\n        /* \"#utility.yul\":14559:14565   */\n      dup4\n        /* \"#utility.yul\":14556:14570   */\n      gt\n        /* \"#utility.yul\":14584:14585   */\n      0x01\n        /* \"#utility.yul\":14579:15197   */\n      dup2\n      eq\n      tag_346\n      jumpi\n        /* \"#utility.yul\":15241:15242   */\n      0x00\n        /* \"#utility.yul\":15258:15264   */\n      dup5\n        /* \"#utility.yul\":15255:15332   */\n      iszero\n      tag_347\n      jumpi\n        /* \"#utility.yul\":15307:15316   */\n      dup3\n        /* \"#utility.yul\":15302:15305   */\n      dup8\n        /* \"#utility.yul\":15298:15317   */\n      add\n        /* \"#utility.yul\":15292:15318   */\n      mload\n        /* \"#utility.yul\":15283:15318   */\n      swap1\n      pop\n        /* \"#utility.yul\":15255:15332   */\n    tag_347:\n        /* \"#utility.yul\":15358:15425   */\n      tag_348\n        /* \"#utility.yul\":15418:15424   */\n      dup6\n        /* \"#utility.yul\":15411:15416   */\n      dup3\n        /* \"#utility.yul\":15358:15425   */\n      tag_176\n      jump\t// in\n    tag_348:\n        /* \"#utility.yul\":15352:15356   */\n      dup7\n        /* \"#utility.yul\":15345:15426   */\n      sstore\n        /* \"#utility.yul\":15214:15436   */\n      pop\n        /* \"#utility.yul\":14549:15436   */\n      jump(tag_345)\n        /* \"#utility.yul\":14579:15197   */\n    tag_346:\n        /* \"#utility.yul\":14631:14635   */\n      0x1f\n        /* \"#utility.yul\":14627:14636   */\n      not\n        /* \"#utility.yul\":14619:14625   */\n      dup5\n        /* \"#utility.yul\":14615:14637   */\n      and\n        /* \"#utility.yul\":14665:14702   */\n      tag_349\n        /* \"#utility.yul\":14697:14701   */\n      dup7\n        /* \"#utility.yul\":14665:14702   */\n      tag_162\n      jump\t// in\n    tag_349:\n        /* \"#utility.yul\":14724:14725   */\n      0x00\n        /* \"#utility.yul\":14738:14946   */\n    tag_350:\n        /* \"#utility.yul\":14752:14759   */\n      dup3\n        /* \"#utility.yul\":14749:14750   */\n      dup2\n        /* \"#utility.yul\":14746:14760   */\n      lt\n        /* \"#utility.yul\":14738:14946   */\n      iszero\n      tag_352\n      jumpi\n        /* \"#utility.yul\":14831:14840   */\n      dup5\n        /* \"#utility.yul\":14826:14829   */\n      dup10\n        /* \"#utility.yul\":14822:14841   */\n      add\n        /* \"#utility.yul\":14816:14842   */\n      mload\n        /* \"#utility.yul\":14808:14814   */\n      dup3\n        /* \"#utility.yul\":14801:14843   */\n      sstore\n        /* \"#utility.yul\":14882:14883   */\n      0x01\n        /* \"#utility.yul\":14874:14880   */\n      dup3\n        /* \"#utility.yul\":14870:14884   */\n      add\n        /* \"#utility.yul\":14860:14884   */\n      swap2\n      pop\n        /* \"#utility.yul\":14929:14931   */\n      0x20\n        /* \"#utility.yul\":14918:14927   */\n      dup6\n        /* \"#utility.yul\":14914:14932   */\n      add\n        /* \"#utility.yul\":14901:14932   */\n      swap5\n      pop\n        /* \"#utility.yul\":14775:14779   */\n      0x20\n        /* \"#utility.yul\":14772:14773   */\n      dup2\n        /* \"#utility.yul\":14768:14780   */\n      add\n        /* \"#utility.yul\":14763:14780   */\n      swap1\n      pop\n        /* \"#utility.yul\":14738:14946   */\n      jump(tag_350)\n    tag_352:\n        /* \"#utility.yul\":14974:14980   */\n      dup7\n        /* \"#utility.yul\":14965:14972   */\n      dup4\n        /* \"#utility.yul\":14962:14981   */\n      lt\n        /* \"#utility.yul\":14959:15138   */\n      iszero\n      tag_353\n      jumpi\n        /* \"#utility.yul\":15032:15041   */\n      dup5\n        /* \"#utility.yul\":15027:15030   */\n      dup10\n        /* \"#utility.yul\":15023:15042   */\n      add\n        /* \"#utility.yul\":15017:15043   */\n      mload\n        /* \"#utility.yul\":15075:15123   */\n      tag_354\n        /* \"#utility.yul\":15117:15121   */\n      0x1f\n        /* \"#utility.yul\":15109:15115   */\n      dup10\n        /* \"#utility.yul\":15105:15122   */\n      and\n        /* \"#utility.yul\":15094:15103   */\n      dup3\n        /* \"#utility.yul\":15075:15123   */\n      tag_175\n      jump\t// in\n    tag_354:\n        /* \"#utility.yul\":15067:15073   */\n      dup4\n        /* \"#utility.yul\":15060:15124   */\n      sstore\n        /* \"#utility.yul\":14982:15138   */\n      pop\n        /* \"#utility.yul\":14959:15138   */\n    tag_353:\n        /* \"#utility.yul\":15184:15185   */\n      0x01\n        /* \"#utility.yul\":15180:15181   */\n      0x02\n        /* \"#utility.yul\":15172:15178   */\n      dup9\n        /* \"#utility.yul\":15168:15182   */\n      mul\n        /* \"#utility.yul\":15164:15186   */\n      add\n        /* \"#utility.yul\":15158:15162   */\n      dup9\n        /* \"#utility.yul\":15151:15187   */\n      sstore\n        /* \"#utility.yul\":14586:15197   */\n      pop\n      pop\n      pop\n        /* \"#utility.yul\":14549:15436   */\n    tag_345:\n      pop\n        /* \"#utility.yul\":14139:15442   */\n      pop\n      pop\n      pop\n        /* \"#utility.yul\":14047:15442   */\n      pop\n      pop\n      jump\t// out\n        /* \"#utility.yul\":15448:15672   */\n    tag_177:\n        /* \"#utility.yul\":15588:15622   */\n      0x596f75206d75737420746f206265206120636f6e7472696275746f7220746f20\n        /* \"#utility.yul\":15584:15585   */\n      0x00\n        /* \"#utility.yul\":15576:15582   */\n      dup3\n        /* \"#utility.yul\":15572:15586   */\n      add\n        /* \"#utility.yul\":15565:15623   */\n      mstore\n        /* \"#utility.yul\":15657:15664   */\n      0x766f746521000000000000000000000000000000000000000000000000000000\n        /* \"#utility.yul\":15652:15654   */\n      0x20\n        /* \"#utility.yul\":15644:15650   */\n      dup3\n        /* \"#utility.yul\":15640:15655   */\n      add\n        /* \"#utility.yul\":15633:15665   */\n      mstore\n        /* \"#utility.yul\":15448:15672   */\n      pop\n      jump\t// out\n        /* \"#utility.yul\":15678:16044   */\n    tag_178:\n        /* \"#utility.yul\":15820:15823   */\n      0x00\n        /* \"#utility.yul\":15841:15908   */\n      tag_357\n        /* \"#utility.yul\":15905:15907   */\n      0x25\n        /* \"#utility.yul\":15900:15903   */\n      dup4\n        /* \"#utility.yul\":15841:15908   */\n      tag_149\n      jump\t// in\n    tag_357:\n        /* \"#utility.yul\":15834:15908   */\n      swap2\n      pop\n        /* \"#utility.yul\":15917:16010   */\n      tag_358\n        /* \"#utility.yul\":16006:16009   */\n      dup3\n        /* \"#utility.yul\":15917:16010   */\n      tag_177\n      jump\t// in\n    tag_358:\n        /* \"#utility.yul\":16035:16037   */\n      0x40\n        /* \"#utility.yul\":16030:16033   */\n      dup3\n        /* \"#utility.yul\":16026:16038   */\n      add\n        /* \"#utility.yul\":16019:16038   */\n      swap1\n      pop\n        /* \"#utility.yul\":15678:16044   */\n      swap2\n      swap1\n      pop\n      jump\t// out\n        /* \"#utility.yul\":16050:16469   */\n    tag_107:\n        /* \"#utility.yul\":16216:16220   */\n      0x00\n        /* \"#utility.yul\":16254:16256   */\n      0x20\n        /* \"#utility.yul\":16243:16252   */\n      dup3\n        /* \"#utility.yul\":16239:16257   */\n      add\n        /* \"#utility.yul\":16231:16257   */\n      swap1\n      pop\n        /* \"#utility.yul\":16303:16312   */\n      dup2\n        /* \"#utility.yul\":16297:16301   */\n      dup2\n        /* \"#utility.yul\":16293:16313   */\n      sub\n        /* \"#utility.yul\":16289:16290   */\n      0x00\n        /* \"#utility.yul\":16278:16287   */\n      dup4\n        /* \"#utility.yul\":16274:16291   */\n      add\n        /* \"#utility.yul\":16267:16314   */\n      mstore\n        /* \"#utility.yul\":16331:16462   */\n      tag_360\n        /* \"#utility.yul\":16457:16461   */\n      dup2\n        /* \"#utility.yul\":16331:16462   */\n      tag_178\n      jump\t// in\n    tag_360:\n        /* \"#utility.yul\":16323:16462   */\n      swap1\n      pop\n        /* \"#utility.yul\":16050:16469   */\n      swap2\n      swap1\n      pop\n      jump\t// out\n        /* \"#utility.yul\":16475:16648   */\n    tag_179:\n        /* \"#utility.yul\":16615:16640   */\n      0x596f75206861766520616c726561647920766f74656421000000000000000000\n        /* \"#utility.yul\":16611:16612   */\n      0x00\n        /* \"#utility.yul\":16603:16609   */\n      dup3\n        /* \"#utility.yul\":16599:16613   */\n      add\n        /* \"#utility.yul\":16592:16641   */\n      mstore\n        /* \"#utility.yul\":16475:16648   */\n      pop\n      jump\t// out\n        /* \"#utility.yul\":16654:17020   */\n    tag_180:\n        /* \"#utility.yul\":16796:16799   */\n      0x00\n        /* \"#utility.yul\":16817:16884   */\n      tag_363\n        /* \"#utility.yul\":16881:16883   */\n      0x17\n        /* \"#utility.yul\":16876:16879   */\n      dup4\n        /* \"#utility.yul\":16817:16884   */\n      tag_149\n      jump\t// in\n    tag_363:\n        /* \"#utility.yul\":16810:16884   */\n      swap2\n      pop\n        /* \"#utility.yul\":16893:16986   */\n      tag_364\n        /* \"#utility.yul\":16982:16985   */\n      dup3\n        /* \"#utility.yul\":16893:16986   */\n      tag_179\n      jump\t// in\n    tag_364:\n        /* \"#utility.yul\":17011:17013   */\n      0x20\n        /* \"#utility.yul\":17006:17009   */\n      dup3\n        /* \"#utility.yul\":17002:17014   */\n      add\n        /* \"#utility.yul\":16995:17014   */\n      swap1\n      pop\n        /* \"#utility.yul\":16654:17020   */\n      swap2\n      swap1\n      pop\n      jump\t// out\n        /* \"#utility.yul\":17026:17445   */\n    tag_110:\n        /* \"#utility.yul\":17192:17196   */\n      0x00\n        /* \"#utility.yul\":17230:17232   */\n      0x20\n        /* \"#utility.yul\":17219:17228   */\n      dup3\n        /* \"#utility.yul\":17215:17233   */\n      add\n        /* \"#utility.yul\":17207:17233   */\n      swap1\n      pop\n        /* \"#utility.yul\":17279:17288   */\n      dup2\n        /* \"#utility.yul\":17273:17277   */\n      dup2\n        /* \"#utility.yul\":17269:17289   */\n      sub\n        /* \"#utility.yul\":17265:17266   */\n      0x00\n        /* \"#utility.yul\":17254:17263   */\n      dup4\n        /* \"#utility.yul\":17250:17267   */\n      add\n        /* \"#utility.yul\":17243:17290   */\n      mstore\n        /* \"#utility.yul\":17307:17438   */\n      tag_366\n        /* \"#utility.yul\":17433:17437   */\n      dup2\n        /* \"#utility.yul\":17307:17438   */\n      tag_180\n      jump\t// in\n    tag_366:\n        /* \"#utility.yul\":17299:17438   */\n      swap1\n      pop\n        /* \"#utility.yul\":17026:17445   */\n      swap2\n      swap1\n      pop\n      jump\t// out\n\n    auxdata: 0xa2646970667358221220be6da7f0a30d2b6792fcfa865f958ffe80756f0512360499b22bc83b3c86c54864736f6c634300081c0033\n}\n",
				"bytecode": {
					"linkReferences": {},
					"object": "608060405234801561000f575f5ffd5b506040516114b03803806114b0833981810160405281019061003191906100d0565b816005819055508042610044919061013b565b60048190555060646003819055503360015f6101000a81548173ffffffffffffffffffffffffffffffffffffffff021916908373ffffffffffffffffffffffffffffffffffffffff160217905550505061016e565b5f5ffd5b5f819050919050565b6100af8161009d565b81146100b9575f5ffd5b50565b5f815190506100ca816100a6565b92915050565b5f5f604083850312156100e6576100e5610099565b5b5f6100f3858286016100bc565b9250506020610104858286016100bc565b9150509250929050565b7f4e487b71000000000000000000000000000000000000000000000000000000005f52601160045260245ffd5b5f6101458261009d565b91506101508361009d565b92508282019050808211156101685761016761010e565b5b92915050565b6113358061017b5f395ff3fe6080604052600436106100e0575f3560e01c80635c4627e91161007e578063b2d5ae4411610058578063b2d5ae44146102bb578063c59ee1dc146102d1578063d7bb99ba146102fb578063f851a44014610305576100ef565b80635c4627e91461022757806381d12c58146102515780639fb42b1f14610291576100ef565b806329dcb0cf116100ba57806329dcb0cf1461018157806340193883146101ab5780634cb6f4a5146101d55780634e260f6f146101fd576100ef565b806312065fe0146100f35780631b16bb5c1461011d5780631f6d494214610145576100ef565b366100ef576100ed61032f565b005b5f5ffd5b3480156100fe575f5ffd5b50610107610448565b60405161011491906109b0565b60405180910390f35b348015610128575f5ffd5b50610143600480360381019061013e9190610b9a565b61044f565b005b348015610150575f5ffd5b5061016b60048036038101906101669190610c41565b610591565b60405161017891906109b0565b60405180910390f35b34801561018c575f5ffd5b506101956105a5565b6040516101a291906109b0565b60405180910390f35b3480156101b6575f5ffd5b506101bf6105ab565b6040516101cc91906109b0565b60405180910390f35b3480156101e0575f5ffd5b506101fb60048036038101906101f69190610c6c565b6105b1565b005b348015610208575f5ffd5b50610211610748565b60405161021e91906109b0565b60405180910390f35b348015610232575f5ffd5b5061023b61074e565b60405161024891906109b0565b60405180910390f35b34801561025c575f5ffd5b5061027760048036038101906102729190610c6c565b610754565b604051610288959493929190610d20565b60405180910390f35b34801561029c575f5ffd5b506102a5610837565b6040516102b291906109b0565b60405180910390f35b3480156102c6575f5ffd5b506102cf61083d565b005b3480156102dc575f5ffd5b506102e561096d565b6040516102f291906109b0565b60405180910390f35b61030361032f565b005b348015610310575f5ffd5b50610319610973565b6040516103269190610d87565b60405180910390f35b6004544210610373576040517f08c379a000000000000000000000000000000000000000000000000000000000815260040161036a90610dea565b60405180910390fd5b600354341015610381575f5ffd5b5f5f5f3373ffffffffffffffffffffffffffffffffffffffff1673ffffffffffffffffffffffffffffffffffffffff1681526020019081526020015f2054036103dc5760025f8154809291906103d690610e35565b91905055505b345f5f3373ffffffffffffffffffffffffffffffffffffffff1673ffffffffffffffffffffffffffffffffffffffff1681526020019081526020015f205f8282546104279190610e7c565b925050819055503460065f82825461043f9190610e7c565b92505081905550565b5f47905090565b60015f9054906101000a900473ffffffffffffffffffffffffffffffffffffffff1673ffffffffffffffffffffffffffffffffffffffff163373ffffffffffffffffffffffffffffffffffffffff16146104de576040517f08c379a00000000000000000000000000000000000000000000000000000000081526004016104d590610f1f565b60405180910390fd5b5f60075f60085481526020019081526020015f20905060085f81548092919061050690610e35565b919050555083815f01908161051b919061113a565b5082816001015f6101000a81548173ffffffffffffffffffffffffffffffffffffffff021916908373ffffffffffffffffffffffffffffffffffffffff1602179055508181600201819055505f816003015f6101000a81548160ff0219169083151502179055505f816004018190555050505050565b5f602052805f5260405f205f915090505481565b60045481565b60055481565b5f5f5f3373ffffffffffffffffffffffffffffffffffffffff1673ffffffffffffffffffffffffffffffffffffffff1681526020019081526020015f20541161062f576040517f08c379a000000000000000000000000000000000000000000000000000000000815260040161062690611279565b60405180910390fd5b5f60075f8381526020019081526020015f2090505f1515816005015f3373ffffffffffffffffffffffffffffffffffffffff1673ffffffffffffffffffffffffffffffffffffffff1681526020019081526020015f205f9054906101000a900460ff161515146106d4576040517f08c379a00000000000000000000000000000000000000000000000000000000081526004016106cb906112e1565b60405180910390fd5b6001816005015f3373ffffffffffffffffffffffffffffffffffffffff1673ffffffffffffffffffffffffffffffffffffffff1681526020019081526020015f205f6101000a81548160ff021916908315150217905550806004015f81548092919061073f90610e35565b91905055505050565b60025481565b60035481565b6007602052805f5260405f205f91509050805f01805461077390610f6a565b80601f016020809104026020016040519081016040528092919081815260200182805461079f90610f6a565b80156107ea5780601f106107c1576101008083540402835291602001916107ea565b820191905f5260205f20905b8154815290600101906020018083116107cd57829003601f168201915b505050505090806001015f9054906101000a900473ffffffffffffffffffffffffffffffffffffffff1690806002015490806003015f9054906101000a900460ff16908060040154905085565b60085481565b600454421180156108515750600554600654105b610859575f5ffd5b5f5f5f3373ffffffffffffffffffffffffffffffffffffffff1673ffffffffffffffffffffffffffffffffffffffff1681526020019081526020015f2054116108a0575f5ffd5b5f3390505f5f5f3373ffffffffffffffffffffffffffffffffffffffff1673ffffffffffffffffffffffffffffffffffffffff1681526020019081526020015f205490508173ffffffffffffffffffffffffffffffffffffffff166108fc8290811502906040515f60405180830381858888f19350505050158015610927573d5f5f3e3d5ffd5b505f5f5f3373ffffffffffffffffffffffffffffffffffffffff1673ffffffffffffffffffffffffffffffffffffffff1681526020019081526020015f20819055505050565b60065481565b60015f9054906101000a900473ffffffffffffffffffffffffffffffffffffffff1681565b5f819050919050565b6109aa81610998565b82525050565b5f6020820190506109c35f8301846109a1565b92915050565b5f604051905090565b5f5ffd5b5f5ffd5b5f5ffd5b5f5ffd5b5f601f19601f8301169050919050565b7f4e487b71000000000000000000000000000000000000000000000000000000005f52604160045260245ffd5b610a28826109e2565b810181811067ffffffffffffffff82111715610a4757610a466109f2565b5b80604052505050565b5f610a596109c9565b9050610a658282610a1f565b919050565b5f67ffffffffffffffff821115610a8457610a836109f2565b5b610a8d826109e2565b9050602081019050919050565b828183375f83830152505050565b5f610aba610ab584610a6a565b610a50565b905082815260208101848484011115610ad657610ad56109de565b5b610ae1848285610a9a565b509392505050565b5f82601f830112610afd57610afc6109da565b5b8135610b0d848260208601610aa8565b91505092915050565b5f73ffffffffffffffffffffffffffffffffffffffff82169050919050565b5f610b3f82610b16565b9050919050565b610b4f81610b35565b8114610b59575f5ffd5b50565b5f81359050610b6a81610b46565b92915050565b610b7981610998565b8114610b83575f5ffd5b50565b5f81359050610b9481610b70565b92915050565b5f5f5f60608486031215610bb157610bb06109d2565b5b5f84013567ffffffffffffffff811115610bce57610bcd6109d6565b5b610bda86828701610ae9565b9350506020610beb86828701610b5c565b9250506040610bfc86828701610b86565b9150509250925092565b5f610c1082610b16565b9050919050565b610c2081610c06565b8114610c2a575f5ffd5b50565b5f81359050610c3b81610c17565b92915050565b5f60208284031215610c5657610c556109d2565b5b5f610c6384828501610c2d565b91505092915050565b5f60208284031215610c8157610c806109d2565b5b5f610c8e84828501610b86565b91505092915050565b5f81519050919050565b5f82825260208201905092915050565b8281835e5f83830152505050565b5f610cc982610c97565b610cd38185610ca1565b9350610ce3818560208601610cb1565b610cec816109e2565b840191505092915050565b610d0081610b35565b82525050565b5f8115159050919050565b610d1a81610d06565b82525050565b5f60a0820190508181035f830152610d388188610cbf565b9050610d476020830187610cf7565b610d5460408301866109a1565b610d616060830185610d11565b610d6e60808301846109a1565b9695505050505050565b610d8181610c06565b82525050565b5f602082019050610d9a5f830184610d78565b92915050565b7f446561646c696e652068617320706173736564210000000000000000000000005f82015250565b5f610dd4601483610ca1565b9150610ddf82610da0565b602082019050919050565b5f6020820190508181035f830152610e0181610dc8565b9050919050565b7f4e487b71000000000000000000000000000000000000000000000000000000005f52601160045260245ffd5b5f610e3f82610998565b91507fffffffffffffffffffffffffffffffffffffffffffffffffffffffffffffffff8203610e7157610e70610e08565b5b600182019050919050565b5f610e8682610998565b9150610e9183610998565b9250828201905080821115610ea957610ea8610e08565b5b92915050565b7f4f6e6c792061646d696e2063616e2063616c6c20746869732066756e6374696f5f8201527f6e21000000000000000000000000000000000000000000000000000000000000602082015250565b5f610f09602283610ca1565b9150610f1482610eaf565b604082019050919050565b5f6020820190508181035f830152610f3681610efd565b9050919050565b7f4e487b71000000000000000000000000000000000000000000000000000000005f52602260045260245ffd5b5f6002820490506001821680610f8157607f821691505b602082108103610f9457610f93610f3d565b5b50919050565b5f819050815f5260205f209050919050565b5f6020601f8301049050919050565b5f82821b905092915050565b5f60088302610ff67fffffffffffffffffffffffffffffffffffffffffffffffffffffffffffffffff82610fbb565b6110008683610fbb565b95508019841693508086168417925050509392505050565b5f819050919050565b5f61103b61103661103184610998565b611018565b610998565b9050919050565b5f819050919050565b61105483611021565b61106861106082611042565b848454610fc7565b825550505050565b5f5f905090565b61107f611070565b61108a81848461104b565b505050565b5b818110156110ad576110a25f82611077565b600181019050611090565b5050565b601f8211156110f2576110c381610f9a565b6110cc84610fac565b810160208510156110db578190505b6110ef6110e785610fac565b83018261108f565b50505b505050565b5f82821c905092915050565b5f6111125f19846008026110f7565b1980831691505092915050565b5f61112a8383611103565b9150826002028217905092915050565b61114382610c97565b67ffffffffffffffff81111561115c5761115b6109f2565b5b6111668254610f6a565b6111718282856110b1565b5f60209050601f8311600181146111a2575f8415611190578287015190505b61119a858261111f565b865550611201565b601f1984166111b086610f9a565b5f5b828110156111d7578489015182556001820191506020850194506020810190506111b2565b868310156111f457848901516111f0601f891682611103565b8355505b6001600288020188555050505b505050505050565b7f596f75206d75737420746f206265206120636f6e7472696275746f7220746f205f8201527f766f746521000000000000000000000000000000000000000000000000000000602082015250565b5f611263602583610ca1565b915061126e82611209565b604082019050919050565b5f6020820190508181035f83015261129081611257565b9050919050565b7f596f75206861766520616c726561647920766f746564210000000000000000005f82015250565b5f6112cb601783610ca1565b91506112d682611297565b602082019050919050565b5f6020820190508181035f8301526112f8816112bf565b905091905056fea2646970667358221220be6da7f0a30d2b6792fcfa865f958ffe80756f0512360499b22bc83b3c86c54864736f6c634300081c0033",
					"opcodes": "PUSH1 0x80 PUSH1 0x40 MSTORE CALLVALUE DUP1 ISZERO PUSH2 0xF JUMPI PUSH0 PUSH0 REVERT JUMPDEST POP PUSH1 0x40 MLOAD PUSH2 0x14B0 CODESIZE SUB DUP1 PUSH2 0x14B0 DUP4 CODECOPY DUP2 DUP2 ADD PUSH1 0x40 MSTORE DUP2 ADD SWAP1 PUSH2 0x31 SWAP2 SWAP1 PUSH2 0xD0 JUMP JUMPDEST DUP2 PUSH1 0x5 DUP2 SWAP1 SSTORE POP DUP1 TIMESTAMP PUSH2 0x44 SWAP2 SWAP1 PUSH2 0x13B JUMP JUMPDEST PUSH1 0x4 DUP2 SWAP1 SSTORE POP PUSH1 0x64 PUSH1 0x3 DUP2 SWAP1 SSTORE POP CALLER PUSH1 0x1 PUSH0 PUSH2 0x100 EXP DUP2 SLOAD DUP2 PUSH20 0xFFFFFFFFFFFFFFFFFFFFFFFFFFFFFFFFFFFFFFFF MUL NOT AND SWAP1 DUP4 PUSH20 0xFFFFFFFFFFFFFFFFFFFFFFFFFFFFFFFFFFFFFFFF AND MUL OR SWAP1 SSTORE POP POP POP PUSH2 0x16E JUMP JUMPDEST PUSH0 PUSH0 REVERT JUMPDEST PUSH0 DUP2 SWAP1 POP SWAP2 SWAP1 POP JUMP JUMPDEST PUSH2 0xAF DUP2 PUSH2 0x9D JUMP JUMPDEST DUP2 EQ PUSH2 0xB9 JUMPI PUSH0 PUSH0 REVERT JUMPDEST POP JUMP JUMPDEST PUSH0 DUP2 MLOAD SWAP1 POP PUSH2 0xCA DUP2 PUSH2 0xA6 JUMP JUMPDEST SWAP3 SWAP2 POP POP JUMP JUMPDEST PUSH0 PUSH0 PUSH1 0x40 DUP4 DUP6 SUB SLT ISZERO PUSH2 0xE6 JUMPI PUSH2 0xE5 PUSH2 0x99 JUMP JUMPDEST JUMPDEST PUSH0 PUSH2 0xF3 DUP6 DUP3 DUP7 ADD PUSH2 0xBC JUMP JUMPDEST SWAP3 POP POP PUSH1 0x20 PUSH2 0x104 DUP6 DUP3 DUP7 ADD PUSH2 0xBC JUMP JUMPDEST SWAP2 POP POP SWAP3 POP SWAP3 SWAP1 POP JUMP JUMPDEST PUSH32 0x4E487B7100000000000000000000000000000000000000000000000000000000 PUSH0 MSTORE PUSH1 0x11 PUSH1 0x4 MSTORE PUSH1 0x24 PUSH0 REVERT JUMPDEST PUSH0 PUSH2 0x145 DUP3 PUSH2 0x9D JUMP JUMPDEST SWAP2 POP PUSH2 0x150 DUP4 PUSH2 0x9D JUMP JUMPDEST SWAP3 POP DUP3 DUP3 ADD SWAP1 POP DUP1 DUP3 GT ISZERO PUSH2 0x168 JUMPI PUSH2 0x167 PUSH2 0x10E JUMP JUMPDEST JUMPDEST SWAP3 SWAP2 POP POP JUMP JUMPDEST PUSH2 0x1335 DUP1 PUSH2 0x17B PUSH0 CODECOPY PUSH0 RETURN INVALID PUSH1 0x80 PUSH1 0x40 MSTORE PUSH1 0x4 CALLDATASIZE LT PUSH2 0xE0 JUMPI PUSH0 CALLDATALOAD PUSH1 0xE0 SHR DUP1 PUSH4 0x5C4627E9 GT PUSH2 0x7E JUMPI DUP1 PUSH4 0xB2D5AE44 GT PUSH2 0x58 JUMPI DUP1 PUSH4 0xB2D5AE44 EQ PUSH2 0x2BB JUMPI DUP1 PUSH4 0xC59EE1DC EQ PUSH2 0x2D1 JUMPI DUP1 PUSH4 0xD7BB99BA EQ PUSH2 0x2FB JUMPI DUP1 PUSH4 0xF851A440 EQ PUSH2 0x305 JUMPI PUSH2 0xEF JUMP JUMPDEST DUP1 PUSH4 0x5C4627E9 EQ PUSH2 0x227 JUMPI DUP1 PUSH4 0x81D12C58 EQ PUSH2 0x251 JUMPI DUP1 PUSH4 0x9FB42B1F EQ PUSH2 0x291 JUMPI PUSH2 0xEF JUMP JUMPDEST DUP1 PUSH4 0x29DCB0CF GT PUSH2 0xBA JUMPI DUP1 PUSH4 0x29DCB0CF EQ PUSH2 0x181 JUMPI DUP1 PUSH4 0x40193883 EQ PUSH2 0x1AB JUMPI DUP1 PUSH4 0x4CB6F4A5 EQ PUSH2 0x1D5 JUMPI DUP1 PUSH4 0x4E260F6F EQ PUSH2 0x1FD JUMPI PUSH2 0xEF JUMP JUMPDEST DUP1 PUSH4 0x12065FE0 EQ PUSH2 0xF3 JUMPI DUP1 PUSH4 0x1B16BB5C EQ PUSH2 0x11D JUMPI DUP1 PUSH4 0x1F6D4942 EQ PUSH2 0x145 JUMPI PUSH2 0xEF JUMP JUMPDEST CALLDATASIZE PUSH2 0xEF JUMPI PUSH2 0xED PUSH2 0x32F JUMP JUMPDEST STOP JUMPDEST PUSH0 PUSH0 REVERT JUMPDEST CALLVALUE DUP1 ISZERO PUSH2 0xFE JUMPI PUSH0 PUSH0 REVERT JUMPDEST POP PUSH2 0x107 PUSH2 0x448 JUMP JUMPDEST PUSH1 0x40 MLOAD PUSH2 0x114 SWAP2 SWAP1 PUSH2 0x9B0 JUMP JUMPDEST PUSH1 0x40 MLOAD DUP1 SWAP2 SUB SWAP1 RETURN JUMPDEST CALLVALUE DUP1 ISZERO PUSH2 0x128 JUMPI PUSH0 PUSH0 REVERT JUMPDEST POP PUSH2 0x143 PUSH1 0x4 DUP1 CALLDATASIZE SUB DUP2 ADD SWAP1 PUSH2 0x13E SWAP2 SWAP1 PUSH2 0xB9A JUMP JUMPDEST PUSH2 0x44F JUMP JUMPDEST STOP JUMPDEST CALLVALUE DUP1 ISZERO PUSH2 0x150 JUMPI PUSH0 PUSH0 REVERT JUMPDEST POP PUSH2 0x16B PUSH1 0x4 DUP1 CALLDATASIZE SUB DUP2 ADD SWAP1 PUSH2 0x166 SWAP2 SWAP1 PUSH2 0xC41 JUMP JUMPDEST PUSH2 0x591 JUMP JUMPDEST PUSH1 0x40 MLOAD PUSH2 0x178 SWAP2 SWAP1 PUSH2 0x9B0 JUMP JUMPDEST PUSH1 0x40 MLOAD DUP1 SWAP2 SUB SWAP1 RETURN JUMPDEST CALLVALUE DUP1 ISZERO PUSH2 0x18C JUMPI PUSH0 PUSH0 REVERT JUMPDEST POP PUSH2 0x195 PUSH2 0x5A5 JUMP JUMPDEST PUSH1 0x40 MLOAD PUSH2 0x1A2 SWAP2 SWAP1 PUSH2 0x9B0 JUMP JUMPDEST PUSH1 0x40 MLOAD DUP1 SWAP2 SUB SWAP1 RETURN JUMPDEST CALLVALUE DUP1 ISZERO PUSH2 0x1B6 JUMPI PUSH0 PUSH0 REVERT JUMPDEST POP PUSH2 0x1BF PUSH2 0x5AB JUMP JUMPDEST PUSH1 0x40 MLOAD PUSH2 0x1CC SWAP2 SWAP1 PUSH2 0x9B0 JUMP JUMPDEST PUSH1 0x40 MLOAD DUP1 SWAP2 SUB SWAP1 RETURN JUMPDEST CALLVALUE DUP1 ISZERO PUSH2 0x1E0 JUMPI PUSH0 PUSH0 REVERT JUMPDEST POP PUSH2 0x1FB PUSH1 0x4 DUP1 CALLDATASIZE SUB DUP2 ADD SWAP1 PUSH2 0x1F6 SWAP2 SWAP1 PUSH2 0xC6C JUMP JUMPDEST PUSH2 0x5B1 JUMP JUMPDEST STOP JUMPDEST CALLVALUE DUP1 ISZERO PUSH2 0x208 JUMPI PUSH0 PUSH0 REVERT JUMPDEST POP PUSH2 0x211 PUSH2 0x748 JUMP JUMPDEST PUSH1 0x40 MLOAD PUSH2 0x21E SWAP2 SWAP1 PUSH2 0x9B0 JUMP JUMPDEST PUSH1 0x40 MLOAD DUP1 SWAP2 SUB SWAP1 RETURN JUMPDEST CALLVALUE DUP1 ISZERO PUSH2 0x232 JUMPI PUSH0 PUSH0 REVERT JUMPDEST POP PUSH2 0x23B PUSH2 0x74E JUMP JUMPDEST PUSH1 0x40 MLOAD PUSH2 0x248 SWAP2 SWAP1 PUSH2 0x9B0 JUMP JUMPDEST PUSH1 0x40 MLOAD DUP1 SWAP2 SUB SWAP1 RETURN JUMPDEST CALLVALUE DUP1 ISZERO PUSH2 0x25C JUMPI PUSH0 PUSH0 REVERT JUMPDEST POP PUSH2 0x277 PUSH1 0x4 DUP1 CALLDATASIZE SUB DUP2 ADD SWAP1 PUSH2 0x272 SWAP2 SWAP1 PUSH2 0xC6C JUMP JUMPDEST PUSH2 0x754 JUMP JUMPDEST PUSH1 0x40 MLOAD PUSH2 0x288 SWAP6 SWAP5 SWAP4 SWAP3 SWAP2 SWAP1 PUSH2 0xD20 JUMP JUMPDEST PUSH1 0x40 MLOAD DUP1 SWAP2 SUB SWAP1 RETURN JUMPDEST CALLVALUE DUP1 ISZERO PUSH2 0x29C JUMPI PUSH0 PUSH0 REVERT JUMPDEST POP PUSH2 0x2A5 PUSH2 0x837 JUMP JUMPDEST PUSH1 0x40 MLOAD PUSH2 0x2B2 SWAP2 SWAP1 PUSH2 0x9B0 JUMP JUMPDEST PUSH1 0x40 MLOAD DUP1 SWAP2 SUB SWAP1 RETURN JUMPDEST CALLVALUE DUP1 ISZERO PUSH2 0x2C6 JUMPI PUSH0 PUSH0 REVERT JUMPDEST POP PUSH2 0x2CF PUSH2 0x83D JUMP JUMPDEST STOP JUMPDEST CALLVALUE DUP1 ISZERO PUSH2 0x2DC JUMPI PUSH0 PUSH0 REVERT JUMPDEST POP PUSH2 0x2E5 PUSH2 0x96D JUMP JUMPDEST PUSH1 0x40 MLOAD PUSH2 0x2F2 SWAP2 SWAP1 PUSH2 0x9B0 JUMP JUMPDEST PUSH1 0x40 MLOAD DUP1 SWAP2 SUB SWAP1 RETURN JUMPDEST PUSH2 0x303 PUSH2 0x32F JUMP JUMPDEST STOP JUMPDEST CALLVALUE DUP1 ISZERO PUSH2 0x310 JUMPI PUSH0 PUSH0 REVERT JUMPDEST POP PUSH2 0x319 PUSH2 0x973 JUMP JUMPDEST PUSH1 0x40 MLOAD PUSH2 0x326 SWAP2 SWAP1 PUSH2 0xD87 JUMP JUMPDEST PUSH1 0x40 MLOAD DUP1 SWAP2 SUB SWAP1 RETURN JUMPDEST PUSH1 0x4 SLOAD TIMESTAMP LT PUSH2 0x373 JUMPI PUSH1 0x40 MLOAD PUSH32 0x8C379A000000000000000000000000000000000000000000000000000000000 DUP2 MSTORE PUSH1 0x4 ADD PUSH2 0x36A SWAP1 PUSH2 0xDEA JUMP JUMPDEST PUSH1 0x40 MLOAD DUP1 SWAP2 SUB SWAP1 REVERT JUMPDEST PUSH1 0x3 SLOAD CALLVALUE LT ISZERO PUSH2 0x381 JUMPI PUSH0 PUSH0 REVERT JUMPDEST PUSH0 PUSH0 PUSH0 CALLER PUSH20 0xFFFFFFFFFFFFFFFFFFFFFFFFFFFFFFFFFFFFFFFF AND PUSH20 0xFFFFFFFFFFFFFFFFFFFFFFFFFFFFFFFFFFFFFFFF AND DUP2 MSTORE PUSH1 0x20 ADD SWAP1 DUP2 MSTORE PUSH1 0x20 ADD PUSH0 KECCAK256 SLOAD SUB PUSH2 0x3DC JUMPI PUSH1 0x2 PUSH0 DUP2 SLOAD DUP1 SWAP3 SWAP2 SWAP1 PUSH2 0x3D6 SWAP1 PUSH2 0xE35 JUMP JUMPDEST SWAP2 SWAP1 POP SSTORE POP JUMPDEST CALLVALUE PUSH0 PUSH0 CALLER PUSH20 0xFFFFFFFFFFFFFFFFFFFFFFFFFFFFFFFFFFFFFFFF AND PUSH20 0xFFFFFFFFFFFFFFFFFFFFFFFFFFFFFFFFFFFFFFFF AND DUP2 MSTORE PUSH1 0x20 ADD SWAP1 DUP2 MSTORE PUSH1 0x20 ADD PUSH0 KECCAK256 PUSH0 DUP3 DUP3 SLOAD PUSH2 0x427 SWAP2 SWAP1 PUSH2 0xE7C JUMP JUMPDEST SWAP3 POP POP DUP2 SWAP1 SSTORE POP CALLVALUE PUSH1 0x6 PUSH0 DUP3 DUP3 SLOAD PUSH2 0x43F SWAP2 SWAP1 PUSH2 0xE7C JUMP JUMPDEST SWAP3 POP POP DUP2 SWAP1 SSTORE POP JUMP JUMPDEST PUSH0 SELFBALANCE SWAP1 POP SWAP1 JUMP JUMPDEST PUSH1 0x1 PUSH0 SWAP1 SLOAD SWAP1 PUSH2 0x100 EXP SWAP1 DIV PUSH20 0xFFFFFFFFFFFFFFFFFFFFFFFFFFFFFFFFFFFFFFFF AND PUSH20 0xFFFFFFFFFFFFFFFFFFFFFFFFFFFFFFFFFFFFFFFF AND CALLER PUSH20 0xFFFFFFFFFFFFFFFFFFFFFFFFFFFFFFFFFFFFFFFF AND EQ PUSH2 0x4DE JUMPI PUSH1 0x40 MLOAD PUSH32 0x8C379A000000000000000000000000000000000000000000000000000000000 DUP2 MSTORE PUSH1 0x4 ADD PUSH2 0x4D5 SWAP1 PUSH2 0xF1F JUMP JUMPDEST PUSH1 0x40 MLOAD DUP1 SWAP2 SUB SWAP1 REVERT JUMPDEST PUSH0 PUSH1 0x7 PUSH0 PUSH1 0x8 SLOAD DUP2 MSTORE PUSH1 0x20 ADD SWAP1 DUP2 MSTORE PUSH1 0x20 ADD PUSH0 KECCAK256 SWAP1 POP PUSH1 0x8 PUSH0 DUP2 SLOAD DUP1 SWAP3 SWAP2 SWAP1 PUSH2 0x506 SWAP1 PUSH2 0xE35 JUMP JUMPDEST SWAP2 SWAP1 POP SSTORE POP DUP4 DUP2 PUSH0 ADD SWAP1 DUP2 PUSH2 0x51B SWAP2 SWAP1 PUSH2 0x113A JUMP JUMPDEST POP DUP3 DUP2 PUSH1 0x1 ADD PUSH0 PUSH2 0x100 EXP DUP2 SLOAD DUP2 PUSH20 0xFFFFFFFFFFFFFFFFFFFFFFFFFFFFFFFFFFFFFFFF MUL NOT AND SWAP1 DUP4 PUSH20 0xFFFFFFFFFFFFFFFFFFFFFFFFFFFFFFFFFFFFFFFF AND MUL OR SWAP1 SSTORE POP DUP2 DUP2 PUSH1 0x2 ADD DUP2 SWAP1 SSTORE POP PUSH0 DUP2 PUSH1 0x3 ADD PUSH0 PUSH2 0x100 EXP DUP2 SLOAD DUP2 PUSH1 0xFF MUL NOT AND SWAP1 DUP4 ISZERO ISZERO MUL OR SWAP1 SSTORE POP PUSH0 DUP2 PUSH1 0x4 ADD DUP2 SWAP1 SSTORE POP POP POP POP POP JUMP JUMPDEST PUSH0 PUSH1 0x20 MSTORE DUP1 PUSH0 MSTORE PUSH1 0x40 PUSH0 KECCAK256 PUSH0 SWAP2 POP SWAP1 POP SLOAD DUP2 JUMP JUMPDEST PUSH1 0x4 SLOAD DUP2 JUMP JUMPDEST PUSH1 0x5 SLOAD DUP2 JUMP JUMPDEST PUSH0 PUSH0 PUSH0 CALLER PUSH20 0xFFFFFFFFFFFFFFFFFFFFFFFFFFFFFFFFFFFFFFFF AND PUSH20 0xFFFFFFFFFFFFFFFFFFFFFFFFFFFFFFFFFFFFFFFF AND DUP2 MSTORE PUSH1 0x20 ADD SWAP1 DUP2 MSTORE PUSH1 0x20 ADD PUSH0 KECCAK256 SLOAD GT PUSH2 0x62F JUMPI PUSH1 0x40 MLOAD PUSH32 0x8C379A000000000000000000000000000000000000000000000000000000000 DUP2 MSTORE PUSH1 0x4 ADD PUSH2 0x626 SWAP1 PUSH2 0x1279 JUMP JUMPDEST PUSH1 0x40 MLOAD DUP1 SWAP2 SUB SWAP1 REVERT JUMPDEST PUSH0 PUSH1 0x7 PUSH0 DUP4 DUP2 MSTORE PUSH1 0x20 ADD SWAP1 DUP2 MSTORE PUSH1 0x20 ADD PUSH0 KECCAK256 SWAP1 POP PUSH0 ISZERO ISZERO DUP2 PUSH1 0x5 ADD PUSH0 CALLER PUSH20 0xFFFFFFFFFFFFFFFFFFFFFFFFFFFFFFFFFFFFFFFF AND PUSH20 0xFFFFFFFFFFFFFFFFFFFFFFFFFFFFFFFFFFFFFFFF AND DUP2 MSTORE PUSH1 0x20 ADD SWAP1 DUP2 MSTORE PUSH1 0x20 ADD PUSH0 KECCAK256 PUSH0 SWAP1 SLOAD SWAP1 PUSH2 0x100 EXP SWAP1 DIV PUSH1 0xFF AND ISZERO ISZERO EQ PUSH2 0x6D4 JUMPI PUSH1 0x40 MLOAD PUSH32 0x8C379A000000000000000000000000000000000000000000000000000000000 DUP2 MSTORE PUSH1 0x4 ADD PUSH2 0x6CB SWAP1 PUSH2 0x12E1 JUMP JUMPDEST PUSH1 0x40 MLOAD DUP1 SWAP2 SUB SWAP1 REVERT JUMPDEST PUSH1 0x1 DUP2 PUSH1 0x5 ADD PUSH0 CALLER PUSH20 0xFFFFFFFFFFFFFFFFFFFFFFFFFFFFFFFFFFFFFFFF AND PUSH20 0xFFFFFFFFFFFFFFFFFFFFFFFFFFFFFFFFFFFFFFFF AND DUP2 MSTORE PUSH1 0x20 ADD SWAP1 DUP2 MSTORE PUSH1 0x20 ADD PUSH0 KECCAK256 PUSH0 PUSH2 0x100 EXP DUP2 SLOAD DUP2 PUSH1 0xFF MUL NOT AND SWAP1 DUP4 ISZERO ISZERO MUL OR SWAP1 SSTORE POP DUP1 PUSH1 0x4 ADD PUSH0 DUP2 SLOAD DUP1 SWAP3 SWAP2 SWAP1 PUSH2 0x73F SWAP1 PUSH2 0xE35 JUMP JUMPDEST SWAP2 SWAP1 POP SSTORE POP POP POP JUMP JUMPDEST PUSH1 0x2 SLOAD DUP2 JUMP JUMPDEST PUSH1 0x3 SLOAD DUP2 JUMP JUMPDEST PUSH1 0x7 PUSH1 0x20 MSTORE DUP1 PUSH0 MSTORE PUSH1 0x40 PUSH0 KECCAK256 PUSH0 SWAP2 POP SWAP1 POP DUP1 PUSH0 ADD DUP1 SLOAD PUSH2 0x773 SWAP1 PUSH2 0xF6A JUMP JUMPDEST DUP1 PUSH1 0x1F ADD PUSH1 0x20 DUP1 SWAP2 DIV MUL PUSH1 0x20 ADD PUSH1 0x40 MLOAD SWAP1 DUP2 ADD PUSH1 0x40 MSTORE DUP1 SWAP3 SWAP2 SWAP1 DUP2 DUP2 MSTORE PUSH1 0x20 ADD DUP3 DUP1 SLOAD PUSH2 0x79F SWAP1 PUSH2 0xF6A JUMP JUMPDEST DUP1 ISZERO PUSH2 0x7EA JUMPI DUP1 PUSH1 0x1F LT PUSH2 0x7C1 JUMPI PUSH2 0x100 DUP1 DUP4 SLOAD DIV MUL DUP4 MSTORE SWAP2 PUSH1 0x20 ADD SWAP2 PUSH2 0x7EA JUMP JUMPDEST DUP3 ADD SWAP2 SWAP1 PUSH0 MSTORE PUSH1 0x20 PUSH0 KECCAK256 SWAP1 JUMPDEST DUP2 SLOAD DUP2 MSTORE SWAP1 PUSH1 0x1 ADD SWAP1 PUSH1 0x20 ADD DUP1 DUP4 GT PUSH2 0x7CD JUMPI DUP3 SWAP1 SUB PUSH1 0x1F AND DUP3 ADD SWAP2 JUMPDEST POP POP POP POP POP SWAP1 DUP1 PUSH1 0x1 ADD PUSH0 SWAP1 SLOAD SWAP1 PUSH2 0x100 EXP SWAP1 DIV PUSH20 0xFFFFFFFFFFFFFFFFFFFFFFFFFFFFFFFFFFFFFFFF AND SWAP1 DUP1 PUSH1 0x2 ADD SLOAD SWAP1 DUP1 PUSH1 0x3 ADD PUSH0 SWAP1 SLOAD SWAP1 PUSH2 0x100 EXP SWAP1 DIV PUSH1 0xFF AND SWAP1 DUP1 PUSH1 0x4 ADD SLOAD SWAP1 POP DUP6 JUMP JUMPDEST PUSH1 0x8 SLOAD DUP2 JUMP JUMPDEST PUSH1 0x4 SLOAD TIMESTAMP GT DUP1 ISZERO PUSH2 0x851 JUMPI POP PUSH1 0x5 SLOAD PUSH1 0x6 SLOAD LT JUMPDEST PUSH2 0x859 JUMPI PUSH0 PUSH0 REVERT JUMPDEST PUSH0 PUSH0 PUSH0 CALLER PUSH20 0xFFFFFFFFFFFFFFFFFFFFFFFFFFFFFFFFFFFFFFFF AND PUSH20 0xFFFFFFFFFFFFFFFFFFFFFFFFFFFFFFFFFFFFFFFF AND DUP2 MSTORE PUSH1 0x20 ADD SWAP1 DUP2 MSTORE PUSH1 0x20 ADD PUSH0 KECCAK256 SLOAD GT PUSH2 0x8A0 JUMPI PUSH0 PUSH0 REVERT JUMPDEST PUSH0 CALLER SWAP1 POP PUSH0 PUSH0 PUSH0 CALLER PUSH20 0xFFFFFFFFFFFFFFFFFFFFFFFFFFFFFFFFFFFFFFFF AND PUSH20 0xFFFFFFFFFFFFFFFFFFFFFFFFFFFFFFFFFFFFFFFF AND DUP2 MSTORE PUSH1 0x20 ADD SWAP1 DUP2 MSTORE PUSH1 0x20 ADD PUSH0 KECCAK256 SLOAD SWAP1 POP DUP2 PUSH20 0xFFFFFFFFFFFFFFFFFFFFFFFFFFFFFFFFFFFFFFFF AND PUSH2 0x8FC DUP3 SWAP1 DUP2 ISZERO MUL SWAP1 PUSH1 0x40 MLOAD PUSH0 PUSH1 0x40 MLOAD DUP1 DUP4 SUB DUP2 DUP6 DUP9 DUP9 CALL SWAP4 POP POP POP POP ISZERO DUP1 ISZERO PUSH2 0x927 JUMPI RETURNDATASIZE PUSH0 PUSH0 RETURNDATACOPY RETURNDATASIZE PUSH0 REVERT JUMPDEST POP PUSH0 PUSH0 PUSH0 CALLER PUSH20 0xFFFFFFFFFFFFFFFFFFFFFFFFFFFFFFFFFFFFFFFF AND PUSH20 0xFFFFFFFFFFFFFFFFFFFFFFFFFFFFFFFFFFFFFFFF AND DUP2 MSTORE PUSH1 0x20 ADD SWAP1 DUP2 MSTORE PUSH1 0x20 ADD PUSH0 KECCAK256 DUP2 SWAP1 SSTORE POP POP POP JUMP JUMPDEST PUSH1 0x6 SLOAD DUP2 JUMP JUMPDEST PUSH1 0x1 PUSH0 SWAP1 SLOAD SWAP1 PUSH2 0x100 EXP SWAP1 DIV PUSH20 0xFFFFFFFFFFFFFFFFFFFFFFFFFFFFFFFFFFFFFFFF AND DUP2 JUMP JUMPDEST PUSH0 DUP2 SWAP1 POP SWAP2 SWAP1 POP JUMP JUMPDEST PUSH2 0x9AA DUP2 PUSH2 0x998 JUMP JUMPDEST DUP3 MSTORE POP POP JUMP JUMPDEST PUSH0 PUSH1 0x20 DUP3 ADD SWAP1 POP PUSH2 0x9C3 PUSH0 DUP4 ADD DUP5 PUSH2 0x9A1 JUMP JUMPDEST SWAP3 SWAP2 POP POP JUMP JUMPDEST PUSH0 PUSH1 0x40 MLOAD SWAP1 POP SWAP1 JUMP JUMPDEST PUSH0 PUSH0 REVERT JUMPDEST PUSH0 PUSH0 REVERT JUMPDEST PUSH0 PUSH0 REVERT JUMPDEST PUSH0 PUSH0 REVERT JUMPDEST PUSH0 PUSH1 0x1F NOT PUSH1 0x1F DUP4 ADD AND SWAP1 POP SWAP2 SWAP1 POP JUMP JUMPDEST PUSH32 0x4E487B7100000000000000000000000000000000000000000000000000000000 PUSH0 MSTORE PUSH1 0x41 PUSH1 0x4 MSTORE PUSH1 0x24 PUSH0 REVERT JUMPDEST PUSH2 0xA28 DUP3 PUSH2 0x9E2 JUMP JUMPDEST DUP2 ADD DUP2 DUP2 LT PUSH8 0xFFFFFFFFFFFFFFFF DUP3 GT OR ISZERO PUSH2 0xA47 JUMPI PUSH2 0xA46 PUSH2 0x9F2 JUMP JUMPDEST JUMPDEST DUP1 PUSH1 0x40 MSTORE POP POP POP JUMP JUMPDEST PUSH0 PUSH2 0xA59 PUSH2 0x9C9 JUMP JUMPDEST SWAP1 POP PUSH2 0xA65 DUP3 DUP3 PUSH2 0xA1F JUMP JUMPDEST SWAP2 SWAP1 POP JUMP JUMPDEST PUSH0 PUSH8 0xFFFFFFFFFFFFFFFF DUP3 GT ISZERO PUSH2 0xA84 JUMPI PUSH2 0xA83 PUSH2 0x9F2 JUMP JUMPDEST JUMPDEST PUSH2 0xA8D DUP3 PUSH2 0x9E2 JUMP JUMPDEST SWAP1 POP PUSH1 0x20 DUP2 ADD SWAP1 POP SWAP2 SWAP1 POP JUMP JUMPDEST DUP3 DUP2 DUP4 CALLDATACOPY PUSH0 DUP4 DUP4 ADD MSTORE POP POP POP JUMP JUMPDEST PUSH0 PUSH2 0xABA PUSH2 0xAB5 DUP5 PUSH2 0xA6A JUMP JUMPDEST PUSH2 0xA50 JUMP JUMPDEST SWAP1 POP DUP3 DUP2 MSTORE PUSH1 0x20 DUP2 ADD DUP5 DUP5 DUP5 ADD GT ISZERO PUSH2 0xAD6 JUMPI PUSH2 0xAD5 PUSH2 0x9DE JUMP JUMPDEST JUMPDEST PUSH2 0xAE1 DUP5 DUP3 DUP6 PUSH2 0xA9A JUMP JUMPDEST POP SWAP4 SWAP3 POP POP POP JUMP JUMPDEST PUSH0 DUP3 PUSH1 0x1F DUP4 ADD SLT PUSH2 0xAFD JUMPI PUSH2 0xAFC PUSH2 0x9DA JUMP JUMPDEST JUMPDEST DUP2 CALLDATALOAD PUSH2 0xB0D DUP5 DUP3 PUSH1 0x20 DUP7 ADD PUSH2 0xAA8 JUMP JUMPDEST SWAP2 POP POP SWAP3 SWAP2 POP POP JUMP JUMPDEST PUSH0 PUSH20 0xFFFFFFFFFFFFFFFFFFFFFFFFFFFFFFFFFFFFFFFF DUP3 AND SWAP1 POP SWAP2 SWAP1 POP JUMP JUMPDEST PUSH0 PUSH2 0xB3F DUP3 PUSH2 0xB16 JUMP JUMPDEST SWAP1 POP SWAP2 SWAP1 POP JUMP JUMPDEST PUSH2 0xB4F DUP2 PUSH2 0xB35 JUMP JUMPDEST DUP2 EQ PUSH2 0xB59 JUMPI PUSH0 PUSH0 REVERT JUMPDEST POP JUMP JUMPDEST PUSH0 DUP2 CALLDATALOAD SWAP1 POP PUSH2 0xB6A DUP2 PUSH2 0xB46 JUMP JUMPDEST SWAP3 SWAP2 POP POP JUMP JUMPDEST PUSH2 0xB79 DUP2 PUSH2 0x998 JUMP JUMPDEST DUP2 EQ PUSH2 0xB83 JUMPI PUSH0 PUSH0 REVERT JUMPDEST POP JUMP JUMPDEST PUSH0 DUP2 CALLDATALOAD SWAP1 POP PUSH2 0xB94 DUP2 PUSH2 0xB70 JUMP JUMPDEST SWAP3 SWAP2 POP POP JUMP JUMPDEST PUSH0 PUSH0 PUSH0 PUSH1 0x60 DUP5 DUP7 SUB SLT ISZERO PUSH2 0xBB1 JUMPI PUSH2 0xBB0 PUSH2 0x9D2 JUMP JUMPDEST JUMPDEST PUSH0 DUP5 ADD CALLDATALOAD PUSH8 0xFFFFFFFFFFFFFFFF DUP2 GT ISZERO PUSH2 0xBCE JUMPI PUSH2 0xBCD PUSH2 0x9D6 JUMP JUMPDEST JUMPDEST PUSH2 0xBDA DUP7 DUP3 DUP8 ADD PUSH2 0xAE9 JUMP JUMPDEST SWAP4 POP POP PUSH1 0x20 PUSH2 0xBEB DUP7 DUP3 DUP8 ADD PUSH2 0xB5C JUMP JUMPDEST SWAP3 POP POP PUSH1 0x40 PUSH2 0xBFC DUP7 DUP3 DUP8 ADD PUSH2 0xB86 JUMP JUMPDEST SWAP2 POP POP SWAP3 POP SWAP3 POP SWAP3 JUMP JUMPDEST PUSH0 PUSH2 0xC10 DUP3 PUSH2 0xB16 JUMP JUMPDEST SWAP1 POP SWAP2 SWAP1 POP JUMP JUMPDEST PUSH2 0xC20 DUP2 PUSH2 0xC06 JUMP JUMPDEST DUP2 EQ PUSH2 0xC2A JUMPI PUSH0 PUSH0 REVERT JUMPDEST POP JUMP JUMPDEST PUSH0 DUP2 CALLDATALOAD SWAP1 POP PUSH2 0xC3B DUP2 PUSH2 0xC17 JUMP JUMPDEST SWAP3 SWAP2 POP POP JUMP JUMPDEST PUSH0 PUSH1 0x20 DUP3 DUP5 SUB SLT ISZERO PUSH2 0xC56 JUMPI PUSH2 0xC55 PUSH2 0x9D2 JUMP JUMPDEST JUMPDEST PUSH0 PUSH2 0xC63 DUP5 DUP3 DUP6 ADD PUSH2 0xC2D JUMP JUMPDEST SWAP2 POP POP SWAP3 SWAP2 POP POP JUMP JUMPDEST PUSH0 PUSH1 0x20 DUP3 DUP5 SUB SLT ISZERO PUSH2 0xC81 JUMPI PUSH2 0xC80 PUSH2 0x9D2 JUMP JUMPDEST JUMPDEST PUSH0 PUSH2 0xC8E DUP5 DUP3 DUP6 ADD PUSH2 0xB86 JUMP JUMPDEST SWAP2 POP POP SWAP3 SWAP2 POP POP JUMP JUMPDEST PUSH0 DUP2 MLOAD SWAP1 POP SWAP2 SWAP1 POP JUMP JUMPDEST PUSH0 DUP3 DUP3 MSTORE PUSH1 0x20 DUP3 ADD SWAP1 POP SWAP3 SWAP2 POP POP JUMP JUMPDEST DUP3 DUP2 DUP4 MCOPY PUSH0 DUP4 DUP4 ADD MSTORE POP POP POP JUMP JUMPDEST PUSH0 PUSH2 0xCC9 DUP3 PUSH2 0xC97 JUMP JUMPDEST PUSH2 0xCD3 DUP2 DUP6 PUSH2 0xCA1 JUMP JUMPDEST SWAP4 POP PUSH2 0xCE3 DUP2 DUP6 PUSH1 0x20 DUP7 ADD PUSH2 0xCB1 JUMP JUMPDEST PUSH2 0xCEC DUP2 PUSH2 0x9E2 JUMP JUMPDEST DUP5 ADD SWAP2 POP POP SWAP3 SWAP2 POP POP JUMP JUMPDEST PUSH2 0xD00 DUP2 PUSH2 0xB35 JUMP JUMPDEST DUP3 MSTORE POP POP JUMP JUMPDEST PUSH0 DUP2 ISZERO ISZERO SWAP1 POP SWAP2 SWAP1 POP JUMP JUMPDEST PUSH2 0xD1A DUP2 PUSH2 0xD06 JUMP JUMPDEST DUP3 MSTORE POP POP JUMP JUMPDEST PUSH0 PUSH1 0xA0 DUP3 ADD SWAP1 POP DUP2 DUP2 SUB PUSH0 DUP4 ADD MSTORE PUSH2 0xD38 DUP2 DUP9 PUSH2 0xCBF JUMP JUMPDEST SWAP1 POP PUSH2 0xD47 PUSH1 0x20 DUP4 ADD DUP8 PUSH2 0xCF7 JUMP JUMPDEST PUSH2 0xD54 PUSH1 0x40 DUP4 ADD DUP7 PUSH2 0x9A1 JUMP JUMPDEST PUSH2 0xD61 PUSH1 0x60 DUP4 ADD DUP6 PUSH2 0xD11 JUMP JUMPDEST PUSH2 0xD6E PUSH1 0x80 DUP4 ADD DUP5 PUSH2 0x9A1 JUMP JUMPDEST SWAP7 SWAP6 POP POP POP POP POP POP JUMP JUMPDEST PUSH2 0xD81 DUP2 PUSH2 0xC06 JUMP JUMPDEST DUP3 MSTORE POP POP JUMP JUMPDEST PUSH0 PUSH1 0x20 DUP3 ADD SWAP1 POP PUSH2 0xD9A PUSH0 DUP4 ADD DUP5 PUSH2 0xD78 JUMP JUMPDEST SWAP3 SWAP2 POP POP JUMP JUMPDEST PUSH32 0x446561646C696E65206861732070617373656421000000000000000000000000 PUSH0 DUP3 ADD MSTORE POP JUMP JUMPDEST PUSH0 PUSH2 0xDD4 PUSH1 0x14 DUP4 PUSH2 0xCA1 JUMP JUMPDEST SWAP2 POP PUSH2 0xDDF DUP3 PUSH2 0xDA0 JUMP JUMPDEST PUSH1 0x20 DUP3 ADD SWAP1 POP SWAP2 SWAP1 POP JUMP JUMPDEST PUSH0 PUSH1 0x20 DUP3 ADD SWAP1 POP DUP2 DUP2 SUB PUSH0 DUP4 ADD MSTORE PUSH2 0xE01 DUP2 PUSH2 0xDC8 JUMP JUMPDEST SWAP1 POP SWAP2 SWAP1 POP JUMP JUMPDEST PUSH32 0x4E487B7100000000000000000000000000000000000000000000000000000000 PUSH0 MSTORE PUSH1 0x11 PUSH1 0x4 MSTORE PUSH1 0x24 PUSH0 REVERT JUMPDEST PUSH0 PUSH2 0xE3F DUP3 PUSH2 0x998 JUMP JUMPDEST SWAP2 POP PUSH32 0xFFFFFFFFFFFFFFFFFFFFFFFFFFFFFFFFFFFFFFFFFFFFFFFFFFFFFFFFFFFFFFFF DUP3 SUB PUSH2 0xE71 JUMPI PUSH2 0xE70 PUSH2 0xE08 JUMP JUMPDEST JUMPDEST PUSH1 0x1 DUP3 ADD SWAP1 POP SWAP2 SWAP1 POP JUMP JUMPDEST PUSH0 PUSH2 0xE86 DUP3 PUSH2 0x998 JUMP JUMPDEST SWAP2 POP PUSH2 0xE91 DUP4 PUSH2 0x998 JUMP JUMPDEST SWAP3 POP DUP3 DUP3 ADD SWAP1 POP DUP1 DUP3 GT ISZERO PUSH2 0xEA9 JUMPI PUSH2 0xEA8 PUSH2 0xE08 JUMP JUMPDEST JUMPDEST SWAP3 SWAP2 POP POP JUMP JUMPDEST PUSH32 0x4F6E6C792061646D696E2063616E2063616C6C20746869732066756E6374696F PUSH0 DUP3 ADD MSTORE PUSH32 0x6E21000000000000000000000000000000000000000000000000000000000000 PUSH1 0x20 DUP3 ADD MSTORE POP JUMP JUMPDEST PUSH0 PUSH2 0xF09 PUSH1 0x22 DUP4 PUSH2 0xCA1 JUMP JUMPDEST SWAP2 POP PUSH2 0xF14 DUP3 PUSH2 0xEAF JUMP JUMPDEST PUSH1 0x40 DUP3 ADD SWAP1 POP SWAP2 SWAP1 POP JUMP JUMPDEST PUSH0 PUSH1 0x20 DUP3 ADD SWAP1 POP DUP2 DUP2 SUB PUSH0 DUP4 ADD MSTORE PUSH2 0xF36 DUP2 PUSH2 0xEFD JUMP JUMPDEST SWAP1 POP SWAP2 SWAP1 POP JUMP JUMPDEST PUSH32 0x4E487B7100000000000000000000000000000000000000000000000000000000 PUSH0 MSTORE PUSH1 0x22 PUSH1 0x4 MSTORE PUSH1 0x24 PUSH0 REVERT JUMPDEST PUSH0 PUSH1 0x2 DUP3 DIV SWAP1 POP PUSH1 0x1 DUP3 AND DUP1 PUSH2 0xF81 JUMPI PUSH1 0x7F DUP3 AND SWAP2 POP JUMPDEST PUSH1 0x20 DUP3 LT DUP2 SUB PUSH2 0xF94 JUMPI PUSH2 0xF93 PUSH2 0xF3D JUMP JUMPDEST JUMPDEST POP SWAP2 SWAP1 POP JUMP JUMPDEST PUSH0 DUP2 SWAP1 POP DUP2 PUSH0 MSTORE PUSH1 0x20 PUSH0 KECCAK256 SWAP1 POP SWAP2 SWAP1 POP JUMP JUMPDEST PUSH0 PUSH1 0x20 PUSH1 0x1F DUP4 ADD DIV SWAP1 POP SWAP2 SWAP1 POP JUMP JUMPDEST PUSH0 DUP3 DUP3 SHL SWAP1 POP SWAP3 SWAP2 POP POP JUMP JUMPDEST PUSH0 PUSH1 0x8 DUP4 MUL PUSH2 0xFF6 PUSH32 0xFFFFFFFFFFFFFFFFFFFFFFFFFFFFFFFFFFFFFFFFFFFFFFFFFFFFFFFFFFFFFFFF DUP3 PUSH2 0xFBB JUMP JUMPDEST PUSH2 0x1000 DUP7 DUP4 PUSH2 0xFBB JUMP JUMPDEST SWAP6 POP DUP1 NOT DUP5 AND SWAP4 POP DUP1 DUP7 AND DUP5 OR SWAP3 POP POP POP SWAP4 SWAP3 POP POP POP JUMP JUMPDEST PUSH0 DUP2 SWAP1 POP SWAP2 SWAP1 POP JUMP JUMPDEST PUSH0 PUSH2 0x103B PUSH2 0x1036 PUSH2 0x1031 DUP5 PUSH2 0x998 JUMP JUMPDEST PUSH2 0x1018 JUMP JUMPDEST PUSH2 0x998 JUMP JUMPDEST SWAP1 POP SWAP2 SWAP1 POP JUMP JUMPDEST PUSH0 DUP2 SWAP1 POP SWAP2 SWAP1 POP JUMP JUMPDEST PUSH2 0x1054 DUP4 PUSH2 0x1021 JUMP JUMPDEST PUSH2 0x1068 PUSH2 0x1060 DUP3 PUSH2 0x1042 JUMP JUMPDEST DUP5 DUP5 SLOAD PUSH2 0xFC7 JUMP JUMPDEST DUP3 SSTORE POP POP POP POP JUMP JUMPDEST PUSH0 PUSH0 SWAP1 POP SWAP1 JUMP JUMPDEST PUSH2 0x107F PUSH2 0x1070 JUMP JUMPDEST PUSH2 0x108A DUP2 DUP5 DUP5 PUSH2 0x104B JUMP JUMPDEST POP POP POP JUMP JUMPDEST JUMPDEST DUP2 DUP2 LT ISZERO PUSH2 0x10AD JUMPI PUSH2 0x10A2 PUSH0 DUP3 PUSH2 0x1077 JUMP JUMPDEST PUSH1 0x1 DUP2 ADD SWAP1 POP PUSH2 0x1090 JUMP JUMPDEST POP POP JUMP JUMPDEST PUSH1 0x1F DUP3 GT ISZERO PUSH2 0x10F2 JUMPI PUSH2 0x10C3 DUP2 PUSH2 0xF9A JUMP JUMPDEST PUSH2 0x10CC DUP5 PUSH2 0xFAC JUMP JUMPDEST DUP2 ADD PUSH1 0x20 DUP6 LT ISZERO PUSH2 0x10DB JUMPI DUP2 SWAP1 POP JUMPDEST PUSH2 0x10EF PUSH2 0x10E7 DUP6 PUSH2 0xFAC JUMP JUMPDEST DUP4 ADD DUP3 PUSH2 0x108F JUMP JUMPDEST POP POP JUMPDEST POP POP POP JUMP JUMPDEST PUSH0 DUP3 DUP3 SHR SWAP1 POP SWAP3 SWAP2 POP POP JUMP JUMPDEST PUSH0 PUSH2 0x1112 PUSH0 NOT DUP5 PUSH1 0x8 MUL PUSH2 0x10F7 JUMP JUMPDEST NOT DUP1 DUP4 AND SWAP2 POP POP SWAP3 SWAP2 POP POP JUMP JUMPDEST PUSH0 PUSH2 0x112A DUP4 DUP4 PUSH2 0x1103 JUMP JUMPDEST SWAP2 POP DUP3 PUSH1 0x2 MUL DUP3 OR SWAP1 POP SWAP3 SWAP2 POP POP JUMP JUMPDEST PUSH2 0x1143 DUP3 PUSH2 0xC97 JUMP JUMPDEST PUSH8 0xFFFFFFFFFFFFFFFF DUP2 GT ISZERO PUSH2 0x115C JUMPI PUSH2 0x115B PUSH2 0x9F2 JUMP JUMPDEST JUMPDEST PUSH2 0x1166 DUP3 SLOAD PUSH2 0xF6A JUMP JUMPDEST PUSH2 0x1171 DUP3 DUP3 DUP6 PUSH2 0x10B1 JUMP JUMPDEST PUSH0 PUSH1 0x20 SWAP1 POP PUSH1 0x1F DUP4 GT PUSH1 0x1 DUP2 EQ PUSH2 0x11A2 JUMPI PUSH0 DUP5 ISZERO PUSH2 0x1190 JUMPI DUP3 DUP8 ADD MLOAD SWAP1 POP JUMPDEST PUSH2 0x119A DUP6 DUP3 PUSH2 0x111F JUMP JUMPDEST DUP7 SSTORE POP PUSH2 0x1201 JUMP JUMPDEST PUSH1 0x1F NOT DUP5 AND PUSH2 0x11B0 DUP7 PUSH2 0xF9A JUMP JUMPDEST PUSH0 JUMPDEST DUP3 DUP2 LT ISZERO PUSH2 0x11D7 JUMPI DUP5 DUP10 ADD MLOAD DUP3 SSTORE PUSH1 0x1 DUP3 ADD SWAP2 POP PUSH1 0x20 DUP6 ADD SWAP5 POP PUSH1 0x20 DUP2 ADD SWAP1 POP PUSH2 0x11B2 JUMP JUMPDEST DUP7 DUP4 LT ISZERO PUSH2 0x11F4 JUMPI DUP5 DUP10 ADD MLOAD PUSH2 0x11F0 PUSH1 0x1F DUP10 AND DUP3 PUSH2 0x1103 JUMP JUMPDEST DUP4 SSTORE POP JUMPDEST PUSH1 0x1 PUSH1 0x2 DUP9 MUL ADD DUP9 SSTORE POP POP POP JUMPDEST POP POP POP POP POP POP JUMP JUMPDEST PUSH32 0x596F75206D75737420746F206265206120636F6E7472696275746F7220746F20 PUSH0 DUP3 ADD MSTORE PUSH32 0x766F746521000000000000000000000000000000000000000000000000000000 PUSH1 0x20 DUP3 ADD MSTORE POP JUMP JUMPDEST PUSH0 PUSH2 0x1263 PUSH1 0x25 DUP4 PUSH2 0xCA1 JUMP JUMPDEST SWAP2 POP PUSH2 0x126E DUP3 PUSH2 0x1209 JUMP JUMPDEST PUSH1 0x40 DUP3 ADD SWAP1 POP SWAP2 SWAP1 POP JUMP JUMPDEST PUSH0 PUSH1 0x20 DUP3 ADD SWAP1 POP DUP2 DUP2 SUB PUSH0 DUP4 ADD MSTORE PUSH2 0x1290 DUP2 PUSH2 0x1257 JUMP JUMPDEST SWAP1 POP SWAP2 SWAP1 POP JUMP JUMPDEST PUSH32 0x596F75206861766520616C726561647920766F74656421000000000000000000 PUSH0 DUP3 ADD MSTORE POP JUMP JUMPDEST PUSH0 PUSH2 0x12CB PUSH1 0x17 DUP4 PUSH2 0xCA1 JUMP JUMPDEST SWAP2 POP PUSH2 0x12D6 DUP3 PUSH2 0x1297 JUMP JUMPDEST PUSH1 0x20 DUP3 ADD SWAP1 POP SWAP2 SWAP1 POP JUMP JUMPDEST PUSH0 PUSH1 0x20 DUP3 ADD SWAP1 POP DUP2 DUP2 SUB PUSH0 DUP4 ADD MSTORE PUSH2 0x12F8 DUP2 PUSH2 0x12BF JUMP JUMPDEST SWAP1 POP SWAP2 SWAP1 POP JUMP INVALID LOG2 PUSH5 0x6970667358 0x22 SLT KECCAK256 0xBE PUSH14 0xA7F0A30D2B6792FCFA865F958FFE DUP1 PUSH22 0x6F0512360499B22BC83B3C86C54864736F6C63430008 SHR STOP CALLER "
				},
				"gasEstimates": {
					"creation": {
						"codeDepositCost": "983400",
						"executionCost": "infinite",
						"totalCost": "infinite"
					},
					"external": {
						"admin()": "2596",
						"contribute()": "infinite",
						"contributors(address)": "2869",
						"createRequest(string,address,uint256)": "infinite",
						"deadline()": "2448",
						"getBalance()": "358",
						"getRefund()": "infinite",
						"goal()": "2470",
						"minimumContributor()": "2448",
						"noOfContributors()": "2514",
						"numRequests()": "2492",
						"raisedAmount()": "2469",
						"requests(uint256)": "infinite",
						"voteRequest(uint256)": "infinite"
					}
				},
				"methodIdentifiers": {
					"admin()": "f851a440",
					"contribute()": "d7bb99ba",
					"contributors(address)": "1f6d4942",
					"createRequest(string,address,uint256)": "1b16bb5c",
					"deadline()": "29dcb0cf",
					"getBalance()": "12065fe0",
					"getRefund()": "b2d5ae44",
					"goal()": "40193883",
					"minimumContributor()": "5c4627e9",
					"noOfContributors()": "4e260f6f",
					"numRequests()": "9fb42b1f",
					"raisedAmount()": "c59ee1dc",
					"requests(uint256)": "81d12c58",
					"voteRequest(uint256)": "4cb6f4a5"
				}
			},
			"storageLayout": {
				"storage": [
					{
						"astId": 5,
						"contract": "src/crowdfunding.sol:CrowdFunding",
						"label": "contributors",
						"offset": 0,
						"slot": "0",
						"type": "t_mapping(t_address,t_uint256)"
					},
					{
						"astId": 7,
						"contract": "src/crowdfunding.sol:CrowdFunding",
						"label": "admin",
						"offset": 0,
						"slot": "1",
						"type": "t_address"
					},
					{
						"astId": 9,
						"contract": "src/crowdfunding.sol:CrowdFunding",
						"label": "noOfContributors",
						"offset": 0,
						"slot": "2",
						"type": "t_uint256"
					},
					{
						"astId": 11,
						"contract": "src/crowdfunding.sol:CrowdFunding",
						"label": "minimumContributor",
						"offset": 0,
						"slot": "3",
						"type": "t_uint256"
					},
					{
						"astId": 13,
						"contract": "src/crowdfunding.sol:CrowdFunding",
						"label": "deadline",
						"offset": 0,
						"slot": "4",
						"type": "t_uint256"
					},
					{
						"astId": 15,
						"contract": "src/crowdfunding.sol:CrowdFunding",
						"label": "goal",
						"offset": 0,
						"slot": "5",
						"type": "t_uint256"
					},
					{
						"astId": 17,
						"contract": "src/crowdfunding.sol:CrowdFunding",
						"label": "raisedAmount",
						"offset": 0,
						"slot": "6",
						"type": "t_uint256"
					},
					{
						"astId": 37,
						"contract": "src/crowdfunding.sol:CrowdFunding",
						"label": "requests",
						"offset": 0,
						"slot": "7",
						"type": "t_mapping(t_uint256,t_struct(Request)32_storage)"
					},
					{
						"astId": 39,
						"contract": "src/crowdfunding.sol:CrowdFunding",
						"label": "numRequests",
						"offset": 0,
						"slot": "8",
						"type": "t_uint256"
					}
				],
				"types": {
					"t_address": {
						"encoding": "inplace",
						"label": "address",
						"numberOfBytes": "20"
					},
					"t_address_payable": {
						"encoding": "inplace",
						"label": "address payable",
						"numberOfBytes": "20"
					},
					"t_bool": {
						"encoding": "inplace",
						"label": "bool",
						"numberOfBytes": "1"
					},
					"t_mapping(t_address,t_bool)": {
						"encoding": "mapping",
						"key": "t_address",
						"label": "mapping(address => bool)",
						"numberOfBytes": "32",
						"value": "t_bool"
					},
					"t_mapping(t_address,t_uint256)": {
						"encoding": "mapping",
						"key": "t_address",
						"label": "mapping(address => uint256)",
						"numberOfBytes": "32",
						"value": "t_uint256"
					},
					"t_mapping(t_uint256,t_struct(Request)32_storage)": {
						"encoding": "mapping",
						"key": "t_uint256",
						"label": "mapping(uint256 => struct CrowdFunding.Request)",
						"numberOfBytes": "32",
						"value": "t_struct(Request)32_storage"
					},
					"t_string_storage": {
						"encoding": "bytes",
						"label": "string",
						"numberOfBytes": "32"
					},
					"t_struct(Request)32_storage": {
						"encoding": "inplace",
						"label": "struct CrowdFunding.Request",
						"members": [
							{
								"astId": 19,
								"contract": "src/crowdfunding.sol:CrowdFunding",
								"label": "description",
								"offset": 0,
								"slot": "0",
								"type": "t_string_storage"
							},
							{
								"astId": 21,
								"contract": "src/crowdfunding.sol:CrowdFunding",
								"label": "recipient",
								"offset": 0,
								"slot": "1",
								"type": "t_address_payable"
							},
							{
								"astId": 23,
								"contract": "src/crowdfunding.sol:CrowdFunding",
								"label": "value",
								"offset": 0,
								"slot": "2",
								"type": "t_uint256"
							},
							{
								"astId": 25,
								"contract": "src/crowdfunding.sol:CrowdFunding",
								"label": "completed",
								"offset": 0,
								"slot": "3",
								"type": "t_bool"
							},
							{
								"astId": 27,
								"contract": "src/crowdfunding.sol:CrowdFunding",
								"label": "noOfVoters",
								"offset": 0,
								"slot": "4",
								"type": "t_uint256"
							},
							{
								"astId": 31,
								"contract": "src/crowdfunding.sol:CrowdFunding",
								"label": "voters",
								"offset": 0,
								"slot": "5",
								"type": "t_mapping(t_address,t_bool)"
							}
						],
						"numberOfBytes": "192"
					},
					"t_uint256": {
						"encoding": "inplace",
						"label": "uint256",
						"numberOfBytes": "32"
					}
				}
			},
			"userdoc": {
				"kind": "user",
				"methods": {},
				"version": 1
			}
		}
	}
}